{
	"data": {
		"bytecode": {
			"linkReferences": {},
			"object": "60a06040523073ffffffffffffffffffffffffffffffffffffffff1660809073ffffffffffffffffffffffffffffffffffffffff168152505f60015f6101000a81548160ff0219169083151502179055505f6001806101000a81548160ff021916908315150217905550348015610074575f80fd5b5061008361008860201b60201c565b6101e8565b5f61009761018660201b60201c565b9050805f0160089054906101000a900460ff16156100e1576040517ff92ee8a900000000000000000000000000000000000000000000000000000000815260040160405180910390fd5b67ffffffffffffffff8016815f015f9054906101000a900467ffffffffffffffff1667ffffffffffffffff16146101835767ffffffffffffffff815f015f6101000a81548167ffffffffffffffff021916908367ffffffffffffffff1602179055507fc7f505b2f371ae2175ee4913f4499e1f2633a7b5936321eed1cdaeb6115181d267ffffffffffffffff60405161017a91906101cf565b60405180910390a15b50565b5f7ff0c57e16840df040f15088dc2f81fe391c3923bec73e23a9662efc9c229c6a00905090565b5f67ffffffffffffffff82169050919050565b6101c9816101ad565b82525050565b5f6020820190506101e25f8301846101c0565b92915050565b60805161463061020e5f395f8181611a5d01528181611ab20152611c6c01526146305ff3fe608060405260043610610224575f3560e01c806352d1902d11610122578063a22cb465116100aa578063c87b56dd1161006e578063c87b56dd14610770578063e985e9c5146107ac578063eba8dabc146107e8578063f2fde38b14610810578063f8a8fd6d1461083857610224565b8063a22cb465146106a4578063ad3cb1cc146106cc578063b88d4fde146106f6578063bcc9ca5b1461071e578063c4d66de81461074857610224565b806370a08231116100f157806370a08231146105e8578063715018a6146106245780638456cb591461063a5780638da5cb5b1461065057806395d89b411461067a57610224565b806352d1902d146105305780635c975abb1461055a5780636352211e146105845780636447c35d146105c057610224565b80632848aeaf116101b057806342842e0e1161017457806342842e0e1461046057806342966c68146104885780634f1ef286146104b05780634f6ccce7146104cc57806351cff8d91461050857610224565b80632848aeaf146103825780632f48de79146103be5780632f745c59146103e657806331f59102146104225780633f4ba83a1461044a57610224565b8063095ea7b3116101f7578063095ea7b3146102f4578063102a6a731461031c57806318160ddd1461032657806323b872dd1461035057806326092b831461037857610224565b806301ffc9a71461022857806306fdde0314610264578063081812fc1461028e578063085c9bac146102ca575b5f80fd5b348015610233575f80fd5b5061024e600480360381019061024991906135cb565b610862565b60405161025b9190613610565b60405180910390f35b34801561026f575f80fd5b50610278610873565b6040516102859190613699565b60405180910390f35b348015610299575f80fd5b506102b460048036038101906102af91906136ec565b610910565b6040516102c19190613756565b60405180910390f35b3480156102d5575f80fd5b506102de61092b565b6040516102eb9190613610565b60405180910390f35b3480156102ff575f80fd5b5061031a60048036038101906103159190613799565b61093c565b005b610324610952565b005b348015610331575f80fd5b5061033a610a7a565b60405161034791906137e6565b60405180910390f35b34801561035b575f80fd5b50610376600480360381019061037191906137ff565b610a94565b005b610380610b93565b005b34801561038d575f80fd5b506103a860048036038101906103a3919061384f565b610c34565b6040516103b59190613610565b60405180910390f35b3480156103c9575f80fd5b506103e460048036038101906103df91906138a4565b610c51565b005b3480156103f1575f80fd5b5061040c60048036038101906104079190613799565b610c8f565b60405161041991906137e6565b60405180910390f35b34801561042d575f80fd5b506104486004803603810190610443919061384f565b610d40565b005b348015610455575f80fd5b5061045e610e32565b005b34801561046b575f80fd5b50610486600480360381019061048191906137ff565b610e44565b005b348015610493575f80fd5b506104ae60048036038101906104a991906136ec565b610e63565b005b6104ca60048036038101906104c59190613a0e565b610e79565b005b3480156104d7575f80fd5b506104f260048036038101906104ed91906136ec565b610e98565b6040516104ff91906137e6565b60405180910390f35b348015610513575f80fd5b5061052e6004803603810190610529919061384f565b610f18565b005b34801561053b575f80fd5b50610544610f6c565b6040516105519190613a80565b60405180910390f35b348015610565575f80fd5b5061056e610f9d565b60405161057b9190613610565b60405180910390f35b34801561058f575f80fd5b506105aa60048036038101906105a591906136ec565b610fbf565b6040516105b79190613756565b60405180910390f35b3480156105cb575f80fd5b506105e660048036038101906105e19190613af6565b610fd0565b005b3480156105f3575f80fd5b5061060e6004803603810190610609919061384f565b611073565b60405161061b91906137e6565b60405180910390f35b34801561062f575f80fd5b50610638611137565b005b348015610645575f80fd5b5061064e61114a565b005b34801561065b575f80fd5b5061066461115c565b6040516106719190613756565b60405180910390f35b348015610685575f80fd5b5061068e611191565b60405161069b9190613699565b60405180910390f35b3480156106af575f80fd5b506106ca60048036038101906106c59190613b41565b61122f565b005b3480156106d7575f80fd5b506106e0611245565b6040516106ed9190613699565b60405180910390f35b348015610701575f80fd5b5061071c60048036038101906107179190613b7f565b61127e565b005b348015610729575f80fd5b506107326112a3565b60405161073f9190613610565b60405180910390f35b348015610753575f80fd5b5061076e6004803603810190610769919061384f565b6112b5565b005b34801561077b575f80fd5b50610796600480360381019061079191906136ec565b6114ca565b6040516107a39190613699565b60405180910390f35b3480156107b7575f80fd5b506107d260048036038101906107cd9190613bff565b611530565b6040516107df9190613610565b60405180910390f35b3480156107f3575f80fd5b5061080e6004803603810190610809919061384f565b6115cc565b005b34801561081b575f80fd5b506108366004803603810190610831919061384f565b6116be565b005b348015610843575f80fd5b5061084c611742565b6040516108599190613699565b60405180910390f35b5f61086c8261177f565b9050919050565b60605f61087e6117f8565b9050805f01805461088e90613c6a565b80601f01602080910402602001604051908101604052809291908181526020018280546108ba90613c6a565b80156109055780601f106108dc57610100808354040283529160200191610905565b820191905f5260205f20905b8154815290600101906020018083116108e857829003601f168201915b505050505091505090565b5f61091a8261181f565b50610924826118a5565b9050919050565b60018054906101000a900460ff1681565b61094e82826109496118ec565b6118f3565b5050565b60018054906101000a900460ff1661099f576040517f08c379a000000000000000000000000000000000000000000000000000000000815260040161099690613ce4565b60405180910390fd5b60025f3373ffffffffffffffffffffffffffffffffffffffff1673ffffffffffffffffffffffffffffffffffffffff1681526020019081526020015f205f9054906101000a900460ff16610a28576040517f08c379a0000000000000000000000000000000000000000000000000000000008152600401610a1f90613d4c565b60405180910390fd5b655af3107a40003414610a70576040517f08c379a0000000000000000000000000000000000000000000000000000000008152600401610a6790613db4565b60405180910390fd5b610a78611905565b565b5f80610a8461192a565b9050806002018054905091505090565b5f73ffffffffffffffffffffffffffffffffffffffff168273ffffffffffffffffffffffffffffffffffffffff1603610b04575f6040517f64a0ae92000000000000000000000000000000000000000000000000000000008152600401610afb9190613756565b60405180910390fd5b5f610b178383610b126118ec565b611951565b90508373ffffffffffffffffffffffffffffffffffffffff168173ffffffffffffffffffffffffffffffffffffffff1614610b8d578382826040517f64283d7b000000000000000000000000000000000000000000000000000000008152600401610b8493929190613dd2565b60405180910390fd5b50505050565b60015f9054906101000a900460ff16610be1576040517f08c379a0000000000000000000000000000000000000000000000000000000008152600401610bd890613e51565b60405180910390fd5b66038d7ea4c680003414610c2a576040517f08c379a0000000000000000000000000000000000000000000000000000000008152600401610c2190613eb9565b60405180910390fd5b610c32611905565b565b6002602052805f5260405f205f915054906101000a900460ff1681565b610c59611966565b806001806101000a81548160ff0219169083151502179055508160015f6101000a81548160ff0219169083151502179055505050565b5f80610c9961192a565b9050610ca484611073565b8310610ce95783836040517fa57d13dc000000000000000000000000000000000000000000000000000000008152600401610ce0929190613ed7565b60405180910390fd5b805f015f8573ffffffffffffffffffffffffffffffffffffffff1673ffffffffffffffffffffffffffffffffffffffff1681526020019081526020015f205f8481526020019081526020015f205491505092915050565b610d48611966565b5f60025f8373ffffffffffffffffffffffffffffffffffffffff1673ffffffffffffffffffffffffffffffffffffffff1681526020019081526020015f205f6101000a81548160ff0219169083151502179055610dda576040517f08c379a0000000000000000000000000000000000000000000000000000000008152600401610dd190613f48565b60405180910390fd5b600160025f8373ffffffffffffffffffffffffffffffffffffffff1673ffffffffffffffffffffffffffffffffffffffff1681526020019081526020015f205f6101000a81548160ff02191690831515021790555050565b610e3a611966565b610e426119ed565b565b610e5e83838360405180602001604052805f81525061127e565b505050565b610e755f82610e706118ec565b611951565b5050565b610e81611a5b565b610e8a82611b41565b610e948282611b4c565b5050565b5f80610ea261192a565b9050610eac610a7a565b8310610ef1575f836040517fa57d13dc000000000000000000000000000000000000000000000000000000008152600401610ee8929190613ed7565b60405180910390fd5b806002018381548110610f0757610f06613f66565b5b905f5260205f200154915050919050565b610f20611966565b5f4790508173ffffffffffffffffffffffffffffffffffffffff166108fc8290811502906040515f60405180830381858888f19350505050158015610f67573d5f803e3d5ffd5b505050565b5f610f75611c6a565b7f360894a13ba1a3210667c828492db98dca3e2076cc3735a920a3ca505d382bbc5f1b905090565b5f80610fa7611cf1565b9050805f015f9054906101000a900460ff1691505090565b5f610fc98261181f565b9050919050565b610fd8611966565b5f5b8282905081101561106e57600160025f858585818110610ffd57610ffc613f66565b5b9050602002016020810190611012919061384f565b73ffffffffffffffffffffffffffffffffffffffff1673ffffffffffffffffffffffffffffffffffffffff1681526020019081526020015f205f6101000a81548160ff0219169083151502179055508080600101915050610fda565b505050565b5f8061107d6117f8565b90505f73ffffffffffffffffffffffffffffffffffffffff168373ffffffffffffffffffffffffffffffffffffffff16036110ef575f6040517f89c62b640000000000000000000000000000000000000000000000000000000081526004016110e69190613756565b60405180910390fd5b806003015f8473ffffffffffffffffffffffffffffffffffffffff1673ffffffffffffffffffffffffffffffffffffffff1681526020019081526020015f2054915050919050565b61113f611966565b6111485f611d18565b565b611152611966565b61115a611de9565b565b5f80611166611e58565b9050805f015f9054906101000a900473ffffffffffffffffffffffffffffffffffffffff1691505090565b60605f61119c6117f8565b90508060010180546111ad90613c6a565b80601f01602080910402602001604051908101604052809291908181526020018280546111d990613c6a565b80156112245780601f106111fb57610100808354040283529160200191611224565b820191905f5260205f20905b81548152906001019060200180831161120757829003601f168201915b505050505091505090565b61124161123a6118ec565b8383611e7f565b5050565b6040518060400160405280600581526020017f352e302e3000000000000000000000000000000000000000000000000000000081525081565b611289848484610a94565b61129d6112946118ec565b85858585611ff6565b50505050565b60015f9054906101000a900460ff1681565b5f6112be6121a2565b90505f815f0160089054906101000a900460ff161590505f825f015f9054906101000a900467ffffffffffffffff1690505f808267ffffffffffffffff161480156113065750825b90505f60018367ffffffffffffffff1614801561133957505f3073ffffffffffffffffffffffffffffffffffffffff163b145b905081158015611347575080155b1561137e576040517ff92ee8a900000000000000000000000000000000000000000000000000000000815260040160405180910390fd5b6001855f015f6101000a81548167ffffffffffffffff021916908367ffffffffffffffff16021790555083156113cb576001855f0160086101000a81548160ff0219169083151502179055505b61143f6040518060400160405280601081526020017f42696b655661756c744275696c646572000000000000000000000000000000008152506040518060400160405280600481526020017f42564254000000000000000000000000000000000000000000000000000000008152506121c9565b6114476121df565b61144f6121e9565b611458866121fb565b61146061220f565b611468612219565b83156114c2575f855f0160086101000a81548160ff0219169083151502179055507fc7f505b2f371ae2175ee4913f4499e1f2633a7b5936321eed1cdaeb6115181d260016040516114b99190613fe8565b60405180910390a15b505050505050565b60606114d58261181f565b505f6114df612223565b90505f8151116114fd5760405180602001604052805f815250611528565b8061150784612243565b60405160200161151892919061403b565b6040516020818303038152906040525b915050919050565b5f8061153a6117f8565b9050806005015f8573ffffffffffffffffffffffffffffffffffffffff1673ffffffffffffffffffffffffffffffffffffffff1681526020019081526020015f205f8473ffffffffffffffffffffffffffffffffffffffff1673ffffffffffffffffffffffffffffffffffffffff1681526020019081526020015f205f9054906101000a900460ff1691505092915050565b6115d4611966565b600160025f8373ffffffffffffffffffffffffffffffffffffffff1673ffffffffffffffffffffffffffffffffffffffff1681526020019081526020015f205f6101000a81548160ff0219169083151502179055611667576040517f08c379a000000000000000000000000000000000000000000000000000000000815260040161165e906140ce565b60405180910390fd5b5f60025f8373ffffffffffffffffffffffffffffffffffffffff1673ffffffffffffffffffffffffffffffffffffffff1681526020019081526020015f205f6101000a81548160ff02191690831515021790555050565b6116c6611966565b5f73ffffffffffffffffffffffffffffffffffffffff168173ffffffffffffffffffffffffffffffffffffffff1603611736575f6040517f1e4fbdf700000000000000000000000000000000000000000000000000000000815260040161172d9190613756565b60405180910390fd5b61173f81611d18565b50565b60606040518060400160405280600d81526020017f42696b6520436f6e747261637400000000000000000000000000000000000000815250905090565b5f7f780e9d63000000000000000000000000000000000000000000000000000000007bffffffffffffffffffffffffffffffffffffffffffffffffffffffff1916827bffffffffffffffffffffffffffffffffffffffffffffffffffffffff191614806117f157506117f08261230d565b5b9050919050565b5f7f80bb2b638cc20bc4d0a60d66940f3ab4a00c1d7b313497ca82fb0b4ab0079300905090565b5f8061182a836123ee565b90505f73ffffffffffffffffffffffffffffffffffffffff168173ffffffffffffffffffffffffffffffffffffffff160361189c57826040517f7e27328900000000000000000000000000000000000000000000000000000000815260040161189391906137e6565b60405180910390fd5b80915050919050565b5f806118af6117f8565b9050806004015f8481526020019081526020015f205f9054906101000a900473ffffffffffffffffffffffffffffffffffffffff16915050919050565b5f33905090565b6119008383836001612435565b505050565b5f805f81548092919061191790614119565b9190505590506119273382612602565b50565b5f7f645e039705490088daad89bae25049a34f4a9072d398537b1ab2425f24cbed00905090565b5f61195d84848461261f565b90509392505050565b61196e6118ec565b73ffffffffffffffffffffffffffffffffffffffff1661198c61115c565b73ffffffffffffffffffffffffffffffffffffffff16146119eb576119af6118ec565b6040517f118cdaa70000000000000000000000000000000000000000000000000000000081526004016119e29190613756565b60405180910390fd5b565b6119f561263c565b5f6119fe611cf1565b90505f815f015f6101000a81548160ff0219169083151502179055507f5db9ee0a495bf2e6ff9c91a7834c1ba4fdd244a5e8aa4e537bd38aeae4b073aa611a436118ec565b604051611a509190613756565b60405180910390a150565b7f000000000000000000000000000000000000000000000000000000000000000073ffffffffffffffffffffffffffffffffffffffff163073ffffffffffffffffffffffffffffffffffffffff161480611b0857507f000000000000000000000000000000000000000000000000000000000000000073ffffffffffffffffffffffffffffffffffffffff16611aef61267c565b73ffffffffffffffffffffffffffffffffffffffff1614155b15611b3f576040517fe07c8dba00000000000000000000000000000000000000000000000000000000815260040160405180910390fd5b565b611b49611966565b50565b8173ffffffffffffffffffffffffffffffffffffffff166352d1902d6040518163ffffffff1660e01b8152600401602060405180830381865afa925050508015611bb457506040513d601f19601f82011682018060405250810190611bb1919061418a565b60015b611bf557816040517f4c9c8ce3000000000000000000000000000000000000000000000000000000008152600401611bec9190613756565b60405180910390fd5b7f360894a13ba1a3210667c828492db98dca3e2076cc3735a920a3ca505d382bbc5f1b8114611c5b57806040517faa1d49a4000000000000000000000000000000000000000000000000000000008152600401611c529190613a80565b60405180910390fd5b611c6583836126cf565b505050565b7f000000000000000000000000000000000000000000000000000000000000000073ffffffffffffffffffffffffffffffffffffffff163073ffffffffffffffffffffffffffffffffffffffff1614611cef576040517fe07c8dba00000000000000000000000000000000000000000000000000000000815260040160405180910390fd5b565b5f7fcd5ed15c6e187e77e9aee88184c21f4f2182ab5827cb3b7e07fbedcd63f03300905090565b5f611d21611e58565b90505f815f015f9054906101000a900473ffffffffffffffffffffffffffffffffffffffff16905082825f015f6101000a81548173ffffffffffffffffffffffffffffffffffffffff021916908373ffffffffffffffffffffffffffffffffffffffff1602179055508273ffffffffffffffffffffffffffffffffffffffff168173ffffffffffffffffffffffffffffffffffffffff167f8be0079c531659141344cd1fd0a4f28419497f9722a3daafe3b4186f6b6457e060405160405180910390a3505050565b611df1612741565b5f611dfa611cf1565b90506001815f015f6101000a81548160ff0219169083151502179055507f62e78cea01bee320cd4e420270b5ea74000d11b0c9f74754ebdbfc544b05a258611e406118ec565b604051611e4d9190613756565b60405180910390a150565b5f7f9016d09d72d40fdae2fd8ceac6b6234c7706214fd39c1cd1e609a0528c199300905090565b5f611e886117f8565b90505f73ffffffffffffffffffffffffffffffffffffffff168373ffffffffffffffffffffffffffffffffffffffff1603611efa57826040517f5b08ba18000000000000000000000000000000000000000000000000000000008152600401611ef19190613756565b60405180910390fd5b81816005015f8673ffffffffffffffffffffffffffffffffffffffff1673ffffffffffffffffffffffffffffffffffffffff1681526020019081526020015f205f8573ffffffffffffffffffffffffffffffffffffffff1673ffffffffffffffffffffffffffffffffffffffff1681526020019081526020015f205f6101000a81548160ff0219169083151502179055508273ffffffffffffffffffffffffffffffffffffffff168473ffffffffffffffffffffffffffffffffffffffff167f17307eab39ab6107e8899845ad3d59bd9653f200f220920489ca2b5937696c3184604051611fe89190613610565b60405180910390a350505050565b5f8373ffffffffffffffffffffffffffffffffffffffff163b111561219b578273ffffffffffffffffffffffffffffffffffffffff1663150b7a02868685856040518563ffffffff1660e01b81526004016120549493929190614207565b6020604051808303815f875af192505050801561208f57506040513d601f19601f8201168201806040525081019061208c9190614265565b60015b612110573d805f81146120bd576040519150601f19603f3d011682016040523d82523d5f602084013e6120c2565b606091505b505f81510361210857836040517f64a0ae920000000000000000000000000000000000000000000000000000000081526004016120ff9190613756565b60405180910390fd5b805181602001fd5b63150b7a0260e01b7bffffffffffffffffffffffffffffffffffffffffffffffffffffffff1916817bffffffffffffffffffffffffffffffffffffffffffffffffffffffff19161461219957836040517f64a0ae920000000000000000000000000000000000000000000000000000000081526004016121909190613756565b60405180910390fd5b505b5050505050565b5f7ff0c57e16840df040f15088dc2f81fe391c3923bec73e23a9662efc9c229c6a00905090565b6121d1612782565b6121db82826127c2565b5050565b6121e7612782565b565b6121f1612782565b6121f96127fd565b565b612203612782565b61220c8161282d565b50565b612217612782565b565b612221612782565b565b60606040518060600160405280602a81526020016145d1602a9139905090565b60605f6001612251846128b1565b0190505f8167ffffffffffffffff81111561226f5761226e6138ea565b5b6040519080825280601f01601f1916602001820160405280156122a15781602001600182028036833780820191505090505b5090505f82602001820190505b600115612302578080600190039150507f3031323334353637383961626364656600000000000000000000000000000000600a86061a8153600a85816122f7576122f6614290565b5b0494505f85036122ae575b819350505050919050565b5f7f80ac58cd000000000000000000000000000000000000000000000000000000007bffffffffffffffffffffffffffffffffffffffffffffffffffffffff1916827bffffffffffffffffffffffffffffffffffffffffffffffffffffffff191614806123d757507f5b5e139f000000000000000000000000000000000000000000000000000000007bffffffffffffffffffffffffffffffffffffffffffffffffffffffff1916827bffffffffffffffffffffffffffffffffffffffffffffffffffffffff1916145b806123e757506123e682612a02565b5b9050919050565b5f806123f86117f8565b9050806002015f8481526020019081526020015f205f9054906101000a900473ffffffffffffffffffffffffffffffffffffffff16915050919050565b5f61243e6117f8565b9050818061247857505f73ffffffffffffffffffffffffffffffffffffffff168373ffffffffffffffffffffffffffffffffffffffff1614155b156125aa575f6124878561181f565b90505f73ffffffffffffffffffffffffffffffffffffffff168473ffffffffffffffffffffffffffffffffffffffff16141580156124f157508373ffffffffffffffffffffffffffffffffffffffff168173ffffffffffffffffffffffffffffffffffffffff1614155b801561250457506125028185611530565b155b1561254657836040517fa9fbf51f00000000000000000000000000000000000000000000000000000000815260040161253d9190613756565b60405180910390fd5b82156125a857848673ffffffffffffffffffffffffffffffffffffffff168273ffffffffffffffffffffffffffffffffffffffff167f8c5be1e5ebec7d5bd14f71427d1e84f3dd0314c0f7b2291e5b200ac8c7c3b92560405160405180910390a45b505b84816004015f8681526020019081526020015f205f6101000a81548173ffffffffffffffffffffffffffffffffffffffff021916908373ffffffffffffffffffffffffffffffffffffffff1602179055505050505050565b61261b828260405180602001604052805f815250612a6b565b5050565b5f612628612741565b612633848484612a8e565b90509392505050565b612644610f9d565b61267a576040517f8dfc202b00000000000000000000000000000000000000000000000000000000815260040160405180910390fd5b565b5f6126a87f360894a13ba1a3210667c828492db98dca3e2076cc3735a920a3ca505d382bbc5f1b612ba8565b5f015f9054906101000a900473ffffffffffffffffffffffffffffffffffffffff16905090565b6126d882612bb1565b8173ffffffffffffffffffffffffffffffffffffffff167fbc7cd75a20ee27fd9adebab32041f755214dbc6bffa90cc0225b39da2e5c2d3b60405160405180910390a25f815111156127345761272e8282612c7a565b5061273d565b61273c612cfa565b5b5050565b612749610f9d565b15612780576040517fd93c066500000000000000000000000000000000000000000000000000000000815260040160405180910390fd5b565b61278a612d36565b6127c0576040517fd7e6bcf800000000000000000000000000000000000000000000000000000000815260040160405180910390fd5b565b6127ca612782565b5f6127d36117f8565b905082815f0190816127e59190614451565b50818160010190816127f79190614451565b50505050565b612805612782565b5f61280e611cf1565b90505f815f015f6101000a81548160ff02191690831515021790555050565b612835612782565b5f73ffffffffffffffffffffffffffffffffffffffff168173ffffffffffffffffffffffffffffffffffffffff16036128a5575f6040517f1e4fbdf700000000000000000000000000000000000000000000000000000000815260040161289c9190613756565b60405180910390fd5b6128ae81611d18565b50565b5f805f90507a184f03e93ff9f4daa797ed6e38ed64bf6a1f010000000000000000831061290d577a184f03e93ff9f4daa797ed6e38ed64bf6a1f010000000000000000838161290357612902614290565b5b0492506040810190505b6d04ee2d6d415b85acef8100000000831061294a576d04ee2d6d415b85acef810000000083816129405761293f614290565b5b0492506020810190505b662386f26fc10000831061297957662386f26fc10000838161296f5761296e614290565b5b0492506010810190505b6305f5e10083106129a2576305f5e100838161299857612997614290565b5b0492506008810190505b61271083106129c75761271083816129bd576129bc614290565b5b0492506004810190505b606483106129ea57606483816129e0576129df614290565b5b0492506002810190505b600a83106129f9576001810190505b80915050919050565b5f7f01ffc9a7000000000000000000000000000000000000000000000000000000007bffffffffffffffffffffffffffffffffffffffffffffffffffffffff1916827bffffffffffffffffffffffffffffffffffffffffffffffffffffffff1916149050919050565b612a758383612d54565b612a89612a806118ec565b5f858585611ff6565b505050565b5f80612a9b858585612e47565b90505f73ffffffffffffffffffffffffffffffffffffffff168173ffffffffffffffffffffffffffffffffffffffff1603612ade57612ad984613064565b612b1d565b8473ffffffffffffffffffffffffffffffffffffffff168173ffffffffffffffffffffffffffffffffffffffff1614612b1c57612b1b81856130ba565b5b5b5f73ffffffffffffffffffffffffffffffffffffffff168573ffffffffffffffffffffffffffffffffffffffff1603612b5e57612b59846131a4565b612b9d565b8473ffffffffffffffffffffffffffffffffffffffff168173ffffffffffffffffffffffffffffffffffffffff1614612b9c57612b9b858561327e565b5b5b809150509392505050565b5f819050919050565b5f8173ffffffffffffffffffffffffffffffffffffffff163b03612c0c57806040517f4c9c8ce3000000000000000000000000000000000000000000000000000000008152600401612c039190613756565b60405180910390fd5b80612c387f360894a13ba1a3210667c828492db98dca3e2076cc3735a920a3ca505d382bbc5f1b612ba8565b5f015f6101000a81548173ffffffffffffffffffffffffffffffffffffffff021916908373ffffffffffffffffffffffffffffffffffffffff16021790555050565b60605f808473ffffffffffffffffffffffffffffffffffffffff1684604051612ca3919061455a565b5f60405180830381855af49150503d805f8114612cdb576040519150601f19603f3d011682016040523d82523d5f602084013e612ce0565b606091505b5091509150612cf0858383613311565b9250505092915050565b5f341115612d34576040517fb398979f00000000000000000000000000000000000000000000000000000000815260040160405180910390fd5b565b5f612d3f6121a2565b5f0160089054906101000a900460ff16905090565b5f73ffffffffffffffffffffffffffffffffffffffff168273ffffffffffffffffffffffffffffffffffffffff1603612dc4575f6040517f64a0ae92000000000000000000000000000000000000000000000000000000008152600401612dbb9190613756565b60405180910390fd5b5f612dd083835f611951565b90505f73ffffffffffffffffffffffffffffffffffffffff168173ffffffffffffffffffffffffffffffffffffffff1614612e42575f6040517f73c6ac6e000000000000000000000000000000000000000000000000000000008152600401612e399190613756565b60405180910390fd5b505050565b5f80612e516117f8565b90505f612e5d856123ee565b90505f73ffffffffffffffffffffffffffffffffffffffff168473ffffffffffffffffffffffffffffffffffffffff1614612e9e57612e9d81858761339e565b5b5f73ffffffffffffffffffffffffffffffffffffffff168173ffffffffffffffffffffffffffffffffffffffff1614612f2b57612edd5f865f80612435565b6001826003015f8373ffffffffffffffffffffffffffffffffffffffff1673ffffffffffffffffffffffffffffffffffffffff1681526020019081526020015f205f82825403925050819055505b5f73ffffffffffffffffffffffffffffffffffffffff168673ffffffffffffffffffffffffffffffffffffffff1614612fac576001826003015f8873ffffffffffffffffffffffffffffffffffffffff1673ffffffffffffffffffffffffffffffffffffffff1681526020019081526020015f205f82825401925050819055505b85826002015f8781526020019081526020015f205f6101000a81548173ffffffffffffffffffffffffffffffffffffffff021916908373ffffffffffffffffffffffffffffffffffffffff160217905550848673ffffffffffffffffffffffffffffffffffffffff168273ffffffffffffffffffffffffffffffffffffffff167fddf252ad1be2c89b69c2b068fc378daa952ba7f163c4a11628f55a4df523b3ef60405160405180910390a480925050509392505050565b5f61306d61192a565b90508060020180549050816003015f8481526020019081526020015f20819055508060020182908060018154018082558091505060019003905f5260205f20015f90919091909150555050565b5f6130c361192a565b90505f6130cf84611073565b90505f826001015f8581526020019081526020015f205490505f835f015f8773ffffffffffffffffffffffffffffffffffffffff1673ffffffffffffffffffffffffffffffffffffffff1681526020019081526020015f209050828214613173575f815f8581526020019081526020015f2054905080825f8581526020019081526020015f208190555082856001015f8381526020019081526020015f2081905550505b836001015f8681526020019081526020015f205f9055805f8481526020019081526020015f205f9055505050505050565b5f6131ad61192a565b90505f600182600201805490506131c49190614570565b90505f826003015f8581526020019081526020015f205490505f8360020183815481106131f4576131f3613f66565b5b905f5260205f20015490508084600201838154811061321657613215613f66565b5b905f5260205f20018190555081846003015f8381526020019081526020015f2081905550836003015f8681526020019081526020015f205f905583600201805480613264576132636145a3565b5b600190038181905f5260205f20015f905590555050505050565b5f61328761192a565b90505f600161329585611073565b61329f9190614570565b905082825f015f8673ffffffffffffffffffffffffffffffffffffffff1673ffffffffffffffffffffffffffffffffffffffff1681526020019081526020015f205f8381526020019081526020015f208190555080826001015f8581526020019081526020015f208190555050505050565b6060826133265761332182613461565b613396565b5f825114801561334c57505f8473ffffffffffffffffffffffffffffffffffffffff163b145b1561338e57836040517f9996b3150000000000000000000000000000000000000000000000000000000081526004016133859190613756565b60405180910390fd5b819050613397565b5b9392505050565b6133a98383836134a5565b61345c575f73ffffffffffffffffffffffffffffffffffffffff168373ffffffffffffffffffffffffffffffffffffffff160361341d57806040517f7e27328900000000000000000000000000000000000000000000000000000000815260040161341491906137e6565b60405180910390fd5b81816040517f177e802f000000000000000000000000000000000000000000000000000000008152600401613453929190613ed7565b60405180910390fd5b505050565b5f815111156134735780518082602001fd5b6040517fd6bda27500000000000000000000000000000000000000000000000000000000815260040160405180910390fd5b5f8073ffffffffffffffffffffffffffffffffffffffff168373ffffffffffffffffffffffffffffffffffffffff161415801561355c57508273ffffffffffffffffffffffffffffffffffffffff168473ffffffffffffffffffffffffffffffffffffffff16148061351d575061351c8484611530565b5b8061355b57508273ffffffffffffffffffffffffffffffffffffffff16613543836118a5565b73ffffffffffffffffffffffffffffffffffffffff16145b5b90509392505050565b5f604051905090565b5f80fd5b5f80fd5b5f7fffffffff0000000000000000000000000000000000000000000000000000000082169050919050565b6135aa81613576565b81146135b4575f80fd5b50565b5f813590506135c5816135a1565b92915050565b5f602082840312156135e0576135df61356e565b5b5f6135ed848285016135b7565b91505092915050565b5f8115159050919050565b61360a816135f6565b82525050565b5f6020820190506136235f830184613601565b92915050565b5f81519050919050565b5f82825260208201905092915050565b8281835e5f83830152505050565b5f601f19601f8301169050919050565b5f61366b82613629565b6136758185613633565b9350613685818560208601613643565b61368e81613651565b840191505092915050565b5f6020820190508181035f8301526136b18184613661565b905092915050565b5f819050919050565b6136cb816136b9565b81146136d5575f80fd5b50565b5f813590506136e6816136c2565b92915050565b5f602082840312156137015761370061356e565b5b5f61370e848285016136d8565b91505092915050565b5f73ffffffffffffffffffffffffffffffffffffffff82169050919050565b5f61374082613717565b9050919050565b61375081613736565b82525050565b5f6020820190506137695f830184613747565b92915050565b61377881613736565b8114613782575f80fd5b50565b5f813590506137938161376f565b92915050565b5f80604083850312156137af576137ae61356e565b5b5f6137bc85828601613785565b92505060206137cd858286016136d8565b9150509250929050565b6137e0816136b9565b82525050565b5f6020820190506137f95f8301846137d7565b92915050565b5f805f606084860312156138165761381561356e565b5b5f61382386828701613785565b935050602061383486828701613785565b9250506040613845868287016136d8565b9150509250925092565b5f602082840312156138645761386361356e565b5b5f61387184828501613785565b91505092915050565b613883816135f6565b811461388d575f80fd5b50565b5f8135905061389e8161387a565b92915050565b5f80604083850312156138ba576138b961356e565b5b5f6138c785828601613890565b92505060206138d885828601613890565b9150509250929050565b5f80fd5b5f80fd5b7f4e487b71000000000000000000000000000000000000000000000000000000005f52604160045260245ffd5b61392082613651565b810181811067ffffffffffffffff8211171561393f5761393e6138ea565b5b80604052505050565b5f613951613565565b905061395d8282613917565b919050565b5f67ffffffffffffffff82111561397c5761397b6138ea565b5b61398582613651565b9050602081019050919050565b828183375f83830152505050565b5f6139b26139ad84613962565b613948565b9050828152602081018484840111156139ce576139cd6138e6565b5b6139d9848285613992565b509392505050565b5f82601f8301126139f5576139f46138e2565b5b8135613a058482602086016139a0565b91505092915050565b5f8060408385031215613a2457613a2361356e565b5b5f613a3185828601613785565b925050602083013567ffffffffffffffff811115613a5257613a51613572565b5b613a5e858286016139e1565b9150509250929050565b5f819050919050565b613a7a81613a68565b82525050565b5f602082019050613a935f830184613a71565b92915050565b5f80fd5b5f80fd5b5f8083601f840112613ab657613ab56138e2565b5b8235905067ffffffffffffffff811115613ad357613ad2613a99565b5b602083019150836020820283011115613aef57613aee613a9d565b5b9250929050565b5f8060208385031215613b0c57613b0b61356e565b5b5f83013567ffffffffffffffff811115613b2957613b28613572565b5b613b3585828601613aa1565b92509250509250929050565b5f8060408385031215613b5757613b5661356e565b5b5f613b6485828601613785565b9250506020613b7585828601613890565b9150509250929050565b5f805f8060808587031215613b9757613b9661356e565b5b5f613ba487828801613785565b9450506020613bb587828801613785565b9350506040613bc6878288016136d8565b925050606085013567ffffffffffffffff811115613be757613be6613572565b5b613bf3878288016139e1565b91505092959194509250565b5f8060408385031215613c1557613c1461356e565b5b5f613c2285828601613785565b9250506020613c3385828601613785565b9150509250929050565b7f4e487b71000000000000000000000000000000000000000000000000000000005f52602260045260245ffd5b5f6002820490506001821680613c8157607f821691505b602082108103613c9457613c93613c3d565b5b50919050565b7f416c6c6f776c697374204d696e7420436c6f73656400000000000000000000005f82015250565b5f613cce601583613633565b9150613cd982613c9a565b602082019050919050565b5f6020820190508181035f830152613cfb81613cc2565b9050919050565b7f596f75206172656e6f7420616c6c6f77656420746f206d696e740000000000005f82015250565b5f613d36601a83613633565b9150613d4182613d02565b602082019050919050565b5f6020820190508181035f830152613d6381613d2a565b9050919050565b7f4e6f7420456e6f7567682046756e6473000000000000000000000000000000005f82015250565b5f613d9e601083613633565b9150613da982613d6a565b602082019050919050565b5f6020820190508181035f830152613dcb81613d92565b9050919050565b5f606082019050613de55f830186613747565b613df260208301856137d7565b613dff6040830184613747565b949350505050565b7f5075626c6963204d696e7420436c6f73656400000000000000000000000000005f82015250565b5f613e3b601283613633565b9150613e4682613e07565b602082019050919050565b5f6020820190508181035f830152613e6881613e2f565b9050919050565b7f4e6f7420456e6f7567682066756e6473000000000000000000000000000000005f82015250565b5f613ea3601083613633565b9150613eae82613e6f565b602082019050919050565b5f6020820190508181035f830152613ed081613e97565b9050919050565b5f604082019050613eea5f830185613747565b613ef760208301846137d7565b9392505050565b7f416c726561647920616464656420746f2074686520616c6c6f7765644c6973745f82015250565b5f613f32602083613633565b9150613f3d82613efe565b602082019050919050565b5f6020820190508181035f830152613f5f81613f26565b9050919050565b7f4e487b71000000000000000000000000000000000000000000000000000000005f52603260045260245ffd5b5f819050919050565b5f67ffffffffffffffff82169050919050565b5f819050919050565b5f613fd2613fcd613fc884613f93565b613faf565b613f9c565b9050919050565b613fe281613fb8565b82525050565b5f602082019050613ffb5f830184613fd9565b92915050565b5f81905092915050565b5f61401582613629565b61401f8185614001565b935061402f818560208601613643565b80840191505092915050565b5f614046828561400b565b9150614052828461400b565b91508190509392505050565b7f41646472657373206973206e6f7420696e2074686520616c6c6f7765644c69735f8201527f7400000000000000000000000000000000000000000000000000000000000000602082015250565b5f6140b8602183613633565b91506140c38261405e565b604082019050919050565b5f6020820190508181035f8301526140e5816140ac565b9050919050565b7f4e487b71000000000000000000000000000000000000000000000000000000005f52601160045260245ffd5b5f614123826136b9565b91507fffffffffffffffffffffffffffffffffffffffffffffffffffffffffffffffff8203614155576141546140ec565b5b600182019050919050565b61416981613a68565b8114614173575f80fd5b50565b5f8151905061418481614160565b92915050565b5f6020828403121561419f5761419e61356e565b5b5f6141ac84828501614176565b91505092915050565b5f81519050919050565b5f82825260208201905092915050565b5f6141d9826141b5565b6141e381856141bf565b93506141f3818560208601613643565b6141fc81613651565b840191505092915050565b5f60808201905061421a5f830187613747565b6142276020830186613747565b61423460408301856137d7565b818103606083015261424681846141cf565b905095945050505050565b5f8151905061425f816135a1565b92915050565b5f6020828403121561427a5761427961356e565b5b5f61428784828501614251565b91505092915050565b7f4e487b71000000000000000000000000000000000000000000000000000000005f52601260045260245ffd5b5f819050815f5260205f209050919050565b5f6020601f8301049050919050565b5f82821b905092915050565b5f600883026143197fffffffffffffffffffffffffffffffffffffffffffffffffffffffffffffffff826142de565b61432386836142de565b95508019841693508086168417925050509392505050565b5f61435561435061434b846136b9565b613faf565b6136b9565b9050919050565b5f819050919050565b61436e8361433b565b61438261437a8261435c565b8484546142ea565b825550505050565b5f90565b61439661438a565b6143a1818484614365565b505050565b5b818110156143c4576143b95f8261438e565b6001810190506143a7565b5050565b601f821115614409576143da816142bd565b6143e3846142cf565b810160208510156143f2578190505b6144066143fe856142cf565b8301826143a6565b50505b505050565b5f82821c905092915050565b5f6144295f198460080261440e565b1980831691505092915050565b5f614441838361441a565b9150826002028217905092915050565b61445a82613629565b67ffffffffffffffff811115614473576144726138ea565b5b61447d8254613c6a565b6144888282856143c8565b5f60209050601f8311600181146144b9575f84156144a7578287015190505b6144b18582614436565b865550614518565b601f1984166144c7866142bd565b5f5b828110156144ee578489015182556001820191506020850194506020810190506144c9565b8683101561450b5784890151614507601f89168261441a565b8355505b6001600288020188555050505b505050505050565b5f81905092915050565b5f614534826141b5565b61453e8185614520565b935061454e818560208601613643565b80840191505092915050565b5f614565828461452a565b915081905092915050565b5f61457a826136b9565b9150614585836136b9565b925082820390508181111561459d5761459c6140ec565b5b92915050565b7f4e487b71000000000000000000000000000000000000000000000000000000005f52603160045260245ffdfe307863363163663733333863666531373765303333346235373664323033623530323733313735626539a26469706673582212201f1f4297d187421e9d1c3f54a6c19ba397a4950e4ea65ae056d33a4828188b9264736f6c634300081a0033",
			"opcodes": "PUSH1 0xA0 PUSH1 0x40 MSTORE ADDRESS PUSH20 0xFFFFFFFFFFFFFFFFFFFFFFFFFFFFFFFFFFFFFFFF AND PUSH1 0x80 SWAP1 PUSH20 0xFFFFFFFFFFFFFFFFFFFFFFFFFFFFFFFFFFFFFFFF AND DUP2 MSTORE POP PUSH0 PUSH1 0x1 PUSH0 PUSH2 0x100 EXP DUP2 SLOAD DUP2 PUSH1 0xFF MUL NOT AND SWAP1 DUP4 ISZERO ISZERO MUL OR SWAP1 SSTORE POP PUSH0 PUSH1 0x1 DUP1 PUSH2 0x100 EXP DUP2 SLOAD DUP2 PUSH1 0xFF MUL NOT AND SWAP1 DUP4 ISZERO ISZERO MUL OR SWAP1 SSTORE POP CALLVALUE DUP1 ISZERO PUSH2 0x74 JUMPI PUSH0 DUP1 REVERT JUMPDEST POP PUSH2 0x83 PUSH2 0x88 PUSH1 0x20 SHL PUSH1 0x20 SHR JUMP JUMPDEST PUSH2 0x1E8 JUMP JUMPDEST PUSH0 PUSH2 0x97 PUSH2 0x186 PUSH1 0x20 SHL PUSH1 0x20 SHR JUMP JUMPDEST SWAP1 POP DUP1 PUSH0 ADD PUSH1 0x8 SWAP1 SLOAD SWAP1 PUSH2 0x100 EXP SWAP1 DIV PUSH1 0xFF AND ISZERO PUSH2 0xE1 JUMPI PUSH1 0x40 MLOAD PUSH32 0xF92EE8A900000000000000000000000000000000000000000000000000000000 DUP2 MSTORE PUSH1 0x4 ADD PUSH1 0x40 MLOAD DUP1 SWAP2 SUB SWAP1 REVERT JUMPDEST PUSH8 0xFFFFFFFFFFFFFFFF DUP1 AND DUP2 PUSH0 ADD PUSH0 SWAP1 SLOAD SWAP1 PUSH2 0x100 EXP SWAP1 DIV PUSH8 0xFFFFFFFFFFFFFFFF AND PUSH8 0xFFFFFFFFFFFFFFFF AND EQ PUSH2 0x183 JUMPI PUSH8 0xFFFFFFFFFFFFFFFF DUP2 PUSH0 ADD PUSH0 PUSH2 0x100 EXP DUP2 SLOAD DUP2 PUSH8 0xFFFFFFFFFFFFFFFF MUL NOT AND SWAP1 DUP4 PUSH8 0xFFFFFFFFFFFFFFFF AND MUL OR SWAP1 SSTORE POP PUSH32 0xC7F505B2F371AE2175EE4913F4499E1F2633A7B5936321EED1CDAEB6115181D2 PUSH8 0xFFFFFFFFFFFFFFFF PUSH1 0x40 MLOAD PUSH2 0x17A SWAP2 SWAP1 PUSH2 0x1CF JUMP JUMPDEST PUSH1 0x40 MLOAD DUP1 SWAP2 SUB SWAP1 LOG1 JUMPDEST POP JUMP JUMPDEST PUSH0 PUSH32 0xF0C57E16840DF040F15088DC2F81FE391C3923BEC73E23A9662EFC9C229C6A00 SWAP1 POP SWAP1 JUMP JUMPDEST PUSH0 PUSH8 0xFFFFFFFFFFFFFFFF DUP3 AND SWAP1 POP SWAP2 SWAP1 POP JUMP JUMPDEST PUSH2 0x1C9 DUP2 PUSH2 0x1AD JUMP JUMPDEST DUP3 MSTORE POP POP JUMP JUMPDEST PUSH0 PUSH1 0x20 DUP3 ADD SWAP1 POP PUSH2 0x1E2 PUSH0 DUP4 ADD DUP5 PUSH2 0x1C0 JUMP JUMPDEST SWAP3 SWAP2 POP POP JUMP JUMPDEST PUSH1 0x80 MLOAD PUSH2 0x4630 PUSH2 0x20E PUSH0 CODECOPY PUSH0 DUP2 DUP2 PUSH2 0x1A5D ADD MSTORE DUP2 DUP2 PUSH2 0x1AB2 ADD MSTORE PUSH2 0x1C6C ADD MSTORE PUSH2 0x4630 PUSH0 RETURN INVALID PUSH1 0x80 PUSH1 0x40 MSTORE PUSH1 0x4 CALLDATASIZE LT PUSH2 0x224 JUMPI PUSH0 CALLDATALOAD PUSH1 0xE0 SHR DUP1 PUSH4 0x52D1902D GT PUSH2 0x122 JUMPI DUP1 PUSH4 0xA22CB465 GT PUSH2 0xAA JUMPI DUP1 PUSH4 0xC87B56DD GT PUSH2 0x6E JUMPI DUP1 PUSH4 0xC87B56DD EQ PUSH2 0x770 JUMPI DUP1 PUSH4 0xE985E9C5 EQ PUSH2 0x7AC JUMPI DUP1 PUSH4 0xEBA8DABC EQ PUSH2 0x7E8 JUMPI DUP1 PUSH4 0xF2FDE38B EQ PUSH2 0x810 JUMPI DUP1 PUSH4 0xF8A8FD6D EQ PUSH2 0x838 JUMPI PUSH2 0x224 JUMP JUMPDEST DUP1 PUSH4 0xA22CB465 EQ PUSH2 0x6A4 JUMPI DUP1 PUSH4 0xAD3CB1CC EQ PUSH2 0x6CC JUMPI DUP1 PUSH4 0xB88D4FDE EQ PUSH2 0x6F6 JUMPI DUP1 PUSH4 0xBCC9CA5B EQ PUSH2 0x71E JUMPI DUP1 PUSH4 0xC4D66DE8 EQ PUSH2 0x748 JUMPI PUSH2 0x224 JUMP JUMPDEST DUP1 PUSH4 0x70A08231 GT PUSH2 0xF1 JUMPI DUP1 PUSH4 0x70A08231 EQ PUSH2 0x5E8 JUMPI DUP1 PUSH4 0x715018A6 EQ PUSH2 0x624 JUMPI DUP1 PUSH4 0x8456CB59 EQ PUSH2 0x63A JUMPI DUP1 PUSH4 0x8DA5CB5B EQ PUSH2 0x650 JUMPI DUP1 PUSH4 0x95D89B41 EQ PUSH2 0x67A JUMPI PUSH2 0x224 JUMP JUMPDEST DUP1 PUSH4 0x52D1902D EQ PUSH2 0x530 JUMPI DUP1 PUSH4 0x5C975ABB EQ PUSH2 0x55A JUMPI DUP1 PUSH4 0x6352211E EQ PUSH2 0x584 JUMPI DUP1 PUSH4 0x6447C35D EQ PUSH2 0x5C0 JUMPI PUSH2 0x224 JUMP JUMPDEST DUP1 PUSH4 0x2848AEAF GT PUSH2 0x1B0 JUMPI DUP1 PUSH4 0x42842E0E GT PUSH2 0x174 JUMPI DUP1 PUSH4 0x42842E0E EQ PUSH2 0x460 JUMPI DUP1 PUSH4 0x42966C68 EQ PUSH2 0x488 JUMPI DUP1 PUSH4 0x4F1EF286 EQ PUSH2 0x4B0 JUMPI DUP1 PUSH4 0x4F6CCCE7 EQ PUSH2 0x4CC JUMPI DUP1 PUSH4 0x51CFF8D9 EQ PUSH2 0x508 JUMPI PUSH2 0x224 JUMP JUMPDEST DUP1 PUSH4 0x2848AEAF EQ PUSH2 0x382 JUMPI DUP1 PUSH4 0x2F48DE79 EQ PUSH2 0x3BE JUMPI DUP1 PUSH4 0x2F745C59 EQ PUSH2 0x3E6 JUMPI DUP1 PUSH4 0x31F59102 EQ PUSH2 0x422 JUMPI DUP1 PUSH4 0x3F4BA83A EQ PUSH2 0x44A JUMPI PUSH2 0x224 JUMP JUMPDEST DUP1 PUSH4 0x95EA7B3 GT PUSH2 0x1F7 JUMPI DUP1 PUSH4 0x95EA7B3 EQ PUSH2 0x2F4 JUMPI DUP1 PUSH4 0x102A6A73 EQ PUSH2 0x31C JUMPI DUP1 PUSH4 0x18160DDD EQ PUSH2 0x326 JUMPI DUP1 PUSH4 0x23B872DD EQ PUSH2 0x350 JUMPI DUP1 PUSH4 0x26092B83 EQ PUSH2 0x378 JUMPI PUSH2 0x224 JUMP JUMPDEST DUP1 PUSH4 0x1FFC9A7 EQ PUSH2 0x228 JUMPI DUP1 PUSH4 0x6FDDE03 EQ PUSH2 0x264 JUMPI DUP1 PUSH4 0x81812FC EQ PUSH2 0x28E JUMPI DUP1 PUSH4 0x85C9BAC EQ PUSH2 0x2CA JUMPI JUMPDEST PUSH0 DUP1 REVERT JUMPDEST CALLVALUE DUP1 ISZERO PUSH2 0x233 JUMPI PUSH0 DUP1 REVERT JUMPDEST POP PUSH2 0x24E PUSH1 0x4 DUP1 CALLDATASIZE SUB DUP2 ADD SWAP1 PUSH2 0x249 SWAP2 SWAP1 PUSH2 0x35CB JUMP JUMPDEST PUSH2 0x862 JUMP JUMPDEST PUSH1 0x40 MLOAD PUSH2 0x25B SWAP2 SWAP1 PUSH2 0x3610 JUMP JUMPDEST PUSH1 0x40 MLOAD DUP1 SWAP2 SUB SWAP1 RETURN JUMPDEST CALLVALUE DUP1 ISZERO PUSH2 0x26F JUMPI PUSH0 DUP1 REVERT JUMPDEST POP PUSH2 0x278 PUSH2 0x873 JUMP JUMPDEST PUSH1 0x40 MLOAD PUSH2 0x285 SWAP2 SWAP1 PUSH2 0x3699 JUMP JUMPDEST PUSH1 0x40 MLOAD DUP1 SWAP2 SUB SWAP1 RETURN JUMPDEST CALLVALUE DUP1 ISZERO PUSH2 0x299 JUMPI PUSH0 DUP1 REVERT JUMPDEST POP PUSH2 0x2B4 PUSH1 0x4 DUP1 CALLDATASIZE SUB DUP2 ADD SWAP1 PUSH2 0x2AF SWAP2 SWAP1 PUSH2 0x36EC JUMP JUMPDEST PUSH2 0x910 JUMP JUMPDEST PUSH1 0x40 MLOAD PUSH2 0x2C1 SWAP2 SWAP1 PUSH2 0x3756 JUMP JUMPDEST PUSH1 0x40 MLOAD DUP1 SWAP2 SUB SWAP1 RETURN JUMPDEST CALLVALUE DUP1 ISZERO PUSH2 0x2D5 JUMPI PUSH0 DUP1 REVERT JUMPDEST POP PUSH2 0x2DE PUSH2 0x92B JUMP JUMPDEST PUSH1 0x40 MLOAD PUSH2 0x2EB SWAP2 SWAP1 PUSH2 0x3610 JUMP JUMPDEST PUSH1 0x40 MLOAD DUP1 SWAP2 SUB SWAP1 RETURN JUMPDEST CALLVALUE DUP1 ISZERO PUSH2 0x2FF JUMPI PUSH0 DUP1 REVERT JUMPDEST POP PUSH2 0x31A PUSH1 0x4 DUP1 CALLDATASIZE SUB DUP2 ADD SWAP1 PUSH2 0x315 SWAP2 SWAP1 PUSH2 0x3799 JUMP JUMPDEST PUSH2 0x93C JUMP JUMPDEST STOP JUMPDEST PUSH2 0x324 PUSH2 0x952 JUMP JUMPDEST STOP JUMPDEST CALLVALUE DUP1 ISZERO PUSH2 0x331 JUMPI PUSH0 DUP1 REVERT JUMPDEST POP PUSH2 0x33A PUSH2 0xA7A JUMP JUMPDEST PUSH1 0x40 MLOAD PUSH2 0x347 SWAP2 SWAP1 PUSH2 0x37E6 JUMP JUMPDEST PUSH1 0x40 MLOAD DUP1 SWAP2 SUB SWAP1 RETURN JUMPDEST CALLVALUE DUP1 ISZERO PUSH2 0x35B JUMPI PUSH0 DUP1 REVERT JUMPDEST POP PUSH2 0x376 PUSH1 0x4 DUP1 CALLDATASIZE SUB DUP2 ADD SWAP1 PUSH2 0x371 SWAP2 SWAP1 PUSH2 0x37FF JUMP JUMPDEST PUSH2 0xA94 JUMP JUMPDEST STOP JUMPDEST PUSH2 0x380 PUSH2 0xB93 JUMP JUMPDEST STOP JUMPDEST CALLVALUE DUP1 ISZERO PUSH2 0x38D JUMPI PUSH0 DUP1 REVERT JUMPDEST POP PUSH2 0x3A8 PUSH1 0x4 DUP1 CALLDATASIZE SUB DUP2 ADD SWAP1 PUSH2 0x3A3 SWAP2 SWAP1 PUSH2 0x384F JUMP JUMPDEST PUSH2 0xC34 JUMP JUMPDEST PUSH1 0x40 MLOAD PUSH2 0x3B5 SWAP2 SWAP1 PUSH2 0x3610 JUMP JUMPDEST PUSH1 0x40 MLOAD DUP1 SWAP2 SUB SWAP1 RETURN JUMPDEST CALLVALUE DUP1 ISZERO PUSH2 0x3C9 JUMPI PUSH0 DUP1 REVERT JUMPDEST POP PUSH2 0x3E4 PUSH1 0x4 DUP1 CALLDATASIZE SUB DUP2 ADD SWAP1 PUSH2 0x3DF SWAP2 SWAP1 PUSH2 0x38A4 JUMP JUMPDEST PUSH2 0xC51 JUMP JUMPDEST STOP JUMPDEST CALLVALUE DUP1 ISZERO PUSH2 0x3F1 JUMPI PUSH0 DUP1 REVERT JUMPDEST POP PUSH2 0x40C PUSH1 0x4 DUP1 CALLDATASIZE SUB DUP2 ADD SWAP1 PUSH2 0x407 SWAP2 SWAP1 PUSH2 0x3799 JUMP JUMPDEST PUSH2 0xC8F JUMP JUMPDEST PUSH1 0x40 MLOAD PUSH2 0x419 SWAP2 SWAP1 PUSH2 0x37E6 JUMP JUMPDEST PUSH1 0x40 MLOAD DUP1 SWAP2 SUB SWAP1 RETURN JUMPDEST CALLVALUE DUP1 ISZERO PUSH2 0x42D JUMPI PUSH0 DUP1 REVERT JUMPDEST POP PUSH2 0x448 PUSH1 0x4 DUP1 CALLDATASIZE SUB DUP2 ADD SWAP1 PUSH2 0x443 SWAP2 SWAP1 PUSH2 0x384F JUMP JUMPDEST PUSH2 0xD40 JUMP JUMPDEST STOP JUMPDEST CALLVALUE DUP1 ISZERO PUSH2 0x455 JUMPI PUSH0 DUP1 REVERT JUMPDEST POP PUSH2 0x45E PUSH2 0xE32 JUMP JUMPDEST STOP JUMPDEST CALLVALUE DUP1 ISZERO PUSH2 0x46B JUMPI PUSH0 DUP1 REVERT JUMPDEST POP PUSH2 0x486 PUSH1 0x4 DUP1 CALLDATASIZE SUB DUP2 ADD SWAP1 PUSH2 0x481 SWAP2 SWAP1 PUSH2 0x37FF JUMP JUMPDEST PUSH2 0xE44 JUMP JUMPDEST STOP JUMPDEST CALLVALUE DUP1 ISZERO PUSH2 0x493 JUMPI PUSH0 DUP1 REVERT JUMPDEST POP PUSH2 0x4AE PUSH1 0x4 DUP1 CALLDATASIZE SUB DUP2 ADD SWAP1 PUSH2 0x4A9 SWAP2 SWAP1 PUSH2 0x36EC JUMP JUMPDEST PUSH2 0xE63 JUMP JUMPDEST STOP JUMPDEST PUSH2 0x4CA PUSH1 0x4 DUP1 CALLDATASIZE SUB DUP2 ADD SWAP1 PUSH2 0x4C5 SWAP2 SWAP1 PUSH2 0x3A0E JUMP JUMPDEST PUSH2 0xE79 JUMP JUMPDEST STOP JUMPDEST CALLVALUE DUP1 ISZERO PUSH2 0x4D7 JUMPI PUSH0 DUP1 REVERT JUMPDEST POP PUSH2 0x4F2 PUSH1 0x4 DUP1 CALLDATASIZE SUB DUP2 ADD SWAP1 PUSH2 0x4ED SWAP2 SWAP1 PUSH2 0x36EC JUMP JUMPDEST PUSH2 0xE98 JUMP JUMPDEST PUSH1 0x40 MLOAD PUSH2 0x4FF SWAP2 SWAP1 PUSH2 0x37E6 JUMP JUMPDEST PUSH1 0x40 MLOAD DUP1 SWAP2 SUB SWAP1 RETURN JUMPDEST CALLVALUE DUP1 ISZERO PUSH2 0x513 JUMPI PUSH0 DUP1 REVERT JUMPDEST POP PUSH2 0x52E PUSH1 0x4 DUP1 CALLDATASIZE SUB DUP2 ADD SWAP1 PUSH2 0x529 SWAP2 SWAP1 PUSH2 0x384F JUMP JUMPDEST PUSH2 0xF18 JUMP JUMPDEST STOP JUMPDEST CALLVALUE DUP1 ISZERO PUSH2 0x53B JUMPI PUSH0 DUP1 REVERT JUMPDEST POP PUSH2 0x544 PUSH2 0xF6C JUMP JUMPDEST PUSH1 0x40 MLOAD PUSH2 0x551 SWAP2 SWAP1 PUSH2 0x3A80 JUMP JUMPDEST PUSH1 0x40 MLOAD DUP1 SWAP2 SUB SWAP1 RETURN JUMPDEST CALLVALUE DUP1 ISZERO PUSH2 0x565 JUMPI PUSH0 DUP1 REVERT JUMPDEST POP PUSH2 0x56E PUSH2 0xF9D JUMP JUMPDEST PUSH1 0x40 MLOAD PUSH2 0x57B SWAP2 SWAP1 PUSH2 0x3610 JUMP JUMPDEST PUSH1 0x40 MLOAD DUP1 SWAP2 SUB SWAP1 RETURN JUMPDEST CALLVALUE DUP1 ISZERO PUSH2 0x58F JUMPI PUSH0 DUP1 REVERT JUMPDEST POP PUSH2 0x5AA PUSH1 0x4 DUP1 CALLDATASIZE SUB DUP2 ADD SWAP1 PUSH2 0x5A5 SWAP2 SWAP1 PUSH2 0x36EC JUMP JUMPDEST PUSH2 0xFBF JUMP JUMPDEST PUSH1 0x40 MLOAD PUSH2 0x5B7 SWAP2 SWAP1 PUSH2 0x3756 JUMP JUMPDEST PUSH1 0x40 MLOAD DUP1 SWAP2 SUB SWAP1 RETURN JUMPDEST CALLVALUE DUP1 ISZERO PUSH2 0x5CB JUMPI PUSH0 DUP1 REVERT JUMPDEST POP PUSH2 0x5E6 PUSH1 0x4 DUP1 CALLDATASIZE SUB DUP2 ADD SWAP1 PUSH2 0x5E1 SWAP2 SWAP1 PUSH2 0x3AF6 JUMP JUMPDEST PUSH2 0xFD0 JUMP JUMPDEST STOP JUMPDEST CALLVALUE DUP1 ISZERO PUSH2 0x5F3 JUMPI PUSH0 DUP1 REVERT JUMPDEST POP PUSH2 0x60E PUSH1 0x4 DUP1 CALLDATASIZE SUB DUP2 ADD SWAP1 PUSH2 0x609 SWAP2 SWAP1 PUSH2 0x384F JUMP JUMPDEST PUSH2 0x1073 JUMP JUMPDEST PUSH1 0x40 MLOAD PUSH2 0x61B SWAP2 SWAP1 PUSH2 0x37E6 JUMP JUMPDEST PUSH1 0x40 MLOAD DUP1 SWAP2 SUB SWAP1 RETURN JUMPDEST CALLVALUE DUP1 ISZERO PUSH2 0x62F JUMPI PUSH0 DUP1 REVERT JUMPDEST POP PUSH2 0x638 PUSH2 0x1137 JUMP JUMPDEST STOP JUMPDEST CALLVALUE DUP1 ISZERO PUSH2 0x645 JUMPI PUSH0 DUP1 REVERT JUMPDEST POP PUSH2 0x64E PUSH2 0x114A JUMP JUMPDEST STOP JUMPDEST CALLVALUE DUP1 ISZERO PUSH2 0x65B JUMPI PUSH0 DUP1 REVERT JUMPDEST POP PUSH2 0x664 PUSH2 0x115C JUMP JUMPDEST PUSH1 0x40 MLOAD PUSH2 0x671 SWAP2 SWAP1 PUSH2 0x3756 JUMP JUMPDEST PUSH1 0x40 MLOAD DUP1 SWAP2 SUB SWAP1 RETURN JUMPDEST CALLVALUE DUP1 ISZERO PUSH2 0x685 JUMPI PUSH0 DUP1 REVERT JUMPDEST POP PUSH2 0x68E PUSH2 0x1191 JUMP JUMPDEST PUSH1 0x40 MLOAD PUSH2 0x69B SWAP2 SWAP1 PUSH2 0x3699 JUMP JUMPDEST PUSH1 0x40 MLOAD DUP1 SWAP2 SUB SWAP1 RETURN JUMPDEST CALLVALUE DUP1 ISZERO PUSH2 0x6AF JUMPI PUSH0 DUP1 REVERT JUMPDEST POP PUSH2 0x6CA PUSH1 0x4 DUP1 CALLDATASIZE SUB DUP2 ADD SWAP1 PUSH2 0x6C5 SWAP2 SWAP1 PUSH2 0x3B41 JUMP JUMPDEST PUSH2 0x122F JUMP JUMPDEST STOP JUMPDEST CALLVALUE DUP1 ISZERO PUSH2 0x6D7 JUMPI PUSH0 DUP1 REVERT JUMPDEST POP PUSH2 0x6E0 PUSH2 0x1245 JUMP JUMPDEST PUSH1 0x40 MLOAD PUSH2 0x6ED SWAP2 SWAP1 PUSH2 0x3699 JUMP JUMPDEST PUSH1 0x40 MLOAD DUP1 SWAP2 SUB SWAP1 RETURN JUMPDEST CALLVALUE DUP1 ISZERO PUSH2 0x701 JUMPI PUSH0 DUP1 REVERT JUMPDEST POP PUSH2 0x71C PUSH1 0x4 DUP1 CALLDATASIZE SUB DUP2 ADD SWAP1 PUSH2 0x717 SWAP2 SWAP1 PUSH2 0x3B7F JUMP JUMPDEST PUSH2 0x127E JUMP JUMPDEST STOP JUMPDEST CALLVALUE DUP1 ISZERO PUSH2 0x729 JUMPI PUSH0 DUP1 REVERT JUMPDEST POP PUSH2 0x732 PUSH2 0x12A3 JUMP JUMPDEST PUSH1 0x40 MLOAD PUSH2 0x73F SWAP2 SWAP1 PUSH2 0x3610 JUMP JUMPDEST PUSH1 0x40 MLOAD DUP1 SWAP2 SUB SWAP1 RETURN JUMPDEST CALLVALUE DUP1 ISZERO PUSH2 0x753 JUMPI PUSH0 DUP1 REVERT JUMPDEST POP PUSH2 0x76E PUSH1 0x4 DUP1 CALLDATASIZE SUB DUP2 ADD SWAP1 PUSH2 0x769 SWAP2 SWAP1 PUSH2 0x384F JUMP JUMPDEST PUSH2 0x12B5 JUMP JUMPDEST STOP JUMPDEST CALLVALUE DUP1 ISZERO PUSH2 0x77B JUMPI PUSH0 DUP1 REVERT JUMPDEST POP PUSH2 0x796 PUSH1 0x4 DUP1 CALLDATASIZE SUB DUP2 ADD SWAP1 PUSH2 0x791 SWAP2 SWAP1 PUSH2 0x36EC JUMP JUMPDEST PUSH2 0x14CA JUMP JUMPDEST PUSH1 0x40 MLOAD PUSH2 0x7A3 SWAP2 SWAP1 PUSH2 0x3699 JUMP JUMPDEST PUSH1 0x40 MLOAD DUP1 SWAP2 SUB SWAP1 RETURN JUMPDEST CALLVALUE DUP1 ISZERO PUSH2 0x7B7 JUMPI PUSH0 DUP1 REVERT JUMPDEST POP PUSH2 0x7D2 PUSH1 0x4 DUP1 CALLDATASIZE SUB DUP2 ADD SWAP1 PUSH2 0x7CD SWAP2 SWAP1 PUSH2 0x3BFF JUMP JUMPDEST PUSH2 0x1530 JUMP JUMPDEST PUSH1 0x40 MLOAD PUSH2 0x7DF SWAP2 SWAP1 PUSH2 0x3610 JUMP JUMPDEST PUSH1 0x40 MLOAD DUP1 SWAP2 SUB SWAP1 RETURN JUMPDEST CALLVALUE DUP1 ISZERO PUSH2 0x7F3 JUMPI PUSH0 DUP1 REVERT JUMPDEST POP PUSH2 0x80E PUSH1 0x4 DUP1 CALLDATASIZE SUB DUP2 ADD SWAP1 PUSH2 0x809 SWAP2 SWAP1 PUSH2 0x384F JUMP JUMPDEST PUSH2 0x15CC JUMP JUMPDEST STOP JUMPDEST CALLVALUE DUP1 ISZERO PUSH2 0x81B JUMPI PUSH0 DUP1 REVERT JUMPDEST POP PUSH2 0x836 PUSH1 0x4 DUP1 CALLDATASIZE SUB DUP2 ADD SWAP1 PUSH2 0x831 SWAP2 SWAP1 PUSH2 0x384F JUMP JUMPDEST PUSH2 0x16BE JUMP JUMPDEST STOP JUMPDEST CALLVALUE DUP1 ISZERO PUSH2 0x843 JUMPI PUSH0 DUP1 REVERT JUMPDEST POP PUSH2 0x84C PUSH2 0x1742 JUMP JUMPDEST PUSH1 0x40 MLOAD PUSH2 0x859 SWAP2 SWAP1 PUSH2 0x3699 JUMP JUMPDEST PUSH1 0x40 MLOAD DUP1 SWAP2 SUB SWAP1 RETURN JUMPDEST PUSH0 PUSH2 0x86C DUP3 PUSH2 0x177F JUMP JUMPDEST SWAP1 POP SWAP2 SWAP1 POP JUMP JUMPDEST PUSH1 0x60 PUSH0 PUSH2 0x87E PUSH2 0x17F8 JUMP JUMPDEST SWAP1 POP DUP1 PUSH0 ADD DUP1 SLOAD PUSH2 0x88E SWAP1 PUSH2 0x3C6A JUMP JUMPDEST DUP1 PUSH1 0x1F ADD PUSH1 0x20 DUP1 SWAP2 DIV MUL PUSH1 0x20 ADD PUSH1 0x40 MLOAD SWAP1 DUP2 ADD PUSH1 0x40 MSTORE DUP1 SWAP3 SWAP2 SWAP1 DUP2 DUP2 MSTORE PUSH1 0x20 ADD DUP3 DUP1 SLOAD PUSH2 0x8BA SWAP1 PUSH2 0x3C6A JUMP JUMPDEST DUP1 ISZERO PUSH2 0x905 JUMPI DUP1 PUSH1 0x1F LT PUSH2 0x8DC JUMPI PUSH2 0x100 DUP1 DUP4 SLOAD DIV MUL DUP4 MSTORE SWAP2 PUSH1 0x20 ADD SWAP2 PUSH2 0x905 JUMP JUMPDEST DUP3 ADD SWAP2 SWAP1 PUSH0 MSTORE PUSH1 0x20 PUSH0 KECCAK256 SWAP1 JUMPDEST DUP2 SLOAD DUP2 MSTORE SWAP1 PUSH1 0x1 ADD SWAP1 PUSH1 0x20 ADD DUP1 DUP4 GT PUSH2 0x8E8 JUMPI DUP3 SWAP1 SUB PUSH1 0x1F AND DUP3 ADD SWAP2 JUMPDEST POP POP POP POP POP SWAP2 POP POP SWAP1 JUMP JUMPDEST PUSH0 PUSH2 0x91A DUP3 PUSH2 0x181F JUMP JUMPDEST POP PUSH2 0x924 DUP3 PUSH2 0x18A5 JUMP JUMPDEST SWAP1 POP SWAP2 SWAP1 POP JUMP JUMPDEST PUSH1 0x1 DUP1 SLOAD SWAP1 PUSH2 0x100 EXP SWAP1 DIV PUSH1 0xFF AND DUP2 JUMP JUMPDEST PUSH2 0x94E DUP3 DUP3 PUSH2 0x949 PUSH2 0x18EC JUMP JUMPDEST PUSH2 0x18F3 JUMP JUMPDEST POP POP JUMP JUMPDEST PUSH1 0x1 DUP1 SLOAD SWAP1 PUSH2 0x100 EXP SWAP1 DIV PUSH1 0xFF AND PUSH2 0x99F JUMPI PUSH1 0x40 MLOAD PUSH32 0x8C379A000000000000000000000000000000000000000000000000000000000 DUP2 MSTORE PUSH1 0x4 ADD PUSH2 0x996 SWAP1 PUSH2 0x3CE4 JUMP JUMPDEST PUSH1 0x40 MLOAD DUP1 SWAP2 SUB SWAP1 REVERT JUMPDEST PUSH1 0x2 PUSH0 CALLER PUSH20 0xFFFFFFFFFFFFFFFFFFFFFFFFFFFFFFFFFFFFFFFF AND PUSH20 0xFFFFFFFFFFFFFFFFFFFFFFFFFFFFFFFFFFFFFFFF AND DUP2 MSTORE PUSH1 0x20 ADD SWAP1 DUP2 MSTORE PUSH1 0x20 ADD PUSH0 KECCAK256 PUSH0 SWAP1 SLOAD SWAP1 PUSH2 0x100 EXP SWAP1 DIV PUSH1 0xFF AND PUSH2 0xA28 JUMPI PUSH1 0x40 MLOAD PUSH32 0x8C379A000000000000000000000000000000000000000000000000000000000 DUP2 MSTORE PUSH1 0x4 ADD PUSH2 0xA1F SWAP1 PUSH2 0x3D4C JUMP JUMPDEST PUSH1 0x40 MLOAD DUP1 SWAP2 SUB SWAP1 REVERT JUMPDEST PUSH6 0x5AF3107A4000 CALLVALUE EQ PUSH2 0xA70 JUMPI PUSH1 0x40 MLOAD PUSH32 0x8C379A000000000000000000000000000000000000000000000000000000000 DUP2 MSTORE PUSH1 0x4 ADD PUSH2 0xA67 SWAP1 PUSH2 0x3DB4 JUMP JUMPDEST PUSH1 0x40 MLOAD DUP1 SWAP2 SUB SWAP1 REVERT JUMPDEST PUSH2 0xA78 PUSH2 0x1905 JUMP JUMPDEST JUMP JUMPDEST PUSH0 DUP1 PUSH2 0xA84 PUSH2 0x192A JUMP JUMPDEST SWAP1 POP DUP1 PUSH1 0x2 ADD DUP1 SLOAD SWAP1 POP SWAP2 POP POP SWAP1 JUMP JUMPDEST PUSH0 PUSH20 0xFFFFFFFFFFFFFFFFFFFFFFFFFFFFFFFFFFFFFFFF AND DUP3 PUSH20 0xFFFFFFFFFFFFFFFFFFFFFFFFFFFFFFFFFFFFFFFF AND SUB PUSH2 0xB04 JUMPI PUSH0 PUSH1 0x40 MLOAD PUSH32 0x64A0AE9200000000000000000000000000000000000000000000000000000000 DUP2 MSTORE PUSH1 0x4 ADD PUSH2 0xAFB SWAP2 SWAP1 PUSH2 0x3756 JUMP JUMPDEST PUSH1 0x40 MLOAD DUP1 SWAP2 SUB SWAP1 REVERT JUMPDEST PUSH0 PUSH2 0xB17 DUP4 DUP4 PUSH2 0xB12 PUSH2 0x18EC JUMP JUMPDEST PUSH2 0x1951 JUMP JUMPDEST SWAP1 POP DUP4 PUSH20 0xFFFFFFFFFFFFFFFFFFFFFFFFFFFFFFFFFFFFFFFF AND DUP2 PUSH20 0xFFFFFFFFFFFFFFFFFFFFFFFFFFFFFFFFFFFFFFFF AND EQ PUSH2 0xB8D JUMPI DUP4 DUP3 DUP3 PUSH1 0x40 MLOAD PUSH32 0x64283D7B00000000000000000000000000000000000000000000000000000000 DUP2 MSTORE PUSH1 0x4 ADD PUSH2 0xB84 SWAP4 SWAP3 SWAP2 SWAP1 PUSH2 0x3DD2 JUMP JUMPDEST PUSH1 0x40 MLOAD DUP1 SWAP2 SUB SWAP1 REVERT JUMPDEST POP POP POP POP JUMP JUMPDEST PUSH1 0x1 PUSH0 SWAP1 SLOAD SWAP1 PUSH2 0x100 EXP SWAP1 DIV PUSH1 0xFF AND PUSH2 0xBE1 JUMPI PUSH1 0x40 MLOAD PUSH32 0x8C379A000000000000000000000000000000000000000000000000000000000 DUP2 MSTORE PUSH1 0x4 ADD PUSH2 0xBD8 SWAP1 PUSH2 0x3E51 JUMP JUMPDEST PUSH1 0x40 MLOAD DUP1 SWAP2 SUB SWAP1 REVERT JUMPDEST PUSH7 0x38D7EA4C68000 CALLVALUE EQ PUSH2 0xC2A JUMPI PUSH1 0x40 MLOAD PUSH32 0x8C379A000000000000000000000000000000000000000000000000000000000 DUP2 MSTORE PUSH1 0x4 ADD PUSH2 0xC21 SWAP1 PUSH2 0x3EB9 JUMP JUMPDEST PUSH1 0x40 MLOAD DUP1 SWAP2 SUB SWAP1 REVERT JUMPDEST PUSH2 0xC32 PUSH2 0x1905 JUMP JUMPDEST JUMP JUMPDEST PUSH1 0x2 PUSH1 0x20 MSTORE DUP1 PUSH0 MSTORE PUSH1 0x40 PUSH0 KECCAK256 PUSH0 SWAP2 POP SLOAD SWAP1 PUSH2 0x100 EXP SWAP1 DIV PUSH1 0xFF AND DUP2 JUMP JUMPDEST PUSH2 0xC59 PUSH2 0x1966 JUMP JUMPDEST DUP1 PUSH1 0x1 DUP1 PUSH2 0x100 EXP DUP2 SLOAD DUP2 PUSH1 0xFF MUL NOT AND SWAP1 DUP4 ISZERO ISZERO MUL OR SWAP1 SSTORE POP DUP2 PUSH1 0x1 PUSH0 PUSH2 0x100 EXP DUP2 SLOAD DUP2 PUSH1 0xFF MUL NOT AND SWAP1 DUP4 ISZERO ISZERO MUL OR SWAP1 SSTORE POP POP POP JUMP JUMPDEST PUSH0 DUP1 PUSH2 0xC99 PUSH2 0x192A JUMP JUMPDEST SWAP1 POP PUSH2 0xCA4 DUP5 PUSH2 0x1073 JUMP JUMPDEST DUP4 LT PUSH2 0xCE9 JUMPI DUP4 DUP4 PUSH1 0x40 MLOAD PUSH32 0xA57D13DC00000000000000000000000000000000000000000000000000000000 DUP2 MSTORE PUSH1 0x4 ADD PUSH2 0xCE0 SWAP3 SWAP2 SWAP1 PUSH2 0x3ED7 JUMP JUMPDEST PUSH1 0x40 MLOAD DUP1 SWAP2 SUB SWAP1 REVERT JUMPDEST DUP1 PUSH0 ADD PUSH0 DUP6 PUSH20 0xFFFFFFFFFFFFFFFFFFFFFFFFFFFFFFFFFFFFFFFF AND PUSH20 0xFFFFFFFFFFFFFFFFFFFFFFFFFFFFFFFFFFFFFFFF AND DUP2 MSTORE PUSH1 0x20 ADD SWAP1 DUP2 MSTORE PUSH1 0x20 ADD PUSH0 KECCAK256 PUSH0 DUP5 DUP2 MSTORE PUSH1 0x20 ADD SWAP1 DUP2 MSTORE PUSH1 0x20 ADD PUSH0 KECCAK256 SLOAD SWAP2 POP POP SWAP3 SWAP2 POP POP JUMP JUMPDEST PUSH2 0xD48 PUSH2 0x1966 JUMP JUMPDEST PUSH0 PUSH1 0x2 PUSH0 DUP4 PUSH20 0xFFFFFFFFFFFFFFFFFFFFFFFFFFFFFFFFFFFFFFFF AND PUSH20 0xFFFFFFFFFFFFFFFFFFFFFFFFFFFFFFFFFFFFFFFF AND DUP2 MSTORE PUSH1 0x20 ADD SWAP1 DUP2 MSTORE PUSH1 0x20 ADD PUSH0 KECCAK256 PUSH0 PUSH2 0x100 EXP DUP2 SLOAD DUP2 PUSH1 0xFF MUL NOT AND SWAP1 DUP4 ISZERO ISZERO MUL OR SWAP1 SSTORE PUSH2 0xDDA JUMPI PUSH1 0x40 MLOAD PUSH32 0x8C379A000000000000000000000000000000000000000000000000000000000 DUP2 MSTORE PUSH1 0x4 ADD PUSH2 0xDD1 SWAP1 PUSH2 0x3F48 JUMP JUMPDEST PUSH1 0x40 MLOAD DUP1 SWAP2 SUB SWAP1 REVERT JUMPDEST PUSH1 0x1 PUSH1 0x2 PUSH0 DUP4 PUSH20 0xFFFFFFFFFFFFFFFFFFFFFFFFFFFFFFFFFFFFFFFF AND PUSH20 0xFFFFFFFFFFFFFFFFFFFFFFFFFFFFFFFFFFFFFFFF AND DUP2 MSTORE PUSH1 0x20 ADD SWAP1 DUP2 MSTORE PUSH1 0x20 ADD PUSH0 KECCAK256 PUSH0 PUSH2 0x100 EXP DUP2 SLOAD DUP2 PUSH1 0xFF MUL NOT AND SWAP1 DUP4 ISZERO ISZERO MUL OR SWAP1 SSTORE POP POP JUMP JUMPDEST PUSH2 0xE3A PUSH2 0x1966 JUMP JUMPDEST PUSH2 0xE42 PUSH2 0x19ED JUMP JUMPDEST JUMP JUMPDEST PUSH2 0xE5E DUP4 DUP4 DUP4 PUSH1 0x40 MLOAD DUP1 PUSH1 0x20 ADD PUSH1 0x40 MSTORE DUP1 PUSH0 DUP2 MSTORE POP PUSH2 0x127E JUMP JUMPDEST POP POP POP JUMP JUMPDEST PUSH2 0xE75 PUSH0 DUP3 PUSH2 0xE70 PUSH2 0x18EC JUMP JUMPDEST PUSH2 0x1951 JUMP JUMPDEST POP POP JUMP JUMPDEST PUSH2 0xE81 PUSH2 0x1A5B JUMP JUMPDEST PUSH2 0xE8A DUP3 PUSH2 0x1B41 JUMP JUMPDEST PUSH2 0xE94 DUP3 DUP3 PUSH2 0x1B4C JUMP JUMPDEST POP POP JUMP JUMPDEST PUSH0 DUP1 PUSH2 0xEA2 PUSH2 0x192A JUMP JUMPDEST SWAP1 POP PUSH2 0xEAC PUSH2 0xA7A JUMP JUMPDEST DUP4 LT PUSH2 0xEF1 JUMPI PUSH0 DUP4 PUSH1 0x40 MLOAD PUSH32 0xA57D13DC00000000000000000000000000000000000000000000000000000000 DUP2 MSTORE PUSH1 0x4 ADD PUSH2 0xEE8 SWAP3 SWAP2 SWAP1 PUSH2 0x3ED7 JUMP JUMPDEST PUSH1 0x40 MLOAD DUP1 SWAP2 SUB SWAP1 REVERT JUMPDEST DUP1 PUSH1 0x2 ADD DUP4 DUP2 SLOAD DUP2 LT PUSH2 0xF07 JUMPI PUSH2 0xF06 PUSH2 0x3F66 JUMP JUMPDEST JUMPDEST SWAP1 PUSH0 MSTORE PUSH1 0x20 PUSH0 KECCAK256 ADD SLOAD SWAP2 POP POP SWAP2 SWAP1 POP JUMP JUMPDEST PUSH2 0xF20 PUSH2 0x1966 JUMP JUMPDEST PUSH0 SELFBALANCE SWAP1 POP DUP2 PUSH20 0xFFFFFFFFFFFFFFFFFFFFFFFFFFFFFFFFFFFFFFFF AND PUSH2 0x8FC DUP3 SWAP1 DUP2 ISZERO MUL SWAP1 PUSH1 0x40 MLOAD PUSH0 PUSH1 0x40 MLOAD DUP1 DUP4 SUB DUP2 DUP6 DUP9 DUP9 CALL SWAP4 POP POP POP POP ISZERO DUP1 ISZERO PUSH2 0xF67 JUMPI RETURNDATASIZE PUSH0 DUP1 RETURNDATACOPY RETURNDATASIZE PUSH0 REVERT JUMPDEST POP POP POP JUMP JUMPDEST PUSH0 PUSH2 0xF75 PUSH2 0x1C6A JUMP JUMPDEST PUSH32 0x360894A13BA1A3210667C828492DB98DCA3E2076CC3735A920A3CA505D382BBC PUSH0 SHL SWAP1 POP SWAP1 JUMP JUMPDEST PUSH0 DUP1 PUSH2 0xFA7 PUSH2 0x1CF1 JUMP JUMPDEST SWAP1 POP DUP1 PUSH0 ADD PUSH0 SWAP1 SLOAD SWAP1 PUSH2 0x100 EXP SWAP1 DIV PUSH1 0xFF AND SWAP2 POP POP SWAP1 JUMP JUMPDEST PUSH0 PUSH2 0xFC9 DUP3 PUSH2 0x181F JUMP JUMPDEST SWAP1 POP SWAP2 SWAP1 POP JUMP JUMPDEST PUSH2 0xFD8 PUSH2 0x1966 JUMP JUMPDEST PUSH0 JUMPDEST DUP3 DUP3 SWAP1 POP DUP2 LT ISZERO PUSH2 0x106E JUMPI PUSH1 0x1 PUSH1 0x2 PUSH0 DUP6 DUP6 DUP6 DUP2 DUP2 LT PUSH2 0xFFD JUMPI PUSH2 0xFFC PUSH2 0x3F66 JUMP JUMPDEST JUMPDEST SWAP1 POP PUSH1 0x20 MUL ADD PUSH1 0x20 DUP2 ADD SWAP1 PUSH2 0x1012 SWAP2 SWAP1 PUSH2 0x384F JUMP JUMPDEST PUSH20 0xFFFFFFFFFFFFFFFFFFFFFFFFFFFFFFFFFFFFFFFF AND PUSH20 0xFFFFFFFFFFFFFFFFFFFFFFFFFFFFFFFFFFFFFFFF AND DUP2 MSTORE PUSH1 0x20 ADD SWAP1 DUP2 MSTORE PUSH1 0x20 ADD PUSH0 KECCAK256 PUSH0 PUSH2 0x100 EXP DUP2 SLOAD DUP2 PUSH1 0xFF MUL NOT AND SWAP1 DUP4 ISZERO ISZERO MUL OR SWAP1 SSTORE POP DUP1 DUP1 PUSH1 0x1 ADD SWAP2 POP POP PUSH2 0xFDA JUMP JUMPDEST POP POP POP JUMP JUMPDEST PUSH0 DUP1 PUSH2 0x107D PUSH2 0x17F8 JUMP JUMPDEST SWAP1 POP PUSH0 PUSH20 0xFFFFFFFFFFFFFFFFFFFFFFFFFFFFFFFFFFFFFFFF AND DUP4 PUSH20 0xFFFFFFFFFFFFFFFFFFFFFFFFFFFFFFFFFFFFFFFF AND SUB PUSH2 0x10EF JUMPI PUSH0 PUSH1 0x40 MLOAD PUSH32 0x89C62B6400000000000000000000000000000000000000000000000000000000 DUP2 MSTORE PUSH1 0x4 ADD PUSH2 0x10E6 SWAP2 SWAP1 PUSH2 0x3756 JUMP JUMPDEST PUSH1 0x40 MLOAD DUP1 SWAP2 SUB SWAP1 REVERT JUMPDEST DUP1 PUSH1 0x3 ADD PUSH0 DUP5 PUSH20 0xFFFFFFFFFFFFFFFFFFFFFFFFFFFFFFFFFFFFFFFF AND PUSH20 0xFFFFFFFFFFFFFFFFFFFFFFFFFFFFFFFFFFFFFFFF AND DUP2 MSTORE PUSH1 0x20 ADD SWAP1 DUP2 MSTORE PUSH1 0x20 ADD PUSH0 KECCAK256 SLOAD SWAP2 POP POP SWAP2 SWAP1 POP JUMP JUMPDEST PUSH2 0x113F PUSH2 0x1966 JUMP JUMPDEST PUSH2 0x1148 PUSH0 PUSH2 0x1D18 JUMP JUMPDEST JUMP JUMPDEST PUSH2 0x1152 PUSH2 0x1966 JUMP JUMPDEST PUSH2 0x115A PUSH2 0x1DE9 JUMP JUMPDEST JUMP JUMPDEST PUSH0 DUP1 PUSH2 0x1166 PUSH2 0x1E58 JUMP JUMPDEST SWAP1 POP DUP1 PUSH0 ADD PUSH0 SWAP1 SLOAD SWAP1 PUSH2 0x100 EXP SWAP1 DIV PUSH20 0xFFFFFFFFFFFFFFFFFFFFFFFFFFFFFFFFFFFFFFFF AND SWAP2 POP POP SWAP1 JUMP JUMPDEST PUSH1 0x60 PUSH0 PUSH2 0x119C PUSH2 0x17F8 JUMP JUMPDEST SWAP1 POP DUP1 PUSH1 0x1 ADD DUP1 SLOAD PUSH2 0x11AD SWAP1 PUSH2 0x3C6A JUMP JUMPDEST DUP1 PUSH1 0x1F ADD PUSH1 0x20 DUP1 SWAP2 DIV MUL PUSH1 0x20 ADD PUSH1 0x40 MLOAD SWAP1 DUP2 ADD PUSH1 0x40 MSTORE DUP1 SWAP3 SWAP2 SWAP1 DUP2 DUP2 MSTORE PUSH1 0x20 ADD DUP3 DUP1 SLOAD PUSH2 0x11D9 SWAP1 PUSH2 0x3C6A JUMP JUMPDEST DUP1 ISZERO PUSH2 0x1224 JUMPI DUP1 PUSH1 0x1F LT PUSH2 0x11FB JUMPI PUSH2 0x100 DUP1 DUP4 SLOAD DIV MUL DUP4 MSTORE SWAP2 PUSH1 0x20 ADD SWAP2 PUSH2 0x1224 JUMP JUMPDEST DUP3 ADD SWAP2 SWAP1 PUSH0 MSTORE PUSH1 0x20 PUSH0 KECCAK256 SWAP1 JUMPDEST DUP2 SLOAD DUP2 MSTORE SWAP1 PUSH1 0x1 ADD SWAP1 PUSH1 0x20 ADD DUP1 DUP4 GT PUSH2 0x1207 JUMPI DUP3 SWAP1 SUB PUSH1 0x1F AND DUP3 ADD SWAP2 JUMPDEST POP POP POP POP POP SWAP2 POP POP SWAP1 JUMP JUMPDEST PUSH2 0x1241 PUSH2 0x123A PUSH2 0x18EC JUMP JUMPDEST DUP4 DUP4 PUSH2 0x1E7F JUMP JUMPDEST POP POP JUMP JUMPDEST PUSH1 0x40 MLOAD DUP1 PUSH1 0x40 ADD PUSH1 0x40 MSTORE DUP1 PUSH1 0x5 DUP2 MSTORE PUSH1 0x20 ADD PUSH32 0x352E302E30000000000000000000000000000000000000000000000000000000 DUP2 MSTORE POP DUP2 JUMP JUMPDEST PUSH2 0x1289 DUP5 DUP5 DUP5 PUSH2 0xA94 JUMP JUMPDEST PUSH2 0x129D PUSH2 0x1294 PUSH2 0x18EC JUMP JUMPDEST DUP6 DUP6 DUP6 DUP6 PUSH2 0x1FF6 JUMP JUMPDEST POP POP POP POP JUMP JUMPDEST PUSH1 0x1 PUSH0 SWAP1 SLOAD SWAP1 PUSH2 0x100 EXP SWAP1 DIV PUSH1 0xFF AND DUP2 JUMP JUMPDEST PUSH0 PUSH2 0x12BE PUSH2 0x21A2 JUMP JUMPDEST SWAP1 POP PUSH0 DUP2 PUSH0 ADD PUSH1 0x8 SWAP1 SLOAD SWAP1 PUSH2 0x100 EXP SWAP1 DIV PUSH1 0xFF AND ISZERO SWAP1 POP PUSH0 DUP3 PUSH0 ADD PUSH0 SWAP1 SLOAD SWAP1 PUSH2 0x100 EXP SWAP1 DIV PUSH8 0xFFFFFFFFFFFFFFFF AND SWAP1 POP PUSH0 DUP1 DUP3 PUSH8 0xFFFFFFFFFFFFFFFF AND EQ DUP1 ISZERO PUSH2 0x1306 JUMPI POP DUP3 JUMPDEST SWAP1 POP PUSH0 PUSH1 0x1 DUP4 PUSH8 0xFFFFFFFFFFFFFFFF AND EQ DUP1 ISZERO PUSH2 0x1339 JUMPI POP PUSH0 ADDRESS PUSH20 0xFFFFFFFFFFFFFFFFFFFFFFFFFFFFFFFFFFFFFFFF AND EXTCODESIZE EQ JUMPDEST SWAP1 POP DUP2 ISZERO DUP1 ISZERO PUSH2 0x1347 JUMPI POP DUP1 ISZERO JUMPDEST ISZERO PUSH2 0x137E JUMPI PUSH1 0x40 MLOAD PUSH32 0xF92EE8A900000000000000000000000000000000000000000000000000000000 DUP2 MSTORE PUSH1 0x4 ADD PUSH1 0x40 MLOAD DUP1 SWAP2 SUB SWAP1 REVERT JUMPDEST PUSH1 0x1 DUP6 PUSH0 ADD PUSH0 PUSH2 0x100 EXP DUP2 SLOAD DUP2 PUSH8 0xFFFFFFFFFFFFFFFF MUL NOT AND SWAP1 DUP4 PUSH8 0xFFFFFFFFFFFFFFFF AND MUL OR SWAP1 SSTORE POP DUP4 ISZERO PUSH2 0x13CB JUMPI PUSH1 0x1 DUP6 PUSH0 ADD PUSH1 0x8 PUSH2 0x100 EXP DUP2 SLOAD DUP2 PUSH1 0xFF MUL NOT AND SWAP1 DUP4 ISZERO ISZERO MUL OR SWAP1 SSTORE POP JUMPDEST PUSH2 0x143F PUSH1 0x40 MLOAD DUP1 PUSH1 0x40 ADD PUSH1 0x40 MSTORE DUP1 PUSH1 0x10 DUP2 MSTORE PUSH1 0x20 ADD PUSH32 0x42696B655661756C744275696C64657200000000000000000000000000000000 DUP2 MSTORE POP PUSH1 0x40 MLOAD DUP1 PUSH1 0x40 ADD PUSH1 0x40 MSTORE DUP1 PUSH1 0x4 DUP2 MSTORE PUSH1 0x20 ADD PUSH32 0x4256425400000000000000000000000000000000000000000000000000000000 DUP2 MSTORE POP PUSH2 0x21C9 JUMP JUMPDEST PUSH2 0x1447 PUSH2 0x21DF JUMP JUMPDEST PUSH2 0x144F PUSH2 0x21E9 JUMP JUMPDEST PUSH2 0x1458 DUP7 PUSH2 0x21FB JUMP JUMPDEST PUSH2 0x1460 PUSH2 0x220F JUMP JUMPDEST PUSH2 0x1468 PUSH2 0x2219 JUMP JUMPDEST DUP4 ISZERO PUSH2 0x14C2 JUMPI PUSH0 DUP6 PUSH0 ADD PUSH1 0x8 PUSH2 0x100 EXP DUP2 SLOAD DUP2 PUSH1 0xFF MUL NOT AND SWAP1 DUP4 ISZERO ISZERO MUL OR SWAP1 SSTORE POP PUSH32 0xC7F505B2F371AE2175EE4913F4499E1F2633A7B5936321EED1CDAEB6115181D2 PUSH1 0x1 PUSH1 0x40 MLOAD PUSH2 0x14B9 SWAP2 SWAP1 PUSH2 0x3FE8 JUMP JUMPDEST PUSH1 0x40 MLOAD DUP1 SWAP2 SUB SWAP1 LOG1 JUMPDEST POP POP POP POP POP POP JUMP JUMPDEST PUSH1 0x60 PUSH2 0x14D5 DUP3 PUSH2 0x181F JUMP JUMPDEST POP PUSH0 PUSH2 0x14DF PUSH2 0x2223 JUMP JUMPDEST SWAP1 POP PUSH0 DUP2 MLOAD GT PUSH2 0x14FD JUMPI PUSH1 0x40 MLOAD DUP1 PUSH1 0x20 ADD PUSH1 0x40 MSTORE DUP1 PUSH0 DUP2 MSTORE POP PUSH2 0x1528 JUMP JUMPDEST DUP1 PUSH2 0x1507 DUP5 PUSH2 0x2243 JUMP JUMPDEST PUSH1 0x40 MLOAD PUSH1 0x20 ADD PUSH2 0x1518 SWAP3 SWAP2 SWAP1 PUSH2 0x403B JUMP JUMPDEST PUSH1 0x40 MLOAD PUSH1 0x20 DUP2 DUP4 SUB SUB DUP2 MSTORE SWAP1 PUSH1 0x40 MSTORE JUMPDEST SWAP2 POP POP SWAP2 SWAP1 POP JUMP JUMPDEST PUSH0 DUP1 PUSH2 0x153A PUSH2 0x17F8 JUMP JUMPDEST SWAP1 POP DUP1 PUSH1 0x5 ADD PUSH0 DUP6 PUSH20 0xFFFFFFFFFFFFFFFFFFFFFFFFFFFFFFFFFFFFFFFF AND PUSH20 0xFFFFFFFFFFFFFFFFFFFFFFFFFFFFFFFFFFFFFFFF AND DUP2 MSTORE PUSH1 0x20 ADD SWAP1 DUP2 MSTORE PUSH1 0x20 ADD PUSH0 KECCAK256 PUSH0 DUP5 PUSH20 0xFFFFFFFFFFFFFFFFFFFFFFFFFFFFFFFFFFFFFFFF AND PUSH20 0xFFFFFFFFFFFFFFFFFFFFFFFFFFFFFFFFFFFFFFFF AND DUP2 MSTORE PUSH1 0x20 ADD SWAP1 DUP2 MSTORE PUSH1 0x20 ADD PUSH0 KECCAK256 PUSH0 SWAP1 SLOAD SWAP1 PUSH2 0x100 EXP SWAP1 DIV PUSH1 0xFF AND SWAP2 POP POP SWAP3 SWAP2 POP POP JUMP JUMPDEST PUSH2 0x15D4 PUSH2 0x1966 JUMP JUMPDEST PUSH1 0x1 PUSH1 0x2 PUSH0 DUP4 PUSH20 0xFFFFFFFFFFFFFFFFFFFFFFFFFFFFFFFFFFFFFFFF AND PUSH20 0xFFFFFFFFFFFFFFFFFFFFFFFFFFFFFFFFFFFFFFFF AND DUP2 MSTORE PUSH1 0x20 ADD SWAP1 DUP2 MSTORE PUSH1 0x20 ADD PUSH0 KECCAK256 PUSH0 PUSH2 0x100 EXP DUP2 SLOAD DUP2 PUSH1 0xFF MUL NOT AND SWAP1 DUP4 ISZERO ISZERO MUL OR SWAP1 SSTORE PUSH2 0x1667 JUMPI PUSH1 0x40 MLOAD PUSH32 0x8C379A000000000000000000000000000000000000000000000000000000000 DUP2 MSTORE PUSH1 0x4 ADD PUSH2 0x165E SWAP1 PUSH2 0x40CE JUMP JUMPDEST PUSH1 0x40 MLOAD DUP1 SWAP2 SUB SWAP1 REVERT JUMPDEST PUSH0 PUSH1 0x2 PUSH0 DUP4 PUSH20 0xFFFFFFFFFFFFFFFFFFFFFFFFFFFFFFFFFFFFFFFF AND PUSH20 0xFFFFFFFFFFFFFFFFFFFFFFFFFFFFFFFFFFFFFFFF AND DUP2 MSTORE PUSH1 0x20 ADD SWAP1 DUP2 MSTORE PUSH1 0x20 ADD PUSH0 KECCAK256 PUSH0 PUSH2 0x100 EXP DUP2 SLOAD DUP2 PUSH1 0xFF MUL NOT AND SWAP1 DUP4 ISZERO ISZERO MUL OR SWAP1 SSTORE POP POP JUMP JUMPDEST PUSH2 0x16C6 PUSH2 0x1966 JUMP JUMPDEST PUSH0 PUSH20 0xFFFFFFFFFFFFFFFFFFFFFFFFFFFFFFFFFFFFFFFF AND DUP2 PUSH20 0xFFFFFFFFFFFFFFFFFFFFFFFFFFFFFFFFFFFFFFFF AND SUB PUSH2 0x1736 JUMPI PUSH0 PUSH1 0x40 MLOAD PUSH32 0x1E4FBDF700000000000000000000000000000000000000000000000000000000 DUP2 MSTORE PUSH1 0x4 ADD PUSH2 0x172D SWAP2 SWAP1 PUSH2 0x3756 JUMP JUMPDEST PUSH1 0x40 MLOAD DUP1 SWAP2 SUB SWAP1 REVERT JUMPDEST PUSH2 0x173F DUP2 PUSH2 0x1D18 JUMP JUMPDEST POP JUMP JUMPDEST PUSH1 0x60 PUSH1 0x40 MLOAD DUP1 PUSH1 0x40 ADD PUSH1 0x40 MSTORE DUP1 PUSH1 0xD DUP2 MSTORE PUSH1 0x20 ADD PUSH32 0x42696B6520436F6E747261637400000000000000000000000000000000000000 DUP2 MSTORE POP SWAP1 POP SWAP1 JUMP JUMPDEST PUSH0 PUSH32 0x780E9D6300000000000000000000000000000000000000000000000000000000 PUSH28 0xFFFFFFFFFFFFFFFFFFFFFFFFFFFFFFFFFFFFFFFFFFFFFFFFFFFFFFFF NOT AND DUP3 PUSH28 0xFFFFFFFFFFFFFFFFFFFFFFFFFFFFFFFFFFFFFFFFFFFFFFFFFFFFFFFF NOT AND EQ DUP1 PUSH2 0x17F1 JUMPI POP PUSH2 0x17F0 DUP3 PUSH2 0x230D JUMP JUMPDEST JUMPDEST SWAP1 POP SWAP2 SWAP1 POP JUMP JUMPDEST PUSH0 PUSH32 0x80BB2B638CC20BC4D0A60D66940F3AB4A00C1D7B313497CA82FB0B4AB0079300 SWAP1 POP SWAP1 JUMP JUMPDEST PUSH0 DUP1 PUSH2 0x182A DUP4 PUSH2 0x23EE JUMP JUMPDEST SWAP1 POP PUSH0 PUSH20 0xFFFFFFFFFFFFFFFFFFFFFFFFFFFFFFFFFFFFFFFF AND DUP2 PUSH20 0xFFFFFFFFFFFFFFFFFFFFFFFFFFFFFFFFFFFFFFFF AND SUB PUSH2 0x189C JUMPI DUP3 PUSH1 0x40 MLOAD PUSH32 0x7E27328900000000000000000000000000000000000000000000000000000000 DUP2 MSTORE PUSH1 0x4 ADD PUSH2 0x1893 SWAP2 SWAP1 PUSH2 0x37E6 JUMP JUMPDEST PUSH1 0x40 MLOAD DUP1 SWAP2 SUB SWAP1 REVERT JUMPDEST DUP1 SWAP2 POP POP SWAP2 SWAP1 POP JUMP JUMPDEST PUSH0 DUP1 PUSH2 0x18AF PUSH2 0x17F8 JUMP JUMPDEST SWAP1 POP DUP1 PUSH1 0x4 ADD PUSH0 DUP5 DUP2 MSTORE PUSH1 0x20 ADD SWAP1 DUP2 MSTORE PUSH1 0x20 ADD PUSH0 KECCAK256 PUSH0 SWAP1 SLOAD SWAP1 PUSH2 0x100 EXP SWAP1 DIV PUSH20 0xFFFFFFFFFFFFFFFFFFFFFFFFFFFFFFFFFFFFFFFF AND SWAP2 POP POP SWAP2 SWAP1 POP JUMP JUMPDEST PUSH0 CALLER SWAP1 POP SWAP1 JUMP JUMPDEST PUSH2 0x1900 DUP4 DUP4 DUP4 PUSH1 0x1 PUSH2 0x2435 JUMP JUMPDEST POP POP POP JUMP JUMPDEST PUSH0 DUP1 PUSH0 DUP2 SLOAD DUP1 SWAP3 SWAP2 SWAP1 PUSH2 0x1917 SWAP1 PUSH2 0x4119 JUMP JUMPDEST SWAP2 SWAP1 POP SSTORE SWAP1 POP PUSH2 0x1927 CALLER DUP3 PUSH2 0x2602 JUMP JUMPDEST POP JUMP JUMPDEST PUSH0 PUSH32 0x645E039705490088DAAD89BAE25049A34F4A9072D398537B1AB2425F24CBED00 SWAP1 POP SWAP1 JUMP JUMPDEST PUSH0 PUSH2 0x195D DUP5 DUP5 DUP5 PUSH2 0x261F JUMP JUMPDEST SWAP1 POP SWAP4 SWAP3 POP POP POP JUMP JUMPDEST PUSH2 0x196E PUSH2 0x18EC JUMP JUMPDEST PUSH20 0xFFFFFFFFFFFFFFFFFFFFFFFFFFFFFFFFFFFFFFFF AND PUSH2 0x198C PUSH2 0x115C JUMP JUMPDEST PUSH20 0xFFFFFFFFFFFFFFFFFFFFFFFFFFFFFFFFFFFFFFFF AND EQ PUSH2 0x19EB JUMPI PUSH2 0x19AF PUSH2 0x18EC JUMP JUMPDEST PUSH1 0x40 MLOAD PUSH32 0x118CDAA700000000000000000000000000000000000000000000000000000000 DUP2 MSTORE PUSH1 0x4 ADD PUSH2 0x19E2 SWAP2 SWAP1 PUSH2 0x3756 JUMP JUMPDEST PUSH1 0x40 MLOAD DUP1 SWAP2 SUB SWAP1 REVERT JUMPDEST JUMP JUMPDEST PUSH2 0x19F5 PUSH2 0x263C JUMP JUMPDEST PUSH0 PUSH2 0x19FE PUSH2 0x1CF1 JUMP JUMPDEST SWAP1 POP PUSH0 DUP2 PUSH0 ADD PUSH0 PUSH2 0x100 EXP DUP2 SLOAD DUP2 PUSH1 0xFF MUL NOT AND SWAP1 DUP4 ISZERO ISZERO MUL OR SWAP1 SSTORE POP PUSH32 0x5DB9EE0A495BF2E6FF9C91A7834C1BA4FDD244A5E8AA4E537BD38AEAE4B073AA PUSH2 0x1A43 PUSH2 0x18EC JUMP JUMPDEST PUSH1 0x40 MLOAD PUSH2 0x1A50 SWAP2 SWAP1 PUSH2 0x3756 JUMP JUMPDEST PUSH1 0x40 MLOAD DUP1 SWAP2 SUB SWAP1 LOG1 POP JUMP JUMPDEST PUSH32 0x0 PUSH20 0xFFFFFFFFFFFFFFFFFFFFFFFFFFFFFFFFFFFFFFFF AND ADDRESS PUSH20 0xFFFFFFFFFFFFFFFFFFFFFFFFFFFFFFFFFFFFFFFF AND EQ DUP1 PUSH2 0x1B08 JUMPI POP PUSH32 0x0 PUSH20 0xFFFFFFFFFFFFFFFFFFFFFFFFFFFFFFFFFFFFFFFF AND PUSH2 0x1AEF PUSH2 0x267C JUMP JUMPDEST PUSH20 0xFFFFFFFFFFFFFFFFFFFFFFFFFFFFFFFFFFFFFFFF AND EQ ISZERO JUMPDEST ISZERO PUSH2 0x1B3F JUMPI PUSH1 0x40 MLOAD PUSH32 0xE07C8DBA00000000000000000000000000000000000000000000000000000000 DUP2 MSTORE PUSH1 0x4 ADD PUSH1 0x40 MLOAD DUP1 SWAP2 SUB SWAP1 REVERT JUMPDEST JUMP JUMPDEST PUSH2 0x1B49 PUSH2 0x1966 JUMP JUMPDEST POP JUMP JUMPDEST DUP2 PUSH20 0xFFFFFFFFFFFFFFFFFFFFFFFFFFFFFFFFFFFFFFFF AND PUSH4 0x52D1902D PUSH1 0x40 MLOAD DUP2 PUSH4 0xFFFFFFFF AND PUSH1 0xE0 SHL DUP2 MSTORE PUSH1 0x4 ADD PUSH1 0x20 PUSH1 0x40 MLOAD DUP1 DUP4 SUB DUP2 DUP7 GAS STATICCALL SWAP3 POP POP POP DUP1 ISZERO PUSH2 0x1BB4 JUMPI POP PUSH1 0x40 MLOAD RETURNDATASIZE PUSH1 0x1F NOT PUSH1 0x1F DUP3 ADD AND DUP3 ADD DUP1 PUSH1 0x40 MSTORE POP DUP2 ADD SWAP1 PUSH2 0x1BB1 SWAP2 SWAP1 PUSH2 0x418A JUMP JUMPDEST PUSH1 0x1 JUMPDEST PUSH2 0x1BF5 JUMPI DUP2 PUSH1 0x40 MLOAD PUSH32 0x4C9C8CE300000000000000000000000000000000000000000000000000000000 DUP2 MSTORE PUSH1 0x4 ADD PUSH2 0x1BEC SWAP2 SWAP1 PUSH2 0x3756 JUMP JUMPDEST PUSH1 0x40 MLOAD DUP1 SWAP2 SUB SWAP1 REVERT JUMPDEST PUSH32 0x360894A13BA1A3210667C828492DB98DCA3E2076CC3735A920A3CA505D382BBC PUSH0 SHL DUP2 EQ PUSH2 0x1C5B JUMPI DUP1 PUSH1 0x40 MLOAD PUSH32 0xAA1D49A400000000000000000000000000000000000000000000000000000000 DUP2 MSTORE PUSH1 0x4 ADD PUSH2 0x1C52 SWAP2 SWAP1 PUSH2 0x3A80 JUMP JUMPDEST PUSH1 0x40 MLOAD DUP1 SWAP2 SUB SWAP1 REVERT JUMPDEST PUSH2 0x1C65 DUP4 DUP4 PUSH2 0x26CF JUMP JUMPDEST POP POP POP JUMP JUMPDEST PUSH32 0x0 PUSH20 0xFFFFFFFFFFFFFFFFFFFFFFFFFFFFFFFFFFFFFFFF AND ADDRESS PUSH20 0xFFFFFFFFFFFFFFFFFFFFFFFFFFFFFFFFFFFFFFFF AND EQ PUSH2 0x1CEF JUMPI PUSH1 0x40 MLOAD PUSH32 0xE07C8DBA00000000000000000000000000000000000000000000000000000000 DUP2 MSTORE PUSH1 0x4 ADD PUSH1 0x40 MLOAD DUP1 SWAP2 SUB SWAP1 REVERT JUMPDEST JUMP JUMPDEST PUSH0 PUSH32 0xCD5ED15C6E187E77E9AEE88184C21F4F2182AB5827CB3B7E07FBEDCD63F03300 SWAP1 POP SWAP1 JUMP JUMPDEST PUSH0 PUSH2 0x1D21 PUSH2 0x1E58 JUMP JUMPDEST SWAP1 POP PUSH0 DUP2 PUSH0 ADD PUSH0 SWAP1 SLOAD SWAP1 PUSH2 0x100 EXP SWAP1 DIV PUSH20 0xFFFFFFFFFFFFFFFFFFFFFFFFFFFFFFFFFFFFFFFF AND SWAP1 POP DUP3 DUP3 PUSH0 ADD PUSH0 PUSH2 0x100 EXP DUP2 SLOAD DUP2 PUSH20 0xFFFFFFFFFFFFFFFFFFFFFFFFFFFFFFFFFFFFFFFF MUL NOT AND SWAP1 DUP4 PUSH20 0xFFFFFFFFFFFFFFFFFFFFFFFFFFFFFFFFFFFFFFFF AND MUL OR SWAP1 SSTORE POP DUP3 PUSH20 0xFFFFFFFFFFFFFFFFFFFFFFFFFFFFFFFFFFFFFFFF AND DUP2 PUSH20 0xFFFFFFFFFFFFFFFFFFFFFFFFFFFFFFFFFFFFFFFF AND PUSH32 0x8BE0079C531659141344CD1FD0A4F28419497F9722A3DAAFE3B4186F6B6457E0 PUSH1 0x40 MLOAD PUSH1 0x40 MLOAD DUP1 SWAP2 SUB SWAP1 LOG3 POP POP POP JUMP JUMPDEST PUSH2 0x1DF1 PUSH2 0x2741 JUMP JUMPDEST PUSH0 PUSH2 0x1DFA PUSH2 0x1CF1 JUMP JUMPDEST SWAP1 POP PUSH1 0x1 DUP2 PUSH0 ADD PUSH0 PUSH2 0x100 EXP DUP2 SLOAD DUP2 PUSH1 0xFF MUL NOT AND SWAP1 DUP4 ISZERO ISZERO MUL OR SWAP1 SSTORE POP PUSH32 0x62E78CEA01BEE320CD4E420270B5EA74000D11B0C9F74754EBDBFC544B05A258 PUSH2 0x1E40 PUSH2 0x18EC JUMP JUMPDEST PUSH1 0x40 MLOAD PUSH2 0x1E4D SWAP2 SWAP1 PUSH2 0x3756 JUMP JUMPDEST PUSH1 0x40 MLOAD DUP1 SWAP2 SUB SWAP1 LOG1 POP JUMP JUMPDEST PUSH0 PUSH32 0x9016D09D72D40FDAE2FD8CEAC6B6234C7706214FD39C1CD1E609A0528C199300 SWAP1 POP SWAP1 JUMP JUMPDEST PUSH0 PUSH2 0x1E88 PUSH2 0x17F8 JUMP JUMPDEST SWAP1 POP PUSH0 PUSH20 0xFFFFFFFFFFFFFFFFFFFFFFFFFFFFFFFFFFFFFFFF AND DUP4 PUSH20 0xFFFFFFFFFFFFFFFFFFFFFFFFFFFFFFFFFFFFFFFF AND SUB PUSH2 0x1EFA JUMPI DUP3 PUSH1 0x40 MLOAD PUSH32 0x5B08BA1800000000000000000000000000000000000000000000000000000000 DUP2 MSTORE PUSH1 0x4 ADD PUSH2 0x1EF1 SWAP2 SWAP1 PUSH2 0x3756 JUMP JUMPDEST PUSH1 0x40 MLOAD DUP1 SWAP2 SUB SWAP1 REVERT JUMPDEST DUP2 DUP2 PUSH1 0x5 ADD PUSH0 DUP7 PUSH20 0xFFFFFFFFFFFFFFFFFFFFFFFFFFFFFFFFFFFFFFFF AND PUSH20 0xFFFFFFFFFFFFFFFFFFFFFFFFFFFFFFFFFFFFFFFF AND DUP2 MSTORE PUSH1 0x20 ADD SWAP1 DUP2 MSTORE PUSH1 0x20 ADD PUSH0 KECCAK256 PUSH0 DUP6 PUSH20 0xFFFFFFFFFFFFFFFFFFFFFFFFFFFFFFFFFFFFFFFF AND PUSH20 0xFFFFFFFFFFFFFFFFFFFFFFFFFFFFFFFFFFFFFFFF AND DUP2 MSTORE PUSH1 0x20 ADD SWAP1 DUP2 MSTORE PUSH1 0x20 ADD PUSH0 KECCAK256 PUSH0 PUSH2 0x100 EXP DUP2 SLOAD DUP2 PUSH1 0xFF MUL NOT AND SWAP1 DUP4 ISZERO ISZERO MUL OR SWAP1 SSTORE POP DUP3 PUSH20 0xFFFFFFFFFFFFFFFFFFFFFFFFFFFFFFFFFFFFFFFF AND DUP5 PUSH20 0xFFFFFFFFFFFFFFFFFFFFFFFFFFFFFFFFFFFFFFFF AND PUSH32 0x17307EAB39AB6107E8899845AD3D59BD9653F200F220920489CA2B5937696C31 DUP5 PUSH1 0x40 MLOAD PUSH2 0x1FE8 SWAP2 SWAP1 PUSH2 0x3610 JUMP JUMPDEST PUSH1 0x40 MLOAD DUP1 SWAP2 SUB SWAP1 LOG3 POP POP POP POP JUMP JUMPDEST PUSH0 DUP4 PUSH20 0xFFFFFFFFFFFFFFFFFFFFFFFFFFFFFFFFFFFFFFFF AND EXTCODESIZE GT ISZERO PUSH2 0x219B JUMPI DUP3 PUSH20 0xFFFFFFFFFFFFFFFFFFFFFFFFFFFFFFFFFFFFFFFF AND PUSH4 0x150B7A02 DUP7 DUP7 DUP6 DUP6 PUSH1 0x40 MLOAD DUP6 PUSH4 0xFFFFFFFF AND PUSH1 0xE0 SHL DUP2 MSTORE PUSH1 0x4 ADD PUSH2 0x2054 SWAP5 SWAP4 SWAP3 SWAP2 SWAP1 PUSH2 0x4207 JUMP JUMPDEST PUSH1 0x20 PUSH1 0x40 MLOAD DUP1 DUP4 SUB DUP2 PUSH0 DUP8 GAS CALL SWAP3 POP POP POP DUP1 ISZERO PUSH2 0x208F JUMPI POP PUSH1 0x40 MLOAD RETURNDATASIZE PUSH1 0x1F NOT PUSH1 0x1F DUP3 ADD AND DUP3 ADD DUP1 PUSH1 0x40 MSTORE POP DUP2 ADD SWAP1 PUSH2 0x208C SWAP2 SWAP1 PUSH2 0x4265 JUMP JUMPDEST PUSH1 0x1 JUMPDEST PUSH2 0x2110 JUMPI RETURNDATASIZE DUP1 PUSH0 DUP2 EQ PUSH2 0x20BD JUMPI PUSH1 0x40 MLOAD SWAP2 POP PUSH1 0x1F NOT PUSH1 0x3F RETURNDATASIZE ADD AND DUP3 ADD PUSH1 0x40 MSTORE RETURNDATASIZE DUP3 MSTORE RETURNDATASIZE PUSH0 PUSH1 0x20 DUP5 ADD RETURNDATACOPY PUSH2 0x20C2 JUMP JUMPDEST PUSH1 0x60 SWAP2 POP JUMPDEST POP PUSH0 DUP2 MLOAD SUB PUSH2 0x2108 JUMPI DUP4 PUSH1 0x40 MLOAD PUSH32 0x64A0AE9200000000000000000000000000000000000000000000000000000000 DUP2 MSTORE PUSH1 0x4 ADD PUSH2 0x20FF SWAP2 SWAP1 PUSH2 0x3756 JUMP JUMPDEST PUSH1 0x40 MLOAD DUP1 SWAP2 SUB SWAP1 REVERT JUMPDEST DUP1 MLOAD DUP2 PUSH1 0x20 ADD REVERT JUMPDEST PUSH4 0x150B7A02 PUSH1 0xE0 SHL PUSH28 0xFFFFFFFFFFFFFFFFFFFFFFFFFFFFFFFFFFFFFFFFFFFFFFFFFFFFFFFF NOT AND DUP2 PUSH28 0xFFFFFFFFFFFFFFFFFFFFFFFFFFFFFFFFFFFFFFFFFFFFFFFFFFFFFFFF NOT AND EQ PUSH2 0x2199 JUMPI DUP4 PUSH1 0x40 MLOAD PUSH32 0x64A0AE9200000000000000000000000000000000000000000000000000000000 DUP2 MSTORE PUSH1 0x4 ADD PUSH2 0x2190 SWAP2 SWAP1 PUSH2 0x3756 JUMP JUMPDEST PUSH1 0x40 MLOAD DUP1 SWAP2 SUB SWAP1 REVERT JUMPDEST POP JUMPDEST POP POP POP POP POP JUMP JUMPDEST PUSH0 PUSH32 0xF0C57E16840DF040F15088DC2F81FE391C3923BEC73E23A9662EFC9C229C6A00 SWAP1 POP SWAP1 JUMP JUMPDEST PUSH2 0x21D1 PUSH2 0x2782 JUMP JUMPDEST PUSH2 0x21DB DUP3 DUP3 PUSH2 0x27C2 JUMP JUMPDEST POP POP JUMP JUMPDEST PUSH2 0x21E7 PUSH2 0x2782 JUMP JUMPDEST JUMP JUMPDEST PUSH2 0x21F1 PUSH2 0x2782 JUMP JUMPDEST PUSH2 0x21F9 PUSH2 0x27FD JUMP JUMPDEST JUMP JUMPDEST PUSH2 0x2203 PUSH2 0x2782 JUMP JUMPDEST PUSH2 0x220C DUP2 PUSH2 0x282D JUMP JUMPDEST POP JUMP JUMPDEST PUSH2 0x2217 PUSH2 0x2782 JUMP JUMPDEST JUMP JUMPDEST PUSH2 0x2221 PUSH2 0x2782 JUMP JUMPDEST JUMP JUMPDEST PUSH1 0x60 PUSH1 0x40 MLOAD DUP1 PUSH1 0x60 ADD PUSH1 0x40 MSTORE DUP1 PUSH1 0x2A DUP2 MSTORE PUSH1 0x20 ADD PUSH2 0x45D1 PUSH1 0x2A SWAP2 CODECOPY SWAP1 POP SWAP1 JUMP JUMPDEST PUSH1 0x60 PUSH0 PUSH1 0x1 PUSH2 0x2251 DUP5 PUSH2 0x28B1 JUMP JUMPDEST ADD SWAP1 POP PUSH0 DUP2 PUSH8 0xFFFFFFFFFFFFFFFF DUP2 GT ISZERO PUSH2 0x226F JUMPI PUSH2 0x226E PUSH2 0x38EA JUMP JUMPDEST JUMPDEST PUSH1 0x40 MLOAD SWAP1 DUP1 DUP3 MSTORE DUP1 PUSH1 0x1F ADD PUSH1 0x1F NOT AND PUSH1 0x20 ADD DUP3 ADD PUSH1 0x40 MSTORE DUP1 ISZERO PUSH2 0x22A1 JUMPI DUP2 PUSH1 0x20 ADD PUSH1 0x1 DUP3 MUL DUP1 CALLDATASIZE DUP4 CALLDATACOPY DUP1 DUP3 ADD SWAP2 POP POP SWAP1 POP JUMPDEST POP SWAP1 POP PUSH0 DUP3 PUSH1 0x20 ADD DUP3 ADD SWAP1 POP JUMPDEST PUSH1 0x1 ISZERO PUSH2 0x2302 JUMPI DUP1 DUP1 PUSH1 0x1 SWAP1 SUB SWAP2 POP POP PUSH32 0x3031323334353637383961626364656600000000000000000000000000000000 PUSH1 0xA DUP7 MOD BYTE DUP2 MSTORE8 PUSH1 0xA DUP6 DUP2 PUSH2 0x22F7 JUMPI PUSH2 0x22F6 PUSH2 0x4290 JUMP JUMPDEST JUMPDEST DIV SWAP5 POP PUSH0 DUP6 SUB PUSH2 0x22AE JUMPI JUMPDEST DUP2 SWAP4 POP POP POP POP SWAP2 SWAP1 POP JUMP JUMPDEST PUSH0 PUSH32 0x80AC58CD00000000000000000000000000000000000000000000000000000000 PUSH28 0xFFFFFFFFFFFFFFFFFFFFFFFFFFFFFFFFFFFFFFFFFFFFFFFFFFFFFFFF NOT AND DUP3 PUSH28 0xFFFFFFFFFFFFFFFFFFFFFFFFFFFFFFFFFFFFFFFFFFFFFFFFFFFFFFFF NOT AND EQ DUP1 PUSH2 0x23D7 JUMPI POP PUSH32 0x5B5E139F00000000000000000000000000000000000000000000000000000000 PUSH28 0xFFFFFFFFFFFFFFFFFFFFFFFFFFFFFFFFFFFFFFFFFFFFFFFFFFFFFFFF NOT AND DUP3 PUSH28 0xFFFFFFFFFFFFFFFFFFFFFFFFFFFFFFFFFFFFFFFFFFFFFFFFFFFFFFFF NOT AND EQ JUMPDEST DUP1 PUSH2 0x23E7 JUMPI POP PUSH2 0x23E6 DUP3 PUSH2 0x2A02 JUMP JUMPDEST JUMPDEST SWAP1 POP SWAP2 SWAP1 POP JUMP JUMPDEST PUSH0 DUP1 PUSH2 0x23F8 PUSH2 0x17F8 JUMP JUMPDEST SWAP1 POP DUP1 PUSH1 0x2 ADD PUSH0 DUP5 DUP2 MSTORE PUSH1 0x20 ADD SWAP1 DUP2 MSTORE PUSH1 0x20 ADD PUSH0 KECCAK256 PUSH0 SWAP1 SLOAD SWAP1 PUSH2 0x100 EXP SWAP1 DIV PUSH20 0xFFFFFFFFFFFFFFFFFFFFFFFFFFFFFFFFFFFFFFFF AND SWAP2 POP POP SWAP2 SWAP1 POP JUMP JUMPDEST PUSH0 PUSH2 0x243E PUSH2 0x17F8 JUMP JUMPDEST SWAP1 POP DUP2 DUP1 PUSH2 0x2478 JUMPI POP PUSH0 PUSH20 0xFFFFFFFFFFFFFFFFFFFFFFFFFFFFFFFFFFFFFFFF AND DUP4 PUSH20 0xFFFFFFFFFFFFFFFFFFFFFFFFFFFFFFFFFFFFFFFF AND EQ ISZERO JUMPDEST ISZERO PUSH2 0x25AA JUMPI PUSH0 PUSH2 0x2487 DUP6 PUSH2 0x181F JUMP JUMPDEST SWAP1 POP PUSH0 PUSH20 0xFFFFFFFFFFFFFFFFFFFFFFFFFFFFFFFFFFFFFFFF AND DUP5 PUSH20 0xFFFFFFFFFFFFFFFFFFFFFFFFFFFFFFFFFFFFFFFF AND EQ ISZERO DUP1 ISZERO PUSH2 0x24F1 JUMPI POP DUP4 PUSH20 0xFFFFFFFFFFFFFFFFFFFFFFFFFFFFFFFFFFFFFFFF AND DUP2 PUSH20 0xFFFFFFFFFFFFFFFFFFFFFFFFFFFFFFFFFFFFFFFF AND EQ ISZERO JUMPDEST DUP1 ISZERO PUSH2 0x2504 JUMPI POP PUSH2 0x2502 DUP2 DUP6 PUSH2 0x1530 JUMP JUMPDEST ISZERO JUMPDEST ISZERO PUSH2 0x2546 JUMPI DUP4 PUSH1 0x40 MLOAD PUSH32 0xA9FBF51F00000000000000000000000000000000000000000000000000000000 DUP2 MSTORE PUSH1 0x4 ADD PUSH2 0x253D SWAP2 SWAP1 PUSH2 0x3756 JUMP JUMPDEST PUSH1 0x40 MLOAD DUP1 SWAP2 SUB SWAP1 REVERT JUMPDEST DUP3 ISZERO PUSH2 0x25A8 JUMPI DUP5 DUP7 PUSH20 0xFFFFFFFFFFFFFFFFFFFFFFFFFFFFFFFFFFFFFFFF AND DUP3 PUSH20 0xFFFFFFFFFFFFFFFFFFFFFFFFFFFFFFFFFFFFFFFF AND PUSH32 0x8C5BE1E5EBEC7D5BD14F71427D1E84F3DD0314C0F7B2291E5B200AC8C7C3B925 PUSH1 0x40 MLOAD PUSH1 0x40 MLOAD DUP1 SWAP2 SUB SWAP1 LOG4 JUMPDEST POP JUMPDEST DUP5 DUP2 PUSH1 0x4 ADD PUSH0 DUP7 DUP2 MSTORE PUSH1 0x20 ADD SWAP1 DUP2 MSTORE PUSH1 0x20 ADD PUSH0 KECCAK256 PUSH0 PUSH2 0x100 EXP DUP2 SLOAD DUP2 PUSH20 0xFFFFFFFFFFFFFFFFFFFFFFFFFFFFFFFFFFFFFFFF MUL NOT AND SWAP1 DUP4 PUSH20 0xFFFFFFFFFFFFFFFFFFFFFFFFFFFFFFFFFFFFFFFF AND MUL OR SWAP1 SSTORE POP POP POP POP POP POP JUMP JUMPDEST PUSH2 0x261B DUP3 DUP3 PUSH1 0x40 MLOAD DUP1 PUSH1 0x20 ADD PUSH1 0x40 MSTORE DUP1 PUSH0 DUP2 MSTORE POP PUSH2 0x2A6B JUMP JUMPDEST POP POP JUMP JUMPDEST PUSH0 PUSH2 0x2628 PUSH2 0x2741 JUMP JUMPDEST PUSH2 0x2633 DUP5 DUP5 DUP5 PUSH2 0x2A8E JUMP JUMPDEST SWAP1 POP SWAP4 SWAP3 POP POP POP JUMP JUMPDEST PUSH2 0x2644 PUSH2 0xF9D JUMP JUMPDEST PUSH2 0x267A JUMPI PUSH1 0x40 MLOAD PUSH32 0x8DFC202B00000000000000000000000000000000000000000000000000000000 DUP2 MSTORE PUSH1 0x4 ADD PUSH1 0x40 MLOAD DUP1 SWAP2 SUB SWAP1 REVERT JUMPDEST JUMP JUMPDEST PUSH0 PUSH2 0x26A8 PUSH32 0x360894A13BA1A3210667C828492DB98DCA3E2076CC3735A920A3CA505D382BBC PUSH0 SHL PUSH2 0x2BA8 JUMP JUMPDEST PUSH0 ADD PUSH0 SWAP1 SLOAD SWAP1 PUSH2 0x100 EXP SWAP1 DIV PUSH20 0xFFFFFFFFFFFFFFFFFFFFFFFFFFFFFFFFFFFFFFFF AND SWAP1 POP SWAP1 JUMP JUMPDEST PUSH2 0x26D8 DUP3 PUSH2 0x2BB1 JUMP JUMPDEST DUP2 PUSH20 0xFFFFFFFFFFFFFFFFFFFFFFFFFFFFFFFFFFFFFFFF AND PUSH32 0xBC7CD75A20EE27FD9ADEBAB32041F755214DBC6BFFA90CC0225B39DA2E5C2D3B PUSH1 0x40 MLOAD PUSH1 0x40 MLOAD DUP1 SWAP2 SUB SWAP1 LOG2 PUSH0 DUP2 MLOAD GT ISZERO PUSH2 0x2734 JUMPI PUSH2 0x272E DUP3 DUP3 PUSH2 0x2C7A JUMP JUMPDEST POP PUSH2 0x273D JUMP JUMPDEST PUSH2 0x273C PUSH2 0x2CFA JUMP JUMPDEST JUMPDEST POP POP JUMP JUMPDEST PUSH2 0x2749 PUSH2 0xF9D JUMP JUMPDEST ISZERO PUSH2 0x2780 JUMPI PUSH1 0x40 MLOAD PUSH32 0xD93C066500000000000000000000000000000000000000000000000000000000 DUP2 MSTORE PUSH1 0x4 ADD PUSH1 0x40 MLOAD DUP1 SWAP2 SUB SWAP1 REVERT JUMPDEST JUMP JUMPDEST PUSH2 0x278A PUSH2 0x2D36 JUMP JUMPDEST PUSH2 0x27C0 JUMPI PUSH1 0x40 MLOAD PUSH32 0xD7E6BCF800000000000000000000000000000000000000000000000000000000 DUP2 MSTORE PUSH1 0x4 ADD PUSH1 0x40 MLOAD DUP1 SWAP2 SUB SWAP1 REVERT JUMPDEST JUMP JUMPDEST PUSH2 0x27CA PUSH2 0x2782 JUMP JUMPDEST PUSH0 PUSH2 0x27D3 PUSH2 0x17F8 JUMP JUMPDEST SWAP1 POP DUP3 DUP2 PUSH0 ADD SWAP1 DUP2 PUSH2 0x27E5 SWAP2 SWAP1 PUSH2 0x4451 JUMP JUMPDEST POP DUP2 DUP2 PUSH1 0x1 ADD SWAP1 DUP2 PUSH2 0x27F7 SWAP2 SWAP1 PUSH2 0x4451 JUMP JUMPDEST POP POP POP POP JUMP JUMPDEST PUSH2 0x2805 PUSH2 0x2782 JUMP JUMPDEST PUSH0 PUSH2 0x280E PUSH2 0x1CF1 JUMP JUMPDEST SWAP1 POP PUSH0 DUP2 PUSH0 ADD PUSH0 PUSH2 0x100 EXP DUP2 SLOAD DUP2 PUSH1 0xFF MUL NOT AND SWAP1 DUP4 ISZERO ISZERO MUL OR SWAP1 SSTORE POP POP JUMP JUMPDEST PUSH2 0x2835 PUSH2 0x2782 JUMP JUMPDEST PUSH0 PUSH20 0xFFFFFFFFFFFFFFFFFFFFFFFFFFFFFFFFFFFFFFFF AND DUP2 PUSH20 0xFFFFFFFFFFFFFFFFFFFFFFFFFFFFFFFFFFFFFFFF AND SUB PUSH2 0x28A5 JUMPI PUSH0 PUSH1 0x40 MLOAD PUSH32 0x1E4FBDF700000000000000000000000000000000000000000000000000000000 DUP2 MSTORE PUSH1 0x4 ADD PUSH2 0x289C SWAP2 SWAP1 PUSH2 0x3756 JUMP JUMPDEST PUSH1 0x40 MLOAD DUP1 SWAP2 SUB SWAP1 REVERT JUMPDEST PUSH2 0x28AE DUP2 PUSH2 0x1D18 JUMP JUMPDEST POP JUMP JUMPDEST PUSH0 DUP1 PUSH0 SWAP1 POP PUSH27 0x184F03E93FF9F4DAA797ED6E38ED64BF6A1F010000000000000000 DUP4 LT PUSH2 0x290D JUMPI PUSH27 0x184F03E93FF9F4DAA797ED6E38ED64BF6A1F010000000000000000 DUP4 DUP2 PUSH2 0x2903 JUMPI PUSH2 0x2902 PUSH2 0x4290 JUMP JUMPDEST JUMPDEST DIV SWAP3 POP PUSH1 0x40 DUP2 ADD SWAP1 POP JUMPDEST PUSH14 0x4EE2D6D415B85ACEF8100000000 DUP4 LT PUSH2 0x294A JUMPI PUSH14 0x4EE2D6D415B85ACEF8100000000 DUP4 DUP2 PUSH2 0x2940 JUMPI PUSH2 0x293F PUSH2 0x4290 JUMP JUMPDEST JUMPDEST DIV SWAP3 POP PUSH1 0x20 DUP2 ADD SWAP1 POP JUMPDEST PUSH7 0x2386F26FC10000 DUP4 LT PUSH2 0x2979 JUMPI PUSH7 0x2386F26FC10000 DUP4 DUP2 PUSH2 0x296F JUMPI PUSH2 0x296E PUSH2 0x4290 JUMP JUMPDEST JUMPDEST DIV SWAP3 POP PUSH1 0x10 DUP2 ADD SWAP1 POP JUMPDEST PUSH4 0x5F5E100 DUP4 LT PUSH2 0x29A2 JUMPI PUSH4 0x5F5E100 DUP4 DUP2 PUSH2 0x2998 JUMPI PUSH2 0x2997 PUSH2 0x4290 JUMP JUMPDEST JUMPDEST DIV SWAP3 POP PUSH1 0x8 DUP2 ADD SWAP1 POP JUMPDEST PUSH2 0x2710 DUP4 LT PUSH2 0x29C7 JUMPI PUSH2 0x2710 DUP4 DUP2 PUSH2 0x29BD JUMPI PUSH2 0x29BC PUSH2 0x4290 JUMP JUMPDEST JUMPDEST DIV SWAP3 POP PUSH1 0x4 DUP2 ADD SWAP1 POP JUMPDEST PUSH1 0x64 DUP4 LT PUSH2 0x29EA JUMPI PUSH1 0x64 DUP4 DUP2 PUSH2 0x29E0 JUMPI PUSH2 0x29DF PUSH2 0x4290 JUMP JUMPDEST JUMPDEST DIV SWAP3 POP PUSH1 0x2 DUP2 ADD SWAP1 POP JUMPDEST PUSH1 0xA DUP4 LT PUSH2 0x29F9 JUMPI PUSH1 0x1 DUP2 ADD SWAP1 POP JUMPDEST DUP1 SWAP2 POP POP SWAP2 SWAP1 POP JUMP JUMPDEST PUSH0 PUSH32 0x1FFC9A700000000000000000000000000000000000000000000000000000000 PUSH28 0xFFFFFFFFFFFFFFFFFFFFFFFFFFFFFFFFFFFFFFFFFFFFFFFFFFFFFFFF NOT AND DUP3 PUSH28 0xFFFFFFFFFFFFFFFFFFFFFFFFFFFFFFFFFFFFFFFFFFFFFFFFFFFFFFFF NOT AND EQ SWAP1 POP SWAP2 SWAP1 POP JUMP JUMPDEST PUSH2 0x2A75 DUP4 DUP4 PUSH2 0x2D54 JUMP JUMPDEST PUSH2 0x2A89 PUSH2 0x2A80 PUSH2 0x18EC JUMP JUMPDEST PUSH0 DUP6 DUP6 DUP6 PUSH2 0x1FF6 JUMP JUMPDEST POP POP POP JUMP JUMPDEST PUSH0 DUP1 PUSH2 0x2A9B DUP6 DUP6 DUP6 PUSH2 0x2E47 JUMP JUMPDEST SWAP1 POP PUSH0 PUSH20 0xFFFFFFFFFFFFFFFFFFFFFFFFFFFFFFFFFFFFFFFF AND DUP2 PUSH20 0xFFFFFFFFFFFFFFFFFFFFFFFFFFFFFFFFFFFFFFFF AND SUB PUSH2 0x2ADE JUMPI PUSH2 0x2AD9 DUP5 PUSH2 0x3064 JUMP JUMPDEST PUSH2 0x2B1D JUMP JUMPDEST DUP5 PUSH20 0xFFFFFFFFFFFFFFFFFFFFFFFFFFFFFFFFFFFFFFFF AND DUP2 PUSH20 0xFFFFFFFFFFFFFFFFFFFFFFFFFFFFFFFFFFFFFFFF AND EQ PUSH2 0x2B1C JUMPI PUSH2 0x2B1B DUP2 DUP6 PUSH2 0x30BA JUMP JUMPDEST JUMPDEST JUMPDEST PUSH0 PUSH20 0xFFFFFFFFFFFFFFFFFFFFFFFFFFFFFFFFFFFFFFFF AND DUP6 PUSH20 0xFFFFFFFFFFFFFFFFFFFFFFFFFFFFFFFFFFFFFFFF AND SUB PUSH2 0x2B5E JUMPI PUSH2 0x2B59 DUP5 PUSH2 0x31A4 JUMP JUMPDEST PUSH2 0x2B9D JUMP JUMPDEST DUP5 PUSH20 0xFFFFFFFFFFFFFFFFFFFFFFFFFFFFFFFFFFFFFFFF AND DUP2 PUSH20 0xFFFFFFFFFFFFFFFFFFFFFFFFFFFFFFFFFFFFFFFF AND EQ PUSH2 0x2B9C JUMPI PUSH2 0x2B9B DUP6 DUP6 PUSH2 0x327E JUMP JUMPDEST JUMPDEST JUMPDEST DUP1 SWAP2 POP POP SWAP4 SWAP3 POP POP POP JUMP JUMPDEST PUSH0 DUP2 SWAP1 POP SWAP2 SWAP1 POP JUMP JUMPDEST PUSH0 DUP2 PUSH20 0xFFFFFFFFFFFFFFFFFFFFFFFFFFFFFFFFFFFFFFFF AND EXTCODESIZE SUB PUSH2 0x2C0C JUMPI DUP1 PUSH1 0x40 MLOAD PUSH32 0x4C9C8CE300000000000000000000000000000000000000000000000000000000 DUP2 MSTORE PUSH1 0x4 ADD PUSH2 0x2C03 SWAP2 SWAP1 PUSH2 0x3756 JUMP JUMPDEST PUSH1 0x40 MLOAD DUP1 SWAP2 SUB SWAP1 REVERT JUMPDEST DUP1 PUSH2 0x2C38 PUSH32 0x360894A13BA1A3210667C828492DB98DCA3E2076CC3735A920A3CA505D382BBC PUSH0 SHL PUSH2 0x2BA8 JUMP JUMPDEST PUSH0 ADD PUSH0 PUSH2 0x100 EXP DUP2 SLOAD DUP2 PUSH20 0xFFFFFFFFFFFFFFFFFFFFFFFFFFFFFFFFFFFFFFFF MUL NOT AND SWAP1 DUP4 PUSH20 0xFFFFFFFFFFFFFFFFFFFFFFFFFFFFFFFFFFFFFFFF AND MUL OR SWAP1 SSTORE POP POP JUMP JUMPDEST PUSH1 0x60 PUSH0 DUP1 DUP5 PUSH20 0xFFFFFFFFFFFFFFFFFFFFFFFFFFFFFFFFFFFFFFFF AND DUP5 PUSH1 0x40 MLOAD PUSH2 0x2CA3 SWAP2 SWAP1 PUSH2 0x455A JUMP JUMPDEST PUSH0 PUSH1 0x40 MLOAD DUP1 DUP4 SUB DUP2 DUP6 GAS DELEGATECALL SWAP2 POP POP RETURNDATASIZE DUP1 PUSH0 DUP2 EQ PUSH2 0x2CDB JUMPI PUSH1 0x40 MLOAD SWAP2 POP PUSH1 0x1F NOT PUSH1 0x3F RETURNDATASIZE ADD AND DUP3 ADD PUSH1 0x40 MSTORE RETURNDATASIZE DUP3 MSTORE RETURNDATASIZE PUSH0 PUSH1 0x20 DUP5 ADD RETURNDATACOPY PUSH2 0x2CE0 JUMP JUMPDEST PUSH1 0x60 SWAP2 POP JUMPDEST POP SWAP2 POP SWAP2 POP PUSH2 0x2CF0 DUP6 DUP4 DUP4 PUSH2 0x3311 JUMP JUMPDEST SWAP3 POP POP POP SWAP3 SWAP2 POP POP JUMP JUMPDEST PUSH0 CALLVALUE GT ISZERO PUSH2 0x2D34 JUMPI PUSH1 0x40 MLOAD PUSH32 0xB398979F00000000000000000000000000000000000000000000000000000000 DUP2 MSTORE PUSH1 0x4 ADD PUSH1 0x40 MLOAD DUP1 SWAP2 SUB SWAP1 REVERT JUMPDEST JUMP JUMPDEST PUSH0 PUSH2 0x2D3F PUSH2 0x21A2 JUMP JUMPDEST PUSH0 ADD PUSH1 0x8 SWAP1 SLOAD SWAP1 PUSH2 0x100 EXP SWAP1 DIV PUSH1 0xFF AND SWAP1 POP SWAP1 JUMP JUMPDEST PUSH0 PUSH20 0xFFFFFFFFFFFFFFFFFFFFFFFFFFFFFFFFFFFFFFFF AND DUP3 PUSH20 0xFFFFFFFFFFFFFFFFFFFFFFFFFFFFFFFFFFFFFFFF AND SUB PUSH2 0x2DC4 JUMPI PUSH0 PUSH1 0x40 MLOAD PUSH32 0x64A0AE9200000000000000000000000000000000000000000000000000000000 DUP2 MSTORE PUSH1 0x4 ADD PUSH2 0x2DBB SWAP2 SWAP1 PUSH2 0x3756 JUMP JUMPDEST PUSH1 0x40 MLOAD DUP1 SWAP2 SUB SWAP1 REVERT JUMPDEST PUSH0 PUSH2 0x2DD0 DUP4 DUP4 PUSH0 PUSH2 0x1951 JUMP JUMPDEST SWAP1 POP PUSH0 PUSH20 0xFFFFFFFFFFFFFFFFFFFFFFFFFFFFFFFFFFFFFFFF AND DUP2 PUSH20 0xFFFFFFFFFFFFFFFFFFFFFFFFFFFFFFFFFFFFFFFF AND EQ PUSH2 0x2E42 JUMPI PUSH0 PUSH1 0x40 MLOAD PUSH32 0x73C6AC6E00000000000000000000000000000000000000000000000000000000 DUP2 MSTORE PUSH1 0x4 ADD PUSH2 0x2E39 SWAP2 SWAP1 PUSH2 0x3756 JUMP JUMPDEST PUSH1 0x40 MLOAD DUP1 SWAP2 SUB SWAP1 REVERT JUMPDEST POP POP POP JUMP JUMPDEST PUSH0 DUP1 PUSH2 0x2E51 PUSH2 0x17F8 JUMP JUMPDEST SWAP1 POP PUSH0 PUSH2 0x2E5D DUP6 PUSH2 0x23EE JUMP JUMPDEST SWAP1 POP PUSH0 PUSH20 0xFFFFFFFFFFFFFFFFFFFFFFFFFFFFFFFFFFFFFFFF AND DUP5 PUSH20 0xFFFFFFFFFFFFFFFFFFFFFFFFFFFFFFFFFFFFFFFF AND EQ PUSH2 0x2E9E JUMPI PUSH2 0x2E9D DUP2 DUP6 DUP8 PUSH2 0x339E JUMP JUMPDEST JUMPDEST PUSH0 PUSH20 0xFFFFFFFFFFFFFFFFFFFFFFFFFFFFFFFFFFFFFFFF AND DUP2 PUSH20 0xFFFFFFFFFFFFFFFFFFFFFFFFFFFFFFFFFFFFFFFF AND EQ PUSH2 0x2F2B JUMPI PUSH2 0x2EDD PUSH0 DUP7 PUSH0 DUP1 PUSH2 0x2435 JUMP JUMPDEST PUSH1 0x1 DUP3 PUSH1 0x3 ADD PUSH0 DUP4 PUSH20 0xFFFFFFFFFFFFFFFFFFFFFFFFFFFFFFFFFFFFFFFF AND PUSH20 0xFFFFFFFFFFFFFFFFFFFFFFFFFFFFFFFFFFFFFFFF AND DUP2 MSTORE PUSH1 0x20 ADD SWAP1 DUP2 MSTORE PUSH1 0x20 ADD PUSH0 KECCAK256 PUSH0 DUP3 DUP3 SLOAD SUB SWAP3 POP POP DUP2 SWAP1 SSTORE POP JUMPDEST PUSH0 PUSH20 0xFFFFFFFFFFFFFFFFFFFFFFFFFFFFFFFFFFFFFFFF AND DUP7 PUSH20 0xFFFFFFFFFFFFFFFFFFFFFFFFFFFFFFFFFFFFFFFF AND EQ PUSH2 0x2FAC JUMPI PUSH1 0x1 DUP3 PUSH1 0x3 ADD PUSH0 DUP9 PUSH20 0xFFFFFFFFFFFFFFFFFFFFFFFFFFFFFFFFFFFFFFFF AND PUSH20 0xFFFFFFFFFFFFFFFFFFFFFFFFFFFFFFFFFFFFFFFF AND DUP2 MSTORE PUSH1 0x20 ADD SWAP1 DUP2 MSTORE PUSH1 0x20 ADD PUSH0 KECCAK256 PUSH0 DUP3 DUP3 SLOAD ADD SWAP3 POP POP DUP2 SWAP1 SSTORE POP JUMPDEST DUP6 DUP3 PUSH1 0x2 ADD PUSH0 DUP8 DUP2 MSTORE PUSH1 0x20 ADD SWAP1 DUP2 MSTORE PUSH1 0x20 ADD PUSH0 KECCAK256 PUSH0 PUSH2 0x100 EXP DUP2 SLOAD DUP2 PUSH20 0xFFFFFFFFFFFFFFFFFFFFFFFFFFFFFFFFFFFFFFFF MUL NOT AND SWAP1 DUP4 PUSH20 0xFFFFFFFFFFFFFFFFFFFFFFFFFFFFFFFFFFFFFFFF AND MUL OR SWAP1 SSTORE POP DUP5 DUP7 PUSH20 0xFFFFFFFFFFFFFFFFFFFFFFFFFFFFFFFFFFFFFFFF AND DUP3 PUSH20 0xFFFFFFFFFFFFFFFFFFFFFFFFFFFFFFFFFFFFFFFF AND PUSH32 0xDDF252AD1BE2C89B69C2B068FC378DAA952BA7F163C4A11628F55A4DF523B3EF PUSH1 0x40 MLOAD PUSH1 0x40 MLOAD DUP1 SWAP2 SUB SWAP1 LOG4 DUP1 SWAP3 POP POP POP SWAP4 SWAP3 POP POP POP JUMP JUMPDEST PUSH0 PUSH2 0x306D PUSH2 0x192A JUMP JUMPDEST SWAP1 POP DUP1 PUSH1 0x2 ADD DUP1 SLOAD SWAP1 POP DUP2 PUSH1 0x3 ADD PUSH0 DUP5 DUP2 MSTORE PUSH1 0x20 ADD SWAP1 DUP2 MSTORE PUSH1 0x20 ADD PUSH0 KECCAK256 DUP2 SWAP1 SSTORE POP DUP1 PUSH1 0x2 ADD DUP3 SWAP1 DUP1 PUSH1 0x1 DUP2 SLOAD ADD DUP1 DUP3 SSTORE DUP1 SWAP2 POP POP PUSH1 0x1 SWAP1 SUB SWAP1 PUSH0 MSTORE PUSH1 0x20 PUSH0 KECCAK256 ADD PUSH0 SWAP1 SWAP2 SWAP1 SWAP2 SWAP1 SWAP2 POP SSTORE POP POP JUMP JUMPDEST PUSH0 PUSH2 0x30C3 PUSH2 0x192A JUMP JUMPDEST SWAP1 POP PUSH0 PUSH2 0x30CF DUP5 PUSH2 0x1073 JUMP JUMPDEST SWAP1 POP PUSH0 DUP3 PUSH1 0x1 ADD PUSH0 DUP6 DUP2 MSTORE PUSH1 0x20 ADD SWAP1 DUP2 MSTORE PUSH1 0x20 ADD PUSH0 KECCAK256 SLOAD SWAP1 POP PUSH0 DUP4 PUSH0 ADD PUSH0 DUP8 PUSH20 0xFFFFFFFFFFFFFFFFFFFFFFFFFFFFFFFFFFFFFFFF AND PUSH20 0xFFFFFFFFFFFFFFFFFFFFFFFFFFFFFFFFFFFFFFFF AND DUP2 MSTORE PUSH1 0x20 ADD SWAP1 DUP2 MSTORE PUSH1 0x20 ADD PUSH0 KECCAK256 SWAP1 POP DUP3 DUP3 EQ PUSH2 0x3173 JUMPI PUSH0 DUP2 PUSH0 DUP6 DUP2 MSTORE PUSH1 0x20 ADD SWAP1 DUP2 MSTORE PUSH1 0x20 ADD PUSH0 KECCAK256 SLOAD SWAP1 POP DUP1 DUP3 PUSH0 DUP6 DUP2 MSTORE PUSH1 0x20 ADD SWAP1 DUP2 MSTORE PUSH1 0x20 ADD PUSH0 KECCAK256 DUP2 SWAP1 SSTORE POP DUP3 DUP6 PUSH1 0x1 ADD PUSH0 DUP4 DUP2 MSTORE PUSH1 0x20 ADD SWAP1 DUP2 MSTORE PUSH1 0x20 ADD PUSH0 KECCAK256 DUP2 SWAP1 SSTORE POP POP JUMPDEST DUP4 PUSH1 0x1 ADD PUSH0 DUP7 DUP2 MSTORE PUSH1 0x20 ADD SWAP1 DUP2 MSTORE PUSH1 0x20 ADD PUSH0 KECCAK256 PUSH0 SWAP1 SSTORE DUP1 PUSH0 DUP5 DUP2 MSTORE PUSH1 0x20 ADD SWAP1 DUP2 MSTORE PUSH1 0x20 ADD PUSH0 KECCAK256 PUSH0 SWAP1 SSTORE POP POP POP POP POP POP JUMP JUMPDEST PUSH0 PUSH2 0x31AD PUSH2 0x192A JUMP JUMPDEST SWAP1 POP PUSH0 PUSH1 0x1 DUP3 PUSH1 0x2 ADD DUP1 SLOAD SWAP1 POP PUSH2 0x31C4 SWAP2 SWAP1 PUSH2 0x4570 JUMP JUMPDEST SWAP1 POP PUSH0 DUP3 PUSH1 0x3 ADD PUSH0 DUP6 DUP2 MSTORE PUSH1 0x20 ADD SWAP1 DUP2 MSTORE PUSH1 0x20 ADD PUSH0 KECCAK256 SLOAD SWAP1 POP PUSH0 DUP4 PUSH1 0x2 ADD DUP4 DUP2 SLOAD DUP2 LT PUSH2 0x31F4 JUMPI PUSH2 0x31F3 PUSH2 0x3F66 JUMP JUMPDEST JUMPDEST SWAP1 PUSH0 MSTORE PUSH1 0x20 PUSH0 KECCAK256 ADD SLOAD SWAP1 POP DUP1 DUP5 PUSH1 0x2 ADD DUP4 DUP2 SLOAD DUP2 LT PUSH2 0x3216 JUMPI PUSH2 0x3215 PUSH2 0x3F66 JUMP JUMPDEST JUMPDEST SWAP1 PUSH0 MSTORE PUSH1 0x20 PUSH0 KECCAK256 ADD DUP2 SWAP1 SSTORE POP DUP2 DUP5 PUSH1 0x3 ADD PUSH0 DUP4 DUP2 MSTORE PUSH1 0x20 ADD SWAP1 DUP2 MSTORE PUSH1 0x20 ADD PUSH0 KECCAK256 DUP2 SWAP1 SSTORE POP DUP4 PUSH1 0x3 ADD PUSH0 DUP7 DUP2 MSTORE PUSH1 0x20 ADD SWAP1 DUP2 MSTORE PUSH1 0x20 ADD PUSH0 KECCAK256 PUSH0 SWAP1 SSTORE DUP4 PUSH1 0x2 ADD DUP1 SLOAD DUP1 PUSH2 0x3264 JUMPI PUSH2 0x3263 PUSH2 0x45A3 JUMP JUMPDEST JUMPDEST PUSH1 0x1 SWAP1 SUB DUP2 DUP2 SWAP1 PUSH0 MSTORE PUSH1 0x20 PUSH0 KECCAK256 ADD PUSH0 SWAP1 SSTORE SWAP1 SSTORE POP POP POP POP POP JUMP JUMPDEST PUSH0 PUSH2 0x3287 PUSH2 0x192A JUMP JUMPDEST SWAP1 POP PUSH0 PUSH1 0x1 PUSH2 0x3295 DUP6 PUSH2 0x1073 JUMP JUMPDEST PUSH2 0x329F SWAP2 SWAP1 PUSH2 0x4570 JUMP JUMPDEST SWAP1 POP DUP3 DUP3 PUSH0 ADD PUSH0 DUP7 PUSH20 0xFFFFFFFFFFFFFFFFFFFFFFFFFFFFFFFFFFFFFFFF AND PUSH20 0xFFFFFFFFFFFFFFFFFFFFFFFFFFFFFFFFFFFFFFFF AND DUP2 MSTORE PUSH1 0x20 ADD SWAP1 DUP2 MSTORE PUSH1 0x20 ADD PUSH0 KECCAK256 PUSH0 DUP4 DUP2 MSTORE PUSH1 0x20 ADD SWAP1 DUP2 MSTORE PUSH1 0x20 ADD PUSH0 KECCAK256 DUP2 SWAP1 SSTORE POP DUP1 DUP3 PUSH1 0x1 ADD PUSH0 DUP6 DUP2 MSTORE PUSH1 0x20 ADD SWAP1 DUP2 MSTORE PUSH1 0x20 ADD PUSH0 KECCAK256 DUP2 SWAP1 SSTORE POP POP POP POP POP JUMP JUMPDEST PUSH1 0x60 DUP3 PUSH2 0x3326 JUMPI PUSH2 0x3321 DUP3 PUSH2 0x3461 JUMP JUMPDEST PUSH2 0x3396 JUMP JUMPDEST PUSH0 DUP3 MLOAD EQ DUP1 ISZERO PUSH2 0x334C JUMPI POP PUSH0 DUP5 PUSH20 0xFFFFFFFFFFFFFFFFFFFFFFFFFFFFFFFFFFFFFFFF AND EXTCODESIZE EQ JUMPDEST ISZERO PUSH2 0x338E JUMPI DUP4 PUSH1 0x40 MLOAD PUSH32 0x9996B31500000000000000000000000000000000000000000000000000000000 DUP2 MSTORE PUSH1 0x4 ADD PUSH2 0x3385 SWAP2 SWAP1 PUSH2 0x3756 JUMP JUMPDEST PUSH1 0x40 MLOAD DUP1 SWAP2 SUB SWAP1 REVERT JUMPDEST DUP2 SWAP1 POP PUSH2 0x3397 JUMP JUMPDEST JUMPDEST SWAP4 SWAP3 POP POP POP JUMP JUMPDEST PUSH2 0x33A9 DUP4 DUP4 DUP4 PUSH2 0x34A5 JUMP JUMPDEST PUSH2 0x345C JUMPI PUSH0 PUSH20 0xFFFFFFFFFFFFFFFFFFFFFFFFFFFFFFFFFFFFFFFF AND DUP4 PUSH20 0xFFFFFFFFFFFFFFFFFFFFFFFFFFFFFFFFFFFFFFFF AND SUB PUSH2 0x341D JUMPI DUP1 PUSH1 0x40 MLOAD PUSH32 0x7E27328900000000000000000000000000000000000000000000000000000000 DUP2 MSTORE PUSH1 0x4 ADD PUSH2 0x3414 SWAP2 SWAP1 PUSH2 0x37E6 JUMP JUMPDEST PUSH1 0x40 MLOAD DUP1 SWAP2 SUB SWAP1 REVERT JUMPDEST DUP2 DUP2 PUSH1 0x40 MLOAD PUSH32 0x177E802F00000000000000000000000000000000000000000000000000000000 DUP2 MSTORE PUSH1 0x4 ADD PUSH2 0x3453 SWAP3 SWAP2 SWAP1 PUSH2 0x3ED7 JUMP JUMPDEST PUSH1 0x40 MLOAD DUP1 SWAP2 SUB SWAP1 REVERT JUMPDEST POP POP POP JUMP JUMPDEST PUSH0 DUP2 MLOAD GT ISZERO PUSH2 0x3473 JUMPI DUP1 MLOAD DUP1 DUP3 PUSH1 0x20 ADD REVERT JUMPDEST PUSH1 0x40 MLOAD PUSH32 0xD6BDA27500000000000000000000000000000000000000000000000000000000 DUP2 MSTORE PUSH1 0x4 ADD PUSH1 0x40 MLOAD DUP1 SWAP2 SUB SWAP1 REVERT JUMPDEST PUSH0 DUP1 PUSH20 0xFFFFFFFFFFFFFFFFFFFFFFFFFFFFFFFFFFFFFFFF AND DUP4 PUSH20 0xFFFFFFFFFFFFFFFFFFFFFFFFFFFFFFFFFFFFFFFF AND EQ ISZERO DUP1 ISZERO PUSH2 0x355C JUMPI POP DUP3 PUSH20 0xFFFFFFFFFFFFFFFFFFFFFFFFFFFFFFFFFFFFFFFF AND DUP5 PUSH20 0xFFFFFFFFFFFFFFFFFFFFFFFFFFFFFFFFFFFFFFFF AND EQ DUP1 PUSH2 0x351D JUMPI POP PUSH2 0x351C DUP5 DUP5 PUSH2 0x1530 JUMP JUMPDEST JUMPDEST DUP1 PUSH2 0x355B JUMPI POP DUP3 PUSH20 0xFFFFFFFFFFFFFFFFFFFFFFFFFFFFFFFFFFFFFFFF AND PUSH2 0x3543 DUP4 PUSH2 0x18A5 JUMP JUMPDEST PUSH20 0xFFFFFFFFFFFFFFFFFFFFFFFFFFFFFFFFFFFFFFFF AND EQ JUMPDEST JUMPDEST SWAP1 POP SWAP4 SWAP3 POP POP POP JUMP JUMPDEST PUSH0 PUSH1 0x40 MLOAD SWAP1 POP SWAP1 JUMP JUMPDEST PUSH0 DUP1 REVERT JUMPDEST PUSH0 DUP1 REVERT JUMPDEST PUSH0 PUSH32 0xFFFFFFFF00000000000000000000000000000000000000000000000000000000 DUP3 AND SWAP1 POP SWAP2 SWAP1 POP JUMP JUMPDEST PUSH2 0x35AA DUP2 PUSH2 0x3576 JUMP JUMPDEST DUP2 EQ PUSH2 0x35B4 JUMPI PUSH0 DUP1 REVERT JUMPDEST POP JUMP JUMPDEST PUSH0 DUP2 CALLDATALOAD SWAP1 POP PUSH2 0x35C5 DUP2 PUSH2 0x35A1 JUMP JUMPDEST SWAP3 SWAP2 POP POP JUMP JUMPDEST PUSH0 PUSH1 0x20 DUP3 DUP5 SUB SLT ISZERO PUSH2 0x35E0 JUMPI PUSH2 0x35DF PUSH2 0x356E JUMP JUMPDEST JUMPDEST PUSH0 PUSH2 0x35ED DUP5 DUP3 DUP6 ADD PUSH2 0x35B7 JUMP JUMPDEST SWAP2 POP POP SWAP3 SWAP2 POP POP JUMP JUMPDEST PUSH0 DUP2 ISZERO ISZERO SWAP1 POP SWAP2 SWAP1 POP JUMP JUMPDEST PUSH2 0x360A DUP2 PUSH2 0x35F6 JUMP JUMPDEST DUP3 MSTORE POP POP JUMP JUMPDEST PUSH0 PUSH1 0x20 DUP3 ADD SWAP1 POP PUSH2 0x3623 PUSH0 DUP4 ADD DUP5 PUSH2 0x3601 JUMP JUMPDEST SWAP3 SWAP2 POP POP JUMP JUMPDEST PUSH0 DUP2 MLOAD SWAP1 POP SWAP2 SWAP1 POP JUMP JUMPDEST PUSH0 DUP3 DUP3 MSTORE PUSH1 0x20 DUP3 ADD SWAP1 POP SWAP3 SWAP2 POP POP JUMP JUMPDEST DUP3 DUP2 DUP4 MCOPY PUSH0 DUP4 DUP4 ADD MSTORE POP POP POP JUMP JUMPDEST PUSH0 PUSH1 0x1F NOT PUSH1 0x1F DUP4 ADD AND SWAP1 POP SWAP2 SWAP1 POP JUMP JUMPDEST PUSH0 PUSH2 0x366B DUP3 PUSH2 0x3629 JUMP JUMPDEST PUSH2 0x3675 DUP2 DUP6 PUSH2 0x3633 JUMP JUMPDEST SWAP4 POP PUSH2 0x3685 DUP2 DUP6 PUSH1 0x20 DUP7 ADD PUSH2 0x3643 JUMP JUMPDEST PUSH2 0x368E DUP2 PUSH2 0x3651 JUMP JUMPDEST DUP5 ADD SWAP2 POP POP SWAP3 SWAP2 POP POP JUMP JUMPDEST PUSH0 PUSH1 0x20 DUP3 ADD SWAP1 POP DUP2 DUP2 SUB PUSH0 DUP4 ADD MSTORE PUSH2 0x36B1 DUP2 DUP5 PUSH2 0x3661 JUMP JUMPDEST SWAP1 POP SWAP3 SWAP2 POP POP JUMP JUMPDEST PUSH0 DUP2 SWAP1 POP SWAP2 SWAP1 POP JUMP JUMPDEST PUSH2 0x36CB DUP2 PUSH2 0x36B9 JUMP JUMPDEST DUP2 EQ PUSH2 0x36D5 JUMPI PUSH0 DUP1 REVERT JUMPDEST POP JUMP JUMPDEST PUSH0 DUP2 CALLDATALOAD SWAP1 POP PUSH2 0x36E6 DUP2 PUSH2 0x36C2 JUMP JUMPDEST SWAP3 SWAP2 POP POP JUMP JUMPDEST PUSH0 PUSH1 0x20 DUP3 DUP5 SUB SLT ISZERO PUSH2 0x3701 JUMPI PUSH2 0x3700 PUSH2 0x356E JUMP JUMPDEST JUMPDEST PUSH0 PUSH2 0x370E DUP5 DUP3 DUP6 ADD PUSH2 0x36D8 JUMP JUMPDEST SWAP2 POP POP SWAP3 SWAP2 POP POP JUMP JUMPDEST PUSH0 PUSH20 0xFFFFFFFFFFFFFFFFFFFFFFFFFFFFFFFFFFFFFFFF DUP3 AND SWAP1 POP SWAP2 SWAP1 POP JUMP JUMPDEST PUSH0 PUSH2 0x3740 DUP3 PUSH2 0x3717 JUMP JUMPDEST SWAP1 POP SWAP2 SWAP1 POP JUMP JUMPDEST PUSH2 0x3750 DUP2 PUSH2 0x3736 JUMP JUMPDEST DUP3 MSTORE POP POP JUMP JUMPDEST PUSH0 PUSH1 0x20 DUP3 ADD SWAP1 POP PUSH2 0x3769 PUSH0 DUP4 ADD DUP5 PUSH2 0x3747 JUMP JUMPDEST SWAP3 SWAP2 POP POP JUMP JUMPDEST PUSH2 0x3778 DUP2 PUSH2 0x3736 JUMP JUMPDEST DUP2 EQ PUSH2 0x3782 JUMPI PUSH0 DUP1 REVERT JUMPDEST POP JUMP JUMPDEST PUSH0 DUP2 CALLDATALOAD SWAP1 POP PUSH2 0x3793 DUP2 PUSH2 0x376F JUMP JUMPDEST SWAP3 SWAP2 POP POP JUMP JUMPDEST PUSH0 DUP1 PUSH1 0x40 DUP4 DUP6 SUB SLT ISZERO PUSH2 0x37AF JUMPI PUSH2 0x37AE PUSH2 0x356E JUMP JUMPDEST JUMPDEST PUSH0 PUSH2 0x37BC DUP6 DUP3 DUP7 ADD PUSH2 0x3785 JUMP JUMPDEST SWAP3 POP POP PUSH1 0x20 PUSH2 0x37CD DUP6 DUP3 DUP7 ADD PUSH2 0x36D8 JUMP JUMPDEST SWAP2 POP POP SWAP3 POP SWAP3 SWAP1 POP JUMP JUMPDEST PUSH2 0x37E0 DUP2 PUSH2 0x36B9 JUMP JUMPDEST DUP3 MSTORE POP POP JUMP JUMPDEST PUSH0 PUSH1 0x20 DUP3 ADD SWAP1 POP PUSH2 0x37F9 PUSH0 DUP4 ADD DUP5 PUSH2 0x37D7 JUMP JUMPDEST SWAP3 SWAP2 POP POP JUMP JUMPDEST PUSH0 DUP1 PUSH0 PUSH1 0x60 DUP5 DUP7 SUB SLT ISZERO PUSH2 0x3816 JUMPI PUSH2 0x3815 PUSH2 0x356E JUMP JUMPDEST JUMPDEST PUSH0 PUSH2 0x3823 DUP7 DUP3 DUP8 ADD PUSH2 0x3785 JUMP JUMPDEST SWAP4 POP POP PUSH1 0x20 PUSH2 0x3834 DUP7 DUP3 DUP8 ADD PUSH2 0x3785 JUMP JUMPDEST SWAP3 POP POP PUSH1 0x40 PUSH2 0x3845 DUP7 DUP3 DUP8 ADD PUSH2 0x36D8 JUMP JUMPDEST SWAP2 POP POP SWAP3 POP SWAP3 POP SWAP3 JUMP JUMPDEST PUSH0 PUSH1 0x20 DUP3 DUP5 SUB SLT ISZERO PUSH2 0x3864 JUMPI PUSH2 0x3863 PUSH2 0x356E JUMP JUMPDEST JUMPDEST PUSH0 PUSH2 0x3871 DUP5 DUP3 DUP6 ADD PUSH2 0x3785 JUMP JUMPDEST SWAP2 POP POP SWAP3 SWAP2 POP POP JUMP JUMPDEST PUSH2 0x3883 DUP2 PUSH2 0x35F6 JUMP JUMPDEST DUP2 EQ PUSH2 0x388D JUMPI PUSH0 DUP1 REVERT JUMPDEST POP JUMP JUMPDEST PUSH0 DUP2 CALLDATALOAD SWAP1 POP PUSH2 0x389E DUP2 PUSH2 0x387A JUMP JUMPDEST SWAP3 SWAP2 POP POP JUMP JUMPDEST PUSH0 DUP1 PUSH1 0x40 DUP4 DUP6 SUB SLT ISZERO PUSH2 0x38BA JUMPI PUSH2 0x38B9 PUSH2 0x356E JUMP JUMPDEST JUMPDEST PUSH0 PUSH2 0x38C7 DUP6 DUP3 DUP7 ADD PUSH2 0x3890 JUMP JUMPDEST SWAP3 POP POP PUSH1 0x20 PUSH2 0x38D8 DUP6 DUP3 DUP7 ADD PUSH2 0x3890 JUMP JUMPDEST SWAP2 POP POP SWAP3 POP SWAP3 SWAP1 POP JUMP JUMPDEST PUSH0 DUP1 REVERT JUMPDEST PUSH0 DUP1 REVERT JUMPDEST PUSH32 0x4E487B7100000000000000000000000000000000000000000000000000000000 PUSH0 MSTORE PUSH1 0x41 PUSH1 0x4 MSTORE PUSH1 0x24 PUSH0 REVERT JUMPDEST PUSH2 0x3920 DUP3 PUSH2 0x3651 JUMP JUMPDEST DUP2 ADD DUP2 DUP2 LT PUSH8 0xFFFFFFFFFFFFFFFF DUP3 GT OR ISZERO PUSH2 0x393F JUMPI PUSH2 0x393E PUSH2 0x38EA JUMP JUMPDEST JUMPDEST DUP1 PUSH1 0x40 MSTORE POP POP POP JUMP JUMPDEST PUSH0 PUSH2 0x3951 PUSH2 0x3565 JUMP JUMPDEST SWAP1 POP PUSH2 0x395D DUP3 DUP3 PUSH2 0x3917 JUMP JUMPDEST SWAP2 SWAP1 POP JUMP JUMPDEST PUSH0 PUSH8 0xFFFFFFFFFFFFFFFF DUP3 GT ISZERO PUSH2 0x397C JUMPI PUSH2 0x397B PUSH2 0x38EA JUMP JUMPDEST JUMPDEST PUSH2 0x3985 DUP3 PUSH2 0x3651 JUMP JUMPDEST SWAP1 POP PUSH1 0x20 DUP2 ADD SWAP1 POP SWAP2 SWAP1 POP JUMP JUMPDEST DUP3 DUP2 DUP4 CALLDATACOPY PUSH0 DUP4 DUP4 ADD MSTORE POP POP POP JUMP JUMPDEST PUSH0 PUSH2 0x39B2 PUSH2 0x39AD DUP5 PUSH2 0x3962 JUMP JUMPDEST PUSH2 0x3948 JUMP JUMPDEST SWAP1 POP DUP3 DUP2 MSTORE PUSH1 0x20 DUP2 ADD DUP5 DUP5 DUP5 ADD GT ISZERO PUSH2 0x39CE JUMPI PUSH2 0x39CD PUSH2 0x38E6 JUMP JUMPDEST JUMPDEST PUSH2 0x39D9 DUP5 DUP3 DUP6 PUSH2 0x3992 JUMP JUMPDEST POP SWAP4 SWAP3 POP POP POP JUMP JUMPDEST PUSH0 DUP3 PUSH1 0x1F DUP4 ADD SLT PUSH2 0x39F5 JUMPI PUSH2 0x39F4 PUSH2 0x38E2 JUMP JUMPDEST JUMPDEST DUP2 CALLDATALOAD PUSH2 0x3A05 DUP5 DUP3 PUSH1 0x20 DUP7 ADD PUSH2 0x39A0 JUMP JUMPDEST SWAP2 POP POP SWAP3 SWAP2 POP POP JUMP JUMPDEST PUSH0 DUP1 PUSH1 0x40 DUP4 DUP6 SUB SLT ISZERO PUSH2 0x3A24 JUMPI PUSH2 0x3A23 PUSH2 0x356E JUMP JUMPDEST JUMPDEST PUSH0 PUSH2 0x3A31 DUP6 DUP3 DUP7 ADD PUSH2 0x3785 JUMP JUMPDEST SWAP3 POP POP PUSH1 0x20 DUP4 ADD CALLDATALOAD PUSH8 0xFFFFFFFFFFFFFFFF DUP2 GT ISZERO PUSH2 0x3A52 JUMPI PUSH2 0x3A51 PUSH2 0x3572 JUMP JUMPDEST JUMPDEST PUSH2 0x3A5E DUP6 DUP3 DUP7 ADD PUSH2 0x39E1 JUMP JUMPDEST SWAP2 POP POP SWAP3 POP SWAP3 SWAP1 POP JUMP JUMPDEST PUSH0 DUP2 SWAP1 POP SWAP2 SWAP1 POP JUMP JUMPDEST PUSH2 0x3A7A DUP2 PUSH2 0x3A68 JUMP JUMPDEST DUP3 MSTORE POP POP JUMP JUMPDEST PUSH0 PUSH1 0x20 DUP3 ADD SWAP1 POP PUSH2 0x3A93 PUSH0 DUP4 ADD DUP5 PUSH2 0x3A71 JUMP JUMPDEST SWAP3 SWAP2 POP POP JUMP JUMPDEST PUSH0 DUP1 REVERT JUMPDEST PUSH0 DUP1 REVERT JUMPDEST PUSH0 DUP1 DUP4 PUSH1 0x1F DUP5 ADD SLT PUSH2 0x3AB6 JUMPI PUSH2 0x3AB5 PUSH2 0x38E2 JUMP JUMPDEST JUMPDEST DUP3 CALLDATALOAD SWAP1 POP PUSH8 0xFFFFFFFFFFFFFFFF DUP2 GT ISZERO PUSH2 0x3AD3 JUMPI PUSH2 0x3AD2 PUSH2 0x3A99 JUMP JUMPDEST JUMPDEST PUSH1 0x20 DUP4 ADD SWAP2 POP DUP4 PUSH1 0x20 DUP3 MUL DUP4 ADD GT ISZERO PUSH2 0x3AEF JUMPI PUSH2 0x3AEE PUSH2 0x3A9D JUMP JUMPDEST JUMPDEST SWAP3 POP SWAP3 SWAP1 POP JUMP JUMPDEST PUSH0 DUP1 PUSH1 0x20 DUP4 DUP6 SUB SLT ISZERO PUSH2 0x3B0C JUMPI PUSH2 0x3B0B PUSH2 0x356E JUMP JUMPDEST JUMPDEST PUSH0 DUP4 ADD CALLDATALOAD PUSH8 0xFFFFFFFFFFFFFFFF DUP2 GT ISZERO PUSH2 0x3B29 JUMPI PUSH2 0x3B28 PUSH2 0x3572 JUMP JUMPDEST JUMPDEST PUSH2 0x3B35 DUP6 DUP3 DUP7 ADD PUSH2 0x3AA1 JUMP JUMPDEST SWAP3 POP SWAP3 POP POP SWAP3 POP SWAP3 SWAP1 POP JUMP JUMPDEST PUSH0 DUP1 PUSH1 0x40 DUP4 DUP6 SUB SLT ISZERO PUSH2 0x3B57 JUMPI PUSH2 0x3B56 PUSH2 0x356E JUMP JUMPDEST JUMPDEST PUSH0 PUSH2 0x3B64 DUP6 DUP3 DUP7 ADD PUSH2 0x3785 JUMP JUMPDEST SWAP3 POP POP PUSH1 0x20 PUSH2 0x3B75 DUP6 DUP3 DUP7 ADD PUSH2 0x3890 JUMP JUMPDEST SWAP2 POP POP SWAP3 POP SWAP3 SWAP1 POP JUMP JUMPDEST PUSH0 DUP1 PUSH0 DUP1 PUSH1 0x80 DUP6 DUP8 SUB SLT ISZERO PUSH2 0x3B97 JUMPI PUSH2 0x3B96 PUSH2 0x356E JUMP JUMPDEST JUMPDEST PUSH0 PUSH2 0x3BA4 DUP8 DUP3 DUP9 ADD PUSH2 0x3785 JUMP JUMPDEST SWAP5 POP POP PUSH1 0x20 PUSH2 0x3BB5 DUP8 DUP3 DUP9 ADD PUSH2 0x3785 JUMP JUMPDEST SWAP4 POP POP PUSH1 0x40 PUSH2 0x3BC6 DUP8 DUP3 DUP9 ADD PUSH2 0x36D8 JUMP JUMPDEST SWAP3 POP POP PUSH1 0x60 DUP6 ADD CALLDATALOAD PUSH8 0xFFFFFFFFFFFFFFFF DUP2 GT ISZERO PUSH2 0x3BE7 JUMPI PUSH2 0x3BE6 PUSH2 0x3572 JUMP JUMPDEST JUMPDEST PUSH2 0x3BF3 DUP8 DUP3 DUP9 ADD PUSH2 0x39E1 JUMP JUMPDEST SWAP2 POP POP SWAP3 SWAP6 SWAP2 SWAP5 POP SWAP3 POP JUMP JUMPDEST PUSH0 DUP1 PUSH1 0x40 DUP4 DUP6 SUB SLT ISZERO PUSH2 0x3C15 JUMPI PUSH2 0x3C14 PUSH2 0x356E JUMP JUMPDEST JUMPDEST PUSH0 PUSH2 0x3C22 DUP6 DUP3 DUP7 ADD PUSH2 0x3785 JUMP JUMPDEST SWAP3 POP POP PUSH1 0x20 PUSH2 0x3C33 DUP6 DUP3 DUP7 ADD PUSH2 0x3785 JUMP JUMPDEST SWAP2 POP POP SWAP3 POP SWAP3 SWAP1 POP JUMP JUMPDEST PUSH32 0x4E487B7100000000000000000000000000000000000000000000000000000000 PUSH0 MSTORE PUSH1 0x22 PUSH1 0x4 MSTORE PUSH1 0x24 PUSH0 REVERT JUMPDEST PUSH0 PUSH1 0x2 DUP3 DIV SWAP1 POP PUSH1 0x1 DUP3 AND DUP1 PUSH2 0x3C81 JUMPI PUSH1 0x7F DUP3 AND SWAP2 POP JUMPDEST PUSH1 0x20 DUP3 LT DUP2 SUB PUSH2 0x3C94 JUMPI PUSH2 0x3C93 PUSH2 0x3C3D JUMP JUMPDEST JUMPDEST POP SWAP2 SWAP1 POP JUMP JUMPDEST PUSH32 0x416C6C6F776C697374204D696E7420436C6F7365640000000000000000000000 PUSH0 DUP3 ADD MSTORE POP JUMP JUMPDEST PUSH0 PUSH2 0x3CCE PUSH1 0x15 DUP4 PUSH2 0x3633 JUMP JUMPDEST SWAP2 POP PUSH2 0x3CD9 DUP3 PUSH2 0x3C9A JUMP JUMPDEST PUSH1 0x20 DUP3 ADD SWAP1 POP SWAP2 SWAP1 POP JUMP JUMPDEST PUSH0 PUSH1 0x20 DUP3 ADD SWAP1 POP DUP2 DUP2 SUB PUSH0 DUP4 ADD MSTORE PUSH2 0x3CFB DUP2 PUSH2 0x3CC2 JUMP JUMPDEST SWAP1 POP SWAP2 SWAP1 POP JUMP JUMPDEST PUSH32 0x596F75206172656E6F7420616C6C6F77656420746F206D696E74000000000000 PUSH0 DUP3 ADD MSTORE POP JUMP JUMPDEST PUSH0 PUSH2 0x3D36 PUSH1 0x1A DUP4 PUSH2 0x3633 JUMP JUMPDEST SWAP2 POP PUSH2 0x3D41 DUP3 PUSH2 0x3D02 JUMP JUMPDEST PUSH1 0x20 DUP3 ADD SWAP1 POP SWAP2 SWAP1 POP JUMP JUMPDEST PUSH0 PUSH1 0x20 DUP3 ADD SWAP1 POP DUP2 DUP2 SUB PUSH0 DUP4 ADD MSTORE PUSH2 0x3D63 DUP2 PUSH2 0x3D2A JUMP JUMPDEST SWAP1 POP SWAP2 SWAP1 POP JUMP JUMPDEST PUSH32 0x4E6F7420456E6F7567682046756E647300000000000000000000000000000000 PUSH0 DUP3 ADD MSTORE POP JUMP JUMPDEST PUSH0 PUSH2 0x3D9E PUSH1 0x10 DUP4 PUSH2 0x3633 JUMP JUMPDEST SWAP2 POP PUSH2 0x3DA9 DUP3 PUSH2 0x3D6A JUMP JUMPDEST PUSH1 0x20 DUP3 ADD SWAP1 POP SWAP2 SWAP1 POP JUMP JUMPDEST PUSH0 PUSH1 0x20 DUP3 ADD SWAP1 POP DUP2 DUP2 SUB PUSH0 DUP4 ADD MSTORE PUSH2 0x3DCB DUP2 PUSH2 0x3D92 JUMP JUMPDEST SWAP1 POP SWAP2 SWAP1 POP JUMP JUMPDEST PUSH0 PUSH1 0x60 DUP3 ADD SWAP1 POP PUSH2 0x3DE5 PUSH0 DUP4 ADD DUP7 PUSH2 0x3747 JUMP JUMPDEST PUSH2 0x3DF2 PUSH1 0x20 DUP4 ADD DUP6 PUSH2 0x37D7 JUMP JUMPDEST PUSH2 0x3DFF PUSH1 0x40 DUP4 ADD DUP5 PUSH2 0x3747 JUMP JUMPDEST SWAP5 SWAP4 POP POP POP POP JUMP JUMPDEST PUSH32 0x5075626C6963204D696E7420436C6F7365640000000000000000000000000000 PUSH0 DUP3 ADD MSTORE POP JUMP JUMPDEST PUSH0 PUSH2 0x3E3B PUSH1 0x12 DUP4 PUSH2 0x3633 JUMP JUMPDEST SWAP2 POP PUSH2 0x3E46 DUP3 PUSH2 0x3E07 JUMP JUMPDEST PUSH1 0x20 DUP3 ADD SWAP1 POP SWAP2 SWAP1 POP JUMP JUMPDEST PUSH0 PUSH1 0x20 DUP3 ADD SWAP1 POP DUP2 DUP2 SUB PUSH0 DUP4 ADD MSTORE PUSH2 0x3E68 DUP2 PUSH2 0x3E2F JUMP JUMPDEST SWAP1 POP SWAP2 SWAP1 POP JUMP JUMPDEST PUSH32 0x4E6F7420456E6F7567682066756E647300000000000000000000000000000000 PUSH0 DUP3 ADD MSTORE POP JUMP JUMPDEST PUSH0 PUSH2 0x3EA3 PUSH1 0x10 DUP4 PUSH2 0x3633 JUMP JUMPDEST SWAP2 POP PUSH2 0x3EAE DUP3 PUSH2 0x3E6F JUMP JUMPDEST PUSH1 0x20 DUP3 ADD SWAP1 POP SWAP2 SWAP1 POP JUMP JUMPDEST PUSH0 PUSH1 0x20 DUP3 ADD SWAP1 POP DUP2 DUP2 SUB PUSH0 DUP4 ADD MSTORE PUSH2 0x3ED0 DUP2 PUSH2 0x3E97 JUMP JUMPDEST SWAP1 POP SWAP2 SWAP1 POP JUMP JUMPDEST PUSH0 PUSH1 0x40 DUP3 ADD SWAP1 POP PUSH2 0x3EEA PUSH0 DUP4 ADD DUP6 PUSH2 0x3747 JUMP JUMPDEST PUSH2 0x3EF7 PUSH1 0x20 DUP4 ADD DUP5 PUSH2 0x37D7 JUMP JUMPDEST SWAP4 SWAP3 POP POP POP JUMP JUMPDEST PUSH32 0x416C726561647920616464656420746F2074686520616C6C6F7765644C697374 PUSH0 DUP3 ADD MSTORE POP JUMP JUMPDEST PUSH0 PUSH2 0x3F32 PUSH1 0x20 DUP4 PUSH2 0x3633 JUMP JUMPDEST SWAP2 POP PUSH2 0x3F3D DUP3 PUSH2 0x3EFE JUMP JUMPDEST PUSH1 0x20 DUP3 ADD SWAP1 POP SWAP2 SWAP1 POP JUMP JUMPDEST PUSH0 PUSH1 0x20 DUP3 ADD SWAP1 POP DUP2 DUP2 SUB PUSH0 DUP4 ADD MSTORE PUSH2 0x3F5F DUP2 PUSH2 0x3F26 JUMP JUMPDEST SWAP1 POP SWAP2 SWAP1 POP JUMP JUMPDEST PUSH32 0x4E487B7100000000000000000000000000000000000000000000000000000000 PUSH0 MSTORE PUSH1 0x32 PUSH1 0x4 MSTORE PUSH1 0x24 PUSH0 REVERT JUMPDEST PUSH0 DUP2 SWAP1 POP SWAP2 SWAP1 POP JUMP JUMPDEST PUSH0 PUSH8 0xFFFFFFFFFFFFFFFF DUP3 AND SWAP1 POP SWAP2 SWAP1 POP JUMP JUMPDEST PUSH0 DUP2 SWAP1 POP SWAP2 SWAP1 POP JUMP JUMPDEST PUSH0 PUSH2 0x3FD2 PUSH2 0x3FCD PUSH2 0x3FC8 DUP5 PUSH2 0x3F93 JUMP JUMPDEST PUSH2 0x3FAF JUMP JUMPDEST PUSH2 0x3F9C JUMP JUMPDEST SWAP1 POP SWAP2 SWAP1 POP JUMP JUMPDEST PUSH2 0x3FE2 DUP2 PUSH2 0x3FB8 JUMP JUMPDEST DUP3 MSTORE POP POP JUMP JUMPDEST PUSH0 PUSH1 0x20 DUP3 ADD SWAP1 POP PUSH2 0x3FFB PUSH0 DUP4 ADD DUP5 PUSH2 0x3FD9 JUMP JUMPDEST SWAP3 SWAP2 POP POP JUMP JUMPDEST PUSH0 DUP2 SWAP1 POP SWAP3 SWAP2 POP POP JUMP JUMPDEST PUSH0 PUSH2 0x4015 DUP3 PUSH2 0x3629 JUMP JUMPDEST PUSH2 0x401F DUP2 DUP6 PUSH2 0x4001 JUMP JUMPDEST SWAP4 POP PUSH2 0x402F DUP2 DUP6 PUSH1 0x20 DUP7 ADD PUSH2 0x3643 JUMP JUMPDEST DUP1 DUP5 ADD SWAP2 POP POP SWAP3 SWAP2 POP POP JUMP JUMPDEST PUSH0 PUSH2 0x4046 DUP3 DUP6 PUSH2 0x400B JUMP JUMPDEST SWAP2 POP PUSH2 0x4052 DUP3 DUP5 PUSH2 0x400B JUMP JUMPDEST SWAP2 POP DUP2 SWAP1 POP SWAP4 SWAP3 POP POP POP JUMP JUMPDEST PUSH32 0x41646472657373206973206E6F7420696E2074686520616C6C6F7765644C6973 PUSH0 DUP3 ADD MSTORE PUSH32 0x7400000000000000000000000000000000000000000000000000000000000000 PUSH1 0x20 DUP3 ADD MSTORE POP JUMP JUMPDEST PUSH0 PUSH2 0x40B8 PUSH1 0x21 DUP4 PUSH2 0x3633 JUMP JUMPDEST SWAP2 POP PUSH2 0x40C3 DUP3 PUSH2 0x405E JUMP JUMPDEST PUSH1 0x40 DUP3 ADD SWAP1 POP SWAP2 SWAP1 POP JUMP JUMPDEST PUSH0 PUSH1 0x20 DUP3 ADD SWAP1 POP DUP2 DUP2 SUB PUSH0 DUP4 ADD MSTORE PUSH2 0x40E5 DUP2 PUSH2 0x40AC JUMP JUMPDEST SWAP1 POP SWAP2 SWAP1 POP JUMP JUMPDEST PUSH32 0x4E487B7100000000000000000000000000000000000000000000000000000000 PUSH0 MSTORE PUSH1 0x11 PUSH1 0x4 MSTORE PUSH1 0x24 PUSH0 REVERT JUMPDEST PUSH0 PUSH2 0x4123 DUP3 PUSH2 0x36B9 JUMP JUMPDEST SWAP2 POP PUSH32 0xFFFFFFFFFFFFFFFFFFFFFFFFFFFFFFFFFFFFFFFFFFFFFFFFFFFFFFFFFFFFFFFF DUP3 SUB PUSH2 0x4155 JUMPI PUSH2 0x4154 PUSH2 0x40EC JUMP JUMPDEST JUMPDEST PUSH1 0x1 DUP3 ADD SWAP1 POP SWAP2 SWAP1 POP JUMP JUMPDEST PUSH2 0x4169 DUP2 PUSH2 0x3A68 JUMP JUMPDEST DUP2 EQ PUSH2 0x4173 JUMPI PUSH0 DUP1 REVERT JUMPDEST POP JUMP JUMPDEST PUSH0 DUP2 MLOAD SWAP1 POP PUSH2 0x4184 DUP2 PUSH2 0x4160 JUMP JUMPDEST SWAP3 SWAP2 POP POP JUMP JUMPDEST PUSH0 PUSH1 0x20 DUP3 DUP5 SUB SLT ISZERO PUSH2 0x419F JUMPI PUSH2 0x419E PUSH2 0x356E JUMP JUMPDEST JUMPDEST PUSH0 PUSH2 0x41AC DUP5 DUP3 DUP6 ADD PUSH2 0x4176 JUMP JUMPDEST SWAP2 POP POP SWAP3 SWAP2 POP POP JUMP JUMPDEST PUSH0 DUP2 MLOAD SWAP1 POP SWAP2 SWAP1 POP JUMP JUMPDEST PUSH0 DUP3 DUP3 MSTORE PUSH1 0x20 DUP3 ADD SWAP1 POP SWAP3 SWAP2 POP POP JUMP JUMPDEST PUSH0 PUSH2 0x41D9 DUP3 PUSH2 0x41B5 JUMP JUMPDEST PUSH2 0x41E3 DUP2 DUP6 PUSH2 0x41BF JUMP JUMPDEST SWAP4 POP PUSH2 0x41F3 DUP2 DUP6 PUSH1 0x20 DUP7 ADD PUSH2 0x3643 JUMP JUMPDEST PUSH2 0x41FC DUP2 PUSH2 0x3651 JUMP JUMPDEST DUP5 ADD SWAP2 POP POP SWAP3 SWAP2 POP POP JUMP JUMPDEST PUSH0 PUSH1 0x80 DUP3 ADD SWAP1 POP PUSH2 0x421A PUSH0 DUP4 ADD DUP8 PUSH2 0x3747 JUMP JUMPDEST PUSH2 0x4227 PUSH1 0x20 DUP4 ADD DUP7 PUSH2 0x3747 JUMP JUMPDEST PUSH2 0x4234 PUSH1 0x40 DUP4 ADD DUP6 PUSH2 0x37D7 JUMP JUMPDEST DUP2 DUP2 SUB PUSH1 0x60 DUP4 ADD MSTORE PUSH2 0x4246 DUP2 DUP5 PUSH2 0x41CF JUMP JUMPDEST SWAP1 POP SWAP6 SWAP5 POP POP POP POP POP JUMP JUMPDEST PUSH0 DUP2 MLOAD SWAP1 POP PUSH2 0x425F DUP2 PUSH2 0x35A1 JUMP JUMPDEST SWAP3 SWAP2 POP POP JUMP JUMPDEST PUSH0 PUSH1 0x20 DUP3 DUP5 SUB SLT ISZERO PUSH2 0x427A JUMPI PUSH2 0x4279 PUSH2 0x356E JUMP JUMPDEST JUMPDEST PUSH0 PUSH2 0x4287 DUP5 DUP3 DUP6 ADD PUSH2 0x4251 JUMP JUMPDEST SWAP2 POP POP SWAP3 SWAP2 POP POP JUMP JUMPDEST PUSH32 0x4E487B7100000000000000000000000000000000000000000000000000000000 PUSH0 MSTORE PUSH1 0x12 PUSH1 0x4 MSTORE PUSH1 0x24 PUSH0 REVERT JUMPDEST PUSH0 DUP2 SWAP1 POP DUP2 PUSH0 MSTORE PUSH1 0x20 PUSH0 KECCAK256 SWAP1 POP SWAP2 SWAP1 POP JUMP JUMPDEST PUSH0 PUSH1 0x20 PUSH1 0x1F DUP4 ADD DIV SWAP1 POP SWAP2 SWAP1 POP JUMP JUMPDEST PUSH0 DUP3 DUP3 SHL SWAP1 POP SWAP3 SWAP2 POP POP JUMP JUMPDEST PUSH0 PUSH1 0x8 DUP4 MUL PUSH2 0x4319 PUSH32 0xFFFFFFFFFFFFFFFFFFFFFFFFFFFFFFFFFFFFFFFFFFFFFFFFFFFFFFFFFFFFFFFF DUP3 PUSH2 0x42DE JUMP JUMPDEST PUSH2 0x4323 DUP7 DUP4 PUSH2 0x42DE JUMP JUMPDEST SWAP6 POP DUP1 NOT DUP5 AND SWAP4 POP DUP1 DUP7 AND DUP5 OR SWAP3 POP POP POP SWAP4 SWAP3 POP POP POP JUMP JUMPDEST PUSH0 PUSH2 0x4355 PUSH2 0x4350 PUSH2 0x434B DUP5 PUSH2 0x36B9 JUMP JUMPDEST PUSH2 0x3FAF JUMP JUMPDEST PUSH2 0x36B9 JUMP JUMPDEST SWAP1 POP SWAP2 SWAP1 POP JUMP JUMPDEST PUSH0 DUP2 SWAP1 POP SWAP2 SWAP1 POP JUMP JUMPDEST PUSH2 0x436E DUP4 PUSH2 0x433B JUMP JUMPDEST PUSH2 0x4382 PUSH2 0x437A DUP3 PUSH2 0x435C JUMP JUMPDEST DUP5 DUP5 SLOAD PUSH2 0x42EA JUMP JUMPDEST DUP3 SSTORE POP POP POP POP JUMP JUMPDEST PUSH0 SWAP1 JUMP JUMPDEST PUSH2 0x4396 PUSH2 0x438A JUMP JUMPDEST PUSH2 0x43A1 DUP2 DUP5 DUP5 PUSH2 0x4365 JUMP JUMPDEST POP POP POP JUMP JUMPDEST JUMPDEST DUP2 DUP2 LT ISZERO PUSH2 0x43C4 JUMPI PUSH2 0x43B9 PUSH0 DUP3 PUSH2 0x438E JUMP JUMPDEST PUSH1 0x1 DUP2 ADD SWAP1 POP PUSH2 0x43A7 JUMP JUMPDEST POP POP JUMP JUMPDEST PUSH1 0x1F DUP3 GT ISZERO PUSH2 0x4409 JUMPI PUSH2 0x43DA DUP2 PUSH2 0x42BD JUMP JUMPDEST PUSH2 0x43E3 DUP5 PUSH2 0x42CF JUMP JUMPDEST DUP2 ADD PUSH1 0x20 DUP6 LT ISZERO PUSH2 0x43F2 JUMPI DUP2 SWAP1 POP JUMPDEST PUSH2 0x4406 PUSH2 0x43FE DUP6 PUSH2 0x42CF JUMP JUMPDEST DUP4 ADD DUP3 PUSH2 0x43A6 JUMP JUMPDEST POP POP JUMPDEST POP POP POP JUMP JUMPDEST PUSH0 DUP3 DUP3 SHR SWAP1 POP SWAP3 SWAP2 POP POP JUMP JUMPDEST PUSH0 PUSH2 0x4429 PUSH0 NOT DUP5 PUSH1 0x8 MUL PUSH2 0x440E JUMP JUMPDEST NOT DUP1 DUP4 AND SWAP2 POP POP SWAP3 SWAP2 POP POP JUMP JUMPDEST PUSH0 PUSH2 0x4441 DUP4 DUP4 PUSH2 0x441A JUMP JUMPDEST SWAP2 POP DUP3 PUSH1 0x2 MUL DUP3 OR SWAP1 POP SWAP3 SWAP2 POP POP JUMP JUMPDEST PUSH2 0x445A DUP3 PUSH2 0x3629 JUMP JUMPDEST PUSH8 0xFFFFFFFFFFFFFFFF DUP2 GT ISZERO PUSH2 0x4473 JUMPI PUSH2 0x4472 PUSH2 0x38EA JUMP JUMPDEST JUMPDEST PUSH2 0x447D DUP3 SLOAD PUSH2 0x3C6A JUMP JUMPDEST PUSH2 0x4488 DUP3 DUP3 DUP6 PUSH2 0x43C8 JUMP JUMPDEST PUSH0 PUSH1 0x20 SWAP1 POP PUSH1 0x1F DUP4 GT PUSH1 0x1 DUP2 EQ PUSH2 0x44B9 JUMPI PUSH0 DUP5 ISZERO PUSH2 0x44A7 JUMPI DUP3 DUP8 ADD MLOAD SWAP1 POP JUMPDEST PUSH2 0x44B1 DUP6 DUP3 PUSH2 0x4436 JUMP JUMPDEST DUP7 SSTORE POP PUSH2 0x4518 JUMP JUMPDEST PUSH1 0x1F NOT DUP5 AND PUSH2 0x44C7 DUP7 PUSH2 0x42BD JUMP JUMPDEST PUSH0 JUMPDEST DUP3 DUP2 LT ISZERO PUSH2 0x44EE JUMPI DUP5 DUP10 ADD MLOAD DUP3 SSTORE PUSH1 0x1 DUP3 ADD SWAP2 POP PUSH1 0x20 DUP6 ADD SWAP5 POP PUSH1 0x20 DUP2 ADD SWAP1 POP PUSH2 0x44C9 JUMP JUMPDEST DUP7 DUP4 LT ISZERO PUSH2 0x450B JUMPI DUP5 DUP10 ADD MLOAD PUSH2 0x4507 PUSH1 0x1F DUP10 AND DUP3 PUSH2 0x441A JUMP JUMPDEST DUP4 SSTORE POP JUMPDEST PUSH1 0x1 PUSH1 0x2 DUP9 MUL ADD DUP9 SSTORE POP POP POP JUMPDEST POP POP POP POP POP POP JUMP JUMPDEST PUSH0 DUP2 SWAP1 POP SWAP3 SWAP2 POP POP JUMP JUMPDEST PUSH0 PUSH2 0x4534 DUP3 PUSH2 0x41B5 JUMP JUMPDEST PUSH2 0x453E DUP2 DUP6 PUSH2 0x4520 JUMP JUMPDEST SWAP4 POP PUSH2 0x454E DUP2 DUP6 PUSH1 0x20 DUP7 ADD PUSH2 0x3643 JUMP JUMPDEST DUP1 DUP5 ADD SWAP2 POP POP SWAP3 SWAP2 POP POP JUMP JUMPDEST PUSH0 PUSH2 0x4565 DUP3 DUP5 PUSH2 0x452A JUMP JUMPDEST SWAP2 POP DUP2 SWAP1 POP SWAP3 SWAP2 POP POP JUMP JUMPDEST PUSH0 PUSH2 0x457A DUP3 PUSH2 0x36B9 JUMP JUMPDEST SWAP2 POP PUSH2 0x4585 DUP4 PUSH2 0x36B9 JUMP JUMPDEST SWAP3 POP DUP3 DUP3 SUB SWAP1 POP DUP2 DUP2 GT ISZERO PUSH2 0x459D JUMPI PUSH2 0x459C PUSH2 0x40EC JUMP JUMPDEST JUMPDEST SWAP3 SWAP2 POP POP JUMP JUMPDEST PUSH32 0x4E487B7100000000000000000000000000000000000000000000000000000000 PUSH0 MSTORE PUSH1 0x31 PUSH1 0x4 MSTORE PUSH1 0x24 PUSH0 REVERT INVALID ADDRESS PUSH25 0x63363163663733333863666531373765303333346235373664 ORIGIN ADDRESS CALLER PUSH3 0x353032 CALLDATACOPY CALLER BALANCE CALLDATACOPY CALLDATALOAD PUSH3 0x6539A2 PUSH5 0x6970667358 0x22 SLT KECCAK256 0x1F 0x1F TIMESTAMP SWAP8 0xD1 DUP8 TIMESTAMP 0x1E SWAP14 SHR EXTCODEHASH SLOAD 0xA6 0xC1 SWAP12 LOG3 SWAP8 LOG4 SWAP6 0xE 0x4E 0xA6 GAS 0xE0 JUMP 0xD3 GASPRICE BASEFEE 0x28 XOR DUP12 SWAP3 PUSH5 0x736F6C6343 STOP ADDMOD BYTE STOP CALLER "
		},
		"gasEstimates": {
			"creation": {
				"codeDepositCost": "3593600",
				"executionCost": "infinite",
				"totalCost": "infinite"
			},
			"external": {
				"UPGRADE_INTERFACE_VERSION()": "infinite",
				"addToAllowList(address)": "infinite",
				"allowList(address)": "2879",
				"allowListMint()": "infinite",
				"allowListMintOpen()": "2627",
				"approve(address,uint256)": "infinite",
				"balanceOf(address)": "infinite",
				"burn(uint256)": "infinite",
				"editMintWindows(bool,bool)": "infinite",
				"getApproved(uint256)": "infinite",
				"initialize(address)": "infinite",
				"isApprovedForAll(address,address)": "infinite",
				"name()": "infinite",
				"owner()": "2678",
				"ownerOf(uint256)": "infinite",
				"pause()": "infinite",
				"paused()": "2593",
				"proxiableUUID()": "infinite",
				"publicMint()": "infinite",
				"publicMintOpen()": "2577",
				"removeFromAllowList(address)": "infinite",
				"renounceOwnership()": "infinite",
				"safeTransferFrom(address,address,uint256)": "infinite",
				"safeTransferFrom(address,address,uint256,bytes)": "infinite",
				"setAllowList(address[])": "infinite",
				"setApprovalForAll(address,bool)": "infinite",
				"supportsInterface(bytes4)": "940",
				"symbol()": "infinite",
				"test()": "infinite",
				"tokenByIndex(uint256)": "infinite",
				"tokenOfOwnerByIndex(address,uint256)": "infinite",
				"tokenURI(uint256)": "infinite",
				"totalSupply()": "2583",
				"transferFrom(address,address,uint256)": "infinite",
				"transferOwnership(address)": "infinite",
				"unpause()": "infinite",
				"upgradeToAndCall(address,bytes)": "infinite",
				"withdraw(address)": "infinite"
			},
			"internal": {
				"_authorizeUpgrade(address)": "infinite",
				"_baseURI()": "infinite",
				"_increaseBalance(address,uint128)": "infinite",
				"_update(address,uint256,address)": "infinite",
				"internalMint()": "infinite"
			}
		},
		"methodIdentifiers": {
			"UPGRADE_INTERFACE_VERSION()": "ad3cb1cc",
			"addToAllowList(address)": "31f59102",
			"allowList(address)": "2848aeaf",
			"allowListMint()": "102a6a73",
			"allowListMintOpen()": "085c9bac",
			"approve(address,uint256)": "095ea7b3",
			"balanceOf(address)": "70a08231",
			"burn(uint256)": "42966c68",
			"editMintWindows(bool,bool)": "2f48de79",
			"getApproved(uint256)": "081812fc",
			"initialize(address)": "c4d66de8",
			"isApprovedForAll(address,address)": "e985e9c5",
			"name()": "06fdde03",
			"owner()": "8da5cb5b",
			"ownerOf(uint256)": "6352211e",
			"pause()": "8456cb59",
			"paused()": "5c975abb",
			"proxiableUUID()": "52d1902d",
			"publicMint()": "26092b83",
			"publicMintOpen()": "bcc9ca5b",
			"removeFromAllowList(address)": "eba8dabc",
			"renounceOwnership()": "715018a6",
			"safeTransferFrom(address,address,uint256)": "42842e0e",
			"safeTransferFrom(address,address,uint256,bytes)": "b88d4fde",
			"setAllowList(address[])": "6447c35d",
			"setApprovalForAll(address,bool)": "a22cb465",
			"supportsInterface(bytes4)": "01ffc9a7",
			"symbol()": "95d89b41",
			"test()": "f8a8fd6d",
			"tokenByIndex(uint256)": "4f6ccce7",
			"tokenOfOwnerByIndex(address,uint256)": "2f745c59",
			"tokenURI(uint256)": "c87b56dd",
			"totalSupply()": "18160ddd",
			"transferFrom(address,address,uint256)": "23b872dd",
			"transferOwnership(address)": "f2fde38b",
			"unpause()": "3f4ba83a",
			"upgradeToAndCall(address,bytes)": "4f1ef286",
			"withdraw(address)": "51cff8d9"
		}
	},
	"abi": [
		{
			"inputs": [],
			"stateMutability": "nonpayable",
			"type": "constructor"
		},
		{
			"inputs": [
				{
					"internalType": "address",
					"name": "target",
					"type": "address"
				}
			],
			"name": "AddressEmptyCode",
			"type": "error"
		},
		{
			"inputs": [
				{
					"internalType": "address",
					"name": "implementation",
					"type": "address"
				}
			],
			"name": "ERC1967InvalidImplementation",
			"type": "error"
		},
		{
			"inputs": [],
			"name": "ERC1967NonPayable",
			"type": "error"
		},
		{
			"inputs": [],
			"name": "ERC721EnumerableForbiddenBatchMint",
			"type": "error"
		},
		{
			"inputs": [
				{
					"internalType": "address",
					"name": "sender",
					"type": "address"
				},
				{
					"internalType": "uint256",
					"name": "tokenId",
					"type": "uint256"
				},
				{
					"internalType": "address",
					"name": "owner",
					"type": "address"
				}
			],
			"name": "ERC721IncorrectOwner",
			"type": "error"
		},
		{
			"inputs": [
				{
					"internalType": "address",
					"name": "operator",
					"type": "address"
				},
				{
					"internalType": "uint256",
					"name": "tokenId",
					"type": "uint256"
				}
			],
			"name": "ERC721InsufficientApproval",
			"type": "error"
		},
		{
			"inputs": [
				{
					"internalType": "address",
					"name": "approver",
					"type": "address"
				}
			],
			"name": "ERC721InvalidApprover",
			"type": "error"
		},
		{
			"inputs": [
				{
					"internalType": "address",
					"name": "operator",
					"type": "address"
				}
			],
			"name": "ERC721InvalidOperator",
			"type": "error"
		},
		{
			"inputs": [
				{
					"internalType": "address",
					"name": "owner",
					"type": "address"
				}
			],
			"name": "ERC721InvalidOwner",
			"type": "error"
		},
		{
			"inputs": [
				{
					"internalType": "address",
					"name": "receiver",
					"type": "address"
				}
			],
			"name": "ERC721InvalidReceiver",
			"type": "error"
		},
		{
			"inputs": [
				{
					"internalType": "address",
					"name": "sender",
					"type": "address"
				}
			],
			"name": "ERC721InvalidSender",
			"type": "error"
		},
		{
			"inputs": [
				{
					"internalType": "uint256",
					"name": "tokenId",
					"type": "uint256"
				}
			],
			"name": "ERC721NonexistentToken",
			"type": "error"
		},
		{
			"inputs": [
				{
					"internalType": "address",
					"name": "owner",
					"type": "address"
				},
				{
					"internalType": "uint256",
					"name": "index",
					"type": "uint256"
				}
			],
			"name": "ERC721OutOfBoundsIndex",
			"type": "error"
		},
		{
			"inputs": [],
			"name": "EnforcedPause",
			"type": "error"
		},
		{
			"inputs": [],
			"name": "ExpectedPause",
			"type": "error"
		},
		{
			"inputs": [],
			"name": "FailedCall",
			"type": "error"
		},
		{
			"inputs": [],
			"name": "InvalidInitialization",
			"type": "error"
		},
		{
			"inputs": [],
			"name": "NotInitializing",
			"type": "error"
		},
		{
			"inputs": [
				{
					"internalType": "address",
					"name": "owner",
					"type": "address"
				}
			],
			"name": "OwnableInvalidOwner",
			"type": "error"
		},
		{
			"inputs": [
				{
					"internalType": "address",
					"name": "account",
					"type": "address"
				}
			],
			"name": "OwnableUnauthorizedAccount",
			"type": "error"
		},
		{
			"inputs": [],
			"name": "UUPSUnauthorizedCallContext",
			"type": "error"
		},
		{
			"inputs": [
				{
					"internalType": "bytes32",
					"name": "slot",
					"type": "bytes32"
				}
			],
			"name": "UUPSUnsupportedProxiableUUID",
			"type": "error"
		},
		{
			"anonymous": false,
			"inputs": [
				{
					"indexed": true,
					"internalType": "address",
					"name": "owner",
					"type": "address"
				},
				{
					"indexed": true,
					"internalType": "address",
					"name": "approved",
					"type": "address"
				},
				{
					"indexed": true,
					"internalType": "uint256",
					"name": "tokenId",
					"type": "uint256"
				}
			],
			"name": "Approval",
			"type": "event"
		},
		{
			"anonymous": false,
			"inputs": [
				{
					"indexed": true,
					"internalType": "address",
					"name": "owner",
					"type": "address"
				},
				{
					"indexed": true,
					"internalType": "address",
					"name": "operator",
					"type": "address"
				},
				{
					"indexed": false,
					"internalType": "bool",
					"name": "approved",
					"type": "bool"
				}
			],
			"name": "ApprovalForAll",
			"type": "event"
		},
		{
			"anonymous": false,
			"inputs": [
				{
					"indexed": false,
					"internalType": "uint64",
					"name": "version",
					"type": "uint64"
				}
			],
			"name": "Initialized",
			"type": "event"
		},
		{
			"anonymous": false,
			"inputs": [
				{
					"indexed": true,
					"internalType": "address",
					"name": "previousOwner",
					"type": "address"
				},
				{
					"indexed": true,
					"internalType": "address",
					"name": "newOwner",
					"type": "address"
				}
			],
			"name": "OwnershipTransferred",
			"type": "event"
		},
		{
			"anonymous": false,
			"inputs": [
				{
					"indexed": false,
					"internalType": "address",
					"name": "account",
					"type": "address"
				}
			],
			"name": "Paused",
			"type": "event"
		},
		{
			"anonymous": false,
			"inputs": [
				{
					"indexed": true,
					"internalType": "address",
					"name": "from",
					"type": "address"
				},
				{
					"indexed": true,
					"internalType": "address",
					"name": "to",
					"type": "address"
				},
				{
					"indexed": true,
					"internalType": "uint256",
					"name": "tokenId",
					"type": "uint256"
				}
			],
			"name": "Transfer",
			"type": "event"
		},
		{
			"anonymous": false,
			"inputs": [
				{
					"indexed": false,
					"internalType": "address",
					"name": "account",
					"type": "address"
				}
			],
			"name": "Unpaused",
			"type": "event"
		},
		{
			"anonymous": false,
			"inputs": [
				{
					"indexed": true,
					"internalType": "address",
					"name": "implementation",
					"type": "address"
				}
			],
			"name": "Upgraded",
			"type": "event"
		},
		{
			"inputs": [],
			"name": "UPGRADE_INTERFACE_VERSION",
			"outputs": [
				{
					"internalType": "string",
					"name": "",
					"type": "string"
				}
			],
			"stateMutability": "view",
			"type": "function"
		},
		{
			"inputs": [
				{
					"internalType": "address",
					"name": "_address",
					"type": "address"
				}
			],
			"name": "addToAllowList",
			"outputs": [],
			"stateMutability": "nonpayable",
			"type": "function"
		},
		{
			"inputs": [
				{
					"internalType": "address",
					"name": "",
					"type": "address"
				}
			],
			"name": "allowList",
			"outputs": [
				{
					"internalType": "bool",
					"name": "",
					"type": "bool"
				}
			],
			"stateMutability": "view",
			"type": "function"
		},
		{
			"inputs": [],
			"name": "allowListMint",
			"outputs": [],
			"stateMutability": "payable",
			"type": "function"
		},
		{
			"inputs": [],
			"name": "allowListMintOpen",
			"outputs": [
				{
					"internalType": "bool",
					"name": "",
					"type": "bool"
				}
			],
			"stateMutability": "view",
			"type": "function"
		},
		{
			"inputs": [
				{
					"internalType": "address",
					"name": "to",
					"type": "address"
				},
				{
					"internalType": "uint256",
					"name": "tokenId",
					"type": "uint256"
				}
			],
			"name": "approve",
			"outputs": [],
			"stateMutability": "nonpayable",
			"type": "function"
		},
		{
			"inputs": [
				{
					"internalType": "address",
					"name": "owner",
					"type": "address"
				}
			],
			"name": "balanceOf",
			"outputs": [
				{
					"internalType": "uint256",
					"name": "",
					"type": "uint256"
				}
			],
			"stateMutability": "view",
			"type": "function"
		},
		{
			"inputs": [
				{
					"internalType": "uint256",
					"name": "tokenId",
					"type": "uint256"
				}
			],
			"name": "burn",
			"outputs": [],
			"stateMutability": "nonpayable",
			"type": "function"
		},
		{
			"inputs": [
				{
					"internalType": "bool",
					"name": "_publicMintOpen",
					"type": "bool"
				},
				{
					"internalType": "bool",
					"name": "_allowListMintOpen",
					"type": "bool"
				}
			],
			"name": "editMintWindows",
			"outputs": [],
			"stateMutability": "nonpayable",
			"type": "function"
		},
		{
			"inputs": [
				{
					"internalType": "uint256",
					"name": "tokenId",
					"type": "uint256"
				}
			],
			"name": "getApproved",
			"outputs": [
				{
					"internalType": "address",
					"name": "",
					"type": "address"
				}
			],
			"stateMutability": "view",
			"type": "function"
		},
		{
			"inputs": [
				{
					"internalType": "address",
					"name": "initialOwner",
					"type": "address"
				}
			],
			"name": "initialize",
			"outputs": [],
			"stateMutability": "nonpayable",
			"type": "function"
		},
		{
			"inputs": [
				{
					"internalType": "address",
					"name": "owner",
					"type": "address"
				},
				{
					"internalType": "address",
					"name": "operator",
					"type": "address"
				}
			],
			"name": "isApprovedForAll",
			"outputs": [
				{
					"internalType": "bool",
					"name": "",
					"type": "bool"
				}
			],
			"stateMutability": "view",
			"type": "function"
		},
		{
			"inputs": [],
			"name": "name",
			"outputs": [
				{
					"internalType": "string",
					"name": "",
					"type": "string"
				}
			],
			"stateMutability": "view",
			"type": "function"
		},
		{
			"inputs": [],
			"name": "owner",
			"outputs": [
				{
					"internalType": "address",
					"name": "",
					"type": "address"
				}
			],
			"stateMutability": "view",
			"type": "function"
		},
		{
			"inputs": [
				{
					"internalType": "uint256",
					"name": "tokenId",
					"type": "uint256"
				}
			],
			"name": "ownerOf",
			"outputs": [
				{
					"internalType": "address",
					"name": "",
					"type": "address"
				}
			],
			"stateMutability": "view",
			"type": "function"
		},
		{
			"inputs": [],
			"name": "pause",
			"outputs": [],
			"stateMutability": "nonpayable",
			"type": "function"
		},
		{
			"inputs": [],
			"name": "paused",
			"outputs": [
				{
					"internalType": "bool",
					"name": "",
					"type": "bool"
				}
			],
			"stateMutability": "view",
			"type": "function"
		},
		{
			"inputs": [],
			"name": "proxiableUUID",
			"outputs": [
				{
					"internalType": "bytes32",
					"name": "",
					"type": "bytes32"
				}
			],
			"stateMutability": "view",
			"type": "function"
		},
		{
			"inputs": [],
			"name": "publicMint",
			"outputs": [],
			"stateMutability": "payable",
			"type": "function"
		},
		{
			"inputs": [],
			"name": "publicMintOpen",
			"outputs": [
				{
					"internalType": "bool",
					"name": "",
					"type": "bool"
				}
			],
			"stateMutability": "view",
			"type": "function"
		},
		{
			"inputs": [
				{
					"internalType": "address",
					"name": "_address",
					"type": "address"
				}
			],
			"name": "removeFromAllowList",
			"outputs": [],
			"stateMutability": "nonpayable",
			"type": "function"
		},
		{
			"inputs": [],
			"name": "renounceOwnership",
			"outputs": [],
			"stateMutability": "nonpayable",
			"type": "function"
		},
		{
			"inputs": [
				{
					"internalType": "address",
					"name": "from",
					"type": "address"
				},
				{
					"internalType": "address",
					"name": "to",
					"type": "address"
				},
				{
					"internalType": "uint256",
					"name": "tokenId",
					"type": "uint256"
				}
			],
			"name": "safeTransferFrom",
			"outputs": [],
			"stateMutability": "nonpayable",
			"type": "function"
		},
		{
			"inputs": [
				{
					"internalType": "address",
					"name": "from",
					"type": "address"
				},
				{
					"internalType": "address",
					"name": "to",
					"type": "address"
				},
				{
					"internalType": "uint256",
					"name": "tokenId",
					"type": "uint256"
				},
				{
					"internalType": "bytes",
					"name": "data",
					"type": "bytes"
				}
			],
			"name": "safeTransferFrom",
			"outputs": [],
			"stateMutability": "nonpayable",
			"type": "function"
		},
		{
			"inputs": [
				{
					"internalType": "address[]",
					"name": "addresses",
					"type": "address[]"
				}
			],
			"name": "setAllowList",
			"outputs": [],
			"stateMutability": "nonpayable",
			"type": "function"
		},
		{
			"inputs": [
				{
					"internalType": "address",
					"name": "operator",
					"type": "address"
				},
				{
					"internalType": "bool",
					"name": "approved",
					"type": "bool"
				}
			],
			"name": "setApprovalForAll",
			"outputs": [],
			"stateMutability": "nonpayable",
			"type": "function"
		},
		{
			"inputs": [
				{
					"internalType": "bytes4",
					"name": "interfaceId",
					"type": "bytes4"
				}
			],
			"name": "supportsInterface",
			"outputs": [
				{
					"internalType": "bool",
					"name": "",
					"type": "bool"
				}
			],
			"stateMutability": "view",
			"type": "function"
		},
		{
			"inputs": [],
			"name": "symbol",
			"outputs": [
				{
					"internalType": "string",
					"name": "",
					"type": "string"
				}
			],
			"stateMutability": "view",
			"type": "function"
		},
		{
			"inputs": [],
			"name": "test",
			"outputs": [
				{
					"internalType": "string",
					"name": "",
					"type": "string"
				}
			],
			"stateMutability": "pure",
			"type": "function"
		},
		{
			"inputs": [
				{
					"internalType": "uint256",
					"name": "index",
					"type": "uint256"
				}
			],
			"name": "tokenByIndex",
			"outputs": [
				{
					"internalType": "uint256",
					"name": "",
					"type": "uint256"
				}
			],
			"stateMutability": "view",
			"type": "function"
		},
		{
			"inputs": [
				{
					"internalType": "address",
					"name": "owner",
					"type": "address"
				},
				{
					"internalType": "uint256",
					"name": "index",
					"type": "uint256"
				}
			],
			"name": "tokenOfOwnerByIndex",
			"outputs": [
				{
					"internalType": "uint256",
					"name": "",
					"type": "uint256"
				}
			],
			"stateMutability": "view",
			"type": "function"
		},
		{
			"inputs": [
				{
					"internalType": "uint256",
					"name": "tokenId",
					"type": "uint256"
				}
			],
			"name": "tokenURI",
			"outputs": [
				{
					"internalType": "string",
					"name": "",
					"type": "string"
				}
			],
			"stateMutability": "view",
			"type": "function"
		},
		{
			"inputs": [],
			"name": "totalSupply",
			"outputs": [
				{
					"internalType": "uint256",
					"name": "",
					"type": "uint256"
				}
			],
			"stateMutability": "view",
			"type": "function"
		},
		{
			"inputs": [
				{
					"internalType": "address",
					"name": "from",
					"type": "address"
				},
				{
					"internalType": "address",
					"name": "to",
					"type": "address"
				},
				{
					"internalType": "uint256",
					"name": "tokenId",
					"type": "uint256"
				}
			],
			"name": "transferFrom",
			"outputs": [],
			"stateMutability": "nonpayable",
			"type": "function"
		},
		{
			"inputs": [
				{
					"internalType": "address",
					"name": "newOwner",
					"type": "address"
				}
			],
			"name": "transferOwnership",
			"outputs": [],
			"stateMutability": "nonpayable",
			"type": "function"
		},
		{
			"inputs": [],
			"name": "unpause",
			"outputs": [],
			"stateMutability": "nonpayable",
			"type": "function"
		},
		{
			"inputs": [
				{
					"internalType": "address",
					"name": "newImplementation",
					"type": "address"
				},
				{
					"internalType": "bytes",
					"name": "data",
					"type": "bytes"
				}
			],
			"name": "upgradeToAndCall",
			"outputs": [],
			"stateMutability": "payable",
			"type": "function"
		},
		{
			"inputs": [
				{
					"internalType": "address",
					"name": "_addr",
					"type": "address"
				}
			],
			"name": "withdraw",
			"outputs": [],
			"stateMutability": "nonpayable",
			"type": "function"
		}
	]
}