{
	"data": {
		"bytecode": {
			"linkReferences": {},
			"object": "60a06040523073ffffffffffffffffffffffffffffffffffffffff1660809073ffffffffffffffffffffffffffffffffffffffff168152505f60015f6101000a81548160ff0219169083151502179055505f6001806101000a81548160ff021916908315150217905550348015610074575f5ffd5b5061008361008860201b60201c565b6101e8565b5f61009761018660201b60201c565b9050805f0160089054906101000a900460ff16156100e1576040517ff92ee8a900000000000000000000000000000000000000000000000000000000815260040160405180910390fd5b67ffffffffffffffff8016815f015f9054906101000a900467ffffffffffffffff1667ffffffffffffffff16146101835767ffffffffffffffff815f015f6101000a81548167ffffffffffffffff021916908367ffffffffffffffff1602179055507fc7f505b2f371ae2175ee4913f4499e1f2633a7b5936321eed1cdaeb6115181d267ffffffffffffffff60405161017a91906101cf565b60405180910390a15b50565b5f7ff0c57e16840df040f15088dc2f81fe391c3923bec73e23a9662efc9c229c6a00905090565b5f67ffffffffffffffff82169050919050565b6101c9816101ad565b82525050565b5f6020820190506101e25f8301846101c0565b92915050565b60805161463661020e5f395f8181611a6001528181611ab50152611c6f01526146365ff3fe608060405260043610610224575f3560e01c806352d1902d11610122578063a22cb465116100aa578063c87b56dd1161006e578063c87b56dd14610770578063e985e9c5146107ac578063eba8dabc146107e8578063f2fde38b14610810578063f8a8fd6d1461083857610224565b8063a22cb465146106a4578063ad3cb1cc146106cc578063b88d4fde146106f6578063bcc9ca5b1461071e578063c4d66de81461074857610224565b806370a08231116100f157806370a08231146105e8578063715018a6146106245780638456cb591461063a5780638da5cb5b1461065057806395d89b411461067a57610224565b806352d1902d146105305780635c975abb1461055a5780636352211e146105845780636447c35d146105c057610224565b80632848aeaf116101b057806342842e0e1161017457806342842e0e1461046057806342966c68146104885780634f1ef286146104b05780634f6ccce7146104cc57806351cff8d91461050857610224565b80632848aeaf146103825780632f48de79146103be5780632f745c59146103e657806331f59102146104225780633f4ba83a1461044a57610224565b8063095ea7b3116101f7578063095ea7b3146102f4578063102a6a731461031c57806318160ddd1461032657806323b872dd1461035057806326092b831461037857610224565b806301ffc9a71461022857806306fdde0314610264578063081812fc1461028e578063085c9bac146102ca575b5f5ffd5b348015610233575f5ffd5b5061024e600480360381019061024991906135ce565b610862565b60405161025b9190613613565b60405180910390f35b34801561026f575f5ffd5b50610278610873565b604051610285919061369c565b60405180910390f35b348015610299575f5ffd5b506102b460048036038101906102af91906136ef565b610910565b6040516102c19190613759565b60405180910390f35b3480156102d5575f5ffd5b506102de61092b565b6040516102eb9190613613565b60405180910390f35b3480156102ff575f5ffd5b5061031a6004803603810190610315919061379c565b61093c565b005b610324610952565b005b348015610331575f5ffd5b5061033a610a7a565b60405161034791906137e9565b60405180910390f35b34801561035b575f5ffd5b5061037660048036038101906103719190613802565b610a94565b005b610380610b93565b005b34801561038d575f5ffd5b506103a860048036038101906103a39190613852565b610c34565b6040516103b59190613613565b60405180910390f35b3480156103c9575f5ffd5b506103e460048036038101906103df91906138a7565b610c51565b005b3480156103f1575f5ffd5b5061040c6004803603810190610407919061379c565b610c8f565b60405161041991906137e9565b60405180910390f35b34801561042d575f5ffd5b5061044860048036038101906104439190613852565b610d40565b005b348015610455575f5ffd5b5061045e610e32565b005b34801561046b575f5ffd5b5061048660048036038101906104819190613802565b610e44565b005b348015610493575f5ffd5b506104ae60048036038101906104a991906136ef565b610e63565b005b6104ca60048036038101906104c59190613a11565b610e79565b005b3480156104d7575f5ffd5b506104f260048036038101906104ed91906136ef565b610e98565b6040516104ff91906137e9565b60405180910390f35b348015610513575f5ffd5b5061052e60048036038101906105299190613852565b610f18565b005b34801561053b575f5ffd5b50610544610f6c565b6040516105519190613a83565b60405180910390f35b348015610565575f5ffd5b5061056e610f9d565b60405161057b9190613613565b60405180910390f35b34801561058f575f5ffd5b506105aa60048036038101906105a591906136ef565b610fbf565b6040516105b79190613759565b60405180910390f35b3480156105cb575f5ffd5b506105e660048036038101906105e19190613af9565b610fd0565b005b3480156105f3575f5ffd5b5061060e60048036038101906106099190613852565b611076565b60405161061b91906137e9565b60405180910390f35b34801561062f575f5ffd5b5061063861113a565b005b348015610645575f5ffd5b5061064e61114d565b005b34801561065b575f5ffd5b5061066461115f565b6040516106719190613759565b60405180910390f35b348015610685575f5ffd5b5061068e611194565b60405161069b919061369c565b60405180910390f35b3480156106af575f5ffd5b506106ca60048036038101906106c59190613b44565b611232565b005b3480156106d7575f5ffd5b506106e0611248565b6040516106ed919061369c565b60405180910390f35b348015610701575f5ffd5b5061071c60048036038101906107179190613b82565b611281565b005b348015610729575f5ffd5b506107326112a6565b60405161073f9190613613565b60405180910390f35b348015610753575f5ffd5b5061076e60048036038101906107699190613852565b6112b8565b005b34801561077b575f5ffd5b50610796600480360381019061079191906136ef565b6114cd565b6040516107a3919061369c565b60405180910390f35b3480156107b7575f5ffd5b506107d260048036038101906107cd9190613c02565b611533565b6040516107df9190613613565b60405180910390f35b3480156107f3575f5ffd5b5061080e60048036038101906108099190613852565b6115cf565b005b34801561081b575f5ffd5b5061083660048036038101906108319190613852565b6116c1565b005b348015610843575f5ffd5b5061084c611745565b604051610859919061369c565b60405180910390f35b5f61086c82611782565b9050919050565b60605f61087e6117fb565b9050805f01805461088e90613c6d565b80601f01602080910402602001604051908101604052809291908181526020018280546108ba90613c6d565b80156109055780601f106108dc57610100808354040283529160200191610905565b820191905f5260205f20905b8154815290600101906020018083116108e857829003601f168201915b505050505091505090565b5f61091a82611822565b50610924826118a8565b9050919050565b60018054906101000a900460ff1681565b61094e82826109496118ef565b6118f6565b5050565b60018054906101000a900460ff1661099f576040517f08c379a000000000000000000000000000000000000000000000000000000000815260040161099690613ce7565b60405180910390fd5b60025f3373ffffffffffffffffffffffffffffffffffffffff1673ffffffffffffffffffffffffffffffffffffffff1681526020019081526020015f205f9054906101000a900460ff16610a28576040517f08c379a0000000000000000000000000000000000000000000000000000000008152600401610a1f90613d4f565b60405180910390fd5b655af3107a40003414610a70576040517f08c379a0000000000000000000000000000000000000000000000000000000008152600401610a6790613db7565b60405180910390fd5b610a78611908565b565b5f5f610a8461192d565b9050806002018054905091505090565b5f73ffffffffffffffffffffffffffffffffffffffff168273ffffffffffffffffffffffffffffffffffffffff1603610b04575f6040517f64a0ae92000000000000000000000000000000000000000000000000000000008152600401610afb9190613759565b60405180910390fd5b5f610b178383610b126118ef565b611954565b90508373ffffffffffffffffffffffffffffffffffffffff168173ffffffffffffffffffffffffffffffffffffffff1614610b8d578382826040517f64283d7b000000000000000000000000000000000000000000000000000000008152600401610b8493929190613dd5565b60405180910390fd5b50505050565b60015f9054906101000a900460ff16610be1576040517f08c379a0000000000000000000000000000000000000000000000000000000008152600401610bd890613e54565b60405180910390fd5b66038d7ea4c680003414610c2a576040517f08c379a0000000000000000000000000000000000000000000000000000000008152600401610c2190613ebc565b60405180910390fd5b610c32611908565b565b6002602052805f5260405f205f915054906101000a900460ff1681565b610c59611969565b806001806101000a81548160ff0219169083151502179055508160015f6101000a81548160ff0219169083151502179055505050565b5f5f610c9961192d565b9050610ca484611076565b8310610ce95783836040517fa57d13dc000000000000000000000000000000000000000000000000000000008152600401610ce0929190613eda565b60405180910390fd5b805f015f8573ffffffffffffffffffffffffffffffffffffffff1673ffffffffffffffffffffffffffffffffffffffff1681526020019081526020015f205f8481526020019081526020015f205491505092915050565b610d48611969565b5f60025f8373ffffffffffffffffffffffffffffffffffffffff1673ffffffffffffffffffffffffffffffffffffffff1681526020019081526020015f205f6101000a81548160ff0219169083151502179055610dda576040517f08c379a0000000000000000000000000000000000000000000000000000000008152600401610dd190613f4b565b60405180910390fd5b600160025f8373ffffffffffffffffffffffffffffffffffffffff1673ffffffffffffffffffffffffffffffffffffffff1681526020019081526020015f205f6101000a81548160ff02191690831515021790555050565b610e3a611969565b610e426119f0565b565b610e5e83838360405180602001604052805f815250611281565b505050565b610e755f82610e706118ef565b611954565b5050565b610e81611a5e565b610e8a82611b44565b610e948282611b4f565b5050565b5f5f610ea261192d565b9050610eac610a7a565b8310610ef1575f836040517fa57d13dc000000000000000000000000000000000000000000000000000000008152600401610ee8929190613eda565b60405180910390fd5b806002018381548110610f0757610f06613f69565b5b905f5260205f200154915050919050565b610f20611969565b5f4790508173ffffffffffffffffffffffffffffffffffffffff166108fc8290811502906040515f60405180830381858888f19350505050158015610f67573d5f5f3e3d5ffd5b505050565b5f610f75611c6d565b7f360894a13ba1a3210667c828492db98dca3e2076cc3735a920a3ca505d382bbc5f1b905090565b5f5f610fa7611cf4565b9050805f015f9054906101000a900460ff1691505090565b5f610fc982611822565b9050919050565b610fd8611969565b5f5f90505b8282905081101561107157600160025f85858581811061100057610fff613f69565b5b90506020020160208101906110159190613852565b73ffffffffffffffffffffffffffffffffffffffff1673ffffffffffffffffffffffffffffffffffffffff1681526020019081526020015f205f6101000a81548160ff0219169083151502179055508080600101915050610fdd565b505050565b5f5f6110806117fb565b90505f73ffffffffffffffffffffffffffffffffffffffff168373ffffffffffffffffffffffffffffffffffffffff16036110f2575f6040517f89c62b640000000000000000000000000000000000000000000000000000000081526004016110e99190613759565b60405180910390fd5b806003015f8473ffffffffffffffffffffffffffffffffffffffff1673ffffffffffffffffffffffffffffffffffffffff1681526020019081526020015f2054915050919050565b611142611969565b61114b5f611d1b565b565b611155611969565b61115d611dec565b565b5f5f611169611e5b565b9050805f015f9054906101000a900473ffffffffffffffffffffffffffffffffffffffff1691505090565b60605f61119f6117fb565b90508060010180546111b090613c6d565b80601f01602080910402602001604051908101604052809291908181526020018280546111dc90613c6d565b80156112275780601f106111fe57610100808354040283529160200191611227565b820191905f5260205f20905b81548152906001019060200180831161120a57829003601f168201915b505050505091505090565b61124461123d6118ef565b8383611e82565b5050565b6040518060400160405280600581526020017f352e302e3000000000000000000000000000000000000000000000000000000081525081565b61128c848484610a94565b6112a06112976118ef565b85858585611ff9565b50505050565b60015f9054906101000a900460ff1681565b5f6112c16121a5565b90505f815f0160089054906101000a900460ff161590505f825f015f9054906101000a900467ffffffffffffffff1690505f5f8267ffffffffffffffff161480156113095750825b90505f60018367ffffffffffffffff1614801561133c57505f3073ffffffffffffffffffffffffffffffffffffffff163b145b90508115801561134a575080155b15611381576040517ff92ee8a900000000000000000000000000000000000000000000000000000000815260040160405180910390fd5b6001855f015f6101000a81548167ffffffffffffffff021916908367ffffffffffffffff16021790555083156113ce576001855f0160086101000a81548160ff0219169083151502179055505b6114426040518060400160405280601081526020017f42696b655661756c744275696c646572000000000000000000000000000000008152506040518060400160405280600481526020017f42564254000000000000000000000000000000000000000000000000000000008152506121cc565b61144a6121e2565b6114526121ec565b61145b866121fe565b611463612212565b61146b61221c565b83156114c5575f855f0160086101000a81548160ff0219169083151502179055507fc7f505b2f371ae2175ee4913f4499e1f2633a7b5936321eed1cdaeb6115181d260016040516114bc9190613feb565b60405180910390a15b505050505050565b60606114d882611822565b505f6114e2612226565b90505f8151116115005760405180602001604052805f81525061152b565b8061150a84612246565b60405160200161151b92919061403e565b6040516020818303038152906040525b915050919050565b5f5f61153d6117fb565b9050806005015f8573ffffffffffffffffffffffffffffffffffffffff1673ffffffffffffffffffffffffffffffffffffffff1681526020019081526020015f205f8473ffffffffffffffffffffffffffffffffffffffff1673ffffffffffffffffffffffffffffffffffffffff1681526020019081526020015f205f9054906101000a900460ff1691505092915050565b6115d7611969565b600160025f8373ffffffffffffffffffffffffffffffffffffffff1673ffffffffffffffffffffffffffffffffffffffff1681526020019081526020015f205f6101000a81548160ff021916908315150217905561166a576040517f08c379a0000000000000000000000000000000000000000000000000000000008152600401611661906140d1565b60405180910390fd5b5f60025f8373ffffffffffffffffffffffffffffffffffffffff1673ffffffffffffffffffffffffffffffffffffffff1681526020019081526020015f205f6101000a81548160ff02191690831515021790555050565b6116c9611969565b5f73ffffffffffffffffffffffffffffffffffffffff168173ffffffffffffffffffffffffffffffffffffffff1603611739575f6040517f1e4fbdf70000000000000000000000000000000000000000000000000000000081526004016117309190613759565b60405180910390fd5b61174281611d1b565b50565b60606040518060400160405280600d81526020017f42696b6520436f6e747261637400000000000000000000000000000000000000815250905090565b5f7f780e9d63000000000000000000000000000000000000000000000000000000007bffffffffffffffffffffffffffffffffffffffffffffffffffffffff1916827bffffffffffffffffffffffffffffffffffffffffffffffffffffffff191614806117f457506117f382612310565b5b9050919050565b5f7f80bb2b638cc20bc4d0a60d66940f3ab4a00c1d7b313497ca82fb0b4ab0079300905090565b5f5f61182d836123f1565b90505f73ffffffffffffffffffffffffffffffffffffffff168173ffffffffffffffffffffffffffffffffffffffff160361189f57826040517f7e27328900000000000000000000000000000000000000000000000000000000815260040161189691906137e9565b60405180910390fd5b80915050919050565b5f5f6118b26117fb565b9050806004015f8481526020019081526020015f205f9054906101000a900473ffffffffffffffffffffffffffffffffffffffff16915050919050565b5f33905090565b6119038383836001612438565b505050565b5f5f5f81548092919061191a9061411c565b91905055905061192a3382612605565b50565b5f7f645e039705490088daad89bae25049a34f4a9072d398537b1ab2425f24cbed00905090565b5f611960848484612622565b90509392505050565b6119716118ef565b73ffffffffffffffffffffffffffffffffffffffff1661198f61115f565b73ffffffffffffffffffffffffffffffffffffffff16146119ee576119b26118ef565b6040517f118cdaa70000000000000000000000000000000000000000000000000000000081526004016119e59190613759565b60405180910390fd5b565b6119f861263f565b5f611a01611cf4565b90505f815f015f6101000a81548160ff0219169083151502179055507f5db9ee0a495bf2e6ff9c91a7834c1ba4fdd244a5e8aa4e537bd38aeae4b073aa611a466118ef565b604051611a539190613759565b60405180910390a150565b7f000000000000000000000000000000000000000000000000000000000000000073ffffffffffffffffffffffffffffffffffffffff163073ffffffffffffffffffffffffffffffffffffffff161480611b0b57507f000000000000000000000000000000000000000000000000000000000000000073ffffffffffffffffffffffffffffffffffffffff16611af261267f565b73ffffffffffffffffffffffffffffffffffffffff1614155b15611b42576040517fe07c8dba00000000000000000000000000000000000000000000000000000000815260040160405180910390fd5b565b611b4c611969565b50565b8173ffffffffffffffffffffffffffffffffffffffff166352d1902d6040518163ffffffff1660e01b8152600401602060405180830381865afa925050508015611bb757506040513d601f19601f82011682018060405250810190611bb4919061418d565b60015b611bf857816040517f4c9c8ce3000000000000000000000000000000000000000000000000000000008152600401611bef9190613759565b60405180910390fd5b7f360894a13ba1a3210667c828492db98dca3e2076cc3735a920a3ca505d382bbc5f1b8114611c5e57806040517faa1d49a4000000000000000000000000000000000000000000000000000000008152600401611c559190613a83565b60405180910390fd5b611c6883836126d2565b505050565b7f000000000000000000000000000000000000000000000000000000000000000073ffffffffffffffffffffffffffffffffffffffff163073ffffffffffffffffffffffffffffffffffffffff1614611cf2576040517fe07c8dba00000000000000000000000000000000000000000000000000000000815260040160405180910390fd5b565b5f7fcd5ed15c6e187e77e9aee88184c21f4f2182ab5827cb3b7e07fbedcd63f03300905090565b5f611d24611e5b565b90505f815f015f9054906101000a900473ffffffffffffffffffffffffffffffffffffffff16905082825f015f6101000a81548173ffffffffffffffffffffffffffffffffffffffff021916908373ffffffffffffffffffffffffffffffffffffffff1602179055508273ffffffffffffffffffffffffffffffffffffffff168173ffffffffffffffffffffffffffffffffffffffff167f8be0079c531659141344cd1fd0a4f28419497f9722a3daafe3b4186f6b6457e060405160405180910390a3505050565b611df4612744565b5f611dfd611cf4565b90506001815f015f6101000a81548160ff0219169083151502179055507f62e78cea01bee320cd4e420270b5ea74000d11b0c9f74754ebdbfc544b05a258611e436118ef565b604051611e509190613759565b60405180910390a150565b5f7f9016d09d72d40fdae2fd8ceac6b6234c7706214fd39c1cd1e609a0528c199300905090565b5f611e8b6117fb565b90505f73ffffffffffffffffffffffffffffffffffffffff168373ffffffffffffffffffffffffffffffffffffffff1603611efd57826040517f5b08ba18000000000000000000000000000000000000000000000000000000008152600401611ef49190613759565b60405180910390fd5b81816005015f8673ffffffffffffffffffffffffffffffffffffffff1673ffffffffffffffffffffffffffffffffffffffff1681526020019081526020015f205f8573ffffffffffffffffffffffffffffffffffffffff1673ffffffffffffffffffffffffffffffffffffffff1681526020019081526020015f205f6101000a81548160ff0219169083151502179055508273ffffffffffffffffffffffffffffffffffffffff168473ffffffffffffffffffffffffffffffffffffffff167f17307eab39ab6107e8899845ad3d59bd9653f200f220920489ca2b5937696c3184604051611feb9190613613565b60405180910390a350505050565b5f8373ffffffffffffffffffffffffffffffffffffffff163b111561219e578273ffffffffffffffffffffffffffffffffffffffff1663150b7a02868685856040518563ffffffff1660e01b8152600401612057949392919061420a565b6020604051808303815f875af192505050801561209257506040513d601f19601f8201168201806040525081019061208f9190614268565b60015b612113573d805f81146120c0576040519150601f19603f3d011682016040523d82523d5f602084013e6120c5565b606091505b505f81510361210b57836040517f64a0ae920000000000000000000000000000000000000000000000000000000081526004016121029190613759565b60405180910390fd5b805181602001fd5b63150b7a0260e01b7bffffffffffffffffffffffffffffffffffffffffffffffffffffffff1916817bffffffffffffffffffffffffffffffffffffffffffffffffffffffff19161461219c57836040517f64a0ae920000000000000000000000000000000000000000000000000000000081526004016121939190613759565b60405180910390fd5b505b5050505050565b5f7ff0c57e16840df040f15088dc2f81fe391c3923bec73e23a9662efc9c229c6a00905090565b6121d4612785565b6121de82826127c5565b5050565b6121ea612785565b565b6121f4612785565b6121fc612800565b565b612206612785565b61220f81612830565b50565b61221a612785565b565b612224612785565b565b60606040518060600160405280602a81526020016145d7602a9139905090565b60605f6001612254846128b4565b0190505f8167ffffffffffffffff811115612272576122716138ed565b5b6040519080825280601f01601f1916602001820160405280156122a45781602001600182028036833780820191505090505b5090505f82602001820190505b600115612305578080600190039150507f3031323334353637383961626364656600000000000000000000000000000000600a86061a8153600a85816122fa576122f9614293565b5b0494505f85036122b1575b819350505050919050565b5f7f80ac58cd000000000000000000000000000000000000000000000000000000007bffffffffffffffffffffffffffffffffffffffffffffffffffffffff1916827bffffffffffffffffffffffffffffffffffffffffffffffffffffffff191614806123da57507f5b5e139f000000000000000000000000000000000000000000000000000000007bffffffffffffffffffffffffffffffffffffffffffffffffffffffff1916827bffffffffffffffffffffffffffffffffffffffffffffffffffffffff1916145b806123ea57506123e982612a05565b5b9050919050565b5f5f6123fb6117fb565b9050806002015f8481526020019081526020015f205f9054906101000a900473ffffffffffffffffffffffffffffffffffffffff16915050919050565b5f6124416117fb565b9050818061247b57505f73ffffffffffffffffffffffffffffffffffffffff168373ffffffffffffffffffffffffffffffffffffffff1614155b156125ad575f61248a85611822565b90505f73ffffffffffffffffffffffffffffffffffffffff168473ffffffffffffffffffffffffffffffffffffffff16141580156124f457508373ffffffffffffffffffffffffffffffffffffffff168173ffffffffffffffffffffffffffffffffffffffff1614155b801561250757506125058185611533565b155b1561254957836040517fa9fbf51f0000000000000000000000000000000000000000000000000000000081526004016125409190613759565b60405180910390fd5b82156125ab57848673ffffffffffffffffffffffffffffffffffffffff168273ffffffffffffffffffffffffffffffffffffffff167f8c5be1e5ebec7d5bd14f71427d1e84f3dd0314c0f7b2291e5b200ac8c7c3b92560405160405180910390a45b505b84816004015f8681526020019081526020015f205f6101000a81548173ffffffffffffffffffffffffffffffffffffffff021916908373ffffffffffffffffffffffffffffffffffffffff1602179055505050505050565b61261e828260405180602001604052805f815250612a6e565b5050565b5f61262b612744565b612636848484612a91565b90509392505050565b612647610f9d565b61267d576040517f8dfc202b00000000000000000000000000000000000000000000000000000000815260040160405180910390fd5b565b5f6126ab7f360894a13ba1a3210667c828492db98dca3e2076cc3735a920a3ca505d382bbc5f1b612bab565b5f015f9054906101000a900473ffffffffffffffffffffffffffffffffffffffff16905090565b6126db82612bb4565b8173ffffffffffffffffffffffffffffffffffffffff167fbc7cd75a20ee27fd9adebab32041f755214dbc6bffa90cc0225b39da2e5c2d3b60405160405180910390a25f81511115612737576127318282612c7d565b50612740565b61273f612cfd565b5b5050565b61274c610f9d565b15612783576040517fd93c066500000000000000000000000000000000000000000000000000000000815260040160405180910390fd5b565b61278d612d39565b6127c3576040517fd7e6bcf800000000000000000000000000000000000000000000000000000000815260040160405180910390fd5b565b6127cd612785565b5f6127d66117fb565b905082815f0190816127e89190614457565b50818160010190816127fa9190614457565b50505050565b612808612785565b5f612811611cf4565b90505f815f015f6101000a81548160ff02191690831515021790555050565b612838612785565b5f73ffffffffffffffffffffffffffffffffffffffff168173ffffffffffffffffffffffffffffffffffffffff16036128a8575f6040517f1e4fbdf700000000000000000000000000000000000000000000000000000000815260040161289f9190613759565b60405180910390fd5b6128b181611d1b565b50565b5f5f5f90507a184f03e93ff9f4daa797ed6e38ed64bf6a1f0100000000000000008310612910577a184f03e93ff9f4daa797ed6e38ed64bf6a1f010000000000000000838161290657612905614293565b5b0492506040810190505b6d04ee2d6d415b85acef8100000000831061294d576d04ee2d6d415b85acef8100000000838161294357612942614293565b5b0492506020810190505b662386f26fc10000831061297c57662386f26fc10000838161297257612971614293565b5b0492506010810190505b6305f5e10083106129a5576305f5e100838161299b5761299a614293565b5b0492506008810190505b61271083106129ca5761271083816129c0576129bf614293565b5b0492506004810190505b606483106129ed57606483816129e3576129e2614293565b5b0492506002810190505b600a83106129fc576001810190505b80915050919050565b5f7f01ffc9a7000000000000000000000000000000000000000000000000000000007bffffffffffffffffffffffffffffffffffffffffffffffffffffffff1916827bffffffffffffffffffffffffffffffffffffffffffffffffffffffff1916149050919050565b612a788383612d57565b612a8c612a836118ef565b5f858585611ff9565b505050565b5f5f612a9e858585612e4a565b90505f73ffffffffffffffffffffffffffffffffffffffff168173ffffffffffffffffffffffffffffffffffffffff1603612ae157612adc84613067565b612b20565b8473ffffffffffffffffffffffffffffffffffffffff168173ffffffffffffffffffffffffffffffffffffffff1614612b1f57612b1e81856130bd565b5b5b5f73ffffffffffffffffffffffffffffffffffffffff168573ffffffffffffffffffffffffffffffffffffffff1603612b6157612b5c846131a7565b612ba0565b8473ffffffffffffffffffffffffffffffffffffffff168173ffffffffffffffffffffffffffffffffffffffff1614612b9f57612b9e8585613281565b5b5b809150509392505050565b5f819050919050565b5f8173ffffffffffffffffffffffffffffffffffffffff163b03612c0f57806040517f4c9c8ce3000000000000000000000000000000000000000000000000000000008152600401612c069190613759565b60405180910390fd5b80612c3b7f360894a13ba1a3210667c828492db98dca3e2076cc3735a920a3ca505d382bbc5f1b612bab565b5f015f6101000a81548173ffffffffffffffffffffffffffffffffffffffff021916908373ffffffffffffffffffffffffffffffffffffffff16021790555050565b60605f5f8473ffffffffffffffffffffffffffffffffffffffff1684604051612ca69190614560565b5f60405180830381855af49150503d805f8114612cde576040519150601f19603f3d011682016040523d82523d5f602084013e612ce3565b606091505b5091509150612cf3858383613314565b9250505092915050565b5f341115612d37576040517fb398979f00000000000000000000000000000000000000000000000000000000815260040160405180910390fd5b565b5f612d426121a5565b5f0160089054906101000a900460ff16905090565b5f73ffffffffffffffffffffffffffffffffffffffff168273ffffffffffffffffffffffffffffffffffffffff1603612dc7575f6040517f64a0ae92000000000000000000000000000000000000000000000000000000008152600401612dbe9190613759565b60405180910390fd5b5f612dd383835f611954565b90505f73ffffffffffffffffffffffffffffffffffffffff168173ffffffffffffffffffffffffffffffffffffffff1614612e45575f6040517f73c6ac6e000000000000000000000000000000000000000000000000000000008152600401612e3c9190613759565b60405180910390fd5b505050565b5f5f612e546117fb565b90505f612e60856123f1565b90505f73ffffffffffffffffffffffffffffffffffffffff168473ffffffffffffffffffffffffffffffffffffffff1614612ea157612ea08185876133a1565b5b5f73ffffffffffffffffffffffffffffffffffffffff168173ffffffffffffffffffffffffffffffffffffffff1614612f2e57612ee05f865f5f612438565b6001826003015f8373ffffffffffffffffffffffffffffffffffffffff1673ffffffffffffffffffffffffffffffffffffffff1681526020019081526020015f205f82825403925050819055505b5f73ffffffffffffffffffffffffffffffffffffffff168673ffffffffffffffffffffffffffffffffffffffff1614612faf576001826003015f8873ffffffffffffffffffffffffffffffffffffffff1673ffffffffffffffffffffffffffffffffffffffff1681526020019081526020015f205f82825401925050819055505b85826002015f8781526020019081526020015f205f6101000a81548173ffffffffffffffffffffffffffffffffffffffff021916908373ffffffffffffffffffffffffffffffffffffffff160217905550848673ffffffffffffffffffffffffffffffffffffffff168273ffffffffffffffffffffffffffffffffffffffff167fddf252ad1be2c89b69c2b068fc378daa952ba7f163c4a11628f55a4df523b3ef60405160405180910390a480925050509392505050565b5f61307061192d565b90508060020180549050816003015f8481526020019081526020015f20819055508060020182908060018154018082558091505060019003905f5260205f20015f90919091909150555050565b5f6130c661192d565b90505f6130d284611076565b90505f826001015f8581526020019081526020015f205490505f835f015f8773ffffffffffffffffffffffffffffffffffffffff1673ffffffffffffffffffffffffffffffffffffffff1681526020019081526020015f209050828214613176575f815f8581526020019081526020015f2054905080825f8581526020019081526020015f208190555082856001015f8381526020019081526020015f2081905550505b836001015f8681526020019081526020015f205f9055805f8481526020019081526020015f205f9055505050505050565b5f6131b061192d565b90505f600182600201805490506131c79190614576565b90505f826003015f8581526020019081526020015f205490505f8360020183815481106131f7576131f6613f69565b5b905f5260205f20015490508084600201838154811061321957613218613f69565b5b905f5260205f20018190555081846003015f8381526020019081526020015f2081905550836003015f8681526020019081526020015f205f905583600201805480613267576132666145a9565b5b600190038181905f5260205f20015f905590555050505050565b5f61328a61192d565b90505f600161329885611076565b6132a29190614576565b905082825f015f8673ffffffffffffffffffffffffffffffffffffffff1673ffffffffffffffffffffffffffffffffffffffff1681526020019081526020015f205f8381526020019081526020015f208190555080826001015f8581526020019081526020015f208190555050505050565b6060826133295761332482613464565b613399565b5f825114801561334f57505f8473ffffffffffffffffffffffffffffffffffffffff163b145b1561339157836040517f9996b3150000000000000000000000000000000000000000000000000000000081526004016133889190613759565b60405180910390fd5b81905061339a565b5b9392505050565b6133ac8383836134a8565b61345f575f73ffffffffffffffffffffffffffffffffffffffff168373ffffffffffffffffffffffffffffffffffffffff160361342057806040517f7e27328900000000000000000000000000000000000000000000000000000000815260040161341791906137e9565b60405180910390fd5b81816040517f177e802f000000000000000000000000000000000000000000000000000000008152600401613456929190613eda565b60405180910390fd5b505050565b5f815111156134765780518082602001fd5b6040517fd6bda27500000000000000000000000000000000000000000000000000000000815260040160405180910390fd5b5f5f73ffffffffffffffffffffffffffffffffffffffff168373ffffffffffffffffffffffffffffffffffffffff161415801561355f57508273ffffffffffffffffffffffffffffffffffffffff168473ffffffffffffffffffffffffffffffffffffffff161480613520575061351f8484611533565b5b8061355e57508273ffffffffffffffffffffffffffffffffffffffff16613546836118a8565b73ffffffffffffffffffffffffffffffffffffffff16145b5b90509392505050565b5f604051905090565b5f5ffd5b5f5ffd5b5f7fffffffff0000000000000000000000000000000000000000000000000000000082169050919050565b6135ad81613579565b81146135b7575f5ffd5b50565b5f813590506135c8816135a4565b92915050565b5f602082840312156135e3576135e2613571565b5b5f6135f0848285016135ba565b91505092915050565b5f8115159050919050565b61360d816135f9565b82525050565b5f6020820190506136265f830184613604565b92915050565b5f81519050919050565b5f82825260208201905092915050565b8281835e5f83830152505050565b5f601f19601f8301169050919050565b5f61366e8261362c565b6136788185613636565b9350613688818560208601613646565b61369181613654565b840191505092915050565b5f6020820190508181035f8301526136b48184613664565b905092915050565b5f819050919050565b6136ce816136bc565b81146136d8575f5ffd5b50565b5f813590506136e9816136c5565b92915050565b5f6020828403121561370457613703613571565b5b5f613711848285016136db565b91505092915050565b5f73ffffffffffffffffffffffffffffffffffffffff82169050919050565b5f6137438261371a565b9050919050565b61375381613739565b82525050565b5f60208201905061376c5f83018461374a565b92915050565b61377b81613739565b8114613785575f5ffd5b50565b5f8135905061379681613772565b92915050565b5f5f604083850312156137b2576137b1613571565b5b5f6137bf85828601613788565b92505060206137d0858286016136db565b9150509250929050565b6137e3816136bc565b82525050565b5f6020820190506137fc5f8301846137da565b92915050565b5f5f5f6060848603121561381957613818613571565b5b5f61382686828701613788565b935050602061383786828701613788565b9250506040613848868287016136db565b9150509250925092565b5f6020828403121561386757613866613571565b5b5f61387484828501613788565b91505092915050565b613886816135f9565b8114613890575f5ffd5b50565b5f813590506138a18161387d565b92915050565b5f5f604083850312156138bd576138bc613571565b5b5f6138ca85828601613893565b92505060206138db85828601613893565b9150509250929050565b5f5ffd5b5f5ffd5b7f4e487b71000000000000000000000000000000000000000000000000000000005f52604160045260245ffd5b61392382613654565b810181811067ffffffffffffffff82111715613942576139416138ed565b5b80604052505050565b5f613954613568565b9050613960828261391a565b919050565b5f67ffffffffffffffff82111561397f5761397e6138ed565b5b61398882613654565b9050602081019050919050565b828183375f83830152505050565b5f6139b56139b084613965565b61394b565b9050828152602081018484840111156139d1576139d06138e9565b5b6139dc848285613995565b509392505050565b5f82601f8301126139f8576139f76138e5565b5b8135613a088482602086016139a3565b91505092915050565b5f5f60408385031215613a2757613a26613571565b5b5f613a3485828601613788565b925050602083013567ffffffffffffffff811115613a5557613a54613575565b5b613a61858286016139e4565b9150509250929050565b5f819050919050565b613a7d81613a6b565b82525050565b5f602082019050613a965f830184613a74565b92915050565b5f5ffd5b5f5ffd5b5f5f83601f840112613ab957613ab86138e5565b5b8235905067ffffffffffffffff811115613ad657613ad5613a9c565b5b602083019150836020820283011115613af257613af1613aa0565b5b9250929050565b5f5f60208385031215613b0f57613b0e613571565b5b5f83013567ffffffffffffffff811115613b2c57613b2b613575565b5b613b3885828601613aa4565b92509250509250929050565b5f5f60408385031215613b5a57613b59613571565b5b5f613b6785828601613788565b9250506020613b7885828601613893565b9150509250929050565b5f5f5f5f60808587031215613b9a57613b99613571565b5b5f613ba787828801613788565b9450506020613bb887828801613788565b9350506040613bc9878288016136db565b925050606085013567ffffffffffffffff811115613bea57613be9613575565b5b613bf6878288016139e4565b91505092959194509250565b5f5f60408385031215613c1857613c17613571565b5b5f613c2585828601613788565b9250506020613c3685828601613788565b9150509250929050565b7f4e487b71000000000000000000000000000000000000000000000000000000005f52602260045260245ffd5b5f6002820490506001821680613c8457607f821691505b602082108103613c9757613c96613c40565b5b50919050565b7f416c6c6f776c697374204d696e7420436c6f73656400000000000000000000005f82015250565b5f613cd1601583613636565b9150613cdc82613c9d565b602082019050919050565b5f6020820190508181035f830152613cfe81613cc5565b9050919050565b7f596f75206172656e6f7420616c6c6f77656420746f206d696e740000000000005f82015250565b5f613d39601a83613636565b9150613d4482613d05565b602082019050919050565b5f6020820190508181035f830152613d6681613d2d565b9050919050565b7f4e6f7420456e6f7567682046756e6473000000000000000000000000000000005f82015250565b5f613da1601083613636565b9150613dac82613d6d565b602082019050919050565b5f6020820190508181035f830152613dce81613d95565b9050919050565b5f606082019050613de85f83018661374a565b613df560208301856137da565b613e02604083018461374a565b949350505050565b7f5075626c6963204d696e7420436c6f73656400000000000000000000000000005f82015250565b5f613e3e601283613636565b9150613e4982613e0a565b602082019050919050565b5f6020820190508181035f830152613e6b81613e32565b9050919050565b7f4e6f7420456e6f7567682066756e6473000000000000000000000000000000005f82015250565b5f613ea6601083613636565b9150613eb182613e72565b602082019050919050565b5f6020820190508181035f830152613ed381613e9a565b9050919050565b5f604082019050613eed5f83018561374a565b613efa60208301846137da565b9392505050565b7f416c726561647920616464656420746f2074686520616c6c6f7765644c6973745f82015250565b5f613f35602083613636565b9150613f4082613f01565b602082019050919050565b5f6020820190508181035f830152613f6281613f29565b9050919050565b7f4e487b71000000000000000000000000000000000000000000000000000000005f52603260045260245ffd5b5f819050919050565b5f67ffffffffffffffff82169050919050565b5f819050919050565b5f613fd5613fd0613fcb84613f96565b613fb2565b613f9f565b9050919050565b613fe581613fbb565b82525050565b5f602082019050613ffe5f830184613fdc565b92915050565b5f81905092915050565b5f6140188261362c565b6140228185614004565b9350614032818560208601613646565b80840191505092915050565b5f614049828561400e565b9150614055828461400e565b91508190509392505050565b7f41646472657373206973206e6f7420696e2074686520616c6c6f7765644c69735f8201527f7400000000000000000000000000000000000000000000000000000000000000602082015250565b5f6140bb602183613636565b91506140c682614061565b604082019050919050565b5f6020820190508181035f8301526140e8816140af565b9050919050565b7f4e487b71000000000000000000000000000000000000000000000000000000005f52601160045260245ffd5b5f614126826136bc565b91507fffffffffffffffffffffffffffffffffffffffffffffffffffffffffffffffff8203614158576141576140ef565b5b600182019050919050565b61416c81613a6b565b8114614176575f5ffd5b50565b5f8151905061418781614163565b92915050565b5f602082840312156141a2576141a1613571565b5b5f6141af84828501614179565b91505092915050565b5f81519050919050565b5f82825260208201905092915050565b5f6141dc826141b8565b6141e681856141c2565b93506141f6818560208601613646565b6141ff81613654565b840191505092915050565b5f60808201905061421d5f83018761374a565b61422a602083018661374a565b61423760408301856137da565b818103606083015261424981846141d2565b905095945050505050565b5f81519050614262816135a4565b92915050565b5f6020828403121561427d5761427c613571565b5b5f61428a84828501614254565b91505092915050565b7f4e487b71000000000000000000000000000000000000000000000000000000005f52601260045260245ffd5b5f819050815f5260205f209050919050565b5f6020601f8301049050919050565b5f82821b905092915050565b5f6008830261431c7fffffffffffffffffffffffffffffffffffffffffffffffffffffffffffffffff826142e1565b61432686836142e1565b95508019841693508086168417925050509392505050565b5f61435861435361434e846136bc565b613fb2565b6136bc565b9050919050565b5f819050919050565b6143718361433e565b61438561437d8261435f565b8484546142ed565b825550505050565b5f5f905090565b61439c61438d565b6143a7818484614368565b505050565b5b818110156143ca576143bf5f82614394565b6001810190506143ad565b5050565b601f82111561440f576143e0816142c0565b6143e9846142d2565b810160208510156143f8578190505b61440c614404856142d2565b8301826143ac565b50505b505050565b5f82821c905092915050565b5f61442f5f1984600802614414565b1980831691505092915050565b5f6144478383614420565b9150826002028217905092915050565b6144608261362c565b67ffffffffffffffff811115614479576144786138ed565b5b6144838254613c6d565b61448e8282856143ce565b5f60209050601f8311600181146144bf575f84156144ad578287015190505b6144b7858261443c565b86555061451e565b601f1984166144cd866142c0565b5f5b828110156144f4578489015182556001820191506020850194506020810190506144cf565b86831015614511578489015161450d601f891682614420565b8355505b6001600288020188555050505b505050505050565b5f81905092915050565b5f61453a826141b8565b6145448185614526565b9350614554818560208601613646565b80840191505092915050565b5f61456b8284614530565b915081905092915050565b5f614580826136bc565b915061458b836136bc565b92508282039050818111156145a3576145a26140ef565b5b92915050565b7f4e487b71000000000000000000000000000000000000000000000000000000005f52603160045260245ffdfe307863363163663733333863666531373765303333346235373664323033623530323733313735626539a2646970667358221220fa006e5910cadbb7312005c364530a5466dc0727e8811ea08ac289ede674cc6564736f6c634300081c0033",
			"opcodes": "PUSH1 0xA0 PUSH1 0x40 MSTORE ADDRESS PUSH20 0xFFFFFFFFFFFFFFFFFFFFFFFFFFFFFFFFFFFFFFFF AND PUSH1 0x80 SWAP1 PUSH20 0xFFFFFFFFFFFFFFFFFFFFFFFFFFFFFFFFFFFFFFFF AND DUP2 MSTORE POP PUSH0 PUSH1 0x1 PUSH0 PUSH2 0x100 EXP DUP2 SLOAD DUP2 PUSH1 0xFF MUL NOT AND SWAP1 DUP4 ISZERO ISZERO MUL OR SWAP1 SSTORE POP PUSH0 PUSH1 0x1 DUP1 PUSH2 0x100 EXP DUP2 SLOAD DUP2 PUSH1 0xFF MUL NOT AND SWAP1 DUP4 ISZERO ISZERO MUL OR SWAP1 SSTORE POP CALLVALUE DUP1 ISZERO PUSH2 0x74 JUMPI PUSH0 PUSH0 REVERT JUMPDEST POP PUSH2 0x83 PUSH2 0x88 PUSH1 0x20 SHL PUSH1 0x20 SHR JUMP JUMPDEST PUSH2 0x1E8 JUMP JUMPDEST PUSH0 PUSH2 0x97 PUSH2 0x186 PUSH1 0x20 SHL PUSH1 0x20 SHR JUMP JUMPDEST SWAP1 POP DUP1 PUSH0 ADD PUSH1 0x8 SWAP1 SLOAD SWAP1 PUSH2 0x100 EXP SWAP1 DIV PUSH1 0xFF AND ISZERO PUSH2 0xE1 JUMPI PUSH1 0x40 MLOAD PUSH32 0xF92EE8A900000000000000000000000000000000000000000000000000000000 DUP2 MSTORE PUSH1 0x4 ADD PUSH1 0x40 MLOAD DUP1 SWAP2 SUB SWAP1 REVERT JUMPDEST PUSH8 0xFFFFFFFFFFFFFFFF DUP1 AND DUP2 PUSH0 ADD PUSH0 SWAP1 SLOAD SWAP1 PUSH2 0x100 EXP SWAP1 DIV PUSH8 0xFFFFFFFFFFFFFFFF AND PUSH8 0xFFFFFFFFFFFFFFFF AND EQ PUSH2 0x183 JUMPI PUSH8 0xFFFFFFFFFFFFFFFF DUP2 PUSH0 ADD PUSH0 PUSH2 0x100 EXP DUP2 SLOAD DUP2 PUSH8 0xFFFFFFFFFFFFFFFF MUL NOT AND SWAP1 DUP4 PUSH8 0xFFFFFFFFFFFFFFFF AND MUL OR SWAP1 SSTORE POP PUSH32 0xC7F505B2F371AE2175EE4913F4499E1F2633A7B5936321EED1CDAEB6115181D2 PUSH8 0xFFFFFFFFFFFFFFFF PUSH1 0x40 MLOAD PUSH2 0x17A SWAP2 SWAP1 PUSH2 0x1CF JUMP JUMPDEST PUSH1 0x40 MLOAD DUP1 SWAP2 SUB SWAP1 LOG1 JUMPDEST POP JUMP JUMPDEST PUSH0 PUSH32 0xF0C57E16840DF040F15088DC2F81FE391C3923BEC73E23A9662EFC9C229C6A00 SWAP1 POP SWAP1 JUMP JUMPDEST PUSH0 PUSH8 0xFFFFFFFFFFFFFFFF DUP3 AND SWAP1 POP SWAP2 SWAP1 POP JUMP JUMPDEST PUSH2 0x1C9 DUP2 PUSH2 0x1AD JUMP JUMPDEST DUP3 MSTORE POP POP JUMP JUMPDEST PUSH0 PUSH1 0x20 DUP3 ADD SWAP1 POP PUSH2 0x1E2 PUSH0 DUP4 ADD DUP5 PUSH2 0x1C0 JUMP JUMPDEST SWAP3 SWAP2 POP POP JUMP JUMPDEST PUSH1 0x80 MLOAD PUSH2 0x4636 PUSH2 0x20E PUSH0 CODECOPY PUSH0 DUP2 DUP2 PUSH2 0x1A60 ADD MSTORE DUP2 DUP2 PUSH2 0x1AB5 ADD MSTORE PUSH2 0x1C6F ADD MSTORE PUSH2 0x4636 PUSH0 RETURN INVALID PUSH1 0x80 PUSH1 0x40 MSTORE PUSH1 0x4 CALLDATASIZE LT PUSH2 0x224 JUMPI PUSH0 CALLDATALOAD PUSH1 0xE0 SHR DUP1 PUSH4 0x52D1902D GT PUSH2 0x122 JUMPI DUP1 PUSH4 0xA22CB465 GT PUSH2 0xAA JUMPI DUP1 PUSH4 0xC87B56DD GT PUSH2 0x6E JUMPI DUP1 PUSH4 0xC87B56DD EQ PUSH2 0x770 JUMPI DUP1 PUSH4 0xE985E9C5 EQ PUSH2 0x7AC JUMPI DUP1 PUSH4 0xEBA8DABC EQ PUSH2 0x7E8 JUMPI DUP1 PUSH4 0xF2FDE38B EQ PUSH2 0x810 JUMPI DUP1 PUSH4 0xF8A8FD6D EQ PUSH2 0x838 JUMPI PUSH2 0x224 JUMP JUMPDEST DUP1 PUSH4 0xA22CB465 EQ PUSH2 0x6A4 JUMPI DUP1 PUSH4 0xAD3CB1CC EQ PUSH2 0x6CC JUMPI DUP1 PUSH4 0xB88D4FDE EQ PUSH2 0x6F6 JUMPI DUP1 PUSH4 0xBCC9CA5B EQ PUSH2 0x71E JUMPI DUP1 PUSH4 0xC4D66DE8 EQ PUSH2 0x748 JUMPI PUSH2 0x224 JUMP JUMPDEST DUP1 PUSH4 0x70A08231 GT PUSH2 0xF1 JUMPI DUP1 PUSH4 0x70A08231 EQ PUSH2 0x5E8 JUMPI DUP1 PUSH4 0x715018A6 EQ PUSH2 0x624 JUMPI DUP1 PUSH4 0x8456CB59 EQ PUSH2 0x63A JUMPI DUP1 PUSH4 0x8DA5CB5B EQ PUSH2 0x650 JUMPI DUP1 PUSH4 0x95D89B41 EQ PUSH2 0x67A JUMPI PUSH2 0x224 JUMP JUMPDEST DUP1 PUSH4 0x52D1902D EQ PUSH2 0x530 JUMPI DUP1 PUSH4 0x5C975ABB EQ PUSH2 0x55A JUMPI DUP1 PUSH4 0x6352211E EQ PUSH2 0x584 JUMPI DUP1 PUSH4 0x6447C35D EQ PUSH2 0x5C0 JUMPI PUSH2 0x224 JUMP JUMPDEST DUP1 PUSH4 0x2848AEAF GT PUSH2 0x1B0 JUMPI DUP1 PUSH4 0x42842E0E GT PUSH2 0x174 JUMPI DUP1 PUSH4 0x42842E0E EQ PUSH2 0x460 JUMPI DUP1 PUSH4 0x42966C68 EQ PUSH2 0x488 JUMPI DUP1 PUSH4 0x4F1EF286 EQ PUSH2 0x4B0 JUMPI DUP1 PUSH4 0x4F6CCCE7 EQ PUSH2 0x4CC JUMPI DUP1 PUSH4 0x51CFF8D9 EQ PUSH2 0x508 JUMPI PUSH2 0x224 JUMP JUMPDEST DUP1 PUSH4 0x2848AEAF EQ PUSH2 0x382 JUMPI DUP1 PUSH4 0x2F48DE79 EQ PUSH2 0x3BE JUMPI DUP1 PUSH4 0x2F745C59 EQ PUSH2 0x3E6 JUMPI DUP1 PUSH4 0x31F59102 EQ PUSH2 0x422 JUMPI DUP1 PUSH4 0x3F4BA83A EQ PUSH2 0x44A JUMPI PUSH2 0x224 JUMP JUMPDEST DUP1 PUSH4 0x95EA7B3 GT PUSH2 0x1F7 JUMPI DUP1 PUSH4 0x95EA7B3 EQ PUSH2 0x2F4 JUMPI DUP1 PUSH4 0x102A6A73 EQ PUSH2 0x31C JUMPI DUP1 PUSH4 0x18160DDD EQ PUSH2 0x326 JUMPI DUP1 PUSH4 0x23B872DD EQ PUSH2 0x350 JUMPI DUP1 PUSH4 0x26092B83 EQ PUSH2 0x378 JUMPI PUSH2 0x224 JUMP JUMPDEST DUP1 PUSH4 0x1FFC9A7 EQ PUSH2 0x228 JUMPI DUP1 PUSH4 0x6FDDE03 EQ PUSH2 0x264 JUMPI DUP1 PUSH4 0x81812FC EQ PUSH2 0x28E JUMPI DUP1 PUSH4 0x85C9BAC EQ PUSH2 0x2CA JUMPI JUMPDEST PUSH0 PUSH0 REVERT JUMPDEST CALLVALUE DUP1 ISZERO PUSH2 0x233 JUMPI PUSH0 PUSH0 REVERT JUMPDEST POP PUSH2 0x24E PUSH1 0x4 DUP1 CALLDATASIZE SUB DUP2 ADD SWAP1 PUSH2 0x249 SWAP2 SWAP1 PUSH2 0x35CE JUMP JUMPDEST PUSH2 0x862 JUMP JUMPDEST PUSH1 0x40 MLOAD PUSH2 0x25B SWAP2 SWAP1 PUSH2 0x3613 JUMP JUMPDEST PUSH1 0x40 MLOAD DUP1 SWAP2 SUB SWAP1 RETURN JUMPDEST CALLVALUE DUP1 ISZERO PUSH2 0x26F JUMPI PUSH0 PUSH0 REVERT JUMPDEST POP PUSH2 0x278 PUSH2 0x873 JUMP JUMPDEST PUSH1 0x40 MLOAD PUSH2 0x285 SWAP2 SWAP1 PUSH2 0x369C JUMP JUMPDEST PUSH1 0x40 MLOAD DUP1 SWAP2 SUB SWAP1 RETURN JUMPDEST CALLVALUE DUP1 ISZERO PUSH2 0x299 JUMPI PUSH0 PUSH0 REVERT JUMPDEST POP PUSH2 0x2B4 PUSH1 0x4 DUP1 CALLDATASIZE SUB DUP2 ADD SWAP1 PUSH2 0x2AF SWAP2 SWAP1 PUSH2 0x36EF JUMP JUMPDEST PUSH2 0x910 JUMP JUMPDEST PUSH1 0x40 MLOAD PUSH2 0x2C1 SWAP2 SWAP1 PUSH2 0x3759 JUMP JUMPDEST PUSH1 0x40 MLOAD DUP1 SWAP2 SUB SWAP1 RETURN JUMPDEST CALLVALUE DUP1 ISZERO PUSH2 0x2D5 JUMPI PUSH0 PUSH0 REVERT JUMPDEST POP PUSH2 0x2DE PUSH2 0x92B JUMP JUMPDEST PUSH1 0x40 MLOAD PUSH2 0x2EB SWAP2 SWAP1 PUSH2 0x3613 JUMP JUMPDEST PUSH1 0x40 MLOAD DUP1 SWAP2 SUB SWAP1 RETURN JUMPDEST CALLVALUE DUP1 ISZERO PUSH2 0x2FF JUMPI PUSH0 PUSH0 REVERT JUMPDEST POP PUSH2 0x31A PUSH1 0x4 DUP1 CALLDATASIZE SUB DUP2 ADD SWAP1 PUSH2 0x315 SWAP2 SWAP1 PUSH2 0x379C JUMP JUMPDEST PUSH2 0x93C JUMP JUMPDEST STOP JUMPDEST PUSH2 0x324 PUSH2 0x952 JUMP JUMPDEST STOP JUMPDEST CALLVALUE DUP1 ISZERO PUSH2 0x331 JUMPI PUSH0 PUSH0 REVERT JUMPDEST POP PUSH2 0x33A PUSH2 0xA7A JUMP JUMPDEST PUSH1 0x40 MLOAD PUSH2 0x347 SWAP2 SWAP1 PUSH2 0x37E9 JUMP JUMPDEST PUSH1 0x40 MLOAD DUP1 SWAP2 SUB SWAP1 RETURN JUMPDEST CALLVALUE DUP1 ISZERO PUSH2 0x35B JUMPI PUSH0 PUSH0 REVERT JUMPDEST POP PUSH2 0x376 PUSH1 0x4 DUP1 CALLDATASIZE SUB DUP2 ADD SWAP1 PUSH2 0x371 SWAP2 SWAP1 PUSH2 0x3802 JUMP JUMPDEST PUSH2 0xA94 JUMP JUMPDEST STOP JUMPDEST PUSH2 0x380 PUSH2 0xB93 JUMP JUMPDEST STOP JUMPDEST CALLVALUE DUP1 ISZERO PUSH2 0x38D JUMPI PUSH0 PUSH0 REVERT JUMPDEST POP PUSH2 0x3A8 PUSH1 0x4 DUP1 CALLDATASIZE SUB DUP2 ADD SWAP1 PUSH2 0x3A3 SWAP2 SWAP1 PUSH2 0x3852 JUMP JUMPDEST PUSH2 0xC34 JUMP JUMPDEST PUSH1 0x40 MLOAD PUSH2 0x3B5 SWAP2 SWAP1 PUSH2 0x3613 JUMP JUMPDEST PUSH1 0x40 MLOAD DUP1 SWAP2 SUB SWAP1 RETURN JUMPDEST CALLVALUE DUP1 ISZERO PUSH2 0x3C9 JUMPI PUSH0 PUSH0 REVERT JUMPDEST POP PUSH2 0x3E4 PUSH1 0x4 DUP1 CALLDATASIZE SUB DUP2 ADD SWAP1 PUSH2 0x3DF SWAP2 SWAP1 PUSH2 0x38A7 JUMP JUMPDEST PUSH2 0xC51 JUMP JUMPDEST STOP JUMPDEST CALLVALUE DUP1 ISZERO PUSH2 0x3F1 JUMPI PUSH0 PUSH0 REVERT JUMPDEST POP PUSH2 0x40C PUSH1 0x4 DUP1 CALLDATASIZE SUB DUP2 ADD SWAP1 PUSH2 0x407 SWAP2 SWAP1 PUSH2 0x379C JUMP JUMPDEST PUSH2 0xC8F JUMP JUMPDEST PUSH1 0x40 MLOAD PUSH2 0x419 SWAP2 SWAP1 PUSH2 0x37E9 JUMP JUMPDEST PUSH1 0x40 MLOAD DUP1 SWAP2 SUB SWAP1 RETURN JUMPDEST CALLVALUE DUP1 ISZERO PUSH2 0x42D JUMPI PUSH0 PUSH0 REVERT JUMPDEST POP PUSH2 0x448 PUSH1 0x4 DUP1 CALLDATASIZE SUB DUP2 ADD SWAP1 PUSH2 0x443 SWAP2 SWAP1 PUSH2 0x3852 JUMP JUMPDEST PUSH2 0xD40 JUMP JUMPDEST STOP JUMPDEST CALLVALUE DUP1 ISZERO PUSH2 0x455 JUMPI PUSH0 PUSH0 REVERT JUMPDEST POP PUSH2 0x45E PUSH2 0xE32 JUMP JUMPDEST STOP JUMPDEST CALLVALUE DUP1 ISZERO PUSH2 0x46B JUMPI PUSH0 PUSH0 REVERT JUMPDEST POP PUSH2 0x486 PUSH1 0x4 DUP1 CALLDATASIZE SUB DUP2 ADD SWAP1 PUSH2 0x481 SWAP2 SWAP1 PUSH2 0x3802 JUMP JUMPDEST PUSH2 0xE44 JUMP JUMPDEST STOP JUMPDEST CALLVALUE DUP1 ISZERO PUSH2 0x493 JUMPI PUSH0 PUSH0 REVERT JUMPDEST POP PUSH2 0x4AE PUSH1 0x4 DUP1 CALLDATASIZE SUB DUP2 ADD SWAP1 PUSH2 0x4A9 SWAP2 SWAP1 PUSH2 0x36EF JUMP JUMPDEST PUSH2 0xE63 JUMP JUMPDEST STOP JUMPDEST PUSH2 0x4CA PUSH1 0x4 DUP1 CALLDATASIZE SUB DUP2 ADD SWAP1 PUSH2 0x4C5 SWAP2 SWAP1 PUSH2 0x3A11 JUMP JUMPDEST PUSH2 0xE79 JUMP JUMPDEST STOP JUMPDEST CALLVALUE DUP1 ISZERO PUSH2 0x4D7 JUMPI PUSH0 PUSH0 REVERT JUMPDEST POP PUSH2 0x4F2 PUSH1 0x4 DUP1 CALLDATASIZE SUB DUP2 ADD SWAP1 PUSH2 0x4ED SWAP2 SWAP1 PUSH2 0x36EF JUMP JUMPDEST PUSH2 0xE98 JUMP JUMPDEST PUSH1 0x40 MLOAD PUSH2 0x4FF SWAP2 SWAP1 PUSH2 0x37E9 JUMP JUMPDEST PUSH1 0x40 MLOAD DUP1 SWAP2 SUB SWAP1 RETURN JUMPDEST CALLVALUE DUP1 ISZERO PUSH2 0x513 JUMPI PUSH0 PUSH0 REVERT JUMPDEST POP PUSH2 0x52E PUSH1 0x4 DUP1 CALLDATASIZE SUB DUP2 ADD SWAP1 PUSH2 0x529 SWAP2 SWAP1 PUSH2 0x3852 JUMP JUMPDEST PUSH2 0xF18 JUMP JUMPDEST STOP JUMPDEST CALLVALUE DUP1 ISZERO PUSH2 0x53B JUMPI PUSH0 PUSH0 REVERT JUMPDEST POP PUSH2 0x544 PUSH2 0xF6C JUMP JUMPDEST PUSH1 0x40 MLOAD PUSH2 0x551 SWAP2 SWAP1 PUSH2 0x3A83 JUMP JUMPDEST PUSH1 0x40 MLOAD DUP1 SWAP2 SUB SWAP1 RETURN JUMPDEST CALLVALUE DUP1 ISZERO PUSH2 0x565 JUMPI PUSH0 PUSH0 REVERT JUMPDEST POP PUSH2 0x56E PUSH2 0xF9D JUMP JUMPDEST PUSH1 0x40 MLOAD PUSH2 0x57B SWAP2 SWAP1 PUSH2 0x3613 JUMP JUMPDEST PUSH1 0x40 MLOAD DUP1 SWAP2 SUB SWAP1 RETURN JUMPDEST CALLVALUE DUP1 ISZERO PUSH2 0x58F JUMPI PUSH0 PUSH0 REVERT JUMPDEST POP PUSH2 0x5AA PUSH1 0x4 DUP1 CALLDATASIZE SUB DUP2 ADD SWAP1 PUSH2 0x5A5 SWAP2 SWAP1 PUSH2 0x36EF JUMP JUMPDEST PUSH2 0xFBF JUMP JUMPDEST PUSH1 0x40 MLOAD PUSH2 0x5B7 SWAP2 SWAP1 PUSH2 0x3759 JUMP JUMPDEST PUSH1 0x40 MLOAD DUP1 SWAP2 SUB SWAP1 RETURN JUMPDEST CALLVALUE DUP1 ISZERO PUSH2 0x5CB JUMPI PUSH0 PUSH0 REVERT JUMPDEST POP PUSH2 0x5E6 PUSH1 0x4 DUP1 CALLDATASIZE SUB DUP2 ADD SWAP1 PUSH2 0x5E1 SWAP2 SWAP1 PUSH2 0x3AF9 JUMP JUMPDEST PUSH2 0xFD0 JUMP JUMPDEST STOP JUMPDEST CALLVALUE DUP1 ISZERO PUSH2 0x5F3 JUMPI PUSH0 PUSH0 REVERT JUMPDEST POP PUSH2 0x60E PUSH1 0x4 DUP1 CALLDATASIZE SUB DUP2 ADD SWAP1 PUSH2 0x609 SWAP2 SWAP1 PUSH2 0x3852 JUMP JUMPDEST PUSH2 0x1076 JUMP JUMPDEST PUSH1 0x40 MLOAD PUSH2 0x61B SWAP2 SWAP1 PUSH2 0x37E9 JUMP JUMPDEST PUSH1 0x40 MLOAD DUP1 SWAP2 SUB SWAP1 RETURN JUMPDEST CALLVALUE DUP1 ISZERO PUSH2 0x62F JUMPI PUSH0 PUSH0 REVERT JUMPDEST POP PUSH2 0x638 PUSH2 0x113A JUMP JUMPDEST STOP JUMPDEST CALLVALUE DUP1 ISZERO PUSH2 0x645 JUMPI PUSH0 PUSH0 REVERT JUMPDEST POP PUSH2 0x64E PUSH2 0x114D JUMP JUMPDEST STOP JUMPDEST CALLVALUE DUP1 ISZERO PUSH2 0x65B JUMPI PUSH0 PUSH0 REVERT JUMPDEST POP PUSH2 0x664 PUSH2 0x115F JUMP JUMPDEST PUSH1 0x40 MLOAD PUSH2 0x671 SWAP2 SWAP1 PUSH2 0x3759 JUMP JUMPDEST PUSH1 0x40 MLOAD DUP1 SWAP2 SUB SWAP1 RETURN JUMPDEST CALLVALUE DUP1 ISZERO PUSH2 0x685 JUMPI PUSH0 PUSH0 REVERT JUMPDEST POP PUSH2 0x68E PUSH2 0x1194 JUMP JUMPDEST PUSH1 0x40 MLOAD PUSH2 0x69B SWAP2 SWAP1 PUSH2 0x369C JUMP JUMPDEST PUSH1 0x40 MLOAD DUP1 SWAP2 SUB SWAP1 RETURN JUMPDEST CALLVALUE DUP1 ISZERO PUSH2 0x6AF JUMPI PUSH0 PUSH0 REVERT JUMPDEST POP PUSH2 0x6CA PUSH1 0x4 DUP1 CALLDATASIZE SUB DUP2 ADD SWAP1 PUSH2 0x6C5 SWAP2 SWAP1 PUSH2 0x3B44 JUMP JUMPDEST PUSH2 0x1232 JUMP JUMPDEST STOP JUMPDEST CALLVALUE DUP1 ISZERO PUSH2 0x6D7 JUMPI PUSH0 PUSH0 REVERT JUMPDEST POP PUSH2 0x6E0 PUSH2 0x1248 JUMP JUMPDEST PUSH1 0x40 MLOAD PUSH2 0x6ED SWAP2 SWAP1 PUSH2 0x369C JUMP JUMPDEST PUSH1 0x40 MLOAD DUP1 SWAP2 SUB SWAP1 RETURN JUMPDEST CALLVALUE DUP1 ISZERO PUSH2 0x701 JUMPI PUSH0 PUSH0 REVERT JUMPDEST POP PUSH2 0x71C PUSH1 0x4 DUP1 CALLDATASIZE SUB DUP2 ADD SWAP1 PUSH2 0x717 SWAP2 SWAP1 PUSH2 0x3B82 JUMP JUMPDEST PUSH2 0x1281 JUMP JUMPDEST STOP JUMPDEST CALLVALUE DUP1 ISZERO PUSH2 0x729 JUMPI PUSH0 PUSH0 REVERT JUMPDEST POP PUSH2 0x732 PUSH2 0x12A6 JUMP JUMPDEST PUSH1 0x40 MLOAD PUSH2 0x73F SWAP2 SWAP1 PUSH2 0x3613 JUMP JUMPDEST PUSH1 0x40 MLOAD DUP1 SWAP2 SUB SWAP1 RETURN JUMPDEST CALLVALUE DUP1 ISZERO PUSH2 0x753 JUMPI PUSH0 PUSH0 REVERT JUMPDEST POP PUSH2 0x76E PUSH1 0x4 DUP1 CALLDATASIZE SUB DUP2 ADD SWAP1 PUSH2 0x769 SWAP2 SWAP1 PUSH2 0x3852 JUMP JUMPDEST PUSH2 0x12B8 JUMP JUMPDEST STOP JUMPDEST CALLVALUE DUP1 ISZERO PUSH2 0x77B JUMPI PUSH0 PUSH0 REVERT JUMPDEST POP PUSH2 0x796 PUSH1 0x4 DUP1 CALLDATASIZE SUB DUP2 ADD SWAP1 PUSH2 0x791 SWAP2 SWAP1 PUSH2 0x36EF JUMP JUMPDEST PUSH2 0x14CD JUMP JUMPDEST PUSH1 0x40 MLOAD PUSH2 0x7A3 SWAP2 SWAP1 PUSH2 0x369C JUMP JUMPDEST PUSH1 0x40 MLOAD DUP1 SWAP2 SUB SWAP1 RETURN JUMPDEST CALLVALUE DUP1 ISZERO PUSH2 0x7B7 JUMPI PUSH0 PUSH0 REVERT JUMPDEST POP PUSH2 0x7D2 PUSH1 0x4 DUP1 CALLDATASIZE SUB DUP2 ADD SWAP1 PUSH2 0x7CD SWAP2 SWAP1 PUSH2 0x3C02 JUMP JUMPDEST PUSH2 0x1533 JUMP JUMPDEST PUSH1 0x40 MLOAD PUSH2 0x7DF SWAP2 SWAP1 PUSH2 0x3613 JUMP JUMPDEST PUSH1 0x40 MLOAD DUP1 SWAP2 SUB SWAP1 RETURN JUMPDEST CALLVALUE DUP1 ISZERO PUSH2 0x7F3 JUMPI PUSH0 PUSH0 REVERT JUMPDEST POP PUSH2 0x80E PUSH1 0x4 DUP1 CALLDATASIZE SUB DUP2 ADD SWAP1 PUSH2 0x809 SWAP2 SWAP1 PUSH2 0x3852 JUMP JUMPDEST PUSH2 0x15CF JUMP JUMPDEST STOP JUMPDEST CALLVALUE DUP1 ISZERO PUSH2 0x81B JUMPI PUSH0 PUSH0 REVERT JUMPDEST POP PUSH2 0x836 PUSH1 0x4 DUP1 CALLDATASIZE SUB DUP2 ADD SWAP1 PUSH2 0x831 SWAP2 SWAP1 PUSH2 0x3852 JUMP JUMPDEST PUSH2 0x16C1 JUMP JUMPDEST STOP JUMPDEST CALLVALUE DUP1 ISZERO PUSH2 0x843 JUMPI PUSH0 PUSH0 REVERT JUMPDEST POP PUSH2 0x84C PUSH2 0x1745 JUMP JUMPDEST PUSH1 0x40 MLOAD PUSH2 0x859 SWAP2 SWAP1 PUSH2 0x369C JUMP JUMPDEST PUSH1 0x40 MLOAD DUP1 SWAP2 SUB SWAP1 RETURN JUMPDEST PUSH0 PUSH2 0x86C DUP3 PUSH2 0x1782 JUMP JUMPDEST SWAP1 POP SWAP2 SWAP1 POP JUMP JUMPDEST PUSH1 0x60 PUSH0 PUSH2 0x87E PUSH2 0x17FB JUMP JUMPDEST SWAP1 POP DUP1 PUSH0 ADD DUP1 SLOAD PUSH2 0x88E SWAP1 PUSH2 0x3C6D JUMP JUMPDEST DUP1 PUSH1 0x1F ADD PUSH1 0x20 DUP1 SWAP2 DIV MUL PUSH1 0x20 ADD PUSH1 0x40 MLOAD SWAP1 DUP2 ADD PUSH1 0x40 MSTORE DUP1 SWAP3 SWAP2 SWAP1 DUP2 DUP2 MSTORE PUSH1 0x20 ADD DUP3 DUP1 SLOAD PUSH2 0x8BA SWAP1 PUSH2 0x3C6D JUMP JUMPDEST DUP1 ISZERO PUSH2 0x905 JUMPI DUP1 PUSH1 0x1F LT PUSH2 0x8DC JUMPI PUSH2 0x100 DUP1 DUP4 SLOAD DIV MUL DUP4 MSTORE SWAP2 PUSH1 0x20 ADD SWAP2 PUSH2 0x905 JUMP JUMPDEST DUP3 ADD SWAP2 SWAP1 PUSH0 MSTORE PUSH1 0x20 PUSH0 KECCAK256 SWAP1 JUMPDEST DUP2 SLOAD DUP2 MSTORE SWAP1 PUSH1 0x1 ADD SWAP1 PUSH1 0x20 ADD DUP1 DUP4 GT PUSH2 0x8E8 JUMPI DUP3 SWAP1 SUB PUSH1 0x1F AND DUP3 ADD SWAP2 JUMPDEST POP POP POP POP POP SWAP2 POP POP SWAP1 JUMP JUMPDEST PUSH0 PUSH2 0x91A DUP3 PUSH2 0x1822 JUMP JUMPDEST POP PUSH2 0x924 DUP3 PUSH2 0x18A8 JUMP JUMPDEST SWAP1 POP SWAP2 SWAP1 POP JUMP JUMPDEST PUSH1 0x1 DUP1 SLOAD SWAP1 PUSH2 0x100 EXP SWAP1 DIV PUSH1 0xFF AND DUP2 JUMP JUMPDEST PUSH2 0x94E DUP3 DUP3 PUSH2 0x949 PUSH2 0x18EF JUMP JUMPDEST PUSH2 0x18F6 JUMP JUMPDEST POP POP JUMP JUMPDEST PUSH1 0x1 DUP1 SLOAD SWAP1 PUSH2 0x100 EXP SWAP1 DIV PUSH1 0xFF AND PUSH2 0x99F JUMPI PUSH1 0x40 MLOAD PUSH32 0x8C379A000000000000000000000000000000000000000000000000000000000 DUP2 MSTORE PUSH1 0x4 ADD PUSH2 0x996 SWAP1 PUSH2 0x3CE7 JUMP JUMPDEST PUSH1 0x40 MLOAD DUP1 SWAP2 SUB SWAP1 REVERT JUMPDEST PUSH1 0x2 PUSH0 CALLER PUSH20 0xFFFFFFFFFFFFFFFFFFFFFFFFFFFFFFFFFFFFFFFF AND PUSH20 0xFFFFFFFFFFFFFFFFFFFFFFFFFFFFFFFFFFFFFFFF AND DUP2 MSTORE PUSH1 0x20 ADD SWAP1 DUP2 MSTORE PUSH1 0x20 ADD PUSH0 KECCAK256 PUSH0 SWAP1 SLOAD SWAP1 PUSH2 0x100 EXP SWAP1 DIV PUSH1 0xFF AND PUSH2 0xA28 JUMPI PUSH1 0x40 MLOAD PUSH32 0x8C379A000000000000000000000000000000000000000000000000000000000 DUP2 MSTORE PUSH1 0x4 ADD PUSH2 0xA1F SWAP1 PUSH2 0x3D4F JUMP JUMPDEST PUSH1 0x40 MLOAD DUP1 SWAP2 SUB SWAP1 REVERT JUMPDEST PUSH6 0x5AF3107A4000 CALLVALUE EQ PUSH2 0xA70 JUMPI PUSH1 0x40 MLOAD PUSH32 0x8C379A000000000000000000000000000000000000000000000000000000000 DUP2 MSTORE PUSH1 0x4 ADD PUSH2 0xA67 SWAP1 PUSH2 0x3DB7 JUMP JUMPDEST PUSH1 0x40 MLOAD DUP1 SWAP2 SUB SWAP1 REVERT JUMPDEST PUSH2 0xA78 PUSH2 0x1908 JUMP JUMPDEST JUMP JUMPDEST PUSH0 PUSH0 PUSH2 0xA84 PUSH2 0x192D JUMP JUMPDEST SWAP1 POP DUP1 PUSH1 0x2 ADD DUP1 SLOAD SWAP1 POP SWAP2 POP POP SWAP1 JUMP JUMPDEST PUSH0 PUSH20 0xFFFFFFFFFFFFFFFFFFFFFFFFFFFFFFFFFFFFFFFF AND DUP3 PUSH20 0xFFFFFFFFFFFFFFFFFFFFFFFFFFFFFFFFFFFFFFFF AND SUB PUSH2 0xB04 JUMPI PUSH0 PUSH1 0x40 MLOAD PUSH32 0x64A0AE9200000000000000000000000000000000000000000000000000000000 DUP2 MSTORE PUSH1 0x4 ADD PUSH2 0xAFB SWAP2 SWAP1 PUSH2 0x3759 JUMP JUMPDEST PUSH1 0x40 MLOAD DUP1 SWAP2 SUB SWAP1 REVERT JUMPDEST PUSH0 PUSH2 0xB17 DUP4 DUP4 PUSH2 0xB12 PUSH2 0x18EF JUMP JUMPDEST PUSH2 0x1954 JUMP JUMPDEST SWAP1 POP DUP4 PUSH20 0xFFFFFFFFFFFFFFFFFFFFFFFFFFFFFFFFFFFFFFFF AND DUP2 PUSH20 0xFFFFFFFFFFFFFFFFFFFFFFFFFFFFFFFFFFFFFFFF AND EQ PUSH2 0xB8D JUMPI DUP4 DUP3 DUP3 PUSH1 0x40 MLOAD PUSH32 0x64283D7B00000000000000000000000000000000000000000000000000000000 DUP2 MSTORE PUSH1 0x4 ADD PUSH2 0xB84 SWAP4 SWAP3 SWAP2 SWAP1 PUSH2 0x3DD5 JUMP JUMPDEST PUSH1 0x40 MLOAD DUP1 SWAP2 SUB SWAP1 REVERT JUMPDEST POP POP POP POP JUMP JUMPDEST PUSH1 0x1 PUSH0 SWAP1 SLOAD SWAP1 PUSH2 0x100 EXP SWAP1 DIV PUSH1 0xFF AND PUSH2 0xBE1 JUMPI PUSH1 0x40 MLOAD PUSH32 0x8C379A000000000000000000000000000000000000000000000000000000000 DUP2 MSTORE PUSH1 0x4 ADD PUSH2 0xBD8 SWAP1 PUSH2 0x3E54 JUMP JUMPDEST PUSH1 0x40 MLOAD DUP1 SWAP2 SUB SWAP1 REVERT JUMPDEST PUSH7 0x38D7EA4C68000 CALLVALUE EQ PUSH2 0xC2A JUMPI PUSH1 0x40 MLOAD PUSH32 0x8C379A000000000000000000000000000000000000000000000000000000000 DUP2 MSTORE PUSH1 0x4 ADD PUSH2 0xC21 SWAP1 PUSH2 0x3EBC JUMP JUMPDEST PUSH1 0x40 MLOAD DUP1 SWAP2 SUB SWAP1 REVERT JUMPDEST PUSH2 0xC32 PUSH2 0x1908 JUMP JUMPDEST JUMP JUMPDEST PUSH1 0x2 PUSH1 0x20 MSTORE DUP1 PUSH0 MSTORE PUSH1 0x40 PUSH0 KECCAK256 PUSH0 SWAP2 POP SLOAD SWAP1 PUSH2 0x100 EXP SWAP1 DIV PUSH1 0xFF AND DUP2 JUMP JUMPDEST PUSH2 0xC59 PUSH2 0x1969 JUMP JUMPDEST DUP1 PUSH1 0x1 DUP1 PUSH2 0x100 EXP DUP2 SLOAD DUP2 PUSH1 0xFF MUL NOT AND SWAP1 DUP4 ISZERO ISZERO MUL OR SWAP1 SSTORE POP DUP2 PUSH1 0x1 PUSH0 PUSH2 0x100 EXP DUP2 SLOAD DUP2 PUSH1 0xFF MUL NOT AND SWAP1 DUP4 ISZERO ISZERO MUL OR SWAP1 SSTORE POP POP POP JUMP JUMPDEST PUSH0 PUSH0 PUSH2 0xC99 PUSH2 0x192D JUMP JUMPDEST SWAP1 POP PUSH2 0xCA4 DUP5 PUSH2 0x1076 JUMP JUMPDEST DUP4 LT PUSH2 0xCE9 JUMPI DUP4 DUP4 PUSH1 0x40 MLOAD PUSH32 0xA57D13DC00000000000000000000000000000000000000000000000000000000 DUP2 MSTORE PUSH1 0x4 ADD PUSH2 0xCE0 SWAP3 SWAP2 SWAP1 PUSH2 0x3EDA JUMP JUMPDEST PUSH1 0x40 MLOAD DUP1 SWAP2 SUB SWAP1 REVERT JUMPDEST DUP1 PUSH0 ADD PUSH0 DUP6 PUSH20 0xFFFFFFFFFFFFFFFFFFFFFFFFFFFFFFFFFFFFFFFF AND PUSH20 0xFFFFFFFFFFFFFFFFFFFFFFFFFFFFFFFFFFFFFFFF AND DUP2 MSTORE PUSH1 0x20 ADD SWAP1 DUP2 MSTORE PUSH1 0x20 ADD PUSH0 KECCAK256 PUSH0 DUP5 DUP2 MSTORE PUSH1 0x20 ADD SWAP1 DUP2 MSTORE PUSH1 0x20 ADD PUSH0 KECCAK256 SLOAD SWAP2 POP POP SWAP3 SWAP2 POP POP JUMP JUMPDEST PUSH2 0xD48 PUSH2 0x1969 JUMP JUMPDEST PUSH0 PUSH1 0x2 PUSH0 DUP4 PUSH20 0xFFFFFFFFFFFFFFFFFFFFFFFFFFFFFFFFFFFFFFFF AND PUSH20 0xFFFFFFFFFFFFFFFFFFFFFFFFFFFFFFFFFFFFFFFF AND DUP2 MSTORE PUSH1 0x20 ADD SWAP1 DUP2 MSTORE PUSH1 0x20 ADD PUSH0 KECCAK256 PUSH0 PUSH2 0x100 EXP DUP2 SLOAD DUP2 PUSH1 0xFF MUL NOT AND SWAP1 DUP4 ISZERO ISZERO MUL OR SWAP1 SSTORE PUSH2 0xDDA JUMPI PUSH1 0x40 MLOAD PUSH32 0x8C379A000000000000000000000000000000000000000000000000000000000 DUP2 MSTORE PUSH1 0x4 ADD PUSH2 0xDD1 SWAP1 PUSH2 0x3F4B JUMP JUMPDEST PUSH1 0x40 MLOAD DUP1 SWAP2 SUB SWAP1 REVERT JUMPDEST PUSH1 0x1 PUSH1 0x2 PUSH0 DUP4 PUSH20 0xFFFFFFFFFFFFFFFFFFFFFFFFFFFFFFFFFFFFFFFF AND PUSH20 0xFFFFFFFFFFFFFFFFFFFFFFFFFFFFFFFFFFFFFFFF AND DUP2 MSTORE PUSH1 0x20 ADD SWAP1 DUP2 MSTORE PUSH1 0x20 ADD PUSH0 KECCAK256 PUSH0 PUSH2 0x100 EXP DUP2 SLOAD DUP2 PUSH1 0xFF MUL NOT AND SWAP1 DUP4 ISZERO ISZERO MUL OR SWAP1 SSTORE POP POP JUMP JUMPDEST PUSH2 0xE3A PUSH2 0x1969 JUMP JUMPDEST PUSH2 0xE42 PUSH2 0x19F0 JUMP JUMPDEST JUMP JUMPDEST PUSH2 0xE5E DUP4 DUP4 DUP4 PUSH1 0x40 MLOAD DUP1 PUSH1 0x20 ADD PUSH1 0x40 MSTORE DUP1 PUSH0 DUP2 MSTORE POP PUSH2 0x1281 JUMP JUMPDEST POP POP POP JUMP JUMPDEST PUSH2 0xE75 PUSH0 DUP3 PUSH2 0xE70 PUSH2 0x18EF JUMP JUMPDEST PUSH2 0x1954 JUMP JUMPDEST POP POP JUMP JUMPDEST PUSH2 0xE81 PUSH2 0x1A5E JUMP JUMPDEST PUSH2 0xE8A DUP3 PUSH2 0x1B44 JUMP JUMPDEST PUSH2 0xE94 DUP3 DUP3 PUSH2 0x1B4F JUMP JUMPDEST POP POP JUMP JUMPDEST PUSH0 PUSH0 PUSH2 0xEA2 PUSH2 0x192D JUMP JUMPDEST SWAP1 POP PUSH2 0xEAC PUSH2 0xA7A JUMP JUMPDEST DUP4 LT PUSH2 0xEF1 JUMPI PUSH0 DUP4 PUSH1 0x40 MLOAD PUSH32 0xA57D13DC00000000000000000000000000000000000000000000000000000000 DUP2 MSTORE PUSH1 0x4 ADD PUSH2 0xEE8 SWAP3 SWAP2 SWAP1 PUSH2 0x3EDA JUMP JUMPDEST PUSH1 0x40 MLOAD DUP1 SWAP2 SUB SWAP1 REVERT JUMPDEST DUP1 PUSH1 0x2 ADD DUP4 DUP2 SLOAD DUP2 LT PUSH2 0xF07 JUMPI PUSH2 0xF06 PUSH2 0x3F69 JUMP JUMPDEST JUMPDEST SWAP1 PUSH0 MSTORE PUSH1 0x20 PUSH0 KECCAK256 ADD SLOAD SWAP2 POP POP SWAP2 SWAP1 POP JUMP JUMPDEST PUSH2 0xF20 PUSH2 0x1969 JUMP JUMPDEST PUSH0 SELFBALANCE SWAP1 POP DUP2 PUSH20 0xFFFFFFFFFFFFFFFFFFFFFFFFFFFFFFFFFFFFFFFF AND PUSH2 0x8FC DUP3 SWAP1 DUP2 ISZERO MUL SWAP1 PUSH1 0x40 MLOAD PUSH0 PUSH1 0x40 MLOAD DUP1 DUP4 SUB DUP2 DUP6 DUP9 DUP9 CALL SWAP4 POP POP POP POP ISZERO DUP1 ISZERO PUSH2 0xF67 JUMPI RETURNDATASIZE PUSH0 PUSH0 RETURNDATACOPY RETURNDATASIZE PUSH0 REVERT JUMPDEST POP POP POP JUMP JUMPDEST PUSH0 PUSH2 0xF75 PUSH2 0x1C6D JUMP JUMPDEST PUSH32 0x360894A13BA1A3210667C828492DB98DCA3E2076CC3735A920A3CA505D382BBC PUSH0 SHL SWAP1 POP SWAP1 JUMP JUMPDEST PUSH0 PUSH0 PUSH2 0xFA7 PUSH2 0x1CF4 JUMP JUMPDEST SWAP1 POP DUP1 PUSH0 ADD PUSH0 SWAP1 SLOAD SWAP1 PUSH2 0x100 EXP SWAP1 DIV PUSH1 0xFF AND SWAP2 POP POP SWAP1 JUMP JUMPDEST PUSH0 PUSH2 0xFC9 DUP3 PUSH2 0x1822 JUMP JUMPDEST SWAP1 POP SWAP2 SWAP1 POP JUMP JUMPDEST PUSH2 0xFD8 PUSH2 0x1969 JUMP JUMPDEST PUSH0 PUSH0 SWAP1 POP JUMPDEST DUP3 DUP3 SWAP1 POP DUP2 LT ISZERO PUSH2 0x1071 JUMPI PUSH1 0x1 PUSH1 0x2 PUSH0 DUP6 DUP6 DUP6 DUP2 DUP2 LT PUSH2 0x1000 JUMPI PUSH2 0xFFF PUSH2 0x3F69 JUMP JUMPDEST JUMPDEST SWAP1 POP PUSH1 0x20 MUL ADD PUSH1 0x20 DUP2 ADD SWAP1 PUSH2 0x1015 SWAP2 SWAP1 PUSH2 0x3852 JUMP JUMPDEST PUSH20 0xFFFFFFFFFFFFFFFFFFFFFFFFFFFFFFFFFFFFFFFF AND PUSH20 0xFFFFFFFFFFFFFFFFFFFFFFFFFFFFFFFFFFFFFFFF AND DUP2 MSTORE PUSH1 0x20 ADD SWAP1 DUP2 MSTORE PUSH1 0x20 ADD PUSH0 KECCAK256 PUSH0 PUSH2 0x100 EXP DUP2 SLOAD DUP2 PUSH1 0xFF MUL NOT AND SWAP1 DUP4 ISZERO ISZERO MUL OR SWAP1 SSTORE POP DUP1 DUP1 PUSH1 0x1 ADD SWAP2 POP POP PUSH2 0xFDD JUMP JUMPDEST POP POP POP JUMP JUMPDEST PUSH0 PUSH0 PUSH2 0x1080 PUSH2 0x17FB JUMP JUMPDEST SWAP1 POP PUSH0 PUSH20 0xFFFFFFFFFFFFFFFFFFFFFFFFFFFFFFFFFFFFFFFF AND DUP4 PUSH20 0xFFFFFFFFFFFFFFFFFFFFFFFFFFFFFFFFFFFFFFFF AND SUB PUSH2 0x10F2 JUMPI PUSH0 PUSH1 0x40 MLOAD PUSH32 0x89C62B6400000000000000000000000000000000000000000000000000000000 DUP2 MSTORE PUSH1 0x4 ADD PUSH2 0x10E9 SWAP2 SWAP1 PUSH2 0x3759 JUMP JUMPDEST PUSH1 0x40 MLOAD DUP1 SWAP2 SUB SWAP1 REVERT JUMPDEST DUP1 PUSH1 0x3 ADD PUSH0 DUP5 PUSH20 0xFFFFFFFFFFFFFFFFFFFFFFFFFFFFFFFFFFFFFFFF AND PUSH20 0xFFFFFFFFFFFFFFFFFFFFFFFFFFFFFFFFFFFFFFFF AND DUP2 MSTORE PUSH1 0x20 ADD SWAP1 DUP2 MSTORE PUSH1 0x20 ADD PUSH0 KECCAK256 SLOAD SWAP2 POP POP SWAP2 SWAP1 POP JUMP JUMPDEST PUSH2 0x1142 PUSH2 0x1969 JUMP JUMPDEST PUSH2 0x114B PUSH0 PUSH2 0x1D1B JUMP JUMPDEST JUMP JUMPDEST PUSH2 0x1155 PUSH2 0x1969 JUMP JUMPDEST PUSH2 0x115D PUSH2 0x1DEC JUMP JUMPDEST JUMP JUMPDEST PUSH0 PUSH0 PUSH2 0x1169 PUSH2 0x1E5B JUMP JUMPDEST SWAP1 POP DUP1 PUSH0 ADD PUSH0 SWAP1 SLOAD SWAP1 PUSH2 0x100 EXP SWAP1 DIV PUSH20 0xFFFFFFFFFFFFFFFFFFFFFFFFFFFFFFFFFFFFFFFF AND SWAP2 POP POP SWAP1 JUMP JUMPDEST PUSH1 0x60 PUSH0 PUSH2 0x119F PUSH2 0x17FB JUMP JUMPDEST SWAP1 POP DUP1 PUSH1 0x1 ADD DUP1 SLOAD PUSH2 0x11B0 SWAP1 PUSH2 0x3C6D JUMP JUMPDEST DUP1 PUSH1 0x1F ADD PUSH1 0x20 DUP1 SWAP2 DIV MUL PUSH1 0x20 ADD PUSH1 0x40 MLOAD SWAP1 DUP2 ADD PUSH1 0x40 MSTORE DUP1 SWAP3 SWAP2 SWAP1 DUP2 DUP2 MSTORE PUSH1 0x20 ADD DUP3 DUP1 SLOAD PUSH2 0x11DC SWAP1 PUSH2 0x3C6D JUMP JUMPDEST DUP1 ISZERO PUSH2 0x1227 JUMPI DUP1 PUSH1 0x1F LT PUSH2 0x11FE JUMPI PUSH2 0x100 DUP1 DUP4 SLOAD DIV MUL DUP4 MSTORE SWAP2 PUSH1 0x20 ADD SWAP2 PUSH2 0x1227 JUMP JUMPDEST DUP3 ADD SWAP2 SWAP1 PUSH0 MSTORE PUSH1 0x20 PUSH0 KECCAK256 SWAP1 JUMPDEST DUP2 SLOAD DUP2 MSTORE SWAP1 PUSH1 0x1 ADD SWAP1 PUSH1 0x20 ADD DUP1 DUP4 GT PUSH2 0x120A JUMPI DUP3 SWAP1 SUB PUSH1 0x1F AND DUP3 ADD SWAP2 JUMPDEST POP POP POP POP POP SWAP2 POP POP SWAP1 JUMP JUMPDEST PUSH2 0x1244 PUSH2 0x123D PUSH2 0x18EF JUMP JUMPDEST DUP4 DUP4 PUSH2 0x1E82 JUMP JUMPDEST POP POP JUMP JUMPDEST PUSH1 0x40 MLOAD DUP1 PUSH1 0x40 ADD PUSH1 0x40 MSTORE DUP1 PUSH1 0x5 DUP2 MSTORE PUSH1 0x20 ADD PUSH32 0x352E302E30000000000000000000000000000000000000000000000000000000 DUP2 MSTORE POP DUP2 JUMP JUMPDEST PUSH2 0x128C DUP5 DUP5 DUP5 PUSH2 0xA94 JUMP JUMPDEST PUSH2 0x12A0 PUSH2 0x1297 PUSH2 0x18EF JUMP JUMPDEST DUP6 DUP6 DUP6 DUP6 PUSH2 0x1FF9 JUMP JUMPDEST POP POP POP POP JUMP JUMPDEST PUSH1 0x1 PUSH0 SWAP1 SLOAD SWAP1 PUSH2 0x100 EXP SWAP1 DIV PUSH1 0xFF AND DUP2 JUMP JUMPDEST PUSH0 PUSH2 0x12C1 PUSH2 0x21A5 JUMP JUMPDEST SWAP1 POP PUSH0 DUP2 PUSH0 ADD PUSH1 0x8 SWAP1 SLOAD SWAP1 PUSH2 0x100 EXP SWAP1 DIV PUSH1 0xFF AND ISZERO SWAP1 POP PUSH0 DUP3 PUSH0 ADD PUSH0 SWAP1 SLOAD SWAP1 PUSH2 0x100 EXP SWAP1 DIV PUSH8 0xFFFFFFFFFFFFFFFF AND SWAP1 POP PUSH0 PUSH0 DUP3 PUSH8 0xFFFFFFFFFFFFFFFF AND EQ DUP1 ISZERO PUSH2 0x1309 JUMPI POP DUP3 JUMPDEST SWAP1 POP PUSH0 PUSH1 0x1 DUP4 PUSH8 0xFFFFFFFFFFFFFFFF AND EQ DUP1 ISZERO PUSH2 0x133C JUMPI POP PUSH0 ADDRESS PUSH20 0xFFFFFFFFFFFFFFFFFFFFFFFFFFFFFFFFFFFFFFFF AND EXTCODESIZE EQ JUMPDEST SWAP1 POP DUP2 ISZERO DUP1 ISZERO PUSH2 0x134A JUMPI POP DUP1 ISZERO JUMPDEST ISZERO PUSH2 0x1381 JUMPI PUSH1 0x40 MLOAD PUSH32 0xF92EE8A900000000000000000000000000000000000000000000000000000000 DUP2 MSTORE PUSH1 0x4 ADD PUSH1 0x40 MLOAD DUP1 SWAP2 SUB SWAP1 REVERT JUMPDEST PUSH1 0x1 DUP6 PUSH0 ADD PUSH0 PUSH2 0x100 EXP DUP2 SLOAD DUP2 PUSH8 0xFFFFFFFFFFFFFFFF MUL NOT AND SWAP1 DUP4 PUSH8 0xFFFFFFFFFFFFFFFF AND MUL OR SWAP1 SSTORE POP DUP4 ISZERO PUSH2 0x13CE JUMPI PUSH1 0x1 DUP6 PUSH0 ADD PUSH1 0x8 PUSH2 0x100 EXP DUP2 SLOAD DUP2 PUSH1 0xFF MUL NOT AND SWAP1 DUP4 ISZERO ISZERO MUL OR SWAP1 SSTORE POP JUMPDEST PUSH2 0x1442 PUSH1 0x40 MLOAD DUP1 PUSH1 0x40 ADD PUSH1 0x40 MSTORE DUP1 PUSH1 0x10 DUP2 MSTORE PUSH1 0x20 ADD PUSH32 0x42696B655661756C744275696C64657200000000000000000000000000000000 DUP2 MSTORE POP PUSH1 0x40 MLOAD DUP1 PUSH1 0x40 ADD PUSH1 0x40 MSTORE DUP1 PUSH1 0x4 DUP2 MSTORE PUSH1 0x20 ADD PUSH32 0x4256425400000000000000000000000000000000000000000000000000000000 DUP2 MSTORE POP PUSH2 0x21CC JUMP JUMPDEST PUSH2 0x144A PUSH2 0x21E2 JUMP JUMPDEST PUSH2 0x1452 PUSH2 0x21EC JUMP JUMPDEST PUSH2 0x145B DUP7 PUSH2 0x21FE JUMP JUMPDEST PUSH2 0x1463 PUSH2 0x2212 JUMP JUMPDEST PUSH2 0x146B PUSH2 0x221C JUMP JUMPDEST DUP4 ISZERO PUSH2 0x14C5 JUMPI PUSH0 DUP6 PUSH0 ADD PUSH1 0x8 PUSH2 0x100 EXP DUP2 SLOAD DUP2 PUSH1 0xFF MUL NOT AND SWAP1 DUP4 ISZERO ISZERO MUL OR SWAP1 SSTORE POP PUSH32 0xC7F505B2F371AE2175EE4913F4499E1F2633A7B5936321EED1CDAEB6115181D2 PUSH1 0x1 PUSH1 0x40 MLOAD PUSH2 0x14BC SWAP2 SWAP1 PUSH2 0x3FEB JUMP JUMPDEST PUSH1 0x40 MLOAD DUP1 SWAP2 SUB SWAP1 LOG1 JUMPDEST POP POP POP POP POP POP JUMP JUMPDEST PUSH1 0x60 PUSH2 0x14D8 DUP3 PUSH2 0x1822 JUMP JUMPDEST POP PUSH0 PUSH2 0x14E2 PUSH2 0x2226 JUMP JUMPDEST SWAP1 POP PUSH0 DUP2 MLOAD GT PUSH2 0x1500 JUMPI PUSH1 0x40 MLOAD DUP1 PUSH1 0x20 ADD PUSH1 0x40 MSTORE DUP1 PUSH0 DUP2 MSTORE POP PUSH2 0x152B JUMP JUMPDEST DUP1 PUSH2 0x150A DUP5 PUSH2 0x2246 JUMP JUMPDEST PUSH1 0x40 MLOAD PUSH1 0x20 ADD PUSH2 0x151B SWAP3 SWAP2 SWAP1 PUSH2 0x403E JUMP JUMPDEST PUSH1 0x40 MLOAD PUSH1 0x20 DUP2 DUP4 SUB SUB DUP2 MSTORE SWAP1 PUSH1 0x40 MSTORE JUMPDEST SWAP2 POP POP SWAP2 SWAP1 POP JUMP JUMPDEST PUSH0 PUSH0 PUSH2 0x153D PUSH2 0x17FB JUMP JUMPDEST SWAP1 POP DUP1 PUSH1 0x5 ADD PUSH0 DUP6 PUSH20 0xFFFFFFFFFFFFFFFFFFFFFFFFFFFFFFFFFFFFFFFF AND PUSH20 0xFFFFFFFFFFFFFFFFFFFFFFFFFFFFFFFFFFFFFFFF AND DUP2 MSTORE PUSH1 0x20 ADD SWAP1 DUP2 MSTORE PUSH1 0x20 ADD PUSH0 KECCAK256 PUSH0 DUP5 PUSH20 0xFFFFFFFFFFFFFFFFFFFFFFFFFFFFFFFFFFFFFFFF AND PUSH20 0xFFFFFFFFFFFFFFFFFFFFFFFFFFFFFFFFFFFFFFFF AND DUP2 MSTORE PUSH1 0x20 ADD SWAP1 DUP2 MSTORE PUSH1 0x20 ADD PUSH0 KECCAK256 PUSH0 SWAP1 SLOAD SWAP1 PUSH2 0x100 EXP SWAP1 DIV PUSH1 0xFF AND SWAP2 POP POP SWAP3 SWAP2 POP POP JUMP JUMPDEST PUSH2 0x15D7 PUSH2 0x1969 JUMP JUMPDEST PUSH1 0x1 PUSH1 0x2 PUSH0 DUP4 PUSH20 0xFFFFFFFFFFFFFFFFFFFFFFFFFFFFFFFFFFFFFFFF AND PUSH20 0xFFFFFFFFFFFFFFFFFFFFFFFFFFFFFFFFFFFFFFFF AND DUP2 MSTORE PUSH1 0x20 ADD SWAP1 DUP2 MSTORE PUSH1 0x20 ADD PUSH0 KECCAK256 PUSH0 PUSH2 0x100 EXP DUP2 SLOAD DUP2 PUSH1 0xFF MUL NOT AND SWAP1 DUP4 ISZERO ISZERO MUL OR SWAP1 SSTORE PUSH2 0x166A JUMPI PUSH1 0x40 MLOAD PUSH32 0x8C379A000000000000000000000000000000000000000000000000000000000 DUP2 MSTORE PUSH1 0x4 ADD PUSH2 0x1661 SWAP1 PUSH2 0x40D1 JUMP JUMPDEST PUSH1 0x40 MLOAD DUP1 SWAP2 SUB SWAP1 REVERT JUMPDEST PUSH0 PUSH1 0x2 PUSH0 DUP4 PUSH20 0xFFFFFFFFFFFFFFFFFFFFFFFFFFFFFFFFFFFFFFFF AND PUSH20 0xFFFFFFFFFFFFFFFFFFFFFFFFFFFFFFFFFFFFFFFF AND DUP2 MSTORE PUSH1 0x20 ADD SWAP1 DUP2 MSTORE PUSH1 0x20 ADD PUSH0 KECCAK256 PUSH0 PUSH2 0x100 EXP DUP2 SLOAD DUP2 PUSH1 0xFF MUL NOT AND SWAP1 DUP4 ISZERO ISZERO MUL OR SWAP1 SSTORE POP POP JUMP JUMPDEST PUSH2 0x16C9 PUSH2 0x1969 JUMP JUMPDEST PUSH0 PUSH20 0xFFFFFFFFFFFFFFFFFFFFFFFFFFFFFFFFFFFFFFFF AND DUP2 PUSH20 0xFFFFFFFFFFFFFFFFFFFFFFFFFFFFFFFFFFFFFFFF AND SUB PUSH2 0x1739 JUMPI PUSH0 PUSH1 0x40 MLOAD PUSH32 0x1E4FBDF700000000000000000000000000000000000000000000000000000000 DUP2 MSTORE PUSH1 0x4 ADD PUSH2 0x1730 SWAP2 SWAP1 PUSH2 0x3759 JUMP JUMPDEST PUSH1 0x40 MLOAD DUP1 SWAP2 SUB SWAP1 REVERT JUMPDEST PUSH2 0x1742 DUP2 PUSH2 0x1D1B JUMP JUMPDEST POP JUMP JUMPDEST PUSH1 0x60 PUSH1 0x40 MLOAD DUP1 PUSH1 0x40 ADD PUSH1 0x40 MSTORE DUP1 PUSH1 0xD DUP2 MSTORE PUSH1 0x20 ADD PUSH32 0x42696B6520436F6E747261637400000000000000000000000000000000000000 DUP2 MSTORE POP SWAP1 POP SWAP1 JUMP JUMPDEST PUSH0 PUSH32 0x780E9D6300000000000000000000000000000000000000000000000000000000 PUSH28 0xFFFFFFFFFFFFFFFFFFFFFFFFFFFFFFFFFFFFFFFFFFFFFFFFFFFFFFFF NOT AND DUP3 PUSH28 0xFFFFFFFFFFFFFFFFFFFFFFFFFFFFFFFFFFFFFFFFFFFFFFFFFFFFFFFF NOT AND EQ DUP1 PUSH2 0x17F4 JUMPI POP PUSH2 0x17F3 DUP3 PUSH2 0x2310 JUMP JUMPDEST JUMPDEST SWAP1 POP SWAP2 SWAP1 POP JUMP JUMPDEST PUSH0 PUSH32 0x80BB2B638CC20BC4D0A60D66940F3AB4A00C1D7B313497CA82FB0B4AB0079300 SWAP1 POP SWAP1 JUMP JUMPDEST PUSH0 PUSH0 PUSH2 0x182D DUP4 PUSH2 0x23F1 JUMP JUMPDEST SWAP1 POP PUSH0 PUSH20 0xFFFFFFFFFFFFFFFFFFFFFFFFFFFFFFFFFFFFFFFF AND DUP2 PUSH20 0xFFFFFFFFFFFFFFFFFFFFFFFFFFFFFFFFFFFFFFFF AND SUB PUSH2 0x189F JUMPI DUP3 PUSH1 0x40 MLOAD PUSH32 0x7E27328900000000000000000000000000000000000000000000000000000000 DUP2 MSTORE PUSH1 0x4 ADD PUSH2 0x1896 SWAP2 SWAP1 PUSH2 0x37E9 JUMP JUMPDEST PUSH1 0x40 MLOAD DUP1 SWAP2 SUB SWAP1 REVERT JUMPDEST DUP1 SWAP2 POP POP SWAP2 SWAP1 POP JUMP JUMPDEST PUSH0 PUSH0 PUSH2 0x18B2 PUSH2 0x17FB JUMP JUMPDEST SWAP1 POP DUP1 PUSH1 0x4 ADD PUSH0 DUP5 DUP2 MSTORE PUSH1 0x20 ADD SWAP1 DUP2 MSTORE PUSH1 0x20 ADD PUSH0 KECCAK256 PUSH0 SWAP1 SLOAD SWAP1 PUSH2 0x100 EXP SWAP1 DIV PUSH20 0xFFFFFFFFFFFFFFFFFFFFFFFFFFFFFFFFFFFFFFFF AND SWAP2 POP POP SWAP2 SWAP1 POP JUMP JUMPDEST PUSH0 CALLER SWAP1 POP SWAP1 JUMP JUMPDEST PUSH2 0x1903 DUP4 DUP4 DUP4 PUSH1 0x1 PUSH2 0x2438 JUMP JUMPDEST POP POP POP JUMP JUMPDEST PUSH0 PUSH0 PUSH0 DUP2 SLOAD DUP1 SWAP3 SWAP2 SWAP1 PUSH2 0x191A SWAP1 PUSH2 0x411C JUMP JUMPDEST SWAP2 SWAP1 POP SSTORE SWAP1 POP PUSH2 0x192A CALLER DUP3 PUSH2 0x2605 JUMP JUMPDEST POP JUMP JUMPDEST PUSH0 PUSH32 0x645E039705490088DAAD89BAE25049A34F4A9072D398537B1AB2425F24CBED00 SWAP1 POP SWAP1 JUMP JUMPDEST PUSH0 PUSH2 0x1960 DUP5 DUP5 DUP5 PUSH2 0x2622 JUMP JUMPDEST SWAP1 POP SWAP4 SWAP3 POP POP POP JUMP JUMPDEST PUSH2 0x1971 PUSH2 0x18EF JUMP JUMPDEST PUSH20 0xFFFFFFFFFFFFFFFFFFFFFFFFFFFFFFFFFFFFFFFF AND PUSH2 0x198F PUSH2 0x115F JUMP JUMPDEST PUSH20 0xFFFFFFFFFFFFFFFFFFFFFFFFFFFFFFFFFFFFFFFF AND EQ PUSH2 0x19EE JUMPI PUSH2 0x19B2 PUSH2 0x18EF JUMP JUMPDEST PUSH1 0x40 MLOAD PUSH32 0x118CDAA700000000000000000000000000000000000000000000000000000000 DUP2 MSTORE PUSH1 0x4 ADD PUSH2 0x19E5 SWAP2 SWAP1 PUSH2 0x3759 JUMP JUMPDEST PUSH1 0x40 MLOAD DUP1 SWAP2 SUB SWAP1 REVERT JUMPDEST JUMP JUMPDEST PUSH2 0x19F8 PUSH2 0x263F JUMP JUMPDEST PUSH0 PUSH2 0x1A01 PUSH2 0x1CF4 JUMP JUMPDEST SWAP1 POP PUSH0 DUP2 PUSH0 ADD PUSH0 PUSH2 0x100 EXP DUP2 SLOAD DUP2 PUSH1 0xFF MUL NOT AND SWAP1 DUP4 ISZERO ISZERO MUL OR SWAP1 SSTORE POP PUSH32 0x5DB9EE0A495BF2E6FF9C91A7834C1BA4FDD244A5E8AA4E537BD38AEAE4B073AA PUSH2 0x1A46 PUSH2 0x18EF JUMP JUMPDEST PUSH1 0x40 MLOAD PUSH2 0x1A53 SWAP2 SWAP1 PUSH2 0x3759 JUMP JUMPDEST PUSH1 0x40 MLOAD DUP1 SWAP2 SUB SWAP1 LOG1 POP JUMP JUMPDEST PUSH32 0x0 PUSH20 0xFFFFFFFFFFFFFFFFFFFFFFFFFFFFFFFFFFFFFFFF AND ADDRESS PUSH20 0xFFFFFFFFFFFFFFFFFFFFFFFFFFFFFFFFFFFFFFFF AND EQ DUP1 PUSH2 0x1B0B JUMPI POP PUSH32 0x0 PUSH20 0xFFFFFFFFFFFFFFFFFFFFFFFFFFFFFFFFFFFFFFFF AND PUSH2 0x1AF2 PUSH2 0x267F JUMP JUMPDEST PUSH20 0xFFFFFFFFFFFFFFFFFFFFFFFFFFFFFFFFFFFFFFFF AND EQ ISZERO JUMPDEST ISZERO PUSH2 0x1B42 JUMPI PUSH1 0x40 MLOAD PUSH32 0xE07C8DBA00000000000000000000000000000000000000000000000000000000 DUP2 MSTORE PUSH1 0x4 ADD PUSH1 0x40 MLOAD DUP1 SWAP2 SUB SWAP1 REVERT JUMPDEST JUMP JUMPDEST PUSH2 0x1B4C PUSH2 0x1969 JUMP JUMPDEST POP JUMP JUMPDEST DUP2 PUSH20 0xFFFFFFFFFFFFFFFFFFFFFFFFFFFFFFFFFFFFFFFF AND PUSH4 0x52D1902D PUSH1 0x40 MLOAD DUP2 PUSH4 0xFFFFFFFF AND PUSH1 0xE0 SHL DUP2 MSTORE PUSH1 0x4 ADD PUSH1 0x20 PUSH1 0x40 MLOAD DUP1 DUP4 SUB DUP2 DUP7 GAS STATICCALL SWAP3 POP POP POP DUP1 ISZERO PUSH2 0x1BB7 JUMPI POP PUSH1 0x40 MLOAD RETURNDATASIZE PUSH1 0x1F NOT PUSH1 0x1F DUP3 ADD AND DUP3 ADD DUP1 PUSH1 0x40 MSTORE POP DUP2 ADD SWAP1 PUSH2 0x1BB4 SWAP2 SWAP1 PUSH2 0x418D JUMP JUMPDEST PUSH1 0x1 JUMPDEST PUSH2 0x1BF8 JUMPI DUP2 PUSH1 0x40 MLOAD PUSH32 0x4C9C8CE300000000000000000000000000000000000000000000000000000000 DUP2 MSTORE PUSH1 0x4 ADD PUSH2 0x1BEF SWAP2 SWAP1 PUSH2 0x3759 JUMP JUMPDEST PUSH1 0x40 MLOAD DUP1 SWAP2 SUB SWAP1 REVERT JUMPDEST PUSH32 0x360894A13BA1A3210667C828492DB98DCA3E2076CC3735A920A3CA505D382BBC PUSH0 SHL DUP2 EQ PUSH2 0x1C5E JUMPI DUP1 PUSH1 0x40 MLOAD PUSH32 0xAA1D49A400000000000000000000000000000000000000000000000000000000 DUP2 MSTORE PUSH1 0x4 ADD PUSH2 0x1C55 SWAP2 SWAP1 PUSH2 0x3A83 JUMP JUMPDEST PUSH1 0x40 MLOAD DUP1 SWAP2 SUB SWAP1 REVERT JUMPDEST PUSH2 0x1C68 DUP4 DUP4 PUSH2 0x26D2 JUMP JUMPDEST POP POP POP JUMP JUMPDEST PUSH32 0x0 PUSH20 0xFFFFFFFFFFFFFFFFFFFFFFFFFFFFFFFFFFFFFFFF AND ADDRESS PUSH20 0xFFFFFFFFFFFFFFFFFFFFFFFFFFFFFFFFFFFFFFFF AND EQ PUSH2 0x1CF2 JUMPI PUSH1 0x40 MLOAD PUSH32 0xE07C8DBA00000000000000000000000000000000000000000000000000000000 DUP2 MSTORE PUSH1 0x4 ADD PUSH1 0x40 MLOAD DUP1 SWAP2 SUB SWAP1 REVERT JUMPDEST JUMP JUMPDEST PUSH0 PUSH32 0xCD5ED15C6E187E77E9AEE88184C21F4F2182AB5827CB3B7E07FBEDCD63F03300 SWAP1 POP SWAP1 JUMP JUMPDEST PUSH0 PUSH2 0x1D24 PUSH2 0x1E5B JUMP JUMPDEST SWAP1 POP PUSH0 DUP2 PUSH0 ADD PUSH0 SWAP1 SLOAD SWAP1 PUSH2 0x100 EXP SWAP1 DIV PUSH20 0xFFFFFFFFFFFFFFFFFFFFFFFFFFFFFFFFFFFFFFFF AND SWAP1 POP DUP3 DUP3 PUSH0 ADD PUSH0 PUSH2 0x100 EXP DUP2 SLOAD DUP2 PUSH20 0xFFFFFFFFFFFFFFFFFFFFFFFFFFFFFFFFFFFFFFFF MUL NOT AND SWAP1 DUP4 PUSH20 0xFFFFFFFFFFFFFFFFFFFFFFFFFFFFFFFFFFFFFFFF AND MUL OR SWAP1 SSTORE POP DUP3 PUSH20 0xFFFFFFFFFFFFFFFFFFFFFFFFFFFFFFFFFFFFFFFF AND DUP2 PUSH20 0xFFFFFFFFFFFFFFFFFFFFFFFFFFFFFFFFFFFFFFFF AND PUSH32 0x8BE0079C531659141344CD1FD0A4F28419497F9722A3DAAFE3B4186F6B6457E0 PUSH1 0x40 MLOAD PUSH1 0x40 MLOAD DUP1 SWAP2 SUB SWAP1 LOG3 POP POP POP JUMP JUMPDEST PUSH2 0x1DF4 PUSH2 0x2744 JUMP JUMPDEST PUSH0 PUSH2 0x1DFD PUSH2 0x1CF4 JUMP JUMPDEST SWAP1 POP PUSH1 0x1 DUP2 PUSH0 ADD PUSH0 PUSH2 0x100 EXP DUP2 SLOAD DUP2 PUSH1 0xFF MUL NOT AND SWAP1 DUP4 ISZERO ISZERO MUL OR SWAP1 SSTORE POP PUSH32 0x62E78CEA01BEE320CD4E420270B5EA74000D11B0C9F74754EBDBFC544B05A258 PUSH2 0x1E43 PUSH2 0x18EF JUMP JUMPDEST PUSH1 0x40 MLOAD PUSH2 0x1E50 SWAP2 SWAP1 PUSH2 0x3759 JUMP JUMPDEST PUSH1 0x40 MLOAD DUP1 SWAP2 SUB SWAP1 LOG1 POP JUMP JUMPDEST PUSH0 PUSH32 0x9016D09D72D40FDAE2FD8CEAC6B6234C7706214FD39C1CD1E609A0528C199300 SWAP1 POP SWAP1 JUMP JUMPDEST PUSH0 PUSH2 0x1E8B PUSH2 0x17FB JUMP JUMPDEST SWAP1 POP PUSH0 PUSH20 0xFFFFFFFFFFFFFFFFFFFFFFFFFFFFFFFFFFFFFFFF AND DUP4 PUSH20 0xFFFFFFFFFFFFFFFFFFFFFFFFFFFFFFFFFFFFFFFF AND SUB PUSH2 0x1EFD JUMPI DUP3 PUSH1 0x40 MLOAD PUSH32 0x5B08BA1800000000000000000000000000000000000000000000000000000000 DUP2 MSTORE PUSH1 0x4 ADD PUSH2 0x1EF4 SWAP2 SWAP1 PUSH2 0x3759 JUMP JUMPDEST PUSH1 0x40 MLOAD DUP1 SWAP2 SUB SWAP1 REVERT JUMPDEST DUP2 DUP2 PUSH1 0x5 ADD PUSH0 DUP7 PUSH20 0xFFFFFFFFFFFFFFFFFFFFFFFFFFFFFFFFFFFFFFFF AND PUSH20 0xFFFFFFFFFFFFFFFFFFFFFFFFFFFFFFFFFFFFFFFF AND DUP2 MSTORE PUSH1 0x20 ADD SWAP1 DUP2 MSTORE PUSH1 0x20 ADD PUSH0 KECCAK256 PUSH0 DUP6 PUSH20 0xFFFFFFFFFFFFFFFFFFFFFFFFFFFFFFFFFFFFFFFF AND PUSH20 0xFFFFFFFFFFFFFFFFFFFFFFFFFFFFFFFFFFFFFFFF AND DUP2 MSTORE PUSH1 0x20 ADD SWAP1 DUP2 MSTORE PUSH1 0x20 ADD PUSH0 KECCAK256 PUSH0 PUSH2 0x100 EXP DUP2 SLOAD DUP2 PUSH1 0xFF MUL NOT AND SWAP1 DUP4 ISZERO ISZERO MUL OR SWAP1 SSTORE POP DUP3 PUSH20 0xFFFFFFFFFFFFFFFFFFFFFFFFFFFFFFFFFFFFFFFF AND DUP5 PUSH20 0xFFFFFFFFFFFFFFFFFFFFFFFFFFFFFFFFFFFFFFFF AND PUSH32 0x17307EAB39AB6107E8899845AD3D59BD9653F200F220920489CA2B5937696C31 DUP5 PUSH1 0x40 MLOAD PUSH2 0x1FEB SWAP2 SWAP1 PUSH2 0x3613 JUMP JUMPDEST PUSH1 0x40 MLOAD DUP1 SWAP2 SUB SWAP1 LOG3 POP POP POP POP JUMP JUMPDEST PUSH0 DUP4 PUSH20 0xFFFFFFFFFFFFFFFFFFFFFFFFFFFFFFFFFFFFFFFF AND EXTCODESIZE GT ISZERO PUSH2 0x219E JUMPI DUP3 PUSH20 0xFFFFFFFFFFFFFFFFFFFFFFFFFFFFFFFFFFFFFFFF AND PUSH4 0x150B7A02 DUP7 DUP7 DUP6 DUP6 PUSH1 0x40 MLOAD DUP6 PUSH4 0xFFFFFFFF AND PUSH1 0xE0 SHL DUP2 MSTORE PUSH1 0x4 ADD PUSH2 0x2057 SWAP5 SWAP4 SWAP3 SWAP2 SWAP1 PUSH2 0x420A JUMP JUMPDEST PUSH1 0x20 PUSH1 0x40 MLOAD DUP1 DUP4 SUB DUP2 PUSH0 DUP8 GAS CALL SWAP3 POP POP POP DUP1 ISZERO PUSH2 0x2092 JUMPI POP PUSH1 0x40 MLOAD RETURNDATASIZE PUSH1 0x1F NOT PUSH1 0x1F DUP3 ADD AND DUP3 ADD DUP1 PUSH1 0x40 MSTORE POP DUP2 ADD SWAP1 PUSH2 0x208F SWAP2 SWAP1 PUSH2 0x4268 JUMP JUMPDEST PUSH1 0x1 JUMPDEST PUSH2 0x2113 JUMPI RETURNDATASIZE DUP1 PUSH0 DUP2 EQ PUSH2 0x20C0 JUMPI PUSH1 0x40 MLOAD SWAP2 POP PUSH1 0x1F NOT PUSH1 0x3F RETURNDATASIZE ADD AND DUP3 ADD PUSH1 0x40 MSTORE RETURNDATASIZE DUP3 MSTORE RETURNDATASIZE PUSH0 PUSH1 0x20 DUP5 ADD RETURNDATACOPY PUSH2 0x20C5 JUMP JUMPDEST PUSH1 0x60 SWAP2 POP JUMPDEST POP PUSH0 DUP2 MLOAD SUB PUSH2 0x210B JUMPI DUP4 PUSH1 0x40 MLOAD PUSH32 0x64A0AE9200000000000000000000000000000000000000000000000000000000 DUP2 MSTORE PUSH1 0x4 ADD PUSH2 0x2102 SWAP2 SWAP1 PUSH2 0x3759 JUMP JUMPDEST PUSH1 0x40 MLOAD DUP1 SWAP2 SUB SWAP1 REVERT JUMPDEST DUP1 MLOAD DUP2 PUSH1 0x20 ADD REVERT JUMPDEST PUSH4 0x150B7A02 PUSH1 0xE0 SHL PUSH28 0xFFFFFFFFFFFFFFFFFFFFFFFFFFFFFFFFFFFFFFFFFFFFFFFFFFFFFFFF NOT AND DUP2 PUSH28 0xFFFFFFFFFFFFFFFFFFFFFFFFFFFFFFFFFFFFFFFFFFFFFFFFFFFFFFFF NOT AND EQ PUSH2 0x219C JUMPI DUP4 PUSH1 0x40 MLOAD PUSH32 0x64A0AE9200000000000000000000000000000000000000000000000000000000 DUP2 MSTORE PUSH1 0x4 ADD PUSH2 0x2193 SWAP2 SWAP1 PUSH2 0x3759 JUMP JUMPDEST PUSH1 0x40 MLOAD DUP1 SWAP2 SUB SWAP1 REVERT JUMPDEST POP JUMPDEST POP POP POP POP POP JUMP JUMPDEST PUSH0 PUSH32 0xF0C57E16840DF040F15088DC2F81FE391C3923BEC73E23A9662EFC9C229C6A00 SWAP1 POP SWAP1 JUMP JUMPDEST PUSH2 0x21D4 PUSH2 0x2785 JUMP JUMPDEST PUSH2 0x21DE DUP3 DUP3 PUSH2 0x27C5 JUMP JUMPDEST POP POP JUMP JUMPDEST PUSH2 0x21EA PUSH2 0x2785 JUMP JUMPDEST JUMP JUMPDEST PUSH2 0x21F4 PUSH2 0x2785 JUMP JUMPDEST PUSH2 0x21FC PUSH2 0x2800 JUMP JUMPDEST JUMP JUMPDEST PUSH2 0x2206 PUSH2 0x2785 JUMP JUMPDEST PUSH2 0x220F DUP2 PUSH2 0x2830 JUMP JUMPDEST POP JUMP JUMPDEST PUSH2 0x221A PUSH2 0x2785 JUMP JUMPDEST JUMP JUMPDEST PUSH2 0x2224 PUSH2 0x2785 JUMP JUMPDEST JUMP JUMPDEST PUSH1 0x60 PUSH1 0x40 MLOAD DUP1 PUSH1 0x60 ADD PUSH1 0x40 MSTORE DUP1 PUSH1 0x2A DUP2 MSTORE PUSH1 0x20 ADD PUSH2 0x45D7 PUSH1 0x2A SWAP2 CODECOPY SWAP1 POP SWAP1 JUMP JUMPDEST PUSH1 0x60 PUSH0 PUSH1 0x1 PUSH2 0x2254 DUP5 PUSH2 0x28B4 JUMP JUMPDEST ADD SWAP1 POP PUSH0 DUP2 PUSH8 0xFFFFFFFFFFFFFFFF DUP2 GT ISZERO PUSH2 0x2272 JUMPI PUSH2 0x2271 PUSH2 0x38ED JUMP JUMPDEST JUMPDEST PUSH1 0x40 MLOAD SWAP1 DUP1 DUP3 MSTORE DUP1 PUSH1 0x1F ADD PUSH1 0x1F NOT AND PUSH1 0x20 ADD DUP3 ADD PUSH1 0x40 MSTORE DUP1 ISZERO PUSH2 0x22A4 JUMPI DUP2 PUSH1 0x20 ADD PUSH1 0x1 DUP3 MUL DUP1 CALLDATASIZE DUP4 CALLDATACOPY DUP1 DUP3 ADD SWAP2 POP POP SWAP1 POP JUMPDEST POP SWAP1 POP PUSH0 DUP3 PUSH1 0x20 ADD DUP3 ADD SWAP1 POP JUMPDEST PUSH1 0x1 ISZERO PUSH2 0x2305 JUMPI DUP1 DUP1 PUSH1 0x1 SWAP1 SUB SWAP2 POP POP PUSH32 0x3031323334353637383961626364656600000000000000000000000000000000 PUSH1 0xA DUP7 MOD BYTE DUP2 MSTORE8 PUSH1 0xA DUP6 DUP2 PUSH2 0x22FA JUMPI PUSH2 0x22F9 PUSH2 0x4293 JUMP JUMPDEST JUMPDEST DIV SWAP5 POP PUSH0 DUP6 SUB PUSH2 0x22B1 JUMPI JUMPDEST DUP2 SWAP4 POP POP POP POP SWAP2 SWAP1 POP JUMP JUMPDEST PUSH0 PUSH32 0x80AC58CD00000000000000000000000000000000000000000000000000000000 PUSH28 0xFFFFFFFFFFFFFFFFFFFFFFFFFFFFFFFFFFFFFFFFFFFFFFFFFFFFFFFF NOT AND DUP3 PUSH28 0xFFFFFFFFFFFFFFFFFFFFFFFFFFFFFFFFFFFFFFFFFFFFFFFFFFFFFFFF NOT AND EQ DUP1 PUSH2 0x23DA JUMPI POP PUSH32 0x5B5E139F00000000000000000000000000000000000000000000000000000000 PUSH28 0xFFFFFFFFFFFFFFFFFFFFFFFFFFFFFFFFFFFFFFFFFFFFFFFFFFFFFFFF NOT AND DUP3 PUSH28 0xFFFFFFFFFFFFFFFFFFFFFFFFFFFFFFFFFFFFFFFFFFFFFFFFFFFFFFFF NOT AND EQ JUMPDEST DUP1 PUSH2 0x23EA JUMPI POP PUSH2 0x23E9 DUP3 PUSH2 0x2A05 JUMP JUMPDEST JUMPDEST SWAP1 POP SWAP2 SWAP1 POP JUMP JUMPDEST PUSH0 PUSH0 PUSH2 0x23FB PUSH2 0x17FB JUMP JUMPDEST SWAP1 POP DUP1 PUSH1 0x2 ADD PUSH0 DUP5 DUP2 MSTORE PUSH1 0x20 ADD SWAP1 DUP2 MSTORE PUSH1 0x20 ADD PUSH0 KECCAK256 PUSH0 SWAP1 SLOAD SWAP1 PUSH2 0x100 EXP SWAP1 DIV PUSH20 0xFFFFFFFFFFFFFFFFFFFFFFFFFFFFFFFFFFFFFFFF AND SWAP2 POP POP SWAP2 SWAP1 POP JUMP JUMPDEST PUSH0 PUSH2 0x2441 PUSH2 0x17FB JUMP JUMPDEST SWAP1 POP DUP2 DUP1 PUSH2 0x247B JUMPI POP PUSH0 PUSH20 0xFFFFFFFFFFFFFFFFFFFFFFFFFFFFFFFFFFFFFFFF AND DUP4 PUSH20 0xFFFFFFFFFFFFFFFFFFFFFFFFFFFFFFFFFFFFFFFF AND EQ ISZERO JUMPDEST ISZERO PUSH2 0x25AD JUMPI PUSH0 PUSH2 0x248A DUP6 PUSH2 0x1822 JUMP JUMPDEST SWAP1 POP PUSH0 PUSH20 0xFFFFFFFFFFFFFFFFFFFFFFFFFFFFFFFFFFFFFFFF AND DUP5 PUSH20 0xFFFFFFFFFFFFFFFFFFFFFFFFFFFFFFFFFFFFFFFF AND EQ ISZERO DUP1 ISZERO PUSH2 0x24F4 JUMPI POP DUP4 PUSH20 0xFFFFFFFFFFFFFFFFFFFFFFFFFFFFFFFFFFFFFFFF AND DUP2 PUSH20 0xFFFFFFFFFFFFFFFFFFFFFFFFFFFFFFFFFFFFFFFF AND EQ ISZERO JUMPDEST DUP1 ISZERO PUSH2 0x2507 JUMPI POP PUSH2 0x2505 DUP2 DUP6 PUSH2 0x1533 JUMP JUMPDEST ISZERO JUMPDEST ISZERO PUSH2 0x2549 JUMPI DUP4 PUSH1 0x40 MLOAD PUSH32 0xA9FBF51F00000000000000000000000000000000000000000000000000000000 DUP2 MSTORE PUSH1 0x4 ADD PUSH2 0x2540 SWAP2 SWAP1 PUSH2 0x3759 JUMP JUMPDEST PUSH1 0x40 MLOAD DUP1 SWAP2 SUB SWAP1 REVERT JUMPDEST DUP3 ISZERO PUSH2 0x25AB JUMPI DUP5 DUP7 PUSH20 0xFFFFFFFFFFFFFFFFFFFFFFFFFFFFFFFFFFFFFFFF AND DUP3 PUSH20 0xFFFFFFFFFFFFFFFFFFFFFFFFFFFFFFFFFFFFFFFF AND PUSH32 0x8C5BE1E5EBEC7D5BD14F71427D1E84F3DD0314C0F7B2291E5B200AC8C7C3B925 PUSH1 0x40 MLOAD PUSH1 0x40 MLOAD DUP1 SWAP2 SUB SWAP1 LOG4 JUMPDEST POP JUMPDEST DUP5 DUP2 PUSH1 0x4 ADD PUSH0 DUP7 DUP2 MSTORE PUSH1 0x20 ADD SWAP1 DUP2 MSTORE PUSH1 0x20 ADD PUSH0 KECCAK256 PUSH0 PUSH2 0x100 EXP DUP2 SLOAD DUP2 PUSH20 0xFFFFFFFFFFFFFFFFFFFFFFFFFFFFFFFFFFFFFFFF MUL NOT AND SWAP1 DUP4 PUSH20 0xFFFFFFFFFFFFFFFFFFFFFFFFFFFFFFFFFFFFFFFF AND MUL OR SWAP1 SSTORE POP POP POP POP POP POP JUMP JUMPDEST PUSH2 0x261E DUP3 DUP3 PUSH1 0x40 MLOAD DUP1 PUSH1 0x20 ADD PUSH1 0x40 MSTORE DUP1 PUSH0 DUP2 MSTORE POP PUSH2 0x2A6E JUMP JUMPDEST POP POP JUMP JUMPDEST PUSH0 PUSH2 0x262B PUSH2 0x2744 JUMP JUMPDEST PUSH2 0x2636 DUP5 DUP5 DUP5 PUSH2 0x2A91 JUMP JUMPDEST SWAP1 POP SWAP4 SWAP3 POP POP POP JUMP JUMPDEST PUSH2 0x2647 PUSH2 0xF9D JUMP JUMPDEST PUSH2 0x267D JUMPI PUSH1 0x40 MLOAD PUSH32 0x8DFC202B00000000000000000000000000000000000000000000000000000000 DUP2 MSTORE PUSH1 0x4 ADD PUSH1 0x40 MLOAD DUP1 SWAP2 SUB SWAP1 REVERT JUMPDEST JUMP JUMPDEST PUSH0 PUSH2 0x26AB PUSH32 0x360894A13BA1A3210667C828492DB98DCA3E2076CC3735A920A3CA505D382BBC PUSH0 SHL PUSH2 0x2BAB JUMP JUMPDEST PUSH0 ADD PUSH0 SWAP1 SLOAD SWAP1 PUSH2 0x100 EXP SWAP1 DIV PUSH20 0xFFFFFFFFFFFFFFFFFFFFFFFFFFFFFFFFFFFFFFFF AND SWAP1 POP SWAP1 JUMP JUMPDEST PUSH2 0x26DB DUP3 PUSH2 0x2BB4 JUMP JUMPDEST DUP2 PUSH20 0xFFFFFFFFFFFFFFFFFFFFFFFFFFFFFFFFFFFFFFFF AND PUSH32 0xBC7CD75A20EE27FD9ADEBAB32041F755214DBC6BFFA90CC0225B39DA2E5C2D3B PUSH1 0x40 MLOAD PUSH1 0x40 MLOAD DUP1 SWAP2 SUB SWAP1 LOG2 PUSH0 DUP2 MLOAD GT ISZERO PUSH2 0x2737 JUMPI PUSH2 0x2731 DUP3 DUP3 PUSH2 0x2C7D JUMP JUMPDEST POP PUSH2 0x2740 JUMP JUMPDEST PUSH2 0x273F PUSH2 0x2CFD JUMP JUMPDEST JUMPDEST POP POP JUMP JUMPDEST PUSH2 0x274C PUSH2 0xF9D JUMP JUMPDEST ISZERO PUSH2 0x2783 JUMPI PUSH1 0x40 MLOAD PUSH32 0xD93C066500000000000000000000000000000000000000000000000000000000 DUP2 MSTORE PUSH1 0x4 ADD PUSH1 0x40 MLOAD DUP1 SWAP2 SUB SWAP1 REVERT JUMPDEST JUMP JUMPDEST PUSH2 0x278D PUSH2 0x2D39 JUMP JUMPDEST PUSH2 0x27C3 JUMPI PUSH1 0x40 MLOAD PUSH32 0xD7E6BCF800000000000000000000000000000000000000000000000000000000 DUP2 MSTORE PUSH1 0x4 ADD PUSH1 0x40 MLOAD DUP1 SWAP2 SUB SWAP1 REVERT JUMPDEST JUMP JUMPDEST PUSH2 0x27CD PUSH2 0x2785 JUMP JUMPDEST PUSH0 PUSH2 0x27D6 PUSH2 0x17FB JUMP JUMPDEST SWAP1 POP DUP3 DUP2 PUSH0 ADD SWAP1 DUP2 PUSH2 0x27E8 SWAP2 SWAP1 PUSH2 0x4457 JUMP JUMPDEST POP DUP2 DUP2 PUSH1 0x1 ADD SWAP1 DUP2 PUSH2 0x27FA SWAP2 SWAP1 PUSH2 0x4457 JUMP JUMPDEST POP POP POP POP JUMP JUMPDEST PUSH2 0x2808 PUSH2 0x2785 JUMP JUMPDEST PUSH0 PUSH2 0x2811 PUSH2 0x1CF4 JUMP JUMPDEST SWAP1 POP PUSH0 DUP2 PUSH0 ADD PUSH0 PUSH2 0x100 EXP DUP2 SLOAD DUP2 PUSH1 0xFF MUL NOT AND SWAP1 DUP4 ISZERO ISZERO MUL OR SWAP1 SSTORE POP POP JUMP JUMPDEST PUSH2 0x2838 PUSH2 0x2785 JUMP JUMPDEST PUSH0 PUSH20 0xFFFFFFFFFFFFFFFFFFFFFFFFFFFFFFFFFFFFFFFF AND DUP2 PUSH20 0xFFFFFFFFFFFFFFFFFFFFFFFFFFFFFFFFFFFFFFFF AND SUB PUSH2 0x28A8 JUMPI PUSH0 PUSH1 0x40 MLOAD PUSH32 0x1E4FBDF700000000000000000000000000000000000000000000000000000000 DUP2 MSTORE PUSH1 0x4 ADD PUSH2 0x289F SWAP2 SWAP1 PUSH2 0x3759 JUMP JUMPDEST PUSH1 0x40 MLOAD DUP1 SWAP2 SUB SWAP1 REVERT JUMPDEST PUSH2 0x28B1 DUP2 PUSH2 0x1D1B JUMP JUMPDEST POP JUMP JUMPDEST PUSH0 PUSH0 PUSH0 SWAP1 POP PUSH27 0x184F03E93FF9F4DAA797ED6E38ED64BF6A1F010000000000000000 DUP4 LT PUSH2 0x2910 JUMPI PUSH27 0x184F03E93FF9F4DAA797ED6E38ED64BF6A1F010000000000000000 DUP4 DUP2 PUSH2 0x2906 JUMPI PUSH2 0x2905 PUSH2 0x4293 JUMP JUMPDEST JUMPDEST DIV SWAP3 POP PUSH1 0x40 DUP2 ADD SWAP1 POP JUMPDEST PUSH14 0x4EE2D6D415B85ACEF8100000000 DUP4 LT PUSH2 0x294D JUMPI PUSH14 0x4EE2D6D415B85ACEF8100000000 DUP4 DUP2 PUSH2 0x2943 JUMPI PUSH2 0x2942 PUSH2 0x4293 JUMP JUMPDEST JUMPDEST DIV SWAP3 POP PUSH1 0x20 DUP2 ADD SWAP1 POP JUMPDEST PUSH7 0x2386F26FC10000 DUP4 LT PUSH2 0x297C JUMPI PUSH7 0x2386F26FC10000 DUP4 DUP2 PUSH2 0x2972 JUMPI PUSH2 0x2971 PUSH2 0x4293 JUMP JUMPDEST JUMPDEST DIV SWAP3 POP PUSH1 0x10 DUP2 ADD SWAP1 POP JUMPDEST PUSH4 0x5F5E100 DUP4 LT PUSH2 0x29A5 JUMPI PUSH4 0x5F5E100 DUP4 DUP2 PUSH2 0x299B JUMPI PUSH2 0x299A PUSH2 0x4293 JUMP JUMPDEST JUMPDEST DIV SWAP3 POP PUSH1 0x8 DUP2 ADD SWAP1 POP JUMPDEST PUSH2 0x2710 DUP4 LT PUSH2 0x29CA JUMPI PUSH2 0x2710 DUP4 DUP2 PUSH2 0x29C0 JUMPI PUSH2 0x29BF PUSH2 0x4293 JUMP JUMPDEST JUMPDEST DIV SWAP3 POP PUSH1 0x4 DUP2 ADD SWAP1 POP JUMPDEST PUSH1 0x64 DUP4 LT PUSH2 0x29ED JUMPI PUSH1 0x64 DUP4 DUP2 PUSH2 0x29E3 JUMPI PUSH2 0x29E2 PUSH2 0x4293 JUMP JUMPDEST JUMPDEST DIV SWAP3 POP PUSH1 0x2 DUP2 ADD SWAP1 POP JUMPDEST PUSH1 0xA DUP4 LT PUSH2 0x29FC JUMPI PUSH1 0x1 DUP2 ADD SWAP1 POP JUMPDEST DUP1 SWAP2 POP POP SWAP2 SWAP1 POP JUMP JUMPDEST PUSH0 PUSH32 0x1FFC9A700000000000000000000000000000000000000000000000000000000 PUSH28 0xFFFFFFFFFFFFFFFFFFFFFFFFFFFFFFFFFFFFFFFFFFFFFFFFFFFFFFFF NOT AND DUP3 PUSH28 0xFFFFFFFFFFFFFFFFFFFFFFFFFFFFFFFFFFFFFFFFFFFFFFFFFFFFFFFF NOT AND EQ SWAP1 POP SWAP2 SWAP1 POP JUMP JUMPDEST PUSH2 0x2A78 DUP4 DUP4 PUSH2 0x2D57 JUMP JUMPDEST PUSH2 0x2A8C PUSH2 0x2A83 PUSH2 0x18EF JUMP JUMPDEST PUSH0 DUP6 DUP6 DUP6 PUSH2 0x1FF9 JUMP JUMPDEST POP POP POP JUMP JUMPDEST PUSH0 PUSH0 PUSH2 0x2A9E DUP6 DUP6 DUP6 PUSH2 0x2E4A JUMP JUMPDEST SWAP1 POP PUSH0 PUSH20 0xFFFFFFFFFFFFFFFFFFFFFFFFFFFFFFFFFFFFFFFF AND DUP2 PUSH20 0xFFFFFFFFFFFFFFFFFFFFFFFFFFFFFFFFFFFFFFFF AND SUB PUSH2 0x2AE1 JUMPI PUSH2 0x2ADC DUP5 PUSH2 0x3067 JUMP JUMPDEST PUSH2 0x2B20 JUMP JUMPDEST DUP5 PUSH20 0xFFFFFFFFFFFFFFFFFFFFFFFFFFFFFFFFFFFFFFFF AND DUP2 PUSH20 0xFFFFFFFFFFFFFFFFFFFFFFFFFFFFFFFFFFFFFFFF AND EQ PUSH2 0x2B1F JUMPI PUSH2 0x2B1E DUP2 DUP6 PUSH2 0x30BD JUMP JUMPDEST JUMPDEST JUMPDEST PUSH0 PUSH20 0xFFFFFFFFFFFFFFFFFFFFFFFFFFFFFFFFFFFFFFFF AND DUP6 PUSH20 0xFFFFFFFFFFFFFFFFFFFFFFFFFFFFFFFFFFFFFFFF AND SUB PUSH2 0x2B61 JUMPI PUSH2 0x2B5C DUP5 PUSH2 0x31A7 JUMP JUMPDEST PUSH2 0x2BA0 JUMP JUMPDEST DUP5 PUSH20 0xFFFFFFFFFFFFFFFFFFFFFFFFFFFFFFFFFFFFFFFF AND DUP2 PUSH20 0xFFFFFFFFFFFFFFFFFFFFFFFFFFFFFFFFFFFFFFFF AND EQ PUSH2 0x2B9F JUMPI PUSH2 0x2B9E DUP6 DUP6 PUSH2 0x3281 JUMP JUMPDEST JUMPDEST JUMPDEST DUP1 SWAP2 POP POP SWAP4 SWAP3 POP POP POP JUMP JUMPDEST PUSH0 DUP2 SWAP1 POP SWAP2 SWAP1 POP JUMP JUMPDEST PUSH0 DUP2 PUSH20 0xFFFFFFFFFFFFFFFFFFFFFFFFFFFFFFFFFFFFFFFF AND EXTCODESIZE SUB PUSH2 0x2C0F JUMPI DUP1 PUSH1 0x40 MLOAD PUSH32 0x4C9C8CE300000000000000000000000000000000000000000000000000000000 DUP2 MSTORE PUSH1 0x4 ADD PUSH2 0x2C06 SWAP2 SWAP1 PUSH2 0x3759 JUMP JUMPDEST PUSH1 0x40 MLOAD DUP1 SWAP2 SUB SWAP1 REVERT JUMPDEST DUP1 PUSH2 0x2C3B PUSH32 0x360894A13BA1A3210667C828492DB98DCA3E2076CC3735A920A3CA505D382BBC PUSH0 SHL PUSH2 0x2BAB JUMP JUMPDEST PUSH0 ADD PUSH0 PUSH2 0x100 EXP DUP2 SLOAD DUP2 PUSH20 0xFFFFFFFFFFFFFFFFFFFFFFFFFFFFFFFFFFFFFFFF MUL NOT AND SWAP1 DUP4 PUSH20 0xFFFFFFFFFFFFFFFFFFFFFFFFFFFFFFFFFFFFFFFF AND MUL OR SWAP1 SSTORE POP POP JUMP JUMPDEST PUSH1 0x60 PUSH0 PUSH0 DUP5 PUSH20 0xFFFFFFFFFFFFFFFFFFFFFFFFFFFFFFFFFFFFFFFF AND DUP5 PUSH1 0x40 MLOAD PUSH2 0x2CA6 SWAP2 SWAP1 PUSH2 0x4560 JUMP JUMPDEST PUSH0 PUSH1 0x40 MLOAD DUP1 DUP4 SUB DUP2 DUP6 GAS DELEGATECALL SWAP2 POP POP RETURNDATASIZE DUP1 PUSH0 DUP2 EQ PUSH2 0x2CDE JUMPI PUSH1 0x40 MLOAD SWAP2 POP PUSH1 0x1F NOT PUSH1 0x3F RETURNDATASIZE ADD AND DUP3 ADD PUSH1 0x40 MSTORE RETURNDATASIZE DUP3 MSTORE RETURNDATASIZE PUSH0 PUSH1 0x20 DUP5 ADD RETURNDATACOPY PUSH2 0x2CE3 JUMP JUMPDEST PUSH1 0x60 SWAP2 POP JUMPDEST POP SWAP2 POP SWAP2 POP PUSH2 0x2CF3 DUP6 DUP4 DUP4 PUSH2 0x3314 JUMP JUMPDEST SWAP3 POP POP POP SWAP3 SWAP2 POP POP JUMP JUMPDEST PUSH0 CALLVALUE GT ISZERO PUSH2 0x2D37 JUMPI PUSH1 0x40 MLOAD PUSH32 0xB398979F00000000000000000000000000000000000000000000000000000000 DUP2 MSTORE PUSH1 0x4 ADD PUSH1 0x40 MLOAD DUP1 SWAP2 SUB SWAP1 REVERT JUMPDEST JUMP JUMPDEST PUSH0 PUSH2 0x2D42 PUSH2 0x21A5 JUMP JUMPDEST PUSH0 ADD PUSH1 0x8 SWAP1 SLOAD SWAP1 PUSH2 0x100 EXP SWAP1 DIV PUSH1 0xFF AND SWAP1 POP SWAP1 JUMP JUMPDEST PUSH0 PUSH20 0xFFFFFFFFFFFFFFFFFFFFFFFFFFFFFFFFFFFFFFFF AND DUP3 PUSH20 0xFFFFFFFFFFFFFFFFFFFFFFFFFFFFFFFFFFFFFFFF AND SUB PUSH2 0x2DC7 JUMPI PUSH0 PUSH1 0x40 MLOAD PUSH32 0x64A0AE9200000000000000000000000000000000000000000000000000000000 DUP2 MSTORE PUSH1 0x4 ADD PUSH2 0x2DBE SWAP2 SWAP1 PUSH2 0x3759 JUMP JUMPDEST PUSH1 0x40 MLOAD DUP1 SWAP2 SUB SWAP1 REVERT JUMPDEST PUSH0 PUSH2 0x2DD3 DUP4 DUP4 PUSH0 PUSH2 0x1954 JUMP JUMPDEST SWAP1 POP PUSH0 PUSH20 0xFFFFFFFFFFFFFFFFFFFFFFFFFFFFFFFFFFFFFFFF AND DUP2 PUSH20 0xFFFFFFFFFFFFFFFFFFFFFFFFFFFFFFFFFFFFFFFF AND EQ PUSH2 0x2E45 JUMPI PUSH0 PUSH1 0x40 MLOAD PUSH32 0x73C6AC6E00000000000000000000000000000000000000000000000000000000 DUP2 MSTORE PUSH1 0x4 ADD PUSH2 0x2E3C SWAP2 SWAP1 PUSH2 0x3759 JUMP JUMPDEST PUSH1 0x40 MLOAD DUP1 SWAP2 SUB SWAP1 REVERT JUMPDEST POP POP POP JUMP JUMPDEST PUSH0 PUSH0 PUSH2 0x2E54 PUSH2 0x17FB JUMP JUMPDEST SWAP1 POP PUSH0 PUSH2 0x2E60 DUP6 PUSH2 0x23F1 JUMP JUMPDEST SWAP1 POP PUSH0 PUSH20 0xFFFFFFFFFFFFFFFFFFFFFFFFFFFFFFFFFFFFFFFF AND DUP5 PUSH20 0xFFFFFFFFFFFFFFFFFFFFFFFFFFFFFFFFFFFFFFFF AND EQ PUSH2 0x2EA1 JUMPI PUSH2 0x2EA0 DUP2 DUP6 DUP8 PUSH2 0x33A1 JUMP JUMPDEST JUMPDEST PUSH0 PUSH20 0xFFFFFFFFFFFFFFFFFFFFFFFFFFFFFFFFFFFFFFFF AND DUP2 PUSH20 0xFFFFFFFFFFFFFFFFFFFFFFFFFFFFFFFFFFFFFFFF AND EQ PUSH2 0x2F2E JUMPI PUSH2 0x2EE0 PUSH0 DUP7 PUSH0 PUSH0 PUSH2 0x2438 JUMP JUMPDEST PUSH1 0x1 DUP3 PUSH1 0x3 ADD PUSH0 DUP4 PUSH20 0xFFFFFFFFFFFFFFFFFFFFFFFFFFFFFFFFFFFFFFFF AND PUSH20 0xFFFFFFFFFFFFFFFFFFFFFFFFFFFFFFFFFFFFFFFF AND DUP2 MSTORE PUSH1 0x20 ADD SWAP1 DUP2 MSTORE PUSH1 0x20 ADD PUSH0 KECCAK256 PUSH0 DUP3 DUP3 SLOAD SUB SWAP3 POP POP DUP2 SWAP1 SSTORE POP JUMPDEST PUSH0 PUSH20 0xFFFFFFFFFFFFFFFFFFFFFFFFFFFFFFFFFFFFFFFF AND DUP7 PUSH20 0xFFFFFFFFFFFFFFFFFFFFFFFFFFFFFFFFFFFFFFFF AND EQ PUSH2 0x2FAF JUMPI PUSH1 0x1 DUP3 PUSH1 0x3 ADD PUSH0 DUP9 PUSH20 0xFFFFFFFFFFFFFFFFFFFFFFFFFFFFFFFFFFFFFFFF AND PUSH20 0xFFFFFFFFFFFFFFFFFFFFFFFFFFFFFFFFFFFFFFFF AND DUP2 MSTORE PUSH1 0x20 ADD SWAP1 DUP2 MSTORE PUSH1 0x20 ADD PUSH0 KECCAK256 PUSH0 DUP3 DUP3 SLOAD ADD SWAP3 POP POP DUP2 SWAP1 SSTORE POP JUMPDEST DUP6 DUP3 PUSH1 0x2 ADD PUSH0 DUP8 DUP2 MSTORE PUSH1 0x20 ADD SWAP1 DUP2 MSTORE PUSH1 0x20 ADD PUSH0 KECCAK256 PUSH0 PUSH2 0x100 EXP DUP2 SLOAD DUP2 PUSH20 0xFFFFFFFFFFFFFFFFFFFFFFFFFFFFFFFFFFFFFFFF MUL NOT AND SWAP1 DUP4 PUSH20 0xFFFFFFFFFFFFFFFFFFFFFFFFFFFFFFFFFFFFFFFF AND MUL OR SWAP1 SSTORE POP DUP5 DUP7 PUSH20 0xFFFFFFFFFFFFFFFFFFFFFFFFFFFFFFFFFFFFFFFF AND DUP3 PUSH20 0xFFFFFFFFFFFFFFFFFFFFFFFFFFFFFFFFFFFFFFFF AND PUSH32 0xDDF252AD1BE2C89B69C2B068FC378DAA952BA7F163C4A11628F55A4DF523B3EF PUSH1 0x40 MLOAD PUSH1 0x40 MLOAD DUP1 SWAP2 SUB SWAP1 LOG4 DUP1 SWAP3 POP POP POP SWAP4 SWAP3 POP POP POP JUMP JUMPDEST PUSH0 PUSH2 0x3070 PUSH2 0x192D JUMP JUMPDEST SWAP1 POP DUP1 PUSH1 0x2 ADD DUP1 SLOAD SWAP1 POP DUP2 PUSH1 0x3 ADD PUSH0 DUP5 DUP2 MSTORE PUSH1 0x20 ADD SWAP1 DUP2 MSTORE PUSH1 0x20 ADD PUSH0 KECCAK256 DUP2 SWAP1 SSTORE POP DUP1 PUSH1 0x2 ADD DUP3 SWAP1 DUP1 PUSH1 0x1 DUP2 SLOAD ADD DUP1 DUP3 SSTORE DUP1 SWAP2 POP POP PUSH1 0x1 SWAP1 SUB SWAP1 PUSH0 MSTORE PUSH1 0x20 PUSH0 KECCAK256 ADD PUSH0 SWAP1 SWAP2 SWAP1 SWAP2 SWAP1 SWAP2 POP SSTORE POP POP JUMP JUMPDEST PUSH0 PUSH2 0x30C6 PUSH2 0x192D JUMP JUMPDEST SWAP1 POP PUSH0 PUSH2 0x30D2 DUP5 PUSH2 0x1076 JUMP JUMPDEST SWAP1 POP PUSH0 DUP3 PUSH1 0x1 ADD PUSH0 DUP6 DUP2 MSTORE PUSH1 0x20 ADD SWAP1 DUP2 MSTORE PUSH1 0x20 ADD PUSH0 KECCAK256 SLOAD SWAP1 POP PUSH0 DUP4 PUSH0 ADD PUSH0 DUP8 PUSH20 0xFFFFFFFFFFFFFFFFFFFFFFFFFFFFFFFFFFFFFFFF AND PUSH20 0xFFFFFFFFFFFFFFFFFFFFFFFFFFFFFFFFFFFFFFFF AND DUP2 MSTORE PUSH1 0x20 ADD SWAP1 DUP2 MSTORE PUSH1 0x20 ADD PUSH0 KECCAK256 SWAP1 POP DUP3 DUP3 EQ PUSH2 0x3176 JUMPI PUSH0 DUP2 PUSH0 DUP6 DUP2 MSTORE PUSH1 0x20 ADD SWAP1 DUP2 MSTORE PUSH1 0x20 ADD PUSH0 KECCAK256 SLOAD SWAP1 POP DUP1 DUP3 PUSH0 DUP6 DUP2 MSTORE PUSH1 0x20 ADD SWAP1 DUP2 MSTORE PUSH1 0x20 ADD PUSH0 KECCAK256 DUP2 SWAP1 SSTORE POP DUP3 DUP6 PUSH1 0x1 ADD PUSH0 DUP4 DUP2 MSTORE PUSH1 0x20 ADD SWAP1 DUP2 MSTORE PUSH1 0x20 ADD PUSH0 KECCAK256 DUP2 SWAP1 SSTORE POP POP JUMPDEST DUP4 PUSH1 0x1 ADD PUSH0 DUP7 DUP2 MSTORE PUSH1 0x20 ADD SWAP1 DUP2 MSTORE PUSH1 0x20 ADD PUSH0 KECCAK256 PUSH0 SWAP1 SSTORE DUP1 PUSH0 DUP5 DUP2 MSTORE PUSH1 0x20 ADD SWAP1 DUP2 MSTORE PUSH1 0x20 ADD PUSH0 KECCAK256 PUSH0 SWAP1 SSTORE POP POP POP POP POP POP JUMP JUMPDEST PUSH0 PUSH2 0x31B0 PUSH2 0x192D JUMP JUMPDEST SWAP1 POP PUSH0 PUSH1 0x1 DUP3 PUSH1 0x2 ADD DUP1 SLOAD SWAP1 POP PUSH2 0x31C7 SWAP2 SWAP1 PUSH2 0x4576 JUMP JUMPDEST SWAP1 POP PUSH0 DUP3 PUSH1 0x3 ADD PUSH0 DUP6 DUP2 MSTORE PUSH1 0x20 ADD SWAP1 DUP2 MSTORE PUSH1 0x20 ADD PUSH0 KECCAK256 SLOAD SWAP1 POP PUSH0 DUP4 PUSH1 0x2 ADD DUP4 DUP2 SLOAD DUP2 LT PUSH2 0x31F7 JUMPI PUSH2 0x31F6 PUSH2 0x3F69 JUMP JUMPDEST JUMPDEST SWAP1 PUSH0 MSTORE PUSH1 0x20 PUSH0 KECCAK256 ADD SLOAD SWAP1 POP DUP1 DUP5 PUSH1 0x2 ADD DUP4 DUP2 SLOAD DUP2 LT PUSH2 0x3219 JUMPI PUSH2 0x3218 PUSH2 0x3F69 JUMP JUMPDEST JUMPDEST SWAP1 PUSH0 MSTORE PUSH1 0x20 PUSH0 KECCAK256 ADD DUP2 SWAP1 SSTORE POP DUP2 DUP5 PUSH1 0x3 ADD PUSH0 DUP4 DUP2 MSTORE PUSH1 0x20 ADD SWAP1 DUP2 MSTORE PUSH1 0x20 ADD PUSH0 KECCAK256 DUP2 SWAP1 SSTORE POP DUP4 PUSH1 0x3 ADD PUSH0 DUP7 DUP2 MSTORE PUSH1 0x20 ADD SWAP1 DUP2 MSTORE PUSH1 0x20 ADD PUSH0 KECCAK256 PUSH0 SWAP1 SSTORE DUP4 PUSH1 0x2 ADD DUP1 SLOAD DUP1 PUSH2 0x3267 JUMPI PUSH2 0x3266 PUSH2 0x45A9 JUMP JUMPDEST JUMPDEST PUSH1 0x1 SWAP1 SUB DUP2 DUP2 SWAP1 PUSH0 MSTORE PUSH1 0x20 PUSH0 KECCAK256 ADD PUSH0 SWAP1 SSTORE SWAP1 SSTORE POP POP POP POP POP JUMP JUMPDEST PUSH0 PUSH2 0x328A PUSH2 0x192D JUMP JUMPDEST SWAP1 POP PUSH0 PUSH1 0x1 PUSH2 0x3298 DUP6 PUSH2 0x1076 JUMP JUMPDEST PUSH2 0x32A2 SWAP2 SWAP1 PUSH2 0x4576 JUMP JUMPDEST SWAP1 POP DUP3 DUP3 PUSH0 ADD PUSH0 DUP7 PUSH20 0xFFFFFFFFFFFFFFFFFFFFFFFFFFFFFFFFFFFFFFFF AND PUSH20 0xFFFFFFFFFFFFFFFFFFFFFFFFFFFFFFFFFFFFFFFF AND DUP2 MSTORE PUSH1 0x20 ADD SWAP1 DUP2 MSTORE PUSH1 0x20 ADD PUSH0 KECCAK256 PUSH0 DUP4 DUP2 MSTORE PUSH1 0x20 ADD SWAP1 DUP2 MSTORE PUSH1 0x20 ADD PUSH0 KECCAK256 DUP2 SWAP1 SSTORE POP DUP1 DUP3 PUSH1 0x1 ADD PUSH0 DUP6 DUP2 MSTORE PUSH1 0x20 ADD SWAP1 DUP2 MSTORE PUSH1 0x20 ADD PUSH0 KECCAK256 DUP2 SWAP1 SSTORE POP POP POP POP POP JUMP JUMPDEST PUSH1 0x60 DUP3 PUSH2 0x3329 JUMPI PUSH2 0x3324 DUP3 PUSH2 0x3464 JUMP JUMPDEST PUSH2 0x3399 JUMP JUMPDEST PUSH0 DUP3 MLOAD EQ DUP1 ISZERO PUSH2 0x334F JUMPI POP PUSH0 DUP5 PUSH20 0xFFFFFFFFFFFFFFFFFFFFFFFFFFFFFFFFFFFFFFFF AND EXTCODESIZE EQ JUMPDEST ISZERO PUSH2 0x3391 JUMPI DUP4 PUSH1 0x40 MLOAD PUSH32 0x9996B31500000000000000000000000000000000000000000000000000000000 DUP2 MSTORE PUSH1 0x4 ADD PUSH2 0x3388 SWAP2 SWAP1 PUSH2 0x3759 JUMP JUMPDEST PUSH1 0x40 MLOAD DUP1 SWAP2 SUB SWAP1 REVERT JUMPDEST DUP2 SWAP1 POP PUSH2 0x339A JUMP JUMPDEST JUMPDEST SWAP4 SWAP3 POP POP POP JUMP JUMPDEST PUSH2 0x33AC DUP4 DUP4 DUP4 PUSH2 0x34A8 JUMP JUMPDEST PUSH2 0x345F JUMPI PUSH0 PUSH20 0xFFFFFFFFFFFFFFFFFFFFFFFFFFFFFFFFFFFFFFFF AND DUP4 PUSH20 0xFFFFFFFFFFFFFFFFFFFFFFFFFFFFFFFFFFFFFFFF AND SUB PUSH2 0x3420 JUMPI DUP1 PUSH1 0x40 MLOAD PUSH32 0x7E27328900000000000000000000000000000000000000000000000000000000 DUP2 MSTORE PUSH1 0x4 ADD PUSH2 0x3417 SWAP2 SWAP1 PUSH2 0x37E9 JUMP JUMPDEST PUSH1 0x40 MLOAD DUP1 SWAP2 SUB SWAP1 REVERT JUMPDEST DUP2 DUP2 PUSH1 0x40 MLOAD PUSH32 0x177E802F00000000000000000000000000000000000000000000000000000000 DUP2 MSTORE PUSH1 0x4 ADD PUSH2 0x3456 SWAP3 SWAP2 SWAP1 PUSH2 0x3EDA JUMP JUMPDEST PUSH1 0x40 MLOAD DUP1 SWAP2 SUB SWAP1 REVERT JUMPDEST POP POP POP JUMP JUMPDEST PUSH0 DUP2 MLOAD GT ISZERO PUSH2 0x3476 JUMPI DUP1 MLOAD DUP1 DUP3 PUSH1 0x20 ADD REVERT JUMPDEST PUSH1 0x40 MLOAD PUSH32 0xD6BDA27500000000000000000000000000000000000000000000000000000000 DUP2 MSTORE PUSH1 0x4 ADD PUSH1 0x40 MLOAD DUP1 SWAP2 SUB SWAP1 REVERT JUMPDEST PUSH0 PUSH0 PUSH20 0xFFFFFFFFFFFFFFFFFFFFFFFFFFFFFFFFFFFFFFFF AND DUP4 PUSH20 0xFFFFFFFFFFFFFFFFFFFFFFFFFFFFFFFFFFFFFFFF AND EQ ISZERO DUP1 ISZERO PUSH2 0x355F JUMPI POP DUP3 PUSH20 0xFFFFFFFFFFFFFFFFFFFFFFFFFFFFFFFFFFFFFFFF AND DUP5 PUSH20 0xFFFFFFFFFFFFFFFFFFFFFFFFFFFFFFFFFFFFFFFF AND EQ DUP1 PUSH2 0x3520 JUMPI POP PUSH2 0x351F DUP5 DUP5 PUSH2 0x1533 JUMP JUMPDEST JUMPDEST DUP1 PUSH2 0x355E JUMPI POP DUP3 PUSH20 0xFFFFFFFFFFFFFFFFFFFFFFFFFFFFFFFFFFFFFFFF AND PUSH2 0x3546 DUP4 PUSH2 0x18A8 JUMP JUMPDEST PUSH20 0xFFFFFFFFFFFFFFFFFFFFFFFFFFFFFFFFFFFFFFFF AND EQ JUMPDEST JUMPDEST SWAP1 POP SWAP4 SWAP3 POP POP POP JUMP JUMPDEST PUSH0 PUSH1 0x40 MLOAD SWAP1 POP SWAP1 JUMP JUMPDEST PUSH0 PUSH0 REVERT JUMPDEST PUSH0 PUSH0 REVERT JUMPDEST PUSH0 PUSH32 0xFFFFFFFF00000000000000000000000000000000000000000000000000000000 DUP3 AND SWAP1 POP SWAP2 SWAP1 POP JUMP JUMPDEST PUSH2 0x35AD DUP2 PUSH2 0x3579 JUMP JUMPDEST DUP2 EQ PUSH2 0x35B7 JUMPI PUSH0 PUSH0 REVERT JUMPDEST POP JUMP JUMPDEST PUSH0 DUP2 CALLDATALOAD SWAP1 POP PUSH2 0x35C8 DUP2 PUSH2 0x35A4 JUMP JUMPDEST SWAP3 SWAP2 POP POP JUMP JUMPDEST PUSH0 PUSH1 0x20 DUP3 DUP5 SUB SLT ISZERO PUSH2 0x35E3 JUMPI PUSH2 0x35E2 PUSH2 0x3571 JUMP JUMPDEST JUMPDEST PUSH0 PUSH2 0x35F0 DUP5 DUP3 DUP6 ADD PUSH2 0x35BA JUMP JUMPDEST SWAP2 POP POP SWAP3 SWAP2 POP POP JUMP JUMPDEST PUSH0 DUP2 ISZERO ISZERO SWAP1 POP SWAP2 SWAP1 POP JUMP JUMPDEST PUSH2 0x360D DUP2 PUSH2 0x35F9 JUMP JUMPDEST DUP3 MSTORE POP POP JUMP JUMPDEST PUSH0 PUSH1 0x20 DUP3 ADD SWAP1 POP PUSH2 0x3626 PUSH0 DUP4 ADD DUP5 PUSH2 0x3604 JUMP JUMPDEST SWAP3 SWAP2 POP POP JUMP JUMPDEST PUSH0 DUP2 MLOAD SWAP1 POP SWAP2 SWAP1 POP JUMP JUMPDEST PUSH0 DUP3 DUP3 MSTORE PUSH1 0x20 DUP3 ADD SWAP1 POP SWAP3 SWAP2 POP POP JUMP JUMPDEST DUP3 DUP2 DUP4 MCOPY PUSH0 DUP4 DUP4 ADD MSTORE POP POP POP JUMP JUMPDEST PUSH0 PUSH1 0x1F NOT PUSH1 0x1F DUP4 ADD AND SWAP1 POP SWAP2 SWAP1 POP JUMP JUMPDEST PUSH0 PUSH2 0x366E DUP3 PUSH2 0x362C JUMP JUMPDEST PUSH2 0x3678 DUP2 DUP6 PUSH2 0x3636 JUMP JUMPDEST SWAP4 POP PUSH2 0x3688 DUP2 DUP6 PUSH1 0x20 DUP7 ADD PUSH2 0x3646 JUMP JUMPDEST PUSH2 0x3691 DUP2 PUSH2 0x3654 JUMP JUMPDEST DUP5 ADD SWAP2 POP POP SWAP3 SWAP2 POP POP JUMP JUMPDEST PUSH0 PUSH1 0x20 DUP3 ADD SWAP1 POP DUP2 DUP2 SUB PUSH0 DUP4 ADD MSTORE PUSH2 0x36B4 DUP2 DUP5 PUSH2 0x3664 JUMP JUMPDEST SWAP1 POP SWAP3 SWAP2 POP POP JUMP JUMPDEST PUSH0 DUP2 SWAP1 POP SWAP2 SWAP1 POP JUMP JUMPDEST PUSH2 0x36CE DUP2 PUSH2 0x36BC JUMP JUMPDEST DUP2 EQ PUSH2 0x36D8 JUMPI PUSH0 PUSH0 REVERT JUMPDEST POP JUMP JUMPDEST PUSH0 DUP2 CALLDATALOAD SWAP1 POP PUSH2 0x36E9 DUP2 PUSH2 0x36C5 JUMP JUMPDEST SWAP3 SWAP2 POP POP JUMP JUMPDEST PUSH0 PUSH1 0x20 DUP3 DUP5 SUB SLT ISZERO PUSH2 0x3704 JUMPI PUSH2 0x3703 PUSH2 0x3571 JUMP JUMPDEST JUMPDEST PUSH0 PUSH2 0x3711 DUP5 DUP3 DUP6 ADD PUSH2 0x36DB JUMP JUMPDEST SWAP2 POP POP SWAP3 SWAP2 POP POP JUMP JUMPDEST PUSH0 PUSH20 0xFFFFFFFFFFFFFFFFFFFFFFFFFFFFFFFFFFFFFFFF DUP3 AND SWAP1 POP SWAP2 SWAP1 POP JUMP JUMPDEST PUSH0 PUSH2 0x3743 DUP3 PUSH2 0x371A JUMP JUMPDEST SWAP1 POP SWAP2 SWAP1 POP JUMP JUMPDEST PUSH2 0x3753 DUP2 PUSH2 0x3739 JUMP JUMPDEST DUP3 MSTORE POP POP JUMP JUMPDEST PUSH0 PUSH1 0x20 DUP3 ADD SWAP1 POP PUSH2 0x376C PUSH0 DUP4 ADD DUP5 PUSH2 0x374A JUMP JUMPDEST SWAP3 SWAP2 POP POP JUMP JUMPDEST PUSH2 0x377B DUP2 PUSH2 0x3739 JUMP JUMPDEST DUP2 EQ PUSH2 0x3785 JUMPI PUSH0 PUSH0 REVERT JUMPDEST POP JUMP JUMPDEST PUSH0 DUP2 CALLDATALOAD SWAP1 POP PUSH2 0x3796 DUP2 PUSH2 0x3772 JUMP JUMPDEST SWAP3 SWAP2 POP POP JUMP JUMPDEST PUSH0 PUSH0 PUSH1 0x40 DUP4 DUP6 SUB SLT ISZERO PUSH2 0x37B2 JUMPI PUSH2 0x37B1 PUSH2 0x3571 JUMP JUMPDEST JUMPDEST PUSH0 PUSH2 0x37BF DUP6 DUP3 DUP7 ADD PUSH2 0x3788 JUMP JUMPDEST SWAP3 POP POP PUSH1 0x20 PUSH2 0x37D0 DUP6 DUP3 DUP7 ADD PUSH2 0x36DB JUMP JUMPDEST SWAP2 POP POP SWAP3 POP SWAP3 SWAP1 POP JUMP JUMPDEST PUSH2 0x37E3 DUP2 PUSH2 0x36BC JUMP JUMPDEST DUP3 MSTORE POP POP JUMP JUMPDEST PUSH0 PUSH1 0x20 DUP3 ADD SWAP1 POP PUSH2 0x37FC PUSH0 DUP4 ADD DUP5 PUSH2 0x37DA JUMP JUMPDEST SWAP3 SWAP2 POP POP JUMP JUMPDEST PUSH0 PUSH0 PUSH0 PUSH1 0x60 DUP5 DUP7 SUB SLT ISZERO PUSH2 0x3819 JUMPI PUSH2 0x3818 PUSH2 0x3571 JUMP JUMPDEST JUMPDEST PUSH0 PUSH2 0x3826 DUP7 DUP3 DUP8 ADD PUSH2 0x3788 JUMP JUMPDEST SWAP4 POP POP PUSH1 0x20 PUSH2 0x3837 DUP7 DUP3 DUP8 ADD PUSH2 0x3788 JUMP JUMPDEST SWAP3 POP POP PUSH1 0x40 PUSH2 0x3848 DUP7 DUP3 DUP8 ADD PUSH2 0x36DB JUMP JUMPDEST SWAP2 POP POP SWAP3 POP SWAP3 POP SWAP3 JUMP JUMPDEST PUSH0 PUSH1 0x20 DUP3 DUP5 SUB SLT ISZERO PUSH2 0x3867 JUMPI PUSH2 0x3866 PUSH2 0x3571 JUMP JUMPDEST JUMPDEST PUSH0 PUSH2 0x3874 DUP5 DUP3 DUP6 ADD PUSH2 0x3788 JUMP JUMPDEST SWAP2 POP POP SWAP3 SWAP2 POP POP JUMP JUMPDEST PUSH2 0x3886 DUP2 PUSH2 0x35F9 JUMP JUMPDEST DUP2 EQ PUSH2 0x3890 JUMPI PUSH0 PUSH0 REVERT JUMPDEST POP JUMP JUMPDEST PUSH0 DUP2 CALLDATALOAD SWAP1 POP PUSH2 0x38A1 DUP2 PUSH2 0x387D JUMP JUMPDEST SWAP3 SWAP2 POP POP JUMP JUMPDEST PUSH0 PUSH0 PUSH1 0x40 DUP4 DUP6 SUB SLT ISZERO PUSH2 0x38BD JUMPI PUSH2 0x38BC PUSH2 0x3571 JUMP JUMPDEST JUMPDEST PUSH0 PUSH2 0x38CA DUP6 DUP3 DUP7 ADD PUSH2 0x3893 JUMP JUMPDEST SWAP3 POP POP PUSH1 0x20 PUSH2 0x38DB DUP6 DUP3 DUP7 ADD PUSH2 0x3893 JUMP JUMPDEST SWAP2 POP POP SWAP3 POP SWAP3 SWAP1 POP JUMP JUMPDEST PUSH0 PUSH0 REVERT JUMPDEST PUSH0 PUSH0 REVERT JUMPDEST PUSH32 0x4E487B7100000000000000000000000000000000000000000000000000000000 PUSH0 MSTORE PUSH1 0x41 PUSH1 0x4 MSTORE PUSH1 0x24 PUSH0 REVERT JUMPDEST PUSH2 0x3923 DUP3 PUSH2 0x3654 JUMP JUMPDEST DUP2 ADD DUP2 DUP2 LT PUSH8 0xFFFFFFFFFFFFFFFF DUP3 GT OR ISZERO PUSH2 0x3942 JUMPI PUSH2 0x3941 PUSH2 0x38ED JUMP JUMPDEST JUMPDEST DUP1 PUSH1 0x40 MSTORE POP POP POP JUMP JUMPDEST PUSH0 PUSH2 0x3954 PUSH2 0x3568 JUMP JUMPDEST SWAP1 POP PUSH2 0x3960 DUP3 DUP3 PUSH2 0x391A JUMP JUMPDEST SWAP2 SWAP1 POP JUMP JUMPDEST PUSH0 PUSH8 0xFFFFFFFFFFFFFFFF DUP3 GT ISZERO PUSH2 0x397F JUMPI PUSH2 0x397E PUSH2 0x38ED JUMP JUMPDEST JUMPDEST PUSH2 0x3988 DUP3 PUSH2 0x3654 JUMP JUMPDEST SWAP1 POP PUSH1 0x20 DUP2 ADD SWAP1 POP SWAP2 SWAP1 POP JUMP JUMPDEST DUP3 DUP2 DUP4 CALLDATACOPY PUSH0 DUP4 DUP4 ADD MSTORE POP POP POP JUMP JUMPDEST PUSH0 PUSH2 0x39B5 PUSH2 0x39B0 DUP5 PUSH2 0x3965 JUMP JUMPDEST PUSH2 0x394B JUMP JUMPDEST SWAP1 POP DUP3 DUP2 MSTORE PUSH1 0x20 DUP2 ADD DUP5 DUP5 DUP5 ADD GT ISZERO PUSH2 0x39D1 JUMPI PUSH2 0x39D0 PUSH2 0x38E9 JUMP JUMPDEST JUMPDEST PUSH2 0x39DC DUP5 DUP3 DUP6 PUSH2 0x3995 JUMP JUMPDEST POP SWAP4 SWAP3 POP POP POP JUMP JUMPDEST PUSH0 DUP3 PUSH1 0x1F DUP4 ADD SLT PUSH2 0x39F8 JUMPI PUSH2 0x39F7 PUSH2 0x38E5 JUMP JUMPDEST JUMPDEST DUP2 CALLDATALOAD PUSH2 0x3A08 DUP5 DUP3 PUSH1 0x20 DUP7 ADD PUSH2 0x39A3 JUMP JUMPDEST SWAP2 POP POP SWAP3 SWAP2 POP POP JUMP JUMPDEST PUSH0 PUSH0 PUSH1 0x40 DUP4 DUP6 SUB SLT ISZERO PUSH2 0x3A27 JUMPI PUSH2 0x3A26 PUSH2 0x3571 JUMP JUMPDEST JUMPDEST PUSH0 PUSH2 0x3A34 DUP6 DUP3 DUP7 ADD PUSH2 0x3788 JUMP JUMPDEST SWAP3 POP POP PUSH1 0x20 DUP4 ADD CALLDATALOAD PUSH8 0xFFFFFFFFFFFFFFFF DUP2 GT ISZERO PUSH2 0x3A55 JUMPI PUSH2 0x3A54 PUSH2 0x3575 JUMP JUMPDEST JUMPDEST PUSH2 0x3A61 DUP6 DUP3 DUP7 ADD PUSH2 0x39E4 JUMP JUMPDEST SWAP2 POP POP SWAP3 POP SWAP3 SWAP1 POP JUMP JUMPDEST PUSH0 DUP2 SWAP1 POP SWAP2 SWAP1 POP JUMP JUMPDEST PUSH2 0x3A7D DUP2 PUSH2 0x3A6B JUMP JUMPDEST DUP3 MSTORE POP POP JUMP JUMPDEST PUSH0 PUSH1 0x20 DUP3 ADD SWAP1 POP PUSH2 0x3A96 PUSH0 DUP4 ADD DUP5 PUSH2 0x3A74 JUMP JUMPDEST SWAP3 SWAP2 POP POP JUMP JUMPDEST PUSH0 PUSH0 REVERT JUMPDEST PUSH0 PUSH0 REVERT JUMPDEST PUSH0 PUSH0 DUP4 PUSH1 0x1F DUP5 ADD SLT PUSH2 0x3AB9 JUMPI PUSH2 0x3AB8 PUSH2 0x38E5 JUMP JUMPDEST JUMPDEST DUP3 CALLDATALOAD SWAP1 POP PUSH8 0xFFFFFFFFFFFFFFFF DUP2 GT ISZERO PUSH2 0x3AD6 JUMPI PUSH2 0x3AD5 PUSH2 0x3A9C JUMP JUMPDEST JUMPDEST PUSH1 0x20 DUP4 ADD SWAP2 POP DUP4 PUSH1 0x20 DUP3 MUL DUP4 ADD GT ISZERO PUSH2 0x3AF2 JUMPI PUSH2 0x3AF1 PUSH2 0x3AA0 JUMP JUMPDEST JUMPDEST SWAP3 POP SWAP3 SWAP1 POP JUMP JUMPDEST PUSH0 PUSH0 PUSH1 0x20 DUP4 DUP6 SUB SLT ISZERO PUSH2 0x3B0F JUMPI PUSH2 0x3B0E PUSH2 0x3571 JUMP JUMPDEST JUMPDEST PUSH0 DUP4 ADD CALLDATALOAD PUSH8 0xFFFFFFFFFFFFFFFF DUP2 GT ISZERO PUSH2 0x3B2C JUMPI PUSH2 0x3B2B PUSH2 0x3575 JUMP JUMPDEST JUMPDEST PUSH2 0x3B38 DUP6 DUP3 DUP7 ADD PUSH2 0x3AA4 JUMP JUMPDEST SWAP3 POP SWAP3 POP POP SWAP3 POP SWAP3 SWAP1 POP JUMP JUMPDEST PUSH0 PUSH0 PUSH1 0x40 DUP4 DUP6 SUB SLT ISZERO PUSH2 0x3B5A JUMPI PUSH2 0x3B59 PUSH2 0x3571 JUMP JUMPDEST JUMPDEST PUSH0 PUSH2 0x3B67 DUP6 DUP3 DUP7 ADD PUSH2 0x3788 JUMP JUMPDEST SWAP3 POP POP PUSH1 0x20 PUSH2 0x3B78 DUP6 DUP3 DUP7 ADD PUSH2 0x3893 JUMP JUMPDEST SWAP2 POP POP SWAP3 POP SWAP3 SWAP1 POP JUMP JUMPDEST PUSH0 PUSH0 PUSH0 PUSH0 PUSH1 0x80 DUP6 DUP8 SUB SLT ISZERO PUSH2 0x3B9A JUMPI PUSH2 0x3B99 PUSH2 0x3571 JUMP JUMPDEST JUMPDEST PUSH0 PUSH2 0x3BA7 DUP8 DUP3 DUP9 ADD PUSH2 0x3788 JUMP JUMPDEST SWAP5 POP POP PUSH1 0x20 PUSH2 0x3BB8 DUP8 DUP3 DUP9 ADD PUSH2 0x3788 JUMP JUMPDEST SWAP4 POP POP PUSH1 0x40 PUSH2 0x3BC9 DUP8 DUP3 DUP9 ADD PUSH2 0x36DB JUMP JUMPDEST SWAP3 POP POP PUSH1 0x60 DUP6 ADD CALLDATALOAD PUSH8 0xFFFFFFFFFFFFFFFF DUP2 GT ISZERO PUSH2 0x3BEA JUMPI PUSH2 0x3BE9 PUSH2 0x3575 JUMP JUMPDEST JUMPDEST PUSH2 0x3BF6 DUP8 DUP3 DUP9 ADD PUSH2 0x39E4 JUMP JUMPDEST SWAP2 POP POP SWAP3 SWAP6 SWAP2 SWAP5 POP SWAP3 POP JUMP JUMPDEST PUSH0 PUSH0 PUSH1 0x40 DUP4 DUP6 SUB SLT ISZERO PUSH2 0x3C18 JUMPI PUSH2 0x3C17 PUSH2 0x3571 JUMP JUMPDEST JUMPDEST PUSH0 PUSH2 0x3C25 DUP6 DUP3 DUP7 ADD PUSH2 0x3788 JUMP JUMPDEST SWAP3 POP POP PUSH1 0x20 PUSH2 0x3C36 DUP6 DUP3 DUP7 ADD PUSH2 0x3788 JUMP JUMPDEST SWAP2 POP POP SWAP3 POP SWAP3 SWAP1 POP JUMP JUMPDEST PUSH32 0x4E487B7100000000000000000000000000000000000000000000000000000000 PUSH0 MSTORE PUSH1 0x22 PUSH1 0x4 MSTORE PUSH1 0x24 PUSH0 REVERT JUMPDEST PUSH0 PUSH1 0x2 DUP3 DIV SWAP1 POP PUSH1 0x1 DUP3 AND DUP1 PUSH2 0x3C84 JUMPI PUSH1 0x7F DUP3 AND SWAP2 POP JUMPDEST PUSH1 0x20 DUP3 LT DUP2 SUB PUSH2 0x3C97 JUMPI PUSH2 0x3C96 PUSH2 0x3C40 JUMP JUMPDEST JUMPDEST POP SWAP2 SWAP1 POP JUMP JUMPDEST PUSH32 0x416C6C6F776C697374204D696E7420436C6F7365640000000000000000000000 PUSH0 DUP3 ADD MSTORE POP JUMP JUMPDEST PUSH0 PUSH2 0x3CD1 PUSH1 0x15 DUP4 PUSH2 0x3636 JUMP JUMPDEST SWAP2 POP PUSH2 0x3CDC DUP3 PUSH2 0x3C9D JUMP JUMPDEST PUSH1 0x20 DUP3 ADD SWAP1 POP SWAP2 SWAP1 POP JUMP JUMPDEST PUSH0 PUSH1 0x20 DUP3 ADD SWAP1 POP DUP2 DUP2 SUB PUSH0 DUP4 ADD MSTORE PUSH2 0x3CFE DUP2 PUSH2 0x3CC5 JUMP JUMPDEST SWAP1 POP SWAP2 SWAP1 POP JUMP JUMPDEST PUSH32 0x596F75206172656E6F7420616C6C6F77656420746F206D696E74000000000000 PUSH0 DUP3 ADD MSTORE POP JUMP JUMPDEST PUSH0 PUSH2 0x3D39 PUSH1 0x1A DUP4 PUSH2 0x3636 JUMP JUMPDEST SWAP2 POP PUSH2 0x3D44 DUP3 PUSH2 0x3D05 JUMP JUMPDEST PUSH1 0x20 DUP3 ADD SWAP1 POP SWAP2 SWAP1 POP JUMP JUMPDEST PUSH0 PUSH1 0x20 DUP3 ADD SWAP1 POP DUP2 DUP2 SUB PUSH0 DUP4 ADD MSTORE PUSH2 0x3D66 DUP2 PUSH2 0x3D2D JUMP JUMPDEST SWAP1 POP SWAP2 SWAP1 POP JUMP JUMPDEST PUSH32 0x4E6F7420456E6F7567682046756E647300000000000000000000000000000000 PUSH0 DUP3 ADD MSTORE POP JUMP JUMPDEST PUSH0 PUSH2 0x3DA1 PUSH1 0x10 DUP4 PUSH2 0x3636 JUMP JUMPDEST SWAP2 POP PUSH2 0x3DAC DUP3 PUSH2 0x3D6D JUMP JUMPDEST PUSH1 0x20 DUP3 ADD SWAP1 POP SWAP2 SWAP1 POP JUMP JUMPDEST PUSH0 PUSH1 0x20 DUP3 ADD SWAP1 POP DUP2 DUP2 SUB PUSH0 DUP4 ADD MSTORE PUSH2 0x3DCE DUP2 PUSH2 0x3D95 JUMP JUMPDEST SWAP1 POP SWAP2 SWAP1 POP JUMP JUMPDEST PUSH0 PUSH1 0x60 DUP3 ADD SWAP1 POP PUSH2 0x3DE8 PUSH0 DUP4 ADD DUP7 PUSH2 0x374A JUMP JUMPDEST PUSH2 0x3DF5 PUSH1 0x20 DUP4 ADD DUP6 PUSH2 0x37DA JUMP JUMPDEST PUSH2 0x3E02 PUSH1 0x40 DUP4 ADD DUP5 PUSH2 0x374A JUMP JUMPDEST SWAP5 SWAP4 POP POP POP POP JUMP JUMPDEST PUSH32 0x5075626C6963204D696E7420436C6F7365640000000000000000000000000000 PUSH0 DUP3 ADD MSTORE POP JUMP JUMPDEST PUSH0 PUSH2 0x3E3E PUSH1 0x12 DUP4 PUSH2 0x3636 JUMP JUMPDEST SWAP2 POP PUSH2 0x3E49 DUP3 PUSH2 0x3E0A JUMP JUMPDEST PUSH1 0x20 DUP3 ADD SWAP1 POP SWAP2 SWAP1 POP JUMP JUMPDEST PUSH0 PUSH1 0x20 DUP3 ADD SWAP1 POP DUP2 DUP2 SUB PUSH0 DUP4 ADD MSTORE PUSH2 0x3E6B DUP2 PUSH2 0x3E32 JUMP JUMPDEST SWAP1 POP SWAP2 SWAP1 POP JUMP JUMPDEST PUSH32 0x4E6F7420456E6F7567682066756E647300000000000000000000000000000000 PUSH0 DUP3 ADD MSTORE POP JUMP JUMPDEST PUSH0 PUSH2 0x3EA6 PUSH1 0x10 DUP4 PUSH2 0x3636 JUMP JUMPDEST SWAP2 POP PUSH2 0x3EB1 DUP3 PUSH2 0x3E72 JUMP JUMPDEST PUSH1 0x20 DUP3 ADD SWAP1 POP SWAP2 SWAP1 POP JUMP JUMPDEST PUSH0 PUSH1 0x20 DUP3 ADD SWAP1 POP DUP2 DUP2 SUB PUSH0 DUP4 ADD MSTORE PUSH2 0x3ED3 DUP2 PUSH2 0x3E9A JUMP JUMPDEST SWAP1 POP SWAP2 SWAP1 POP JUMP JUMPDEST PUSH0 PUSH1 0x40 DUP3 ADD SWAP1 POP PUSH2 0x3EED PUSH0 DUP4 ADD DUP6 PUSH2 0x374A JUMP JUMPDEST PUSH2 0x3EFA PUSH1 0x20 DUP4 ADD DUP5 PUSH2 0x37DA JUMP JUMPDEST SWAP4 SWAP3 POP POP POP JUMP JUMPDEST PUSH32 0x416C726561647920616464656420746F2074686520616C6C6F7765644C697374 PUSH0 DUP3 ADD MSTORE POP JUMP JUMPDEST PUSH0 PUSH2 0x3F35 PUSH1 0x20 DUP4 PUSH2 0x3636 JUMP JUMPDEST SWAP2 POP PUSH2 0x3F40 DUP3 PUSH2 0x3F01 JUMP JUMPDEST PUSH1 0x20 DUP3 ADD SWAP1 POP SWAP2 SWAP1 POP JUMP JUMPDEST PUSH0 PUSH1 0x20 DUP3 ADD SWAP1 POP DUP2 DUP2 SUB PUSH0 DUP4 ADD MSTORE PUSH2 0x3F62 DUP2 PUSH2 0x3F29 JUMP JUMPDEST SWAP1 POP SWAP2 SWAP1 POP JUMP JUMPDEST PUSH32 0x4E487B7100000000000000000000000000000000000000000000000000000000 PUSH0 MSTORE PUSH1 0x32 PUSH1 0x4 MSTORE PUSH1 0x24 PUSH0 REVERT JUMPDEST PUSH0 DUP2 SWAP1 POP SWAP2 SWAP1 POP JUMP JUMPDEST PUSH0 PUSH8 0xFFFFFFFFFFFFFFFF DUP3 AND SWAP1 POP SWAP2 SWAP1 POP JUMP JUMPDEST PUSH0 DUP2 SWAP1 POP SWAP2 SWAP1 POP JUMP JUMPDEST PUSH0 PUSH2 0x3FD5 PUSH2 0x3FD0 PUSH2 0x3FCB DUP5 PUSH2 0x3F96 JUMP JUMPDEST PUSH2 0x3FB2 JUMP JUMPDEST PUSH2 0x3F9F JUMP JUMPDEST SWAP1 POP SWAP2 SWAP1 POP JUMP JUMPDEST PUSH2 0x3FE5 DUP2 PUSH2 0x3FBB JUMP JUMPDEST DUP3 MSTORE POP POP JUMP JUMPDEST PUSH0 PUSH1 0x20 DUP3 ADD SWAP1 POP PUSH2 0x3FFE PUSH0 DUP4 ADD DUP5 PUSH2 0x3FDC JUMP JUMPDEST SWAP3 SWAP2 POP POP JUMP JUMPDEST PUSH0 DUP2 SWAP1 POP SWAP3 SWAP2 POP POP JUMP JUMPDEST PUSH0 PUSH2 0x4018 DUP3 PUSH2 0x362C JUMP JUMPDEST PUSH2 0x4022 DUP2 DUP6 PUSH2 0x4004 JUMP JUMPDEST SWAP4 POP PUSH2 0x4032 DUP2 DUP6 PUSH1 0x20 DUP7 ADD PUSH2 0x3646 JUMP JUMPDEST DUP1 DUP5 ADD SWAP2 POP POP SWAP3 SWAP2 POP POP JUMP JUMPDEST PUSH0 PUSH2 0x4049 DUP3 DUP6 PUSH2 0x400E JUMP JUMPDEST SWAP2 POP PUSH2 0x4055 DUP3 DUP5 PUSH2 0x400E JUMP JUMPDEST SWAP2 POP DUP2 SWAP1 POP SWAP4 SWAP3 POP POP POP JUMP JUMPDEST PUSH32 0x41646472657373206973206E6F7420696E2074686520616C6C6F7765644C6973 PUSH0 DUP3 ADD MSTORE PUSH32 0x7400000000000000000000000000000000000000000000000000000000000000 PUSH1 0x20 DUP3 ADD MSTORE POP JUMP JUMPDEST PUSH0 PUSH2 0x40BB PUSH1 0x21 DUP4 PUSH2 0x3636 JUMP JUMPDEST SWAP2 POP PUSH2 0x40C6 DUP3 PUSH2 0x4061 JUMP JUMPDEST PUSH1 0x40 DUP3 ADD SWAP1 POP SWAP2 SWAP1 POP JUMP JUMPDEST PUSH0 PUSH1 0x20 DUP3 ADD SWAP1 POP DUP2 DUP2 SUB PUSH0 DUP4 ADD MSTORE PUSH2 0x40E8 DUP2 PUSH2 0x40AF JUMP JUMPDEST SWAP1 POP SWAP2 SWAP1 POP JUMP JUMPDEST PUSH32 0x4E487B7100000000000000000000000000000000000000000000000000000000 PUSH0 MSTORE PUSH1 0x11 PUSH1 0x4 MSTORE PUSH1 0x24 PUSH0 REVERT JUMPDEST PUSH0 PUSH2 0x4126 DUP3 PUSH2 0x36BC JUMP JUMPDEST SWAP2 POP PUSH32 0xFFFFFFFFFFFFFFFFFFFFFFFFFFFFFFFFFFFFFFFFFFFFFFFFFFFFFFFFFFFFFFFF DUP3 SUB PUSH2 0x4158 JUMPI PUSH2 0x4157 PUSH2 0x40EF JUMP JUMPDEST JUMPDEST PUSH1 0x1 DUP3 ADD SWAP1 POP SWAP2 SWAP1 POP JUMP JUMPDEST PUSH2 0x416C DUP2 PUSH2 0x3A6B JUMP JUMPDEST DUP2 EQ PUSH2 0x4176 JUMPI PUSH0 PUSH0 REVERT JUMPDEST POP JUMP JUMPDEST PUSH0 DUP2 MLOAD SWAP1 POP PUSH2 0x4187 DUP2 PUSH2 0x4163 JUMP JUMPDEST SWAP3 SWAP2 POP POP JUMP JUMPDEST PUSH0 PUSH1 0x20 DUP3 DUP5 SUB SLT ISZERO PUSH2 0x41A2 JUMPI PUSH2 0x41A1 PUSH2 0x3571 JUMP JUMPDEST JUMPDEST PUSH0 PUSH2 0x41AF DUP5 DUP3 DUP6 ADD PUSH2 0x4179 JUMP JUMPDEST SWAP2 POP POP SWAP3 SWAP2 POP POP JUMP JUMPDEST PUSH0 DUP2 MLOAD SWAP1 POP SWAP2 SWAP1 POP JUMP JUMPDEST PUSH0 DUP3 DUP3 MSTORE PUSH1 0x20 DUP3 ADD SWAP1 POP SWAP3 SWAP2 POP POP JUMP JUMPDEST PUSH0 PUSH2 0x41DC DUP3 PUSH2 0x41B8 JUMP JUMPDEST PUSH2 0x41E6 DUP2 DUP6 PUSH2 0x41C2 JUMP JUMPDEST SWAP4 POP PUSH2 0x41F6 DUP2 DUP6 PUSH1 0x20 DUP7 ADD PUSH2 0x3646 JUMP JUMPDEST PUSH2 0x41FF DUP2 PUSH2 0x3654 JUMP JUMPDEST DUP5 ADD SWAP2 POP POP SWAP3 SWAP2 POP POP JUMP JUMPDEST PUSH0 PUSH1 0x80 DUP3 ADD SWAP1 POP PUSH2 0x421D PUSH0 DUP4 ADD DUP8 PUSH2 0x374A JUMP JUMPDEST PUSH2 0x422A PUSH1 0x20 DUP4 ADD DUP7 PUSH2 0x374A JUMP JUMPDEST PUSH2 0x4237 PUSH1 0x40 DUP4 ADD DUP6 PUSH2 0x37DA JUMP JUMPDEST DUP2 DUP2 SUB PUSH1 0x60 DUP4 ADD MSTORE PUSH2 0x4249 DUP2 DUP5 PUSH2 0x41D2 JUMP JUMPDEST SWAP1 POP SWAP6 SWAP5 POP POP POP POP POP JUMP JUMPDEST PUSH0 DUP2 MLOAD SWAP1 POP PUSH2 0x4262 DUP2 PUSH2 0x35A4 JUMP JUMPDEST SWAP3 SWAP2 POP POP JUMP JUMPDEST PUSH0 PUSH1 0x20 DUP3 DUP5 SUB SLT ISZERO PUSH2 0x427D JUMPI PUSH2 0x427C PUSH2 0x3571 JUMP JUMPDEST JUMPDEST PUSH0 PUSH2 0x428A DUP5 DUP3 DUP6 ADD PUSH2 0x4254 JUMP JUMPDEST SWAP2 POP POP SWAP3 SWAP2 POP POP JUMP JUMPDEST PUSH32 0x4E487B7100000000000000000000000000000000000000000000000000000000 PUSH0 MSTORE PUSH1 0x12 PUSH1 0x4 MSTORE PUSH1 0x24 PUSH0 REVERT JUMPDEST PUSH0 DUP2 SWAP1 POP DUP2 PUSH0 MSTORE PUSH1 0x20 PUSH0 KECCAK256 SWAP1 POP SWAP2 SWAP1 POP JUMP JUMPDEST PUSH0 PUSH1 0x20 PUSH1 0x1F DUP4 ADD DIV SWAP1 POP SWAP2 SWAP1 POP JUMP JUMPDEST PUSH0 DUP3 DUP3 SHL SWAP1 POP SWAP3 SWAP2 POP POP JUMP JUMPDEST PUSH0 PUSH1 0x8 DUP4 MUL PUSH2 0x431C PUSH32 0xFFFFFFFFFFFFFFFFFFFFFFFFFFFFFFFFFFFFFFFFFFFFFFFFFFFFFFFFFFFFFFFF DUP3 PUSH2 0x42E1 JUMP JUMPDEST PUSH2 0x4326 DUP7 DUP4 PUSH2 0x42E1 JUMP JUMPDEST SWAP6 POP DUP1 NOT DUP5 AND SWAP4 POP DUP1 DUP7 AND DUP5 OR SWAP3 POP POP POP SWAP4 SWAP3 POP POP POP JUMP JUMPDEST PUSH0 PUSH2 0x4358 PUSH2 0x4353 PUSH2 0x434E DUP5 PUSH2 0x36BC JUMP JUMPDEST PUSH2 0x3FB2 JUMP JUMPDEST PUSH2 0x36BC JUMP JUMPDEST SWAP1 POP SWAP2 SWAP1 POP JUMP JUMPDEST PUSH0 DUP2 SWAP1 POP SWAP2 SWAP1 POP JUMP JUMPDEST PUSH2 0x4371 DUP4 PUSH2 0x433E JUMP JUMPDEST PUSH2 0x4385 PUSH2 0x437D DUP3 PUSH2 0x435F JUMP JUMPDEST DUP5 DUP5 SLOAD PUSH2 0x42ED JUMP JUMPDEST DUP3 SSTORE POP POP POP POP JUMP JUMPDEST PUSH0 PUSH0 SWAP1 POP SWAP1 JUMP JUMPDEST PUSH2 0x439C PUSH2 0x438D JUMP JUMPDEST PUSH2 0x43A7 DUP2 DUP5 DUP5 PUSH2 0x4368 JUMP JUMPDEST POP POP POP JUMP JUMPDEST JUMPDEST DUP2 DUP2 LT ISZERO PUSH2 0x43CA JUMPI PUSH2 0x43BF PUSH0 DUP3 PUSH2 0x4394 JUMP JUMPDEST PUSH1 0x1 DUP2 ADD SWAP1 POP PUSH2 0x43AD JUMP JUMPDEST POP POP JUMP JUMPDEST PUSH1 0x1F DUP3 GT ISZERO PUSH2 0x440F JUMPI PUSH2 0x43E0 DUP2 PUSH2 0x42C0 JUMP JUMPDEST PUSH2 0x43E9 DUP5 PUSH2 0x42D2 JUMP JUMPDEST DUP2 ADD PUSH1 0x20 DUP6 LT ISZERO PUSH2 0x43F8 JUMPI DUP2 SWAP1 POP JUMPDEST PUSH2 0x440C PUSH2 0x4404 DUP6 PUSH2 0x42D2 JUMP JUMPDEST DUP4 ADD DUP3 PUSH2 0x43AC JUMP JUMPDEST POP POP JUMPDEST POP POP POP JUMP JUMPDEST PUSH0 DUP3 DUP3 SHR SWAP1 POP SWAP3 SWAP2 POP POP JUMP JUMPDEST PUSH0 PUSH2 0x442F PUSH0 NOT DUP5 PUSH1 0x8 MUL PUSH2 0x4414 JUMP JUMPDEST NOT DUP1 DUP4 AND SWAP2 POP POP SWAP3 SWAP2 POP POP JUMP JUMPDEST PUSH0 PUSH2 0x4447 DUP4 DUP4 PUSH2 0x4420 JUMP JUMPDEST SWAP2 POP DUP3 PUSH1 0x2 MUL DUP3 OR SWAP1 POP SWAP3 SWAP2 POP POP JUMP JUMPDEST PUSH2 0x4460 DUP3 PUSH2 0x362C JUMP JUMPDEST PUSH8 0xFFFFFFFFFFFFFFFF DUP2 GT ISZERO PUSH2 0x4479 JUMPI PUSH2 0x4478 PUSH2 0x38ED JUMP JUMPDEST JUMPDEST PUSH2 0x4483 DUP3 SLOAD PUSH2 0x3C6D JUMP JUMPDEST PUSH2 0x448E DUP3 DUP3 DUP6 PUSH2 0x43CE JUMP JUMPDEST PUSH0 PUSH1 0x20 SWAP1 POP PUSH1 0x1F DUP4 GT PUSH1 0x1 DUP2 EQ PUSH2 0x44BF JUMPI PUSH0 DUP5 ISZERO PUSH2 0x44AD JUMPI DUP3 DUP8 ADD MLOAD SWAP1 POP JUMPDEST PUSH2 0x44B7 DUP6 DUP3 PUSH2 0x443C JUMP JUMPDEST DUP7 SSTORE POP PUSH2 0x451E JUMP JUMPDEST PUSH1 0x1F NOT DUP5 AND PUSH2 0x44CD DUP7 PUSH2 0x42C0 JUMP JUMPDEST PUSH0 JUMPDEST DUP3 DUP2 LT ISZERO PUSH2 0x44F4 JUMPI DUP5 DUP10 ADD MLOAD DUP3 SSTORE PUSH1 0x1 DUP3 ADD SWAP2 POP PUSH1 0x20 DUP6 ADD SWAP5 POP PUSH1 0x20 DUP2 ADD SWAP1 POP PUSH2 0x44CF JUMP JUMPDEST DUP7 DUP4 LT ISZERO PUSH2 0x4511 JUMPI DUP5 DUP10 ADD MLOAD PUSH2 0x450D PUSH1 0x1F DUP10 AND DUP3 PUSH2 0x4420 JUMP JUMPDEST DUP4 SSTORE POP JUMPDEST PUSH1 0x1 PUSH1 0x2 DUP9 MUL ADD DUP9 SSTORE POP POP POP JUMPDEST POP POP POP POP POP POP JUMP JUMPDEST PUSH0 DUP2 SWAP1 POP SWAP3 SWAP2 POP POP JUMP JUMPDEST PUSH0 PUSH2 0x453A DUP3 PUSH2 0x41B8 JUMP JUMPDEST PUSH2 0x4544 DUP2 DUP6 PUSH2 0x4526 JUMP JUMPDEST SWAP4 POP PUSH2 0x4554 DUP2 DUP6 PUSH1 0x20 DUP7 ADD PUSH2 0x3646 JUMP JUMPDEST DUP1 DUP5 ADD SWAP2 POP POP SWAP3 SWAP2 POP POP JUMP JUMPDEST PUSH0 PUSH2 0x456B DUP3 DUP5 PUSH2 0x4530 JUMP JUMPDEST SWAP2 POP DUP2 SWAP1 POP SWAP3 SWAP2 POP POP JUMP JUMPDEST PUSH0 PUSH2 0x4580 DUP3 PUSH2 0x36BC JUMP JUMPDEST SWAP2 POP PUSH2 0x458B DUP4 PUSH2 0x36BC JUMP JUMPDEST SWAP3 POP DUP3 DUP3 SUB SWAP1 POP DUP2 DUP2 GT ISZERO PUSH2 0x45A3 JUMPI PUSH2 0x45A2 PUSH2 0x40EF JUMP JUMPDEST JUMPDEST SWAP3 SWAP2 POP POP JUMP JUMPDEST PUSH32 0x4E487B7100000000000000000000000000000000000000000000000000000000 PUSH0 MSTORE PUSH1 0x31 PUSH1 0x4 MSTORE PUSH1 0x24 PUSH0 REVERT INVALID ADDRESS PUSH25 0x63363163663733333863666531373765303333346235373664 ORIGIN ADDRESS CALLER PUSH3 0x353032 CALLDATACOPY CALLER BALANCE CALLDATACOPY CALLDATALOAD PUSH3 0x6539A2 PUSH5 0x6970667358 0x22 SLT KECCAK256 STATICCALL STOP PUSH15 0x5910CADBB7312005C364530A5466DC SMOD 0x27 0xE8 DUP2 0x1E LOG0 DUP11 0xC2 DUP10 0xED 0xE6 PUSH21 0xCC6564736F6C634300081C00330000000000000000 "
		},
		"gasEstimates": {
			"creation": {
				"codeDepositCost": "3594800",
				"executionCost": "infinite",
				"totalCost": "infinite"
			},
			"external": {
				"UPGRADE_INTERFACE_VERSION()": "infinite",
				"addToAllowList(address)": "infinite",
				"allowList(address)": "2879",
				"allowListMint()": "infinite",
				"allowListMintOpen()": "2627",
				"approve(address,uint256)": "infinite",
				"balanceOf(address)": "infinite",
				"burn(uint256)": "infinite",
				"editMintWindows(bool,bool)": "infinite",
				"getApproved(uint256)": "infinite",
				"initialize(address)": "infinite",
				"isApprovedForAll(address,address)": "infinite",
				"name()": "infinite",
				"owner()": "2677",
				"ownerOf(uint256)": "infinite",
				"pause()": "infinite",
				"paused()": "2592",
				"proxiableUUID()": "infinite",
				"publicMint()": "infinite",
				"publicMintOpen()": "2577",
				"removeFromAllowList(address)": "infinite",
				"renounceOwnership()": "infinite",
				"safeTransferFrom(address,address,uint256)": "infinite",
				"safeTransferFrom(address,address,uint256,bytes)": "infinite",
				"setAllowList(address[])": "infinite",
				"setApprovalForAll(address,bool)": "infinite",
				"supportsInterface(bytes4)": "940",
				"symbol()": "infinite",
				"test()": "infinite",
				"tokenByIndex(uint256)": "infinite",
				"tokenOfOwnerByIndex(address,uint256)": "infinite",
				"tokenURI(uint256)": "infinite",
				"totalSupply()": "2582",
				"transferFrom(address,address,uint256)": "infinite",
				"transferOwnership(address)": "infinite",
				"unpause()": "infinite",
				"upgradeToAndCall(address,bytes)": "infinite",
				"withdraw(address)": "infinite"
			},
			"internal": {
				"_authorizeUpgrade(address)": "infinite",
				"_baseURI()": "infinite",
				"_increaseBalance(address,uint128)": "infinite",
				"_update(address,uint256,address)": "infinite",
				"internalMint()": "infinite"
			}
		},
		"methodIdentifiers": {
			"UPGRADE_INTERFACE_VERSION()": "ad3cb1cc",
			"addToAllowList(address)": "31f59102",
			"allowList(address)": "2848aeaf",
			"allowListMint()": "102a6a73",
			"allowListMintOpen()": "085c9bac",
			"approve(address,uint256)": "095ea7b3",
			"balanceOf(address)": "70a08231",
			"burn(uint256)": "42966c68",
			"editMintWindows(bool,bool)": "2f48de79",
			"getApproved(uint256)": "081812fc",
			"initialize(address)": "c4d66de8",
			"isApprovedForAll(address,address)": "e985e9c5",
			"name()": "06fdde03",
			"owner()": "8da5cb5b",
			"ownerOf(uint256)": "6352211e",
			"pause()": "8456cb59",
			"paused()": "5c975abb",
			"proxiableUUID()": "52d1902d",
			"publicMint()": "26092b83",
			"publicMintOpen()": "bcc9ca5b",
			"removeFromAllowList(address)": "eba8dabc",
			"renounceOwnership()": "715018a6",
			"safeTransferFrom(address,address,uint256)": "42842e0e",
			"safeTransferFrom(address,address,uint256,bytes)": "b88d4fde",
			"setAllowList(address[])": "6447c35d",
			"setApprovalForAll(address,bool)": "a22cb465",
			"supportsInterface(bytes4)": "01ffc9a7",
			"symbol()": "95d89b41",
			"test()": "f8a8fd6d",
			"tokenByIndex(uint256)": "4f6ccce7",
			"tokenOfOwnerByIndex(address,uint256)": "2f745c59",
			"tokenURI(uint256)": "c87b56dd",
			"totalSupply()": "18160ddd",
			"transferFrom(address,address,uint256)": "23b872dd",
			"transferOwnership(address)": "f2fde38b",
			"unpause()": "3f4ba83a",
			"upgradeToAndCall(address,bytes)": "4f1ef286",
			"withdraw(address)": "51cff8d9"
		}
	},
	"abi": [
		{
			"inputs": [],
			"stateMutability": "nonpayable",
			"type": "constructor"
		},
		{
			"inputs": [
				{
					"internalType": "address",
					"name": "target",
					"type": "address"
				}
			],
			"name": "AddressEmptyCode",
			"type": "error"
		},
		{
			"inputs": [
				{
					"internalType": "address",
					"name": "implementation",
					"type": "address"
				}
			],
			"name": "ERC1967InvalidImplementation",
			"type": "error"
		},
		{
			"inputs": [],
			"name": "ERC1967NonPayable",
			"type": "error"
		},
		{
			"inputs": [],
			"name": "ERC721EnumerableForbiddenBatchMint",
			"type": "error"
		},
		{
			"inputs": [
				{
					"internalType": "address",
					"name": "sender",
					"type": "address"
				},
				{
					"internalType": "uint256",
					"name": "tokenId",
					"type": "uint256"
				},
				{
					"internalType": "address",
					"name": "owner",
					"type": "address"
				}
			],
			"name": "ERC721IncorrectOwner",
			"type": "error"
		},
		{
			"inputs": [
				{
					"internalType": "address",
					"name": "operator",
					"type": "address"
				},
				{
					"internalType": "uint256",
					"name": "tokenId",
					"type": "uint256"
				}
			],
			"name": "ERC721InsufficientApproval",
			"type": "error"
		},
		{
			"inputs": [
				{
					"internalType": "address",
					"name": "approver",
					"type": "address"
				}
			],
			"name": "ERC721InvalidApprover",
			"type": "error"
		},
		{
			"inputs": [
				{
					"internalType": "address",
					"name": "operator",
					"type": "address"
				}
			],
			"name": "ERC721InvalidOperator",
			"type": "error"
		},
		{
			"inputs": [
				{
					"internalType": "address",
					"name": "owner",
					"type": "address"
				}
			],
			"name": "ERC721InvalidOwner",
			"type": "error"
		},
		{
			"inputs": [
				{
					"internalType": "address",
					"name": "receiver",
					"type": "address"
				}
			],
			"name": "ERC721InvalidReceiver",
			"type": "error"
		},
		{
			"inputs": [
				{
					"internalType": "address",
					"name": "sender",
					"type": "address"
				}
			],
			"name": "ERC721InvalidSender",
			"type": "error"
		},
		{
			"inputs": [
				{
					"internalType": "uint256",
					"name": "tokenId",
					"type": "uint256"
				}
			],
			"name": "ERC721NonexistentToken",
			"type": "error"
		},
		{
			"inputs": [
				{
					"internalType": "address",
					"name": "owner",
					"type": "address"
				},
				{
					"internalType": "uint256",
					"name": "index",
					"type": "uint256"
				}
			],
			"name": "ERC721OutOfBoundsIndex",
			"type": "error"
		},
		{
			"inputs": [],
			"name": "EnforcedPause",
			"type": "error"
		},
		{
			"inputs": [],
			"name": "ExpectedPause",
			"type": "error"
		},
		{
			"inputs": [],
			"name": "FailedCall",
			"type": "error"
		},
		{
			"inputs": [],
			"name": "InvalidInitialization",
			"type": "error"
		},
		{
			"inputs": [],
			"name": "NotInitializing",
			"type": "error"
		},
		{
			"inputs": [
				{
					"internalType": "address",
					"name": "owner",
					"type": "address"
				}
			],
			"name": "OwnableInvalidOwner",
			"type": "error"
		},
		{
			"inputs": [
				{
					"internalType": "address",
					"name": "account",
					"type": "address"
				}
			],
			"name": "OwnableUnauthorizedAccount",
			"type": "error"
		},
		{
			"inputs": [],
			"name": "UUPSUnauthorizedCallContext",
			"type": "error"
		},
		{
			"inputs": [
				{
					"internalType": "bytes32",
					"name": "slot",
					"type": "bytes32"
				}
			],
			"name": "UUPSUnsupportedProxiableUUID",
			"type": "error"
		},
		{
			"anonymous": false,
			"inputs": [
				{
					"indexed": true,
					"internalType": "address",
					"name": "owner",
					"type": "address"
				},
				{
					"indexed": true,
					"internalType": "address",
					"name": "approved",
					"type": "address"
				},
				{
					"indexed": true,
					"internalType": "uint256",
					"name": "tokenId",
					"type": "uint256"
				}
			],
			"name": "Approval",
			"type": "event"
		},
		{
			"anonymous": false,
			"inputs": [
				{
					"indexed": true,
					"internalType": "address",
					"name": "owner",
					"type": "address"
				},
				{
					"indexed": true,
					"internalType": "address",
					"name": "operator",
					"type": "address"
				},
				{
					"indexed": false,
					"internalType": "bool",
					"name": "approved",
					"type": "bool"
				}
			],
			"name": "ApprovalForAll",
			"type": "event"
		},
		{
			"anonymous": false,
			"inputs": [
				{
					"indexed": false,
					"internalType": "uint64",
					"name": "version",
					"type": "uint64"
				}
			],
			"name": "Initialized",
			"type": "event"
		},
		{
			"anonymous": false,
			"inputs": [
				{
					"indexed": true,
					"internalType": "address",
					"name": "previousOwner",
					"type": "address"
				},
				{
					"indexed": true,
					"internalType": "address",
					"name": "newOwner",
					"type": "address"
				}
			],
			"name": "OwnershipTransferred",
			"type": "event"
		},
		{
			"anonymous": false,
			"inputs": [
				{
					"indexed": false,
					"internalType": "address",
					"name": "account",
					"type": "address"
				}
			],
			"name": "Paused",
			"type": "event"
		},
		{
			"anonymous": false,
			"inputs": [
				{
					"indexed": true,
					"internalType": "address",
					"name": "from",
					"type": "address"
				},
				{
					"indexed": true,
					"internalType": "address",
					"name": "to",
					"type": "address"
				},
				{
					"indexed": true,
					"internalType": "uint256",
					"name": "tokenId",
					"type": "uint256"
				}
			],
			"name": "Transfer",
			"type": "event"
		},
		{
			"anonymous": false,
			"inputs": [
				{
					"indexed": false,
					"internalType": "address",
					"name": "account",
					"type": "address"
				}
			],
			"name": "Unpaused",
			"type": "event"
		},
		{
			"anonymous": false,
			"inputs": [
				{
					"indexed": true,
					"internalType": "address",
					"name": "implementation",
					"type": "address"
				}
			],
			"name": "Upgraded",
			"type": "event"
		},
		{
			"inputs": [],
			"name": "UPGRADE_INTERFACE_VERSION",
			"outputs": [
				{
					"internalType": "string",
					"name": "",
					"type": "string"
				}
			],
			"stateMutability": "view",
			"type": "function"
		},
		{
			"inputs": [
				{
					"internalType": "address",
					"name": "_address",
					"type": "address"
				}
			],
			"name": "addToAllowList",
			"outputs": [],
			"stateMutability": "nonpayable",
			"type": "function"
		},
		{
			"inputs": [
				{
					"internalType": "address",
					"name": "",
					"type": "address"
				}
			],
			"name": "allowList",
			"outputs": [
				{
					"internalType": "bool",
					"name": "",
					"type": "bool"
				}
			],
			"stateMutability": "view",
			"type": "function"
		},
		{
			"inputs": [],
			"name": "allowListMint",
			"outputs": [],
			"stateMutability": "payable",
			"type": "function"
		},
		{
			"inputs": [],
			"name": "allowListMintOpen",
			"outputs": [
				{
					"internalType": "bool",
					"name": "",
					"type": "bool"
				}
			],
			"stateMutability": "view",
			"type": "function"
		},
		{
			"inputs": [
				{
					"internalType": "address",
					"name": "to",
					"type": "address"
				},
				{
					"internalType": "uint256",
					"name": "tokenId",
					"type": "uint256"
				}
			],
			"name": "approve",
			"outputs": [],
			"stateMutability": "nonpayable",
			"type": "function"
		},
		{
			"inputs": [
				{
					"internalType": "address",
					"name": "owner",
					"type": "address"
				}
			],
			"name": "balanceOf",
			"outputs": [
				{
					"internalType": "uint256",
					"name": "",
					"type": "uint256"
				}
			],
			"stateMutability": "view",
			"type": "function"
		},
		{
			"inputs": [
				{
					"internalType": "uint256",
					"name": "tokenId",
					"type": "uint256"
				}
			],
			"name": "burn",
			"outputs": [],
			"stateMutability": "nonpayable",
			"type": "function"
		},
		{
			"inputs": [
				{
					"internalType": "bool",
					"name": "_publicMintOpen",
					"type": "bool"
				},
				{
					"internalType": "bool",
					"name": "_allowListMintOpen",
					"type": "bool"
				}
			],
			"name": "editMintWindows",
			"outputs": [],
			"stateMutability": "nonpayable",
			"type": "function"
		},
		{
			"inputs": [
				{
					"internalType": "uint256",
					"name": "tokenId",
					"type": "uint256"
				}
			],
			"name": "getApproved",
			"outputs": [
				{
					"internalType": "address",
					"name": "",
					"type": "address"
				}
			],
			"stateMutability": "view",
			"type": "function"
		},
		{
			"inputs": [
				{
					"internalType": "address",
					"name": "initialOwner",
					"type": "address"
				}
			],
			"name": "initialize",
			"outputs": [],
			"stateMutability": "nonpayable",
			"type": "function"
		},
		{
			"inputs": [
				{
					"internalType": "address",
					"name": "owner",
					"type": "address"
				},
				{
					"internalType": "address",
					"name": "operator",
					"type": "address"
				}
			],
			"name": "isApprovedForAll",
			"outputs": [
				{
					"internalType": "bool",
					"name": "",
					"type": "bool"
				}
			],
			"stateMutability": "view",
			"type": "function"
		},
		{
			"inputs": [],
			"name": "name",
			"outputs": [
				{
					"internalType": "string",
					"name": "",
					"type": "string"
				}
			],
			"stateMutability": "view",
			"type": "function"
		},
		{
			"inputs": [],
			"name": "owner",
			"outputs": [
				{
					"internalType": "address",
					"name": "",
					"type": "address"
				}
			],
			"stateMutability": "view",
			"type": "function"
		},
		{
			"inputs": [
				{
					"internalType": "uint256",
					"name": "tokenId",
					"type": "uint256"
				}
			],
			"name": "ownerOf",
			"outputs": [
				{
					"internalType": "address",
					"name": "",
					"type": "address"
				}
			],
			"stateMutability": "view",
			"type": "function"
		},
		{
			"inputs": [],
			"name": "pause",
			"outputs": [],
			"stateMutability": "nonpayable",
			"type": "function"
		},
		{
			"inputs": [],
			"name": "paused",
			"outputs": [
				{
					"internalType": "bool",
					"name": "",
					"type": "bool"
				}
			],
			"stateMutability": "view",
			"type": "function"
		},
		{
			"inputs": [],
			"name": "proxiableUUID",
			"outputs": [
				{
					"internalType": "bytes32",
					"name": "",
					"type": "bytes32"
				}
			],
			"stateMutability": "view",
			"type": "function"
		},
		{
			"inputs": [],
			"name": "publicMint",
			"outputs": [],
			"stateMutability": "payable",
			"type": "function"
		},
		{
			"inputs": [],
			"name": "publicMintOpen",
			"outputs": [
				{
					"internalType": "bool",
					"name": "",
					"type": "bool"
				}
			],
			"stateMutability": "view",
			"type": "function"
		},
		{
			"inputs": [
				{
					"internalType": "address",
					"name": "_address",
					"type": "address"
				}
			],
			"name": "removeFromAllowList",
			"outputs": [],
			"stateMutability": "nonpayable",
			"type": "function"
		},
		{
			"inputs": [],
			"name": "renounceOwnership",
			"outputs": [],
			"stateMutability": "nonpayable",
			"type": "function"
		},
		{
			"inputs": [
				{
					"internalType": "address",
					"name": "from",
					"type": "address"
				},
				{
					"internalType": "address",
					"name": "to",
					"type": "address"
				},
				{
					"internalType": "uint256",
					"name": "tokenId",
					"type": "uint256"
				}
			],
			"name": "safeTransferFrom",
			"outputs": [],
			"stateMutability": "nonpayable",
			"type": "function"
		},
		{
			"inputs": [
				{
					"internalType": "address",
					"name": "from",
					"type": "address"
				},
				{
					"internalType": "address",
					"name": "to",
					"type": "address"
				},
				{
					"internalType": "uint256",
					"name": "tokenId",
					"type": "uint256"
				},
				{
					"internalType": "bytes",
					"name": "data",
					"type": "bytes"
				}
			],
			"name": "safeTransferFrom",
			"outputs": [],
			"stateMutability": "nonpayable",
			"type": "function"
		},
		{
			"inputs": [
				{
					"internalType": "address[]",
					"name": "addresses",
					"type": "address[]"
				}
			],
			"name": "setAllowList",
			"outputs": [],
			"stateMutability": "nonpayable",
			"type": "function"
		},
		{
			"inputs": [
				{
					"internalType": "address",
					"name": "operator",
					"type": "address"
				},
				{
					"internalType": "bool",
					"name": "approved",
					"type": "bool"
				}
			],
			"name": "setApprovalForAll",
			"outputs": [],
			"stateMutability": "nonpayable",
			"type": "function"
		},
		{
			"inputs": [
				{
					"internalType": "bytes4",
					"name": "interfaceId",
					"type": "bytes4"
				}
			],
			"name": "supportsInterface",
			"outputs": [
				{
					"internalType": "bool",
					"name": "",
					"type": "bool"
				}
			],
			"stateMutability": "view",
			"type": "function"
		},
		{
			"inputs": [],
			"name": "symbol",
			"outputs": [
				{
					"internalType": "string",
					"name": "",
					"type": "string"
				}
			],
			"stateMutability": "view",
			"type": "function"
		},
		{
			"inputs": [],
			"name": "test",
			"outputs": [
				{
					"internalType": "string",
					"name": "",
					"type": "string"
				}
			],
			"stateMutability": "pure",
			"type": "function"
		},
		{
			"inputs": [
				{
					"internalType": "uint256",
					"name": "index",
					"type": "uint256"
				}
			],
			"name": "tokenByIndex",
			"outputs": [
				{
					"internalType": "uint256",
					"name": "",
					"type": "uint256"
				}
			],
			"stateMutability": "view",
			"type": "function"
		},
		{
			"inputs": [
				{
					"internalType": "address",
					"name": "owner",
					"type": "address"
				},
				{
					"internalType": "uint256",
					"name": "index",
					"type": "uint256"
				}
			],
			"name": "tokenOfOwnerByIndex",
			"outputs": [
				{
					"internalType": "uint256",
					"name": "",
					"type": "uint256"
				}
			],
			"stateMutability": "view",
			"type": "function"
		},
		{
			"inputs": [
				{
					"internalType": "uint256",
					"name": "tokenId",
					"type": "uint256"
				}
			],
			"name": "tokenURI",
			"outputs": [
				{
					"internalType": "string",
					"name": "",
					"type": "string"
				}
			],
			"stateMutability": "view",
			"type": "function"
		},
		{
			"inputs": [],
			"name": "totalSupply",
			"outputs": [
				{
					"internalType": "uint256",
					"name": "",
					"type": "uint256"
				}
			],
			"stateMutability": "view",
			"type": "function"
		},
		{
			"inputs": [
				{
					"internalType": "address",
					"name": "from",
					"type": "address"
				},
				{
					"internalType": "address",
					"name": "to",
					"type": "address"
				},
				{
					"internalType": "uint256",
					"name": "tokenId",
					"type": "uint256"
				}
			],
			"name": "transferFrom",
			"outputs": [],
			"stateMutability": "nonpayable",
			"type": "function"
		},
		{
			"inputs": [
				{
					"internalType": "address",
					"name": "newOwner",
					"type": "address"
				}
			],
			"name": "transferOwnership",
			"outputs": [],
			"stateMutability": "nonpayable",
			"type": "function"
		},
		{
			"inputs": [],
			"name": "unpause",
			"outputs": [],
			"stateMutability": "nonpayable",
			"type": "function"
		},
		{
			"inputs": [
				{
					"internalType": "address",
					"name": "newImplementation",
					"type": "address"
				},
				{
					"internalType": "bytes",
					"name": "data",
					"type": "bytes"
				}
			],
			"name": "upgradeToAndCall",
			"outputs": [],
			"stateMutability": "payable",
			"type": "function"
		},
		{
			"inputs": [
				{
					"internalType": "address",
					"name": "_addr",
					"type": "address"
				}
			],
			"name": "withdraw",
			"outputs": [],
			"stateMutability": "nonpayable",
			"type": "function"
		}
	]
}